AZANC91 ZANDER GP940 V1.25
HFDTE020714
HFFXA050
HFPLT Pilot             :Hans Otto Edelhoff                      
HFGTY Glider type       :Ventus 2a                               
HFGID Glider ID         :D-4547    
HFDTM100 GPS Datum      :WGS84
HFRFW Firmware Version  :1.25
HFRHW Hardware version  :A
HFFTY FR Type           :ZANDER GP940
HFGPS                   :Motorola,VP ONCORE,8,30000
HFPRS Press Alt Sensor  :Motorola,MPX100A,10000
HFCCL Competition Class :FAI 15m Klasse                          
HFCID Competition ID    :47        
I023638IAS3941ENL
J020810WDI1113WVE
LZAN 082647 PowerOn
C020714073513020714000102
C5126200N00741983E ISERLOHN SUE
C5126200N00741983E ISERLOHN SUE
C5000733N01015083E SCHWEINFURT 
C4905716N00747616E BUNDENTHAL R
C5126200N00741983E ISERLOHN SUE
C5126200N00741983E ISERLOHN SUE
B0826515119545N00743075EV0010200000015000
B0826555119545N00743075EV0010200000017000
B0826595119545N00743075EV0010200000015000
B0827035119545N00743075EV0010200000015000
C020714082704020714000102
C5126200N00741983E ISERLOHN SUE
C5126200N00741983E ISERLOHN SUE
C5000733N01015083E SCHWEINFURT 
C4905716N00747616E BUNDENTHAL R
C5126200N00741983E ISERLOHN SUE
C5126200N00741983E ISERLOHN SUE
B0827075119545N00743075EV0010100000015000
B0827115119545N00743075EV0010100000014000
B0827155119545N00743075EV0010000000015000
B0827195119545N00743075EV0010000000015000
B0827235119545N00743075EV0010000000015000
B0827275119545N00743075EV0010000000015000
B0827315119545N00743075EV0010000000014000
B0827355119545N00743075EV0010000000017000
B0827395119545N00743075EV0010000000015000
B0827435119545N00743075EV0010100000014000
B0827475119545N00743075EV0010100000007000
B0827515119545N00743075EV0010000000007000
B0827555119545N00743075EV0010100000000000
B0827595119545N00743075EV0010000000007000
B0828035119545N00743075EV0010000000009000
B0828075126270N00741825EA0010100000007000
B0828115126266N00741825EA0010100000007000
B0828155126266N00741829EA0010100000009000
B0828195126266N00741829EA0010100000009000
B0828205126266N00741829EA0010100000009000
B0828215126266N00741829EA0010000000007000
B0828225126266N00741829EA0010000000007000
B0828235126266N00741829EA0010000000007000
B0828245126266N00741829EA0010000000007000
B0828255126266N00741829EA0010000000007000
B0828265126266N00741829EA0010000000007000
B0828275126266N00741829EA0010100000007000
B0828285126266N00741829EA0010100000007000
B0828315126266N00741829EA0010100000007000
B0828355126266N00741829EA0010100000007000
B0828395126266N00741829EA0010000000000000
B0828435126266N00741829EA0010000000007000
B0828475126262N00741833EA0010000000007000
B0828515126266N00741833EA0010000000007000
B0828555126266N00741833EA0010000000007000
B0828595126266N00741875EA0010000000007000
B0829035126266N00741875EA0010000000009000
B0829075125995N00741750EA0010000168009000
B0829115125995N00741750EA0010000168009000
B0829155125995N00741750EA0010100168007000
B0829195125995N00741750EA0010100168000000
B0829235125995N00741750EA0010000168007000
B0829275125995N00741750EA0010000168007000
B0829315125995N00741750EA0010000168007000
B0829355125995N00741750EA0010000168007000
B0829395125995N00741750EA0010000168009000
B0829435125995N00741750EA0010000168007000
B0829475125995N00741750EA0010000168007000
B0829515125995N00741750EA0010000168007000
B0829555125995N00741750EA0010000168007000
B0829595125995N00741750EA0010000168007000
B0830035125995N00741750EA0010000168007000
B0830075125995N00741750EA0010000168007000
B0830115125995N00741750EA0010000168007000
B0830155125995N00741750EA0010000168007000
B0830195125995N00741750EA0010000168007000
B0830235125995N00741750EA0010000168007000
B0830275125995N00741750EA0010000168009000
B0830315125991N00741750EA0010000168007000
B0830355125991N00741750EA0010100168009000
B0830395125991N00741750EA0009900168007000
B0830435125991N00741750EA0010000168007000
B0830475125991N00741750EA0010000168007000
B0830515125991N00741750EA0010000168007000
B0830555125991N00741750EA0009900168007000
B0830595125991N00741750EA0009900168007000
B0831035125991N00741750EA0010100168009000
B0831075125991N00741750EA0010000168009000
B0831115125991N00741750EA0009900168009000
B0831155125991N00741750EA0009900168007000
B0831195125991N00741750EA0009900168009000
B0831235125991N00741750EA0009900168009000
B0831275125991N00741750EA0009900168009000
B0831315125991N00741750EA0009900168012000
B0831355125991N00741750EA0009900168009000
B0831395125991N00741754EA0010000168009000
B0831435125991N00741754EA0009900168007000
B0831475125991N00741754EA0009900168009000
B0831515125991N00741754EA0009900168007000
B0831555125991N00741754EA0009900168012000
B0831595125991N00741754EA0010000168007000
B0832035125991N00741754EA0010000168009000
B0832075125991N00741754EA0010000168007000
B0832115125991N00741754EA0009900168012000
B0832155125991N00741754EA0009900168012000
B0832195125991N00741754EA0010000168009000
B0832235125991N00741754EA0009900168009000
B0832275125991N00741754EA0010000168007000
B0832315125991N00741754EA0009900168012000
B0832355125991N00741754EA0010000168012000
B0832395125995N00741754EA0009800168012000
B0832435125995N00741754EA0009900168009000
B0832475125995N00741754EA0009800168009000
B0832515125995N00741754EA0009900168007000
B0832555125995N00741754EA0009800168009000
B0832595125995N00741754EA0009700168007000
B0833035125995N00741754EA0009800168012000
B0833075125995N00741754EA0009800168007000
B0833115125995N00741754EA0009700168009000
B0833155125995N00741754EA0009800168009000
B0833195125995N00741754EA0009800168009000
B0833235125995N00741754EA0009700168007000
B0833275125995N00741754EA0009900168007000
B0833315125995N00741754EA0009900176012000
B0833355125995N00741754EA0009800176007000
B0833395125995N00741754EA0009800168009000
B0833435125995N00741754EA0009900168007000
B0833475125995N00741754EA0009800168009000
B0833515125995N00741754EA0009700168000000
B0833555125995N00741754EA0009900168014000
B0833595125995N00741754EA0009800168009000
B0834035125995N00741754EA0009900168007000
B0834075125995N00741754EA0009700168012000
B0834115125995N00741754EA0009900168012000
B0834155125995N00741754EA0009800168012000
B0834195125995N00741754EA0009800168012000
B0834235125995N00741754EA0009800168014000
B0834275125995N00741754EA0009800168009000
B0834315125995N00741754EA0009900176012000
B0834355125995N00741754EA0009800176012000
B0834395125995N00741754EA0009800176009010
B0834435125995N00741754EA0009800176009000
B0834475125995N00741754EA0009800176012000
B0834515125995N00741754EA0009800176009000
B0834555125995N00741754EA0009800176012000
B0834595125995N00741754EA0009700176012000
B0835035125995N00741754EA0009800176014000
B0835075125995N00741754EA0009700176015000
B0835115125995N00741754EA0009700176009000
B0835155125995N00741754EA0009800176009000
B0835195125995N00741754EA0009800176012000
B0835235125995N00741754EA0009700176014000
B0835275125995N00741754EA0009800168014000
B0835315125995N00741754EA0009800168014000
B0835355125995N00741754EA0009700168012000
B0835395125995N00741754EA0009800168015000
B0835435125995N00741754EA0009800168014000
B0835475125995N00741754EA0009700168015000
B0835515125995N00741754EA0009700168015000
B0835555125995N00741754EA0009800168015000
B0835595125995N00741754EA0009800168023000
B0836035125995N00741754EA0009800168017000
B0836075125995N00741754EA0009800168022000
B0836115126000N00741762EA0009800168053000
B0836155126016N00741783EA0009500168062100
B0836175126025N00741800EA0009500168090100
B0836185126033N00741808EA0009500168090100
B0836195126037N00741816EA0009300168081100
B0836205126045N00741825EA0009400168098100
B0836215126054N00741837EA0009400168090100
K083621180010
B0836225126062N00741850EA0009100168086100
B0836235126070N00741862EA0008900168101100
B0836245126083N00741875EA0009100168111100
B0836255126091N00741887EA0008800160098010
B0836265126104N00741904EA0008700160101010
B0836275126112N00741920EA0008700160129010
B0836285126125N00741937EA0008800160118010
B0836295126137N00741954EA0009200160098010
B0836305126150N00741970EA0009100160098010
B0836315126158N00741987EA0008900160107000
B0836355126212N00742062EA0009400168114000
B0836395126270N00742133EA0010200176120000
K083639180004
B0836435126325N00742208EA0011300184119000
B0836475126379N00742283EA0013000200115000
B0836515126437N00742350EA0014100216119000
B0836555126483N00742429EA0015200224111000
B0836595126520N00742529EA0016000232118000
K083659180003
B0837035126545N00742637EA0017000248117000
B0837075126562N00742754EA0017900256124000
B0837115126575N00742866EA0019100264119000
B0837155126591N00742983EA0019600272122000
B0837195126604N00743100EA0020500280119000
K083719180002
B0837235126620N00743216EA0021000288119000
B0837275126633N00743333EA0022000296120000
B0837315126645N00743450EA0023200312116000
B0837355126650N00743566EA0024600320114000
B0837395126645N00743683EA0025600336115000
K083739180005
B0837435126633N00743804EA0026800344119000
B0837475126604N00743912EA0029400368110000
B0837515126566N00744008EA0030800384111000
B0837555126525N00744104EA0031400392113000
B0837595126483N00744195EA0033400408112000
K083759180006
B0838035126441N00744287EA0034100416113000
B0838075126395N00744383EA0034800424119000
B0838115126354N00744486EA0035000424123000
B0838155126308N00744591EA0035900440114000
B0838195126266N00744691EA0036600440119000
K083819180008
B0838235126216N00744791EA0037300456118000
B0838275126166N00744883EA0038800464114000
B0838315126108N00744962EA0039800480118000
B0838355126041N00745029EA0040900488112000
B0838395125970N00745075EA0042000496107000
K083839180011
B0838435125895N00745100EA0042300504113000
B0838475125820N00745108EA0043200512112000
B0838515125745N00745091EA0044000520117000
B0838555125670N00745050EA0045300536116000
B0838595125600N00744995EA0047000552117000
K083859180011
B0839035125537N00744929EA0049000568119000
B0839075125475N00744858EA0050200584117000
B0839115125416N00744787EA0051300592111000
B0839155125358N00744712EA0052900608119000
B0839195125304N00744641EA0054000616121000
K083919180004
B0839235125245N00744575EA0055500632119000
B0839275125187N00744495EA0056600648118000
B0839315125137N00744412EA0057100648121000
B0839355125087N00744316EA0058000664122000
B0839395125037N00744225EA0059000672120000
K083939180002
B0839435124995N00744125EA0060100680119000
B0839475124950N00744025EA0061100688121000
B0839515124912N00743920EA0061700696123000
B0839555124879N00743808EA0062700704123000
B0839595124850N00743695EA0063600720122000
K083959180003
B0840035124833N00743575EA0064600728126000
B0840075124820N00743458EA0066000744119000
B0840115124825N00743337EA0067700752119000
B0840155124833N00743216EA0068400760123000
B0840195124854N00743100EA0068900768125000
K084019180001
B0840235124879N00742987EA0070000776126000
B0840275124912N00742883EA0071000792124000
B0840315124950N00742779EA0071600800126000
B0840355124995N00742687EA0072400808123000
B0840395125045N00742600EA0073500816123000
K084039000005
B0840435125095N00742516EA0075100832122000
B0840475125154N00742441EA0075400840125000
B0840515125216N00742370EA0076100840124000
B0840555125283N00742316EA0077000848124000
B0840595125354N00742270EA0077600856125000
K084059000002
B0841035125425N00742233EA0078000864124000
B0841075125495N00742200EA0079300872118000
B0841115125566N00742166EA0080200880121000
B0841155125637N00742141EA0080900888118000
B0841195125704N00742120EA0081800896118000
K084119000003
B0841235125775N00742104EA0082500904119000
B0841275125845N00742087EA0084000920122000
B0841315125916N00742075EA0084800928120000
B0841355125991N00742062EA0085700936121000
B0841375126025N00742058EA0086300944119000
B0841385126045N00742054EA0086300944119000
B0841395126062N00742050EA0086600944118000
B0841405126079N00742041EA0086700944120000
B0841415126095N00742037EA0086700952119000
K084141000004
B0841425126116N00742033EA0086800952118000
B0841435126133N00742029EA0086800952118000
B0841445126150N00742029EA0087200952113000
B0841455126166N00742025EA0087300952111000
B0841465126187N00742020EA0087200952114000
B0841475126204N00742016EA0086900952106000
B0841515126270N00741991EA0085400936119000
B0841555126341N00741954EA0084100928129000
B0841595126408N00741891EA0083800920127000
K084159000003
B0842035126462N00741800EA0084000920107000
B0842075126462N00741679EA0083600920119000
B0842115126416N00741579EA0082500912119000
B0842155126333N00741550EA0081500896131000
B0842195126254N00741591EA0081000896135000
K084219000003
B0842235126175N00741641EA0080800896127000
B0842245126154N00741658EA0081200896124000
B0842255126137N00741666EA0081700896117000
B0842265126116N00741675EA0082100904110000
B0842275126100N00741683EA0082100904112000
B0842285126083N00741695EA0082100904110000
B0842295126062N00741704EA0082100904111000
B0842305126045N00741716EA0082000904114000
B0842315126029N00741729EA0081800904114000
B0842325126012N00741741EA0081700896116000
B0842355125962N00741783EA0080900896120000
B0842395125895N00741862EA0080300888124000
K084239180001
B0842435125825N00741937EA0079500880130000
B0842475125745N00741987EA0079300872124000
B0842515125666N00742025EA0078800872122000
B0842555125587N00742062EA0078500872125000
B0842595125508N00742091EA0078700872123000
K084259180006
B0843035125429N00742116EA0078600872124000
B0843075125350N00742137EA0078500872125000
B0843115125270N00742145EA0077500856123000
B0843155125187N00742154EA0076400848128000
B0843195125100N00742166EA0076000840128000
K084319180006
B0843235125020N00742183EA0076100840127000
B0843275124945N00742204EA0076600848113000
B0843315124875N00742229EA0076400848108000
B0843355124804N00742250EA0075200832113000
B0843395124729N00742270EA0074800832117000
K084339180005
B0843435124658N00742283EA0075300832115000
B0843475124583N00742312EA0075200832111000
B0843515124512N00742354EA0074400824122000
B0843555124441N00742420EA0074100824124000
B0843595124362N00742491EA0074900832125000
K084359180008
B0844035124291N00742462EA0076900848095000
B0844075124270N00742362EA0076100840108000
B0844115124308N00742275EA0075400832098000
B0844155124375N00742254EA0076000840098000
B0844195124433N00742295EA0076700848101000
K084419180008
B0844235124470N00742379EA0077200856103000
B0844275124462N00742487EA0077300856105000
B0844315124400N00742558EA0077400856114000
B0844355124325N00742550EA0077400856114000
B0844395124275N00742450EA0077100848099000
K084439026005
B0844435124279N00742337EA0077500856104000
B0844475124325N00742262EA0078000864096000
B0844515124387N00742254EA0076900848108000
B0844555124437N00742333EA0077300856114000
B0844595124458N00742445EA0078100864113000
K084459038010
B0845035124433N00742554EA0079600880104000
B0845075124366N00742608EA0078700872119000
B0845115124291N00742583EA0078800872115000
B0845155124237N00742495EA0079300872110000
B0845195124225N00742387EA0080100880098000
K084519036008
B0845235124258N00742300EA0079100872105000
B0845275124325N00742287EA0077200856128000
B0845315124400N00742329EA0078400864119000
B0845355124433N00742429EA0080100888110000
B0845395124391N00742512EA0081300896103000
K084539338010
B0845435124320N00742483EA0081500896110000
B0845475124300N00742370EA0081700896111000
B0845515124341N00742287EA0083000912107000
B0845555124408N00742291EA0083600920100000
B0845595124450N00742379EA0082400904115000
K084559002008
B0846035124437N00742504EA0082100904122000
B0846075124375N00742579EA0084200928111000
B0846115124300N00742554EA0083900920118000
B0846155124254N00742450EA0083700920118000
B0846195124275N00742333EA0083000920131000
K084619356007
B0846235124350N00742291EA0083700920120000
B0846275124408N00742358EA0084500928119000
B0846315124420N00742479EA0085200936116000
B0846355124370N00742575EA0085700944112000
B0846395124291N00742579EA0085500944117000
K084639338006
B0846435124250N00742470EA0085800944117000
B0846475124279N00742370EA0087800968102000
B0846515124345N00742375EA0087200960109000
B0846555124375N00742487EA0087500960115000
B0846595124354N00742604EA0088600976118000
K084659032008
B0847035124304N00742708EA0087000960135000
B0847075124241N00742808EA0086000952144000
B0847115124170N00742908EA0085300944146000
B0847155124100N00743008EA0084400936153000
B0847195124025N00743108EA0083300928153000
K084719180005
B0847235123945N00743208EA0083700928153000
B0847275123866N00743291EA0084800936135000
B0847315123791N00743379EA0083600928144000
B0847355123704N00743475EA0082100912153000
B0847395123620N00743566EA0080900896156000
K084739180010
B0847435123541N00743666EA0080200888157000
B0847475123466N00743775EA0080200888151000
B0847515123395N00743879EA0080200888147000
B0847555123325N00743979EA0080400896141000
B0847595123258N00744075EA0079600880139000
K084759180009
B0848035123187N00744179EA0077800864153000
B0848075123125N00744300EA0075300840161000
B0848115123054N00744433EA0074000832169000
B0848155122983N00744562EA0073700824158000
B0848195122912N00744683EA0074300832159000
K084819180009
B0848235122841N00744795EA0074900840149000
B0848275122766N00744900EA0076300848141000
B0848315122691N00744987EA0077700864136000
B0848355122616N00745062EA0078400872131000
B0848395122541N00745137EA0079000880127000
K084839180014
B0848435122466N00745191EA0079800888119000
B0848475122404N00745262EA0079100880113000
B0848515122333N00745316EA0078300864114000
B0848555122258N00745379EA0077600864123000
B0848595122187N00745470EA0077700864129000
K084859180014
B0849035122125N00745562EA0077300856133000
B0849075122062N00745670EA0076400856140000
B0849115122008N00745787EA0075600848142000
B0849155121950N00745895EA0075100840136000
B0849195121887N00746000EA0075100840129000
K084919180011
B0849235121829N00746100EA0074700832130000
B0849275121766N00746191EA0074700832129000
B0849315121704N00746279EA0074500832126000
B0849355121645N00746375EA0074000824124000
B0849395121591N00746470EA0073600824125000
K084939180009
B0849435121541N00746579EA0072400816131000
B0849475121500N00746704EA0071000800137000
B0849515121462N00746833EA0071400800129000
B0849555121425N00746958EA0073300824119000
B0849595121400N00747070EA0074900832102000
K084959180016
B0850035121379N00747183EA0075200840100000
B0850075121358N00747291EA0075700840095000
B0850115121370N00747395EA0075200840103000
B0850155121420N00747462EA0074500832107000
B0850195121483N00747437EA0073900824101000
K085019180017
B0850235121512N00747345EA0073600816100000
B0850275121495N00747237EA0072700808099000
B0850315121437N00747166EA0071900808112000
B0850355121362N00747154EA0072200808101000
B0850395121295N00747200EA0072100808102000
K085039180017
B0850435121250N00747295EA0072100808103000
B0850475121216N00747400EA0071700800107000
B0850515121183N00747508EA0070700792113000
B0850555121150N00747616EA0071800808113000
B0850595121120N00747716EA0072900816098000
K085059180016
B0851035121058N00747779EA0071800800112000
B0851075121012N00747879EA0071600800112000
B0851115120979N00747979EA0073700824099000
B0851155120950N00748066EA0074200832090000
B0851195120920N00748158EA0073700824097000
K085119180013
B0851235120887N00748245EA0074100832092000
B0851275120854N00748333EA0074100832096000
B0851315120820N00748425EA0074400832101000
B0851355120783N00748520EA0073700824109000
B0851395120750N00748633EA0072000808126000
K085139180008
B0851435120716N00748758EA0071200800126000
B0851475120687N00748887EA0071000800124000
B0851515120662N00749012EA0070700800120000
B0851555120633N00749141EA0070400792122000
B0851595120604N00749262EA0069800792121000
K085159180013
B0852035120570N00749387EA0069200784125000
B0852075120537N00749508EA0068400776126000
B0852115120504N00749633EA0068400776126000
B0852155120466N00749745EA0068300776120000
B0852195120425N00749854EA0068200768117000
K085219180012
B0852235120383N00749958EA0067900768111000
B0852275120345N00750066EA0066800760115000
B0852315120304N00750179EA0065100736121000
B0852355120262N00750291EA0065100736125000
B0852395120216N00750404EA0064900736130000
K085239180011
B0852435120170N00750508EA0066800752108000
B0852475120141N00750608EA0068300768103000
B0852515120175N00750700EA0068400768104000
B0852555120245N00750679EA0068900776100000
B0852595120266N00750579EA0070200784102000
K085259180014
B0853035120220N00750500EA0070900792095000
B0853075120150N00750516EA0070600792091000
B0853115120120N00750612EA0071500792082000
B0853155120145N00750704EA0072700816091000
B0853195120208N00750737EA0072000808110000
K085319312003
B0853235120258N00750658EA0073500816097000
B0853275120237N00750558EA0074300832094000
B0853315120175N00750537EA0074500832092000
B0853355120120N00750608EA0074900832111000
B0853395120120N00750708EA0077300856090000
K085339116003
B0853435120162N00750770EA0078000864092000
B0853475120225N00750766EA0077800864098000
B0853515120262N00750683EA0078400872097000
B0853555120237N00750583EA0079200872091000
B0853595120175N00750562EA0079200872091000
K085359004002
B0854035120116N00750629EA0080400888095000
B0854075120095N00750725EA0081500904096000
B0854115120129N00750816EA0081300896106000
B0854155120195N00750808EA0081700904106000
B0854195120195N00750700EA0081300904113000
K085419004006
B0854235120116N00750670EA0082200904123000
B0854275120062N00750750EA0084000928110000
B0854315120104N00750845EA0084700936108000
B0854355120170N00750816EA0086700952088000
B0854395120175N00750712EA0086000952115000
K085439202004
B0854435120108N00750654EA0087400968111000
B0854475120050N00750704EA0088100968102000
B0854515120037N00750812EA0088700976092000
B0854555120083N00750891EA0088700976108000
B0854595120154N00750891EA0091201000090000
K085459180000
B0855035120175N00750800EA0090600992110000
B0855075120125N00750725EA0091401000104000
B0855115120058N00750750EA0092901024102000
B0855155120025N00750841EA0094101024076000
B0855195120058N00750941EA0093001016120000
K085519224002
B0855235120129N00750925EA0095901048093000
B0855275120145N00750841EA0096901056091000
B0855315120095N00750779EA0095301040113000
B0855355120020N00750804EA0097401064107000
B0855395119995N00750908EA0098201072104000
K085539226008
B0855435120054N00750983EA0097901064117000
B0855475120112N00750925EA0101101104104000
B0855515120095N00750833EA0102101112102000
B0855555120025N00750841EA0101501088087000
B0855595119995N00750958EA0102301112104000
K085559228008
B0856035120041N00751050EA0104001128107000
B0856075120104N00751037EA0105801144102000
B0856115120129N00750950EA0106201152099000
B0856155120091N00750870EA0106201152106000
B0856195120029N00750879EA0107301160099000
K085619270014
B0856235119983N00750950EA0108001168094000
B0856275119979N00751062EA0106701152110000
B0856315120029N00751162EA0108901168113000
B0856355120091N00751125EA0110301192101000
B0856395120070N00751033EA0109701184102000
K085639256010
B0856435120004N00751062EA0110601192106000
B0856475119979N00751175EA0112601216098000
B0856515120016N00751275EA0113401224117000
B0856555120083N00751258EA0113201216108000
B0856595120083N00751158EA0112501216111000
K085659276013
B0857035120016N00751137EA0112301208112000
B0857075119979N00751250EA0112601216106000
B0857115120033N00751333EA0113401224110000
B0857155120091N00751287EA0114001232098000
B0857195120087N00751195EA0113901224100000
K085719248010
B0857235120029N00751150EA0113501224100000
B0857275119962N00751187EA0113501224108000
B0857315119904N00751266EA0113901232109000
B0857355119850N00751362EA0113001216120000
B0857395119779N00751462EA0112801216137000
K085739180014
B0857435119712N00751562EA0113901232133000
B0857475119645N00751662EA0114501232131000
B0857515119583N00751766EA0113901232133000
B0857555119520N00751875EA0112701216138000
B0857595119458N00751987EA0111001200149000
K085759180009
B0858035119387N00752108EA0110701200151000
B0858075119316N00752220EA0110401192148000
B0858115119237N00752320EA0109401184155000
B0858155119150N00752420EA0108701176156000
B0858195119066N00752516EA0108201176156000
K085819180011
B0858235118983N00752612EA0107601168156000
B0858275118895N00752700EA0106801160155000
B0858315118808N00752787EA0106501152150000
B0858355118716N00752858EA0105801152159000
B0858395118625N00752916EA0105101144154000
K085839180007
B0858435118533N00752987EA0104401136151000
B0858475118445N00753062EA0104501136144000
B0858515118366N00753141EA0104701136144000
B0858555118283N00753220EA0104401136147000
B0858595118204N00753308EA0103401128154000
K085859180005
B0859035118125N00753395EA0103701128144000
B0859075118041N00753475EA0103901128143000
B0859115117962N00753558EA0103601128145000
B0859155117883N00753645EA0103101120144000
B0859195117804N00753737EA0102001112150000
K085919180007
B0859235117729N00753841EA0102201112154000
B0859275117654N00753945EA0102301112155000
B0859315117579N00754054EA0102501112149000
B0859355117512N00754162EA0102201112144000
B0859395117437N00754275EA0100701096155000
K085939180008
B0859435117366N00754391EA0099701088160000
B0859475117291N00754512EA0099301080159000
B0859515117216N00754629EA0099301080158000
B0859555117150N00754737EA0104201136125000
B0859595117100N00754820EA0106501152103000
K085959180016
B0900035117045N00754908EA0104201128120000
B0900075116983N00755000EA0102001104137000
B0900115116916N00755104EA0101001096139000
B0900155116850N00755212EA0100301088138000
B0900195116787N00755329EA0099001080144000
K090019180009
B0900235116716N00755445EA0097701072158000
B0900275116645N00755566EA0096701056157000
B0900315116575N00755687EA0096001048155000
B0900355116504N00755808EA0095301048158000
B0900395116433N00755929EA0095001040158000
K090039180008
B0900435116366N00756045EA0094801040149000
B0900475116300N00756162EA0095001040147000
B0900515116237N00756283EA0095101040148000
B0900555116175N00756400EA0095701048143000
B0900595116120N00756516EA0096401056137000
K090059180011
B0901035116062N00756620EA0097001064126000
B0901075116004N00756720EA0096501056130000
B0901115115945N00756829EA0096401056128000
B0901155115891N00756941EA0096001048131000
B0901195115833N00757054EA0096401056128000
K090119180013
B0901235115783N00757162EA0098301072113000
B0901275115745N00757254EA0099501088099000
B0901315115704N00757350EA0098901080104000
B0901355115666N00757454EA0097401064117000
B0901395115620N00757562EA0095401048124000
K090139180010
B0901435115570N00757679EA0093601024134000
B0901475115516N00757795EA0092601016142000
B0901515115462N00757916EA0091901008143000
B0901555115404N00758033EA0091201008141000
B0901595115341N00758145EA0090400992142000
K090159180009
B0902035115279N00758262EA0089300984144000
B0902075115212N00758379EA0088400976149000
B0902115115150N00758500EA0087700968150000
B0902155115087N00758616EA0089300984134000
B0902195115029N00758725EA0088600976137000
K090219180010
B0902235114975N00758837EA0087200960142000
B0902275114912N00758958EA0087100960142000
B0902315114854N00759066EA0087900968130000
B0902355114800N00759179EA0086900960132000
B0902395114750N00759295EA0086200952128000
K090239180011
B0902435114691N00759412EA0085100936139000
B0902475114629N00759529EA0084300936143000
B0902515114566N00759641EA0083900928140000
B0902555114504N00759754EA0083500928140000
B0902595114441N00759866EA0082600912136000
K090259180012
B0903035114375N00759979EA0081500904143000
B0903075114308N00800087EA0081100904141000
B0903115114241N00800195EA0080700896138000
B0903155114170N00800300EA0079900888139000
B0903195114104N00800404EA0078900880145000
K090319180013
B0903235114033N00800508EA0078400872139000
B0903275113962N00800608EA0078100872143000
B0903315113895N00800708EA0077700864138000
B0903355113825N00800808EA0076800856134000
B0903395113758N00800908EA0076300848130000
K090339180017
B0903435113687N00801012EA0075700840131000
B0903475113616N00801112EA0075600840135000
B0903515113545N00801195EA0077700864115000
B0903555113475N00801220EA0078100872103000
B0903595113412N00801179EA0077400856105000
K090359180022
B0904035113383N00801087EA0076800856106000
B0904075113412N00800995EA0076200848109000
B0904115113475N00800970EA0076000848104000
B0904155113529N00801029EA0076100848102000
B0904195113570N00801125EA0075400840103000
K090419180022
B0904235113595N00801241EA0075000832106000
B0904275113612N00801358EA0074800832105000
B0904315113625N00801475EA0074000824110000
B0904355113637N00801591EA0073600824110000
B0904395113645N00801712EA0072900816112000
K090439180016
B0904435113629N00801833EA0073000816112000
B0904475113595N00801945EA0073600824109000
B0904515113554N00802041EA0074300832108000
B0904555113562N00802154EA0073400816107000
B0904595113629N00802195EA0073000816111000
K090459180016
B0905035113683N00802141EA0073900824093000
B0905075113683N00802045EA0073500816095000
B0905115113637N00801970EA0072400808110000
B0905155113570N00801929EA0073000816107000
B0905195113500N00801908EA0073700824104000
K090519180016
B0905235113429N00801904EA0073000816113000
B0905275113383N00801837EA0073700824097000
B0905315113412N00801745EA0072400808117000
B0905355113487N00801750EA0073600824107000
B0905395113516N00801841EA0074300832101000
K090539180016
B0905435113479N00801929EA0074000824098000
B0905475113416N00801920EA0074300832098000
B0905515113383N00801845EA0074400832097000
B0905555113412N00801754EA0073900824108000
B0905595113470N00801716EA0074500832098000
K090559258008
B0906035113525N00801775EA0074300824105000
B0906075113529N00801883EA0075400832096000
B0906115113479N00801954EA0075500840102000
B0906155113416N00801937EA0075300832100000
B0906195113395N00801841EA0074900832113000
K090619252008
B0906235113445N00801783EA0075300832107000
B0906275113508N00801837EA0075800840101000
B0906315113504N00801941EA0076300848094000
B0906355113445N00802000EA0075800840104000
B0906395113387N00801979EA0076600848088000
K090639278007
B0906435113358N00801904EA0076600848096000
B0906475113379N00801820EA0076400848101000
B0906515113437N00801787EA0076900856095000
B0906555113487N00801854EA0075900840103000
B0906595113466N00801958EA0076300840100000
K090659306011
B0907035113400N00801970EA0076000840104000
B0907075113354N00801900EA0077000848098000
B0907115113370N00801812EA0077500856099000
B0907155113429N00801783EA0077300856100000
B0907195113479N00801854EA0077300856100000
K090719292008
B0907235113483N00801958EA0078200864098000
B0907275113433N00802025EA0077400856105000
B0907315113370N00802000EA0077500856105000
B0907355113350N00801916EA0078400864091000
B0907395113395N00801845EA0077700864111000
K090739286008
B0907435113458N00801887EA0078000864109000
B0907475113450N00801987EA0078500872102000
B0907515113391N00802029EA0078100864100000
B0907555113337N00801979EA0078400872099000
B0907595113333N00801891EA0079300880090000
K090759282007
B0908035113375N00801837EA0078000864108000
B0908075113445N00801854EA0078600872103000
B0908115113483N00801941EA0079700880095000
B0908155113445N00802033EA0078900880103000
B0908195113379N00801995EA0079600880112000
K090819286010
B0908235113375N00801904EA0080900896100000
B0908275113433N00801866EA0080600896102000
B0908315113483N00801945EA0080000888107000
B0908355113466N00802054EA0081300904101000
B0908395113408N00802083EA0082600912090000
K090839268010
B0908435113370N00802012EA0081500904108000
B0908475113416N00801933EA0082600912100000
B0908515113479N00801970EA0083200920103000
B0908555113491N00802079EA0083200920093000
B0908595113437N00802158EA0084000928087000
K090859250014
B0909035113375N00802145EA0084500936091000
B0909075113345N00802066EA0084600936099000
B0909115113358N00801979EA0085300944096000
B0909155113416N00801954EA0085400944095000
B0909195113466N00802037EA0085300936105000
K090919296014
B0909235113437N00802137EA0085200936114000
B0909275113370N00802133EA0085900944099000
B0909315113354N00802054EA0086700952100000
B0909355113395N00801991EA0086700952101000
B0909395113458N00802054EA0085500936122000
K090939300010
B0909435113433N00802166EA0085800944116000
B0909475113366N00802162EA0086900952103000
B0909515113345N00802079EA0087600960095000
B0909555113383N00802012EA0087400960099000
B0909595113450N00802054EA0086600944117000
K090959296009
B0910035113475N00802166EA0088000968101000
B0910075113441N00802258EA0087600960107000
B0910115113370N00802266EA0087500960117000
B0910155113320N00802200EA0088900976099000
B0910195113316N00802108EA0088800976096000
K091019286009
B0910235113366N00802050EA0088800976102000
B0910275113433N00802083EA0089200976105000
B0910315113454N00802191EA0090000984095000
B0910355113420N00802283EA0089800984107000
B0910395113354N00802279EA0088900976105000
K091039246007
B0910435113333N00802191EA0089200984099000
B0910475113387N00802133EA0089100976100000
B0910515113441N00802204EA0089400976108000
B0910555113408N00802316EA0088900968113000
B0910595113341N00802291EA0089500976107000
K091059272009
B0911035113304N00802208EA0090300984099000
B0911075113283N00802116EA0091500992096000
B0911115113295N00802033EA0091901000091000
B0911155113358N00802020EA0090500984101000
B0911195113387N00802129EA0090300976105000
K091119286011
B0911235113350N00802233EA0091100984103000
B0911275113287N00802279EA0092501000095000
B0911315113225N00802270EA0093001008092000
B0911355113200N00802183EA0091901000093000
B0911395113258N00802133EA0091100984093000
K091139242011
B0911435113316N00802220EA0092201000104000
B0911475113300N00802333EA0093601016096000
B0911515113237N00802387EA0093901016100000
B0911555113183N00802329EA0092901008104000
B0911595113204N00802229EA0093401008096000
K091159210011
B0912035113262N00802212EA0094801024090000
B0912075113300N00802295EA0093701016105000
B0912115113279N00802412EA0094801024093000
B0912155113229N00802475EA0095901040086000
B0912195113170N00802445EA0094101016103000
K091219260005
B0912235113145N00802354EA0094701024092000
B0912275113166N00802270EA0093901016100000
B0912315113233N00802258EA0093001008111000
B0912355113275N00802358EA0093601016106000
B0912395113275N00802479EA0094001016106000
K091239270013
B0912435113258N00802604EA0093301016113000
B0912475113233N00802720EA0093401016111000
B0912515113208N00802833EA0093101008110000
B0912555113183N00802950EA0092101000119000
B0912595113162N00803075EA0091000992121000
K091259180011
B0913035113145N00803204EA0090600992123000
B0913075113120N00803329EA0090900992114000
B0913115113091N00803441EA0090200984114000
B0913155113037N00803529EA0089200976116000
B0913195112975N00803608EA0088200968121000
K091319180012
B0913235112904N00803679EA0087200952121000
B0913275112833N00803745EA0086300944122000
B0913315112758N00803804EA0085700936116000
B0913355112687N00803866EA0084900936117000
B0913395112612N00803925EA0083900920121000
K091339180013
B0913435112537N00803983EA0084600928118000
B0913475112470N00804012EA0087800960093000
B0913515112429N00803937EA0087200952108000
B0913555112479N00803858EA0087800960113000
B0913595112533N00803937EA0088400960108000
K091359180015
B0914035112508N00804054EA0089100976113000
B0914075112441N00804054EA0090000984106000
B0914115112420N00803945EA0090300976108000
B0914155112491N00803920EA0091600984102000
B0914195112508N00804037EA0092000984114000
K091419266002
B0914235112445N00804083EA0093001000105000
B0914275112408N00803987EA0093201000111000
B0914315112462N00803920EA0094901008102000
B0914355112516N00803983EA0095901024101000
B0914395112504N00804091EA0096301016102000
K091439226004
B0914435112437N00804108EA0096401024106000
B0914475112395N00804029EA0097601040098000
B0914515112412N00803933EA0098601048096000
B0914555112475N00803958EA0097401032107000
B0914595112475N00804079EA0098301040108000
K091459300004
B0915035112408N00804100EA0100101056101000
B0915075112379N00804008EA0100701064102000
B0915115112429N00803941EA0101301072109000
B0915155112479N00804020EA0101701072101000
B0915195112462N00804125EA0103201088098000
K091519274007
B0915235112400N00804141EA0104101104102000
B0915275112375N00804041EA0103201096114000
B0915315112437N00803987EA0105101112102000
B0915355112483N00804070EA0106101120094000
B0915395112450N00804170EA0105101112112000
K091539182007
B0915435112379N00804154EA0106701128098000
B0915475112375N00804050EA0107101136103000
B0915515112433N00804016EA0108001144097000
B0915555112475N00804095EA0108501144099000
B0915595112450N00804204EA0108901152103000
K091559318007
B0916035112395N00804262EA0110901168092000
B0916075112337N00804208EA0110301168104000
B0916115112366N00804108EA0110101160103000
B0916155112429N00804145EA0110601160103000
B0916195112433N00804258EA0112101176099000
K091619266005
B0916235112400N00804354EA0113701192092000
B0916275112333N00804375EA0113301192104000
B0916315112312N00804275EA0112501184108000
B0916355112370N00804216EA0114001200097000
B0916395112425N00804270EA0114701200095000
K091639216007
B0916435112458N00804354EA0116401224082000
B0916475112470N00804441EA0116301224092000
B0916515112454N00804541EA0115301216097000
B0916555112404N00804616EA0114601208098000
B0916595112350N00804691EA0113601200102000
K091659184005
B0917035112287N00804766EA0112901192107000
B0917075112225N00804845EA0112001184116000
B0917115112154N00804925EA0111001176127000
B0917155112087N00805012EA0111001176127000
B0917195112020N00805100EA0111101184126000
K091719180012
B0917235111962N00805200EA0110701176127000
B0917275111912N00805304EA0110001168121000
B0917315111858N00805412EA0108401152133000
B0917355111804N00805529EA0108101152131000
B0917395111754N00805650EA0109201168132000
K091739180012
B0917435111700N00805762EA0111601192121000
B0917475111695N00805870EA0113001200090000
B0917515111708N00805979EA0110501176111000
B0917555111687N00806104EA0109101168121000
B0917595111650N00806216EA0108001160124000
K091759180017
B0918035111604N00806333EA0107901160124000
B0918075111558N00806433EA0109401176108000
B0918115111512N00806525EA0110901184100000
B0918155111475N00806616EA0111501192102000
B0918195111441N00806708EA0110901192102000
K091819180017
B0918235111400N00806804EA0110001184114000
B0918275111337N00806875EA0110201184117000
B0918315111266N00806929EA0110201184112000
B0918355111200N00806975EA0109301176115000
B0918395111129N00807025EA0108301168118000
K091839180013
B0918435111054N00807070EA0108801168117000
B0918475110979N00807079EA0109701176108000
B0918515110904N00807083EA0110201184104000
B0918555110837N00807083EA0110701192102000
B0918595110766N00807083EA0110501184107000
K091859180010
B0919035110691N00807091EA0110501192110000
B0919075110616N00807083EA0110801192107000
B0919115110545N00807083EA0110701192104000
B0919155110470N00807083EA0110301192112000
B0919195110391N00807083EA0110501192113000
K091919180009
B0919235110312N00807091EA0111201200118000
B0919275110233N00807091EA0113601224104000
B0919315110187N00807025EA0115301240091000
B0919355110216N00806937EA0113201216117000
B0919395110295N00806958EA0115001240105000
K091939180013
B0919435110325N00807058EA0116801256108000
B0919475110287N00807162EA0118001264092000
B0919515110216N00807179EA0117801264099000
B0919555110170N00807095EA0117701264094000
B0919595110195N00807000EA0118501272101000
K091959300007
B0920035110258N00806975EA0120301288095000
B0920075110312N00807037EA0120301288105000
B0920115110295N00807158EA0120701288106000
B0920155110229N00807187EA0121701304094000
B0920195110170N00807129EA0122401312091000
K092019326008
B0920235110154N00807037EA0124201328087000
B0920275110191N00806962EA0124301328092000
B0920315110258N00806954EA0124301328101000
B0920355110295N00807045EA0125701344104000
B0920395110254N00807137EA0126501352103000
K092039338006
B0920435110183N00807112EA0127201352108000
B0920475110187N00807008EA0128601368100000
B0920515110254N00806975EA0129001376106000
B0920555110295N00807066EA0130301392102000
B0920595110266N00807166EA0131501400097000
K092059294003
B0921035110200N00807208EA0132001408114000
B0921075110125N00807245EA0132001408110000
B0921115110050N00807283EA0130401392127000
B0921155109962N00807325EA0129201384140000
B0921195109870N00807370EA0127801368147000
K092119180007
B0921235109779N00807420EA0127001360145000
B0921275109683N00807466EA0126601352148000
B0921315109587N00807500EA0126501352145000
B0921355109495N00807525EA0125701344140000
B0921395109400N00807545EA0124601336148000
K092139180008
B0921435109300N00807562EA0124201336147000
B0921475109204N00807579EA0124601336142000
B0921515109112N00807591EA0125001336136000
B0921555109020N00807608EA0124301336139000
B0921595108925N00807616EA0124001328143000
K092159180009
B0922035108833N00807629EA0124401336127000
B0922075108741N00807641EA0124701336129000
B0922115108662N00807687EA0123901328133000
B0922155108583N00807770EA0122801320136000
B0922195108520N00807875EA0122201312136000
K092219180012
B0922235108462N00807995EA0121201304141000
B0922275108404N00808120EA0120201296149000
B0922315108350N00808254EA0119501288152000
B0922355108291N00808383EA0119001280152000
B0922395108229N00808508EA0118101272153000
K092239180008
B0922435108162N00808629EA0117901272150000
B0922475108112N00808762EA0117701272145000
B0922515108062N00808900EA0117501264149000
B0922555108008N00809029EA0117001264150000
B0922595107958N00809158EA0117701272135000
K092259180010
B0923035107912N00809287EA0117601264147000
B0923075107862N00809420EA0119101280137000
B0923115107816N00809529EA0122801320104000
B0923155107783N00809625EA0124101328096000
B0923195107754N00809716EA0124901336090000
K092319180015
B0923235107720N00809808EA0125401344092000
B0923275107695N00809908EA0126101352095000
B0923315107675N00810012EA0126901360095000
B0923355107666N00810129EA0127601368094000
B0923395107641N00810233EA0128601376095000
K092339180015
B0923435107600N00810320EA0129501384091000
B0923475107545N00810395EA0127901368109000
B0923515107479N00810479EA0125301344132000
B0923555107404N00810570EA0122901320148000
B0923595107325N00810670EA0121301304155000
K092359180008
B0924035107241N00810766EA0120201296158000
B0924075107158N00810866EA0119801288156000
B0924115107079N00810966EA0119401288155000
B0924155106995N00811066EA0119201280155000
B0924195106916N00811166EA0119301288154000
K092419180007
B0924235106833N00811254EA0120101296142000
B0924275106754N00811350EA0119801288149000
B0924315106679N00811450EA0120301296147000
B0924355106608N00811550EA0119301288144000
B0924395106541N00811658EA0118501280142000
K092439180010
B0924435106470N00811770EA0118001272141000
B0924475106404N00811875EA0117901272139000
B0924515106333N00811975EA0117001264141000
B0924555106266N00812083EA0116701256143000
B0924595106195N00812187EA0116101248143000
K092459180009
B0925035106116N00812287EA0115201240147000
B0925075106041N00812387EA0114601240151000
B0925115105962N00812483EA0114601240149000
B0925155105883N00812575EA0114301232146000
B0925195105804N00812666EA0113901232144000
K092519180008
B0925235105729N00812758EA0113301224145000
B0925275105650N00812850EA0112601216149000
B0925315105566N00812941EA0112301216149000
B0925355105487N00813029EA0113901224136000
B0925395105416N00813087EA0119501280094000
K092539180015
B0925435105362N00813087EA0121101296077000
B0925475105300N00813100EA0119601280098000
B0925515105233N00813162EA0118101272112000
B0925555105170N00813250EA0117501264117000
B0925595105112N00813350EA0116901256121000
K092559180015
B0926035105058N00813454EA0116501256123000
B0926075105000N00813562EA0115201240125000
B0926115104941N00813670EA0114601232135000
B0926155104883N00813779EA0114201232134000
B0926195104820N00813883EA0113901224130000
K092619180011
B0926235104758N00813979EA0114001232130000
B0926275104704N00814079EA0113801224126000
B0926315104654N00814191EA0114001224123000
B0926355104604N00814291EA0118201272096000
B0926395104591N00814391EA0119401280093000
K092639180020
B0926435104637N00814458EA0117101256111000
B0926475104700N00814404EA0117001256106000
B0926515104708N00814295EA0118201264101000
B0926555104670N00814208EA0119501280101000
B0926595104620N00814150EA0120801296093000
K092659180020
B0927035104558N00814150EA0121401304090000
B0927075104516N00814237EA0120601288105000
B0927115104550N00814341EA0121101296110000
B0927155104612N00814337EA0122701312096000
B0927195104645N00814258EA0123801328101000
K092719294004
B0927235104616N00814170EA0124901336096000
B0927275104554N00814166EA0125201344095000
B0927315104504N00814250EA0125801344102000
B0927355104504N00814354EA0126801360095000
B0927395104558N00814404EA0127001360097000
K092739308007
B0927435104612N00814370EA0128101368092000
B0927475104629N00814279EA0128901376095000
B0927515104600N00814204EA0130001392085000
B0927555104541N00814175EA0129701384100000
B0927595104479N00814216EA0130601392096000
K092759310007
B0928035104450N00814304EA0131701408090000
B0928075104483N00814391EA0131001400106000
B0928115104550N00814391EA0132001408092000
B0928155104587N00814320EA0133601424090000
B0928195104579N00814233EA0134401432085000
K092819322002
B0928235104525N00814179EA0133701424097000
B0928275104458N00814179EA0135101440097000
B0928315104400N00814208EA0136201456093000
B0928355104341N00814262EA0135901448096000
B0928395104283N00814333EA0135901448101000
K092839336003
B0928435104229N00814404EA0136801456096000
B0928475104179N00814479EA0137401464094000
B0928515104129N00814558EA0136401456102000
B0928555104075N00814650EA0134501440117000
B0928595104020N00814754EA0133001424129000
K092859180010
B0929035103962N00814862EA0131601408132000
B0929075103904N00814975EA0130901400133000
B0929115103845N00815087EA0130001392131000
B0929155103787N00815200EA0129001384133000
B0929195103725N00815312EA0128701376133000
K092919180011
B0929235103666N00815420EA0128301376131000
B0929275103604N00815529EA0127201368137000
B0929315103541N00815645EA0126101352140000
B0929355103475N00815758EA0125901352141000
B0929395103412N00815866EA0126401360133000
K092939180013
B0929435103350N00815975EA0126401352134000
B0929475103279N00816075EA0125401344138000
B0929515103212N00816183EA0125701352134000
B0929555103150N00816279EA0128301368120000
B0929595103079N00816329EA0130801400100000
K092959180015
B0930035103025N00816275EA0131401400098000
B0930075103041N00816175EA0130501392106000
B0930115103104N00816137EA0131401400104000
B0930155103162N00816170EA0132101416097000
B0930195103208N00816245EA0132901416093000
K093019180015
B0930235103229N00816341EA0132401416099000
B0930275103212N00816454EA0131301400109000
B0930315103166N00816554EA0130101392120000
B0930355103104N00816650EA0131501408118000
B0930395103045N00816725EA0134101432096000
K093039180015
B0930435102983N00816700EA0134301432097000
B0930475102970N00816591EA0132801416112000
B0930515103029N00816525EA0134301432103000
B0930555103087N00816570EA0135501448097000
B0930595103087N00816687EA0135101440105000
K093059180015
B0931035103020N00816725EA0135201440097000
B0931075102979N00816641EA0136001448077000
B0931115103004N00816554EA0135801440095000
B0931155103070N00816545EA0135601448107000
B0931195103108N00816641EA0137601464092000
K093119330008
B0931235103087N00816741EA0138701472095000
B0931275103029N00816804EA0137901472103000
B0931315102975N00816887EA0137201464121000
B0931355102916N00816979EA0136001448128000
B0931395102854N00817075EA0135401448133000
K093139180010
B0931435102783N00817175EA0135401448132000
B0931475102712N00817270EA0134801440136000
B0931515102637N00817370EA0133301424146000
B0931555102562N00817483EA0132901424150000
B0931595102487N00817591EA0132901424146000
K093159180012
B0932035102416N00817700EA0132401416142000
B0932075102341N00817808EA0130801400148000
B0932115102262N00817916EA0130001392158000
B0932155102183N00818029EA0129601392156000
B0932195102104N00818137EA0128901384153000
K093219180010
B0932235102025N00818241EA0127301368160000
B0932275101937N00818345EA0125501352166000
B0932315101850N00818450EA0124401336168000
B0932355101758N00818550EA0124501336171000
B0932395101675N00818658EA0125501344155000
K093239180011
B0932435101587N00818750EA0126401352148000
B0932475101508N00818833EA0129801392131000
B0932515101437N00818895EA0133801424108000
B0932555101383N00818837EA0135901448096000
B0932595101408N00818750EA0134701432114000
K093259180017
B0933035101479N00818770EA0135501440108000
B0933075101512N00818858EA0137801464090000
B0933115101504N00818958EA0138601472099000
B0933155101475N00819050EA0139501480085000
B0933195101412N00819095EA0139501480095000
K093319308011
B0933235101358N00819025EA0139101480108000
B0933275101379N00818912EA0140501488105000
B0933315101445N00818900EA0141801504101000
B0933355101491N00818987EA0142001504102000
B0933395101470N00819104EA0142901512105000
K093339294001
B0933435101404N00819150EA0144301528103000
B0933475101354N00819070EA0144401528106000
B0933515101383N00818975EA0146001544104000
B0933555101454N00818970EA0148101568091000
B0933595101491N00819062EA0148501568100000
K093359230002
B0934035101458N00819170EA0148201568111000
B0934075101383N00819187EA0150001584108000
B0934115101337N00819112EA0151201600103000
B0934155101362N00819012EA0151401600105000
B0934195101433N00819004EA0152701608095000
K093419256004
B0934235101466N00819108EA0153601624099000
B0934275101425N00819204EA0154201632112000
B0934315101358N00819175EA0155901648106000
B0934355101350N00819075EA0156201648107000
B0934395101412N00819029EA0156601648107000
K093439252006
B0934435101462N00819112EA0157501656093000
B0934475101433N00819216EA0158401664104000
B0934515101366N00819208EA0160101688097000
B0934555101358N00819108EA0159201672106000
B0934595101420N00819062EA0159501672106000
K093459264011
B0935035101466N00819158EA0159201672118000
B0935075101445N00819287EA0159101672134000
B0935115101391N00819391EA0159701680126000
B0935155101345N00819495EA0159601680127000
B0935195101291N00819604EA0157001656142000
K093519180012
B0935235101216N00819704EA0154201624147000
B0935275101129N00819795EA0151301600162000
B0935315101033N00819887EA0152001608157000
B0935355100941N00819966EA0151601600158000
B0935395100850N00820054EA0150501592162000
K093539180009
B0935435100754N00820150EA0148901576168000
B0935475100658N00820245EA0148101568169000
B0935515100558N00820341EA0147701568167000
B0935555100462N00820441EA0147201560164000
B0935595100366N00820537EA0146601552166000
K093559180011
B0936035100270N00820629EA0146701560168000
B0936075100175N00820712EA0147101560161000
B0936115100079N00820791EA0146501552162000
B0936155059979N00820866EA0146101552156000
B0936195059887N00820954EA0145801544155000
K093619180012
B0936235059800N00821045EA0145401544153000
B0936275059720N00821150EA0145101544150000
B0936315059641N00821254EA0144301536152000
B0936355059562N00821370EA0142901520157000
B0936395059483N00821483EA0142001512158000
K093639180011
B0936435059408N00821604EA0142401520163000
B0936475059333N00821720EA0144901536140000
B0936515059275N00821816EA0149201584108000
B0936555059229N00821883EA0151201600086000
B0936595059183N00821962EA0149101576106000
K093659180012
B0937035059137N00822062EA0146501552127000
B0937075059083N00822183EA0144401536137000
B0937115059029N00822312EA0142401520147000
B0937155058970N00822450EA0140901504151000
B0937195058916N00822591EA0140101496153000
K093719180011
B0937235058862N00822733EA0139301488158000
B0937275058808N00822879EA0138601480159000
B0937315058754N00823025EA0138301480163000
B0937355058704N00823170EA0138801480156000
B0937395058645N00823295EA0140801504139000
K093739180010
B0937435058591N00823412EA0140501496139000
B0937475058533N00823537EA0138501480148000
B0937515058479N00823675EA0136501456157000
B0937555058420N00823816EA0134901448161000
B0937595058358N00823958EA0133801432162000
K093759180007
B0938035058300N00824108EA0132801424168000
B0938075058237N00824254EA0131801416167000
B0938115058175N00824404EA0131301408168000
B0938155058112N00824554EA0130501400168000
B0938195058050N00824700EA0130401400166000
K093819180009
B0938235057987N00824841EA0129901392163000
B0938275057920N00824991EA0127401368179000
B0938315057858N00825141EA0126301360178000
B0938355057791N00825300EA0125101352180000
B0938395057729N00825450EA0124101336174000
K093839180007
B0938435057662N00825608EA0122901328184000
B0938475057591N00825762EA0125001344172000
B0938515057537N00825883EA0131901408117000
B0938555057495N00825966EA0135901456083000
B0938595057454N00826045EA0134001432108000
K093859180015
B0939035057408N00826154EA0130401400134000
B0939075057358N00826279EA0130001392133000
B0939115057308N00826400EA0129801392131000
B0939155057262N00826525EA0127801368139000
B0939195057208N00826658EA0125901352145000
K093919180010
B0939235057145N00826795EA0124901344150000
B0939275057087N00826941EA0124001336156000
B0939315057029N00827087EA0123901336160000
B0939355056970N00827229EA0123701328157000
B0939395056908N00827366EA0122701320159000
K093939180012
B0939435056850N00827508EA0121201304163000
B0939475056791N00827658EA0119701296166000
B0939515056733N00827808EA0118601280166000
B0939555056670N00827954EA0118201280164000
B0939595056608N00828095EA0117801272162000
K093959180011
B0940035056541N00828241EA0117401264159000
B0940075056479N00828387EA0117301264167000
B0940115056416N00828533EA0118101272157000
B0940155056354N00828670EA0118001272158000
B0940195056300N00828808EA0117101264158000
K094019180011
B0940235056241N00828945EA0116601264160000
B0940275056183N00829087EA0116501264168000
B0940315056120N00829229EA0115801256165000
B0940355056062N00829375EA0115001248162000
B0940395056004N00829516EA0114901240164000
K094039180008
B0940435055941N00829654EA0116001256158000
B0940475055875N00829741EA0122801320105000
B0940515055825N00829783EA0127201360071000
B0940555055787N00829845EA0124801336104000
B0940595055787N00829962EA0123201328116000
K094059180009
B0941035055800N00830083EA0123601328120000
B0941075055779N00830204EA0123201328128000
B0941115055737N00830325EA0122401320136000
B0941155055683N00830445EA0121201304148000
B0941195055625N00830575EA0119901296160000
K094119180007
B0941235055566N00830712EA0118901288161000
B0941275055504N00830850EA0118401280163000
B0941315055437N00830983EA0118301280160000
B0941355055366N00831116EA0117901280165000
B0941395055300N00831254EA0117401272167000
K094139180008
B0941435055229N00831395EA0116501264173000
B0941475055158N00831537EA0116301264174000
B0941515055087N00831675EA0115901256166000
B0941555055016N00831812EA0115601256166000
B0941595054950N00831954EA0114901248170000
K094159180009
B0942035054883N00832095EA0114001240164000
B0942075054816N00832245EA0113301232174000
B0942115054750N00832391EA0113001232174000
B0942155054679N00832533EA0112501224170000
B0942195054608N00832679EA0111401216171000
K094219180010
B0942235054537N00832825EA0110501208180000
B0942275054466N00832975EA0109401192179000
B0942315054400N00833120EA0108801192178000
B0942355054333N00833270EA0107501176178000
B0942395054266N00833420EA0106201160178000
K094239180007
B0942435054195N00833575EA0104901152182000
B0942475054129N00833729EA0103301136184000
B0942515054058N00833883EA0102301120187000
B0942555053987N00834041EA0101601120193000
B0942595053912N00834191EA0101501112184000
K094259180005
B0943035053841N00834341EA0102401120183000
B0943075053766N00834475EA0105501152162000
B0943115053695N00834591EA0108201184142000
B0943155053629N00834708EA0108001176151000
B0943195053562N00834829EA0105701152167000
K094319180007
B0943235053491N00834966EA0103601136173000
B0943275053425N00835108EA0102701128178000
B0943315053350N00835250EA0101601112177000
B0943355053279N00835391EA0101201112175000
B0943395053212N00835537EA0100601104173000
K094339180006
B0943435053145N00835679EA0099201096176000
B0943475053070N00835820EA0098301080178000
B0943515053000N00835962EA0097301072178000
B0943555052929N00836104EA0095901056181000
B0943595052854N00836245EA0095101048180000
K094359180005
B0944035052783N00836383EA0094601048175000
B0944075052716N00836525EA0094301040173000
B0944115052650N00836666EA0094801048170000
B0944155052579N00836795EA0095201048163000
B0944195052516N00836925EA0096101056157000
K094419180006
B0944235052458N00837045EA0098901088145000
B0944275052416N00837154EA0101001104128000
B0944315052375N00837266EA0099801088133000
B0944355052337N00837387EA0097501072146000
B0944395052295N00837520EA0096001056146000
K094439180000
B0944435052258N00837654EA0095101048151000
B0944475052229N00837800EA0094801040153000
B0944515052204N00837945EA0094401040153000
B0944555052175N00838087EA0094401040153000
B0944595052150N00838233EA0094601040147000
K094459180000
B0945035052116N00838375EA0094001032150000
B0945075052083N00838512EA0095201048144000
B0945115052066N00838633EA0100601096104000
B0945155052033N00838716EA0103001120097000
B0945195051966N00838704EA0101401104108000
K094519180011
B0945235051945N00838583EA0102101112108000
B0945275051987N00838495EA0103401128096000
B0945315052050N00838500EA0102101112108000
B0945355052104N00838587EA0104101128105000
B0945395052108N00838679EA0106401152089000
K094539180011
B0945435052058N00838737EA0105201144109000
B0945475051995N00838670EA0105601144105000
B0945515052000N00838558EA0108001168095000
B0945555052058N00838516EA0108801176095000
B0945595052116N00838575EA0109101176103000
K094559094008
B0946035052133N00838666EA0111801208088000
B0946075052091N00838729EA0110701200103000
B0946115052020N00838679EA0110501192106000
B0946155052012N00838570EA0113501224089000
B0946195052054N00838504EA0114101232092000
K094619078010
B0946235052120N00838516EA0113901224103000
B0946275052145N00838616EA0114601232105000
B0946315052087N00838683EA0113901224116000
B0946355052029N00838608EA0115801248099000
B0946395052045N00838508EA0118501272087000
K094639054010
B0946435052095N00838470EA0118801272090000
B0946475052158N00838516EA0117501264106000
B0946515052166N00838629EA0118901280107000
B0946555052120N00838704EA0119801288098000
B0946595052054N00838670EA0119601288106000
K094659072005
B0947035052050N00838558EA0120501296106000
B0947075052100N00838483EA0122701320091000
B0947115052162N00838504EA0122401312100000
B0947155052191N00838604EA0123601328096000
B0947195052158N00838695EA0124301336098000
K094719180003
B0947235052091N00838704EA0124601336101000
B0947275052054N00838612EA0125101336102000
B0947315052079N00838516EA0126701352094000
B0947355052141N00838504EA0127601360093000
B0947395052183N00838583EA0127001352103000
K094739024001
B0947435052158N00838691EA0127801360103000
B0947475052087N00838704EA0128301368102000
B0947515052045N00838620EA0128901376096000
B0947555052062N00838525EA0129901384095000
B0947595052125N00838487EA0130801392093000
K094759010002
B0948035052183N00838529EA0131301400091000
B0948075052195N00838637EA0130401392106000
B0948115052183N00838741EA0132401408090000
B0948155052162N00838829EA0132901416085000
B0948195052141N00838920EA0132401408092000
K094819286000
B0948235052125N00839020EA0130901392109000
B0948275052100N00839133EA0129101376119000
B0948315052066N00839254EA0127501368119000
B0948355052025N00839375EA0125101344137000
B0948395051983N00839516EA0122001312154000
K094839180003
B0948435051941N00839670EA0118901280172000
B0948475051895N00839837EA0117401264173000
B0948515051845N00840000EA0117801272176000
B0948555051804N00840162EA0118401280169000
B0948595051758N00840329EA0117401264170000
K094859180005
B0949035051708N00840495EA0115201248178000
B0949075051662N00840675EA0114401240184000
B0949115051620N00840854EA0113901232180000
B0949155051587N00841033EA0113201224182000
B0949195051550N00841216EA0112901224183000
K094919180009
B0949235051516N00841391EA0113701232176000
B0949275051487N00841558EA0115301248156000
B0949315051462N00841712EA0115201248150000
B0949355051441N00841866EA0114501240157000
B0949395051416N00842029EA0112901224165000
K094939180006
B0949435051395N00842195EA0112401216164000
B0949475051379N00842362EA0112801216160000
B0949515051350N00842520EA0112901224159000
B0949555051320N00842683EA0112001216164000
B0949595051266N00842833EA0112101216165000
K094959180007
B0950035051187N00842950EA0111701208156000
B0950075051100N00843058EA0111301208163000
B0950115051012N00843162EA0109901192166000
B0950155050920N00843270EA0108301176173000
B0950195050829N00843375EA0107601176172000
K095019180007
B0950235050737N00843483EA0107101168179000
B0950275050650N00843587EA0107401168169000
B0950315050566N00843695EA0106501160169000
B0950355050487N00843812EA0105501152169000
B0950395050408N00843916EA0109601192140000
K095039180011
B0950435050341N00843983EA0113701232104000
B0950475050283N00844029EA0114001232102000
B0950515050229N00844100EA0112101208115000
B0950555050175N00844191EA0110101192130000
B0950595050116N00844291EA0108601176135000
K095059180014
B0951035050058N00844395EA0107001160137000
B0951075050000N00844512EA0105801152139000
B0951115049937N00844629EA0103801128147000
B0951155049875N00844754EA0101801112152000
B0951195049812N00844887EA0100201096162000
K095119180007
B0951235049750N00845025EA0097701072173000
B0951275049683N00845170EA0095901056182000
B0951315049616N00845320EA0095301048173000
B0951355049554N00845466EA0094101032177000
B0951395049487N00845608EA0093701032171000
K095139180005
B0951435049420N00845745EA0094501040162000
B0951475049358N00845866EA0096101056149000
B0951515049295N00845987EA0097001064145000
B0951555049241N00846112EA0096101056153000
B0951595049179N00846241EA0093601032164000
K095159180005
B0952035049116N00846383EA0091601008169000
B0952075049054N00846525EA0090901000166000
B0952115048991N00846666EA0090200992169000
B0952155048925N00846808EA0089900992166000
B0952195048862N00846945EA0089800992157000
K095219180010
B0952235048795N00847079EA0089900992157000
B0952275048733N00847216EA0090200992158000
B0952315048675N00847354EA0091601008151000
B0952355048616N00847462EA0095401048121000
B0952395048566N00847541EA0097601064093000
K095239180019
B0952435048520N00847625EA0096901056112000
B0952475048470N00847720EA0095901048117000
B0952515048433N00847829EA0095901048115000
B0952555048412N00847954EA0094901040125000
B0952595048404N00848091EA0093401024143000
K095259180011
B0953035048391N00848229EA0095001040130000
B0953075048391N00848350EA0096001048118000
B0953115048391N00848466EA0096001048123000
B0953155048383N00848587EA0096301056121000
B0953195048375N00848712EA0096401056122000
K095319180004
B0953235048366N00848833EA0095501040126000
B0953275048358N00848966EA0094401032134000
B0953315048345N00849100EA0094301032136000
B0953355048333N00849237EA0094501032128000
B0953395048320N00849370EA0094101032133000
K095339180003
B0953435048308N00849504EA0093301024133000
B0953475048291N00849637EA0094101032126000
B0953515048275N00849762EA0094101032125000
B0953555048250N00849887EA0093901024126000
B0953595048229N00850016EA0094001024126000
K095359180006
B0954035048208N00850137EA0096501056108000
B0954075048195N00850233EA0098701072083000
B0954115048200N00850325EA0098501072095000
B0954155048183N00850429EA0097901064101000
B0954195048141N00850516EA0097701064101000
K095419180013
B0954235048112N00850612EA0097401064109000
B0954275048083N00850716EA0097601064106000
B0954315048066N00850825EA0096701056114000
B0954355048050N00850941EA0094701032124000
B0954395048025N00851066EA0092801016131000
K095439180010
B0954435047995N00851191EA0092101008126000
B0954475047966N00851316EA0092001008127000
B0954515047941N00851441EA0091401000131000
B0954555047916N00851570EA0090701000137000
B0954595047879N00851700EA0090200992144000
K095459180003
B0955035047841N00851825EA0092201008122000
B0955075047812N00851937EA0093901032112000
B0955115047787N00852045EA0092501016118000
B0955155047758N00852162EA0090701000125000
B0955195047725N00852287EA0090100992130000
K095519180005
B0955235047687N00852404EA0091401000117000
B0955275047662N00852520EA0093101016113000
B0955315047670N00852625EA0094601032105000
B0955355047733N00852650EA0094201024108000
B0955395047775N00852554EA0094201024114000
K095539180008
B0955435047754N00852445EA0095001040105000
B0955475047691N00852387EA0094901040103000
B0955515047616N00852404EA0095401040109000
B0955555047566N00852491EA0096301048114000
B0955595047566N00852591EA0097601064101000
K095559012009
B0956035047625N00852633EA0097301064108000
B0956075047683N00852570EA0098601072106000
B0956115047675N00852466EA0099701088103000
B0956155047612N00852408EA0100101088103000
B0956195047545N00852462EA0099701080117000
K095619028005
B0956235047537N00852575EA0101401104103000
B0956275047579N00852641EA0102601112100000
B0956315047641N00852625EA0103201120102000
B0956355047662N00852529EA0103601128100000
B0956395047625N00852437EA0104201128101000
K095639342006
B0956435047550N00852433EA0104601136100000
B0956475047500N00852504EA0105901144098000
B0956515047500N00852595EA0105701144091000
B0956555047545N00852666EA0104901136107000
B0956595047612N00852645EA0106301152101000
K095659004006
B0957035047633N00852550EA0107301160096000
B0957075047591N00852462EA0106401152108000
B0957115047516N00852454EA0107401168099000
B0957155047458N00852508EA0108401176096000
B0957195047437N00852604EA0107201160097000
K095719028005
B0957235047454N00852708EA0105101144110000
B0957275047445N00852833EA0103401128123000
B0957315047408N00852950EA0103501128123000
B0957355047354N00853050EA0104301136118000
B0957395047295N00853141EA0104501136119000
K095739180008
B0957435047241N00853233EA0103901128113000
B0957475047191N00853337EA0101801112119000
B0957515047150N00853458EA0100101088127000
B0957555047104N00853583EA0098901080133000
B0957595047066N00853712EA0098401080135000
K095759180011
B0958035047025N00853841EA0097401064132000
B0958075046975N00853966EA0096401056139000
B0958115046912N00854079EA0095401048144000
B0958155046841N00854191EA0094101032152000
B0958195046766N00854295EA0093501032151000
K095819180008
B0958235046695N00854404EA0094001032149000
B0958275046625N00854508EA0093601024147000
B0958315046558N00854608EA0093601024142000
B0958355046487N00854708EA0092601016145000
B0958395046416N00854808EA0091401008148000
K095839180006
B0958435046341N00854912EA0090200992153000
B0958475046266N00855016EA0089800984147000
B0958515046191N00855129EA0089000984152000
B0958555046112N00855229EA0091401000141000
B0958595046037N00855262EA0097101056091000
K095859180011
B0959035045987N00855212EA0098901080089000
B0959075046000N00855120EA0097301056111000
B0959115046066N00855112EA0099301080103000
B0959155046100N00855195EA0100701096094000
B0959195046070N00855295EA0100301088101000
K095919180011
B0959235045995N00855325EA0101001096100000
B0959275045937N00855270EA0102101104093000
B0959315045908N00855179EA0103501120090000
B0959355045941N00855095EA0103501120101000
B0959395046000N00855129EA0104301128102000
K095939336010
B0959435046000N00855241EA0104801136105000
B0959475045929N00855287EA0106201144093000
B0959515045875N00855216EA0107601160095000
B0959555045887N00855125EA0108001168094000
B0959595045950N00855108EA0108601168097000
K095959334013
B1000035045995N00855183EA0110201192094000
B1000075045983N00855291EA0110701192099000
B1000115045916N00855341EA0112301208094000
B1000155045858N00855283EA0112501208103000
B1000195045862N00855179EA0113401224101000
K100019306009
B1000235045916N00855141EA0115201240096000
B1000275045966N00855200EA0115901248096000
B1000315045958N00855312EA0115601240102000
B1000355045887N00855366EA0115901248112000
B1000395045820N00855312EA0117701264100000
K100039348009
B1000435045808N00855216EA0119301280094000
B1000475045858N00855162EA0119101280101000
B1000515045916N00855212EA0119401280104000
B1000555045912N00855329EA0120401288104000
B1000595045845N00855383EA0121701304099000
K100059330015
B1001035045787N00855333EA0122701312095000
B1001075045783N00855237EA0123401320098000
B1001115045833N00855187EA0123701328105000
B1001155045891N00855237EA0124501336103000
B1001195045891N00855354EA0125001336103000
K100119324013
B1001235045833N00855429EA0126501352100000
B1001275045762N00855404EA0127701368097000
B1001315045737N00855308EA0128101368100000
B1001355045787N00855245EA0127901368103000
B1001395045845N00855300EA0129401384101000
K100139314011
B1001435045845N00855412EA0131101400099000
B1001475045783N00855466EA0131601408098000
B1001515045720N00855400EA0131201408108000
B1001555045733N00855295EA0132301424102000
B1001595045791N00855275EA0133601432095000
K100159336006
B1002035045841N00855337EA0135101448088000
B1002075045850N00855445EA0135401448093000
B1002115045795N00855520EA0135901456100000
B1002155045729N00855487EA0136301456095000
B1002195045720N00855387EA0136601464103000
K100219316007
B1002235045770N00855337EA0138101480094000
B1002275045825N00855387EA0138601480096000
B1002315045829N00855495EA0139101488100000
B1002355045779N00855575EA0140101496095000
B1002395045712N00855554EA0140401504093000
K100239324008
B1002435045683N00855466EA0140401496104000
B1002475045708N00855387EA0142001520088000
B1002515045766N00855375EA0142001520095000
B1002555045804N00855462EA0141801512102000
B1002595045779N00855566EA0143201528097000
K100259318013
B1003035045712N00855591EA0143801536095000
B1003075045662N00855529EA0143701536098000
B1003115045679N00855437EA0143301528093000
B1003155045741N00855412EA0144101536098000
B1003195045791N00855470EA0144901544096000
K100319290011
B1003235045800N00855579EA0145301552098000
B1003275045766N00855683EA0145301552107000
B1003315045712N00855766EA0145201544103000
B1003355045654N00855841EA0144201536106000
B1003395045587N00855920EA0142301520122000
K100339180010
B1003435045520N00856012EA0140101496128000
B1003475045450N00856112EA0137901480142000
B1003515045375N00856220EA0136501464146000
B1003555045300N00856337EA0135301448154000
B1003595045220N00856454EA0134301440159000
K100359180011
B1004035045145N00856570EA0133501432163000
B1004075045066N00856687EA0132501424163000
B1004115044983N00856804EA0131901416162000
B1004155044904N00856916EA0130901408161000
B1004195044820N00857037EA0130001400165000
K100419180009
B1004235044733N00857150EA0129801400167000
B1004275044650N00857258EA0129201392165000
B1004315044562N00857370EA0128401384165000
B1004355044479N00857483EA0127401368164000
B1004395044391N00857595EA0126801368167000
K100439180011
B1004435044304N00857708EA0126601368165000
B1004475044216N00857816EA0126101360170000
B1004515044129N00857929EA0125401352171000
B1004555044037N00858037EA0124301344172000
B1004595043950N00858150EA0123401336174000
K100459180009
B1005035043858N00858262EA0122501328176000
B1005075043766N00858383EA0121801320176000
B1005115043679N00858504EA0121101312174000
B1005155043591N00858625EA0120601304173000
B1005195043508N00858745EA0119801296173000
K100519180009
B1005235043420N00858862EA0119501296171000
B1005275043333N00858979EA0119501296169000
B1005315043250N00859091EA0119201288170000
B1005355043162N00859204EA0119001288168000
B1005395043079N00859312EA0118501280164000
K100539180008
B1005435042991N00859420EA0117801272167000
B1005475042908N00859537EA0116801264170000
B1005515042825N00859654EA0116201256174000
B1005555042741N00859766EA0115401248170000
B1005595042662N00859883EA0114801240169000
K100559180003
B1006035042583N00900004EA0114401240167000
B1006075042500N00900120EA0115101248167000
B1006115042416N00900233EA0116301256162000
B1006155042333N00900345EA0117901272157000
B1006195042275N00900450EA0123001328118000
K100619180017
B1006235042229N00900529EA0124701336096000
B1006275042179N00900616EA0122601320114000
B1006315042129N00900720EA0120001296131000
B1006355042079N00900837EA0118201280139000
B1006395042020N00900958EA0117701272137000
K100639180007
B1006435041962N00901075EA0116801264146000
B1006475041904N00901195EA0116801264148000
B1006515041837N00901316EA0117401264143000
B1006555041779N00901425EA0120201296124000
B1006595041729N00901529EA0120301296126000
K100659180013
B1007035041670N00901629EA0121801312118000
B1007075041625N00901725EA0121201304110000
B1007115041570N00901825EA0119301288130000
B1007155041512N00901925EA0117501264130000
B1007195041450N00902029EA0116101248140000
K100719180008
B1007235041387N00902133EA0116701264133000
B1007275041325N00902229EA0117201264132000
B1007315041262N00902320EA0118001272131000
B1007355041208N00902404EA0122101312100000
B1007395041154N00902454EA0123601328086000
K100739180015
B1007435041091N00902491EA0122501312097000
B1007475041037N00902570EA0121701304108000
B1007515040991N00902675EA0120601296120000
B1007555040941N00902787EA0119601288134000
B1007595040887N00902904EA0119201280131000
K100759180013
B1008035040833N00903025EA0117201264142000
B1008075040775N00903150EA0114801240149000
B1008115040716N00903283EA0113601232153000
B1008155040654N00903416EA0113101224155000
B1008195040595N00903550EA0112201216159000
K100819180009
B1008235040537N00903687EA0111301208158000
B1008275040475N00903829EA0109901192165000
B1008315040408N00903966EA0109301192163000
B1008355040341N00904104EA0109001184156000
B1008395040275N00904245EA0107301168169000
K100839180011
B1008435040208N00904395EA0105801152170000
B1008475040141N00904541EA0105201144172000
B1008515040075N00904691EA0105001144169000
B1008555040004N00904833EA0106001152166000
B1008595039941N00904966EA0107001168158000
K100859180013
B1009035039883N00905104EA0106101152160000
B1009075039816N00905241EA0104501136169000
B1009115039754N00905387EA0103701136170000
B1009155039691N00905529EA0103401128172000
B1009195039633N00905670EA0103401128163000
K100919180006
B1009235039575N00905812EA0103301128163000
B1009275039520N00905950EA0104101136155000
B1009315039470N00906083EA0102901120158000
B1009355039412N00906216EA0102601120157000
B1009395039362N00906345EA0102601120146000
K100939180006
B1009435039312N00906475EA0102001112144000
B1009475039262N00906608EA0101501112150000
B1009515039212N00906737EA0103301128131000
B1009555039162N00906850EA0103601128127000
B1009595039116N00906962EA0104001128133000
K100959180011
B1010035039075N00907062EA0106601160095000
B1010075039025N00907137EA0107301160088000
B1010115038979N00907216EA0106401152102000
B1010155038937N00907308EA0107101160097000
B1010195038920N00907404EA0107601168098000
K101019180015
B1010235038945N00907495EA0107401160096000
B1010275039000N00907537EA0105901152107000
B1010315039050N00907608EA0105501144108000
B1010355039070N00907716EA0104401136115000
B1010395039062N00907833EA0104501136119000
K101039180015
B1010435039050N00907954EA0103501128120000
B1010475039025N00908070EA0102501112122000
B1010515039000N00908191EA0101301104126000
B1010555038975N00908312EA0100201096128000
B1010595038945N00908437EA0099101080131000
K101059180006
B1011035038925N00908566EA0098601072127000
B1011075038900N00908695EA0098401072134000
B1011115038879N00908820EA0097401064132000
B1011155038858N00908954EA0096801056133000
B1011195038841N00909083EA0096401056129000
K101119180003
B1011235038825N00909212EA0096001048130000
B1011275038808N00909345EA0096101048130000
B1011315038787N00909475EA0097001056128000
B1011355038770N00909604EA0097601064118000
B1011395038754N00909725EA0097401064123000
K101139180009
B1011435038741N00909850EA0098501072109000
B1011475038725N00909962EA0099601088103000
B1011515038679N00910050EA0100301088097000
B1011555038641N00910137EA0100801096096000
B1011595038612N00910233EA0099901088103000
K101159180011
B1012035038566N00910329EA0099101080112000
B1012075038508N00910412EA0098501072114000
B1012115038445N00910491EA0097901064120000
B1012155038383N00910562EA0098201072117000
B1012195038320N00910637EA0096801056120000
K101219180008
B1012235038258N00910720EA0094601032126000
B1012275038191N00910812EA0093001016135000
B1012315038129N00910908EA0092001008131000
B1012355038062N00911004EA0091301000133000
B1012395037987N00911091EA0090200992136000
K101239180008
B1012435037916N00911175EA0090100984134000
B1012475037845N00911262EA0089600984126000
B1012515037779N00911350EA0088900976127000
B1012555037712N00911445EA0087500960138000
B1012595037650N00911545EA0086900960137000
K101259180009
B1013035037587N00911641EA0086900960131000
B1013075037529N00911741EA0086400952127000
B1013115037470N00911841EA0085900944126000
B1013155037412N00911945EA0085700944129000
B1013195037354N00912045EA0086300952124000
K101319180013
B1013235037300N00912141EA0087700960108000
B1013275037241N00912216EA0088200968108000
B1013315037170N00912275EA0087200960116000
B1013355037091N00912312EA0086200952124000
B1013395037012N00912354EA0086800952113000
K101339180015
B1013435036937N00912391EA0086400952112000
B1013475036862N00912425EA0085700944113000
B1013515036783N00912454EA0084800936121000
B1013555036704N00912491EA0084800936115000
B1013595036633N00912537EA0084700936108000
K101359180014
B1014035036562N00912579EA0083300920110000
B1014075036491N00912637EA0081600904122000
B1014115036416N00912708EA0080100888126000
B1014155036341N00912766EA0080100888123000
B1014195036266N00912820EA0081100896114000
K101419180015
B1014235036200N00912870EA0082300912107000
B1014275036133N00912929EA0083300920103000
B1014315036070N00912916EA0083600920098000
B1014355036045N00912820EA0081700904108000
B1014395036095N00912737EA0081800904105000
K101439180015
B1014435036158N00912750EA0082700912095000
B1014475036191N00912837EA0082500912103000
B1014515036183N00912941EA0083600920103000
B1014555036145N00913025EA0084700928090000
B1014595036083N00913045EA0083300920106000
K101459160002
B1015035036033N00912966EA0083100920102000
B1015075036045N00912866EA0083000912100000
B1015115036100N00912812EA0083200920091000
B1015155036158N00912841EA0082500912099000
B1015195036187N00912937EA0083100920098000
K101519042003
B1015235036191N00913033EA0085000936086000
B1015275036204N00913120EA0085300936089000
B1015315036166N00913208EA0083800920102000
B1015355036095N00913200EA0084500928094000
B1015395036070N00913108EA0084200928093000
K101539180015
B1015435036112N00913029EA0083000912106000
B1015475036179N00913029EA0085100936095000
B1015515036216N00913095EA0085500944088000
B1015555036204N00913195EA0084400928104000
B1015595036145N00913250EA0084900936099000
K101559024007
B1016035036087N00913212EA0084700936101000
B1016075036075N00913104EA0084200928099000
B1016115036125N00913037EA0084600936101000
B1016155036179N00913070EA0084800936093000
B1016195036195N00913166EA0085000936088000
K101619064003
B1016235036166N00913254EA0085100936096000
B1016275036120N00913312EA0085900944088000
B1016315036062N00913329EA0085800944088000
B1016355036008N00913270EA0084700936094000
B1016395036025N00913166EA0083900928094000
K101639132001
B1016435036087N00913133EA0084000928100000
B1016475036137N00913183EA0084500928096000
B1016515036154N00913279EA0084200928093000
B1016555036154N00913379EA0083200920106000
B1016595036145N00913495EA0082900920113000
K101659112003
B1017035036141N00913612EA0083000920111000
B1017075036129N00913729EA0081600904121000
B1017115036120N00913854EA0080300888123000
B1017155036120N00913983EA0079700888126000
B1017195036120N00914108EA0079000880125000
K101719180006
B1017235036120N00914233EA0077700864124000
B1017275036116N00914362EA0076100848122000
B1017315036112N00914491EA0074700832124000
B1017355036104N00914625EA0073500824133000
B1017395036095N00914762EA0074400832129000
K101739180011
B1017435036087N00914887EA0077000856110000
B1017475036100N00914987EA0078000864102000
B1017515036158N00915025EA0077200856113000
B1017555036208N00914945EA0077600856108000
B1017595036191N00914833EA0077300856116000
K101759180013
B1018035036120N00914791EA0078000864116000
B1018075036062N00914862EA0078600872107000
B1018115036058N00914979EA0079000880112000
B1018155036116N00915029EA0079700880110000
B1018195036162N00914958EA0080800888100000
K101819318004
B1018235036133N00914866EA0080500888107000
B1018275036062N00914854EA0081100896104000
B1018315036016N00914933EA0081700904107000
B1018355036029N00915037EA0082000904105000
B1018395036087N00915075EA0083100920102000
K101839336001
B1018435036133N00915008EA0083500920108000
B1018475036116N00914904EA0083000920113000
B1018515036050N00914870EA0084400928105000
B1018555035995N00914937EA0085600944100000
B1018595036004N00915033EA0085500944107000
K101859012007
B1019035036066N00915062EA0086500952101000
B1019075036095N00914979EA0087200960104000
B1019115036045N00914900EA0086200944114000
B1019155035975N00914937EA0087500968105000
B1019195035954N00915033EA0088900976101000
K101919342007
B1019235036000N00915091EA0089100976105000
B1019275036045N00915012EA0089100976108000
B1019315036008N00914920EA0089900984105000
B1019355035937N00914929EA0090100992103000
B1019395035908N00915029EA0090901000106000
K101939024011
B1019435035958N00915087EA0091301000107000
B1019475036012N00915016EA0091301000120000
B1019515035983N00914912EA0092601016100000
B1019555035912N00914908EA0093201024105000
B1019595035879N00915000EA0094501032098000
K101959022012
B1020035035920N00915075EA0094701040103000
B1020075035979N00915037EA0094601032112000
B1020115035979N00914925EA0096001048096000
B1020155035925N00914875EA0097001056094000
B1020195035862N00914920EA0096301056101000
K102019036010
B1020235035854N00915025EA0097101056100000
B1020275035895N00915091EA0098401072098000
B1020315035954N00915062EA0098701072097000
B1020355035970N00914954EA0099501088102000
B1020395035920N00914879EA0100401088098000
K102039014007
B1020435035854N00914908EA0100201088098000
B1020475035841N00915012EA0100301096109000
B1020515035883N00915083EA0102101112096000
B1020555035937N00915045EA0102201112107000
B1020595035937N00914933EA0103301120090000
K102059016010
B1021035035875N00914887EA0103401120102000
B1021075035820N00914950EA0103201120101000
B1021115035829N00915058EA0103001120115000
B1021155035883N00915112EA0105101144099000
B1021195035933N00915045EA0106001152100000
K102119052004
B1021235035908N00914941EA0107001160095000
B1021275035833N00914937EA0106801152095000
B1021315035795N00915033EA0106501152108000
B1021355035816N00915137EA0108201176099000
B1021395035879N00915150EA0109501184097000
K102139028006
B1021435035904N00915050EA0109401184104000
B1021475035845N00914970EA0110801200100000
B1021515035783N00915033EA0111101200112000
B1021555035808N00915137EA0112301216101000
B1021595035875N00915137EA0114401232096000
K102159326002
B1022035035895N00915045EA0115101240096000
B1022075035850N00914958EA0115001240103000
B1022115035779N00914970EA0115001240104000
B1022155035745N00915075EA0115101240113000
B1022195035795N00915145EA0116101248106000
K102219060007
B1022235035854N00915100EA0116901264108000
B1022275035854N00914991EA0117901272110000
B1022315035787N00914941EA0117601264107000
B1022355035720N00914991EA0118501280099000
B1022395035704N00915091EA0119001280099000
K102239014009
B1022435035745N00915166EA0119601288100000
B1022475035808N00915154EA0120001296105000
B1022515035825N00915050EA0120201288103000
B1022555035766N00914995EA0120401296102000
B1022595035695N00915041EA0120701304107000
K102259008009
B1023035035679N00915145EA0121701312096000
B1023075035725N00915220EA0122101312107000
B1023115035795N00915245EA0122801320103000
B1023155035850N00915191EA0123601328108000
B1023195035825N00915091EA0123801336109000
K102319352008
B1023235035750N00915095EA0123901328111000
B1023275035720N00915200EA0124801344107000
B1023315035750N00915300EA0126201352106000
B1023355035808N00915333EA0127801368095000
B1023395035845N00915262EA0127701368104000
K102339318011
B1023435035800N00915179EA0127201368107000
B1023475035725N00915220EA0127901368109000
B1023515035700N00915325EA0129401384100000
B1023555035733N00915416EA0130101392104000
B1023595035804N00915416EA0130301392104000
K102359308008
B1024035035837N00915325EA0131601408102000
B1024075035800N00915254EA0133501432088000
B1024115035733N00915266EA0132501416097000
B1024155035691N00915366EA0132701416103000
B1024195035720N00915466EA0134001432099000
K102419270004
B1024235035783N00915500EA0134101432095000
B1024275035833N00915441EA0133301424106000
B1024315035820N00915333EA0134601448099000
B1024355035762N00915304EA0135001448096000
B1024395035700N00915375EA0134201440112000
K102439312003
B1024435035662N00915487EA0134901448117000
B1024475035666N00915591EA0137901480088000
B1024515035720N00915633EA0135501448108000
B1024555035766N00915541EA0132801416122000
B1024595035737N00915433EA0134901440110000
K102459346008
B1025035035679N00915375EA0136901464096000
B1025075035612N00915366EA0137301464097000
B1025115035554N00915425EA0137801472097000
B1025155035520N00915520EA0138201472097000
B1025195035495N00915629EA0137401464106000
K102519354011
B1025235035466N00915745EA0135301448123000
B1025275035433N00915875EA0133401432136000
B1025315035391N00916012EA0131401408150000
B1025355035350N00916154EA0130301400144000
B1025395035304N00916304EA0130201400153000
K102539180011
B1025435035258N00916437EA0134501440125000
B1025475035220N00916520EA0139001488077000
B1025515035183N00916595EA0137301464099000
B1025555035145N00916700EA0135001440117000
B1025595035095N00916812EA0134401440124000
K102559180011
B1026035035045N00916933EA0133501432126000
B1026075034995N00917054EA0132501416136000
B1026115034945N00917179EA0131501408138000
B1026155034891N00917304EA0130101400146000
B1026195034841N00917437EA0129801392149000
K102619180007
B1026235034795N00917570EA0129301384147000
B1026275034745N00917704EA0128601384153000
B1026315034695N00917829EA0129601392138000
B1026355034650N00917958EA0129501392141000
B1026395034595N00918087EA0128501384152000
K102639180005
B1026435034537N00918225EA0127201368152000
B1026475034483N00918379EA0126001360158000
B1026515034433N00918541EA0125101352167000
B1026555034383N00918708EA0124701344171000
B1026595034337N00918875EA0124801344165000
K102659180014
B1027035034295N00919037EA0124001336164000
B1027075034250N00919204EA0123001328170000
B1027115034208N00919366EA0122701328166000
B1027155034166N00919525EA0122901328162000
B1027195034125N00919679EA0122101320159000
K102719180010
B1027235034083N00919837EA0121001304165000
B1027275034050N00919995EA0121001304163000
B1027315034012N00920154EA0120701304161000
B1027355033979N00920304EA0120201296156000
B1027395033941N00920458EA0119401288159000
K102739180009
B1027435033904N00920604EA0122001312148000
B1027475033879N00920729EA0123501328126000
B1027515033854N00920858EA0122301312133000
B1027555033825N00920995EA0120501296145000
B1027595033787N00921145EA0118201272155000
K102759180004
B1028035033745N00921300EA0116601264162000
B1028075033700N00921458EA0115101248167000
B1028115033650N00921620EA0113801232170000
B1028155033600N00921783EA0112501224170000
B1028195033554N00921945EA0111601208166000
K102819180012
B1028235033504N00922112EA0111001208172000
B1028275033458N00922275EA0111901216163000
B1028315033412N00922429EA0111401208164000
B1028355033370N00922583EA0110001192168000
B1028395033325N00922745EA0108601184172000
K102839180008
B1028435033287N00922908EA0108301176170000
B1028475033245N00923066EA0108801184163000
B1028515033204N00923220EA0108101176159000
B1028555033162N00923366EA0107201168161000
B1028595033116N00923516EA0105301152165000
K102859180004
B1029035033066N00923670EA0104001136166000
B1029075033020N00923820EA0104101136153000
B1029115032975N00923966EA0103201128156000
B1029155032929N00924125EA0101801112171000
B1029195032879N00924279EA0101901112170000
K102919180008
B1029235032833N00924433EA0102301120163000
B1029275032787N00924583EA0102001112163000
B1029315032741N00924733EA0101701112164000
B1029355032695N00924879EA0102001112155000
B1029395032645N00925020EA0101901112155000
K102939180006
B1029435032604N00925162EA0100801104155000
B1029475032558N00925308EA0099201088163000
B1029515032508N00925458EA0098701080157000
B1029555032462N00925604EA0098801080160000
B1029595032412N00925745EA0101301104149000
K102959180013
B1030035032387N00925862EA0106401152101000
B1030075032366N00925958EA0107801168086000
B1030115032362N00926062EA0105501144108000
B1030155032341N00926183EA0103301120120000
B1030195032316N00926312EA0103201120130000
K103019180016
B1030235032287N00926429EA0104601136112000
B1030275032262N00926533EA0105401144101000
B1030315032237N00926637EA0103701128105000
B1030355032204N00926750EA0101901104111000
B1030395032166N00926866EA0101401104124000
K103039180011
B1030435032129N00926979EA0101301104122000
B1030475032091N00927095EA0100201088126000
B1030515032054N00927216EA0099201080136000
B1030555032012N00927345EA0097201064142000
B1030595031975N00927483EA0095501048150000
K103059180005
B1031035031933N00927625EA0094201032150000
B1031075031891N00927770EA0092801016154000
B1031115031850N00927912EA0092101016152000
B1031155031812N00928058EA0091001000151000
B1031195031766N00928200EA0091901008147000
K103119180009
B1031235031725N00928333EA0092601016140000
B1031275031687N00928458EA0095601048121000
B1031315031658N00928562EA0099201080087000
B1031355031658N00928658EA0099601080095000
B1031395031708N00928729EA0098701072111000
K103139180019
B1031435031766N00928683EA0099401080105000
B1031475031770N00928575EA0101201096101000
B1031515031712N00928520EA0101001096104000
B1031555031641N00928570EA0100601088109000
B1031595031620N00928683EA0101701104110000
K103159358003
B1032035031637N00928787EA0102901112099000
B1032075031691N00928845EA0103001112105000
B1032115031754N00928837EA0103201120106000
B1032155031804N00928775EA0102701112102000
B1032195031804N00928679EA0103301120102000
K103219312007
B1032235031758N00928604EA0104201128093000
B1032275031695N00928583EA0104001128096000
B1032315031629N00928595EA0104601128093000
B1032355031566N00928633EA0105501144092000
B1032395031525N00928704EA0106501152091000
K103239326008
B1032435031533N00928800EA0106201152100000
B1032475031595N00928825EA0106001144103000
B1032515031641N00928754EA0106901152093000
B1032555031637N00928658EA0108301168083000
B1032595031600N00928583EA0108101168096000
K103259040006
B1033035031533N00928541EA0108601168095000
B1033075031466N00928570EA0109601184102000
B1033115031458N00928675EA0109201176109000
B1033155031525N00928720EA0109401176097000
B1033195031579N00928654EA0110601192098000
K103319158003
B1033235031587N00928554EA0111301200104000
B1033275031558N00928466EA0113501224093000
B1033315031491N00928462EA0113501224100000
B1033355031454N00928562EA0113301216108000
B1033395031504N00928650EA0113601216105000
K103339224009
B1033435031570N00928625EA0115401240096000
B1033475031595N00928537EA0116501248098000
B1033515031562N00928450EA0117301264094000
B1033555031495N00928441EA0117001256100000
B1033595031441N00928520EA0118101272099000
K103359290005
B1034035031458N00928620EA0118901280097000
B1034075031516N00928629EA0118301272106000
B1034115031550N00928529EA0119001280108000
B1034155031516N00928437EA0121301304090000
B1034195031454N00928416EA0121001296100000
K103419006009
B1034235031400N00928487EA0121201296101000
B1034275031391N00928595EA0122701312096000
B1034315031441N00928641EA0122601312100000
B1034355031495N00928583EA0122501312108000
B1034395031479N00928475EA0124001328099000
K103439006008
B1034435031412N00928462EA0124101328100000
B1034475031362N00928550EA0124101328105000
B1034515031379N00928650EA0125601344090000
B1034555031425N00928700EA0126501352091000
B1034595031483N00928683EA0127101360091000
K103459332007
B1035035031516N00928604EA0127401360093000
B1035075031495N00928504EA0127901368096000
B1035115031425N00928479EA0127601368098000
B1035155031370N00928550EA0127401360103000
B1035195031350N00928658EA0129201384096000
K103519324008
B1035235031387N00928733EA0130201392091000
B1035275031445N00928720EA0130001392103000
B1035315031466N00928616EA0130701392096000
B1035355031420N00928537EA0132301416092000
B1035395031358N00928533EA0131701408100000
K103539030008
B1035435031304N00928608EA0131601400086000
B1035475031270N00928712EA0131601408110000
B1035515031241N00928820EA0131901416112000
B1035555031208N00928925EA0131801408111000
B1035595031170N00929033EA0130301400118000
K103559180015
B1036035031137N00929158EA0128601376126000
B1036075031108N00929291EA0127301368133000
B1036115031079N00929429EA0126901360134000
B1036155031050N00929570EA0126101352134000
B1036195031016N00929712EA0125601352137000
K103619180013
B1036235030991N00929858EA0124601344141000
B1036275030962N00930004EA0124501344149000
B1036315030937N00930150EA0126001360141000
B1036355030916N00930279EA0127201368132000
B1036395030891N00930404EA0126401360132000
K103639180007
B1036435030866N00930537EA0124701344133000
B1036475030837N00930675EA0122801320142000
B1036515030808N00930816EA0121401312147000
B1036555030783N00930958EA0121101304142000
B1036595030754N00931100EA0120901304140000
K103659180007
B1037035030733N00931241EA0121401304134000
B1037075030712N00931375EA0121201304138000
B1037115030691N00931508EA0121401304131000
B1037155030662N00931637EA0120901304134000
B1037195030629N00931770EA0120301296136000
K103719180005
B1037235030591N00931904EA0121101304133000
B1037275030562N00932033EA0122501320126000
B1037315030537N00932137EA0125701352100000
B1037355030487N00932204EA0126701360088000
B1037395030437N00932270EA0125501344100000
K103739180013
B1037435030379N00932350EA0125201344111000
B1037475030345N00932450EA0127501368095000
B1037515030383N00932537EA0127401368115000
B1037555030445N00932495EA0128101376111000
B1037595030433N00932383EA0129201384110000
K103759180014
B1038035030362N00932337EA0130401400110000
B1038075030295N00932395EA0131701408108000
B1038115030287N00932504EA0132801416104000
B1038155030341N00932562EA0133501424106000
B1038195030400N00932512EA0134801440100000
K103819000007
B1038235030383N00932412EA0135701448105000
B1038275030308N00932395EA0136701464103000
B1038315030258N00932470EA0138801480092000
B1038355030262N00932570EA0138901480094000
B1038395030320N00932625EA0139001480107000
K103839348010
B1038435030370N00932570EA0141201504091000
B1038475030362N00932479EA0141801512098000
B1038515030287N00932458EA0141101504115000
B1038555030229N00932545EA0143101528107000
B1038595030245N00932654EA0144401536104000
K103859296008
B1039035030308N00932691EA0145401552099000
B1039075030350N00932629EA0146801560095000
B1039115030337N00932525EA0147301568101000
B1039155030270N00932487EA0149101584097000
B1039195030212N00932541EA0150201600095000
K103919322010
B1039235030212N00932650EA0150001600107000
B1039275030275N00932700EA0150001600108000
B1039315030325N00932637EA0152601624092000
B1039355030320N00932545EA0153601640091000
B1039395030266N00932483EA0154201640090000
K103939322005
B1039435030200N00932483EA0155401656095000
B1039475030145N00932550EA0156001664087000
B1039515030129N00932654EA0155301656102000
B1039555030170N00932741EA0154801648106000
B1039595030237N00932737EA0155801656112000
K103959340007
B1040035030287N00932679EA0158401680095000
B1040075030304N00932591EA0160201704090000
B1040115030266N00932525EA0160101704096000
B1040155030191N00932545EA0159601696105000
B1040195030158N00932645EA0161601720098000
K104019300008
B1040235030183N00932741EA0162001720092000
B1040275030245N00932766EA0161801720107000
B1040315030300N00932716EA0163901744097000
B1040355030312N00932633EA0164701744092000
B1040395030270N00932558EA0163601736105000
K104039302009
B1040435030191N00932575EA0163001728115000
B1040475030112N00932633EA0163801736115000
B1040515030041N00932695EA0163501736118000
B1040555029966N00932775EA0160501704137000
B1040595029883N00932870EA0157401672154000
K104059180011
B1041035029800N00932983EA0155601656162000
B1041075029712N00933104EA0154101640166000
B1041115029629N00933229EA0153301640173000
B1041155029541N00933345EA0153801640169000
B1041195029450N00933454EA0153901640165000
K104119180010
B1041235029358N00933550EA0153401640165000
B1041275029262N00933645EA0153101632164000
B1041315029175N00933750EA0152301624168000
B1041355029083N00933854EA0151801616164000
B1041395028995N00933954EA0151601616160000
K104139180008
B1041435028912N00934050EA0152001624156000
B1041475028825N00934145EA0151501616158000
B1041515028741N00934254EA0151101608164000
B1041555028658N00934362EA0150901608165000
B1041595028579N00934479EA0150501608153000
K104159180006
B1042035028504N00934595EA0150201600161000
B1042075028425N00934704EA0150201600155000
B1042115028341N00934808EA0149801600157000
B1042155028258N00934920EA0148701584162000
B1042195028175N00935033EA0147901576170000
K104219180006
B1042235028091N00935150EA0148701584164000
B1042275028025N00935262EA0150401608143000
B1042315027958N00935375EA0148701584154000
B1042355027883N00935491EA0146601568165000
B1042395027808N00935616EA0145001552171000
K104239180003
B1042435027729N00935745EA0144301544169000
B1042475027654N00935875EA0144701544162000
B1042515027583N00936000EA0143901536162000
B1042555027508N00936129EA0142701528163000
B1042595027441N00936270EA0142401520166000
K104259180007
B1043035027370N00936404EA0142301520164000
B1043075027295N00936533EA0141301512170000
B1043115027220N00936662EA0141101512169000
B1043155027141N00936787EA0141801520162000
B1043195027062N00936908EA0140701504162000
K104319180010
B1043235026983N00937037EA0139701496162000
B1043275026900N00937162EA0138201480173000
B1043315026816N00937295EA0138401480165000
B1043355026733N00937425EA0138301480169000
B1043395026650N00937550EA0136901464172000
K104339180012
B1043435026566N00937675EA0136301464172000
B1043475026479N00937800EA0135601456173000
B1043515026395N00937933EA0134701448171000
B1043555026312N00938062EA0133901440174000
B1043595026225N00938195EA0132601424167000
K104359180015
B1044035026137N00938333EA0129601392184000
B1044075026045N00938475EA0128601384178000
B1044115025958N00938612EA0129401392173000
B1044155025875N00938741EA0129301392174000
B1044195025791N00938870EA0128101376179000
K104419180012
B1044235025708N00938995EA0127901376176000
B1044275025629N00939116EA0128501384165000
B1044315025550N00939237EA0127801376167000
B1044355025475N00939358EA0127301368167000
B1044395025400N00939487EA0126901368176000
K104439180005
B1044435025325N00939608EA0128801384156000
B1044475025258N00939720EA0128901384152000
B1044515025187N00939837EA0128701384157000
B1044555025116N00939958EA0128501384161000
B1044595025041N00940079EA0128901384159000
K104459180006
B1045035024966N00940204EA0128301376163000
B1045075024891N00940333EA0127501368166000
B1045115024812N00940462EA0126101360171000
B1045155024729N00940591EA0125001344166000
B1045195024654N00940716EA0124901344159000
K104519180014
B1045235024575N00940829EA0125201344151000
B1045275024495N00940941EA0125101344158000
B1045315024416N00941054EA0126301360150000
B1045355024345N00941145EA0131601408112000
B1045395024275N00941154EA0135801448085000
K104539180022
B1045435024237N00941075EA0134801440100000
B1045475024262N00940975EA0135301440097000
B1045515024320N00940970EA0137901472090000
B1045555024358N00941050EA0138101472097000
B1045595024345N00941154EA0139201480090000
K104559180022
B1046035024287N00941212EA0139801488094000
B1046075024212N00941212EA0141201496086000
B1046115024179N00941120EA0140501496101000
B1046155024220N00941037EA0140801496105000
B1046195024279N00941050EA0143201520092000
K104619320007
B1046235024308N00941129EA0144001528091000
B1046275024283N00941225EA0143901528086000
B1046315024245N00941325EA0144101528095000
B1046355024195N00941408EA0145001536093000
B1046395024133N00941475EA0142801520103000
K104639180022
B1046435024075N00941570EA0140501496115000
B1046475024012N00941675EA0139401488129000
B1046515023950N00941783EA0137901464134000
B1046555023887N00941900EA0136301456141000
B1046595023820N00942012EA0136601464141000
K104659180012
B1047035023762N00942120EA0137101464137000
B1047075023704N00942225EA0136101448136000
B1047115023637N00942329EA0134801440133000
B1047155023575N00942441EA0133901432136000
B1047195023512N00942554EA0134201432136000
K104719180012
B1047235023450N00942650EA0137701472118000
B1047275023400N00942725EA0140501496095000
B1047315023358N00942800EA0141301504095000
B1047355023316N00942883EA0141901504092000
B1047395023258N00942937EA0141901504101000
K104739180014
B1047435023191N00942929EA0141801504098000
B1047475023141N00942850EA0141801504100000
B1047515023108N00942766EA0142301512096000
B1047555023112N00942666EA0141301504102000
B1047595023162N00942600EA0141101504106000
K104759180014
B1048035023225N00942608EA0140901496108000
B1048075023287N00942670EA0141701512104000
B1048115023333N00942741EA0142401512099000
B1048155023375N00942825EA0143501528091000
B1048195023400N00942912EA0144501536091000
K104819180014
B1048235023412N00943012EA0144601536100000
B1048275023462N00943075EA0144001528104000
B1048315023529N00943041EA0144601536108000
B1048355023554N00942945EA0146301552099000
B1048395023516N00942854EA0145401544109000
K104839180014
