AZANA52 ZANDER GP940 V1.25
HFDTE020714
HFFXA050
HFPLT Pilot             :Dr. Eberhard Uhlmann                    
HFGTY Glider type       :Ventus C                                
HFGID Glider ID         :D-4664    
HFDTM100 GPS Datum      :WGS84
HFRFW Firmware Version  :1.25
HFRHW Hardware version  :A
HFFTY FR Type           :ZANDER GP940
HFGPS                   :Motorola,VP ONCORE,8,30000
HFPRS Press Alt Sensor  :Motorola,MPX100A,10000
HFCCL Competition Class :                                        
HFCID Competition ID    :YL        
I023638IAS3941ENL
J020810WDI1113WVE
LZAN 080709 PowerOn
B0807135108600N00756045EV0025000000007000
B0807175108600N00756045EV0024900000000000
B0807215108600N00756045EV0024900000007000
B0807255108600N00756045EV0024800000000000
B0807295108600N00756045EV0024800000007000
B0807335108600N00756045EV0024700000000000
B0807375108600N00756045EV0024700000000000
B0807415108600N00756045EV0024700000000000
B0807455108600N00756045EV0024700000000000
B0807495108600N00756045EV0024700000000000
B0807535108600N00756045EV0024700000000000
B0807575108600N00756045EV0024700000007000
B0808015108600N00756045EV0024700000000000
B0808055108604N00756045EA0024700000000000
B0808095108600N00756050EA0024700312007000
B0808135108600N00756050EA0024700312000000
B0808175108600N00756050EA0024700312007000
B0808215108600N00756050EA0024700312007000
B0808255108595N00756050EA0024600312007000
B0808295108595N00756050EA0024700312007000
B0808335108595N00756045EA0024600320000000
B0808375108595N00756045EA0024600320000000
B0808415108595N00756045EA0024600312009000
B0808455108595N00756045EA0024600312000000
B0808495108595N00756045EA0024600312007000
B0808535108595N00756045EA0024600312000000
B0808575108595N00756045EA0024500312007000
B0809015108595N00756045EA0024600312007000
B0809055108595N00756045EA0024600312000000
B0809095108595N00756045EA0024600312000000
B0809135108595N00756045EA0024600312009000
B0809175108595N00756045EA0024600312000000
B0809215108595N00756045EA0024600312007000
B0809255108595N00756045EA0024600312000000
B0809295108595N00756045EA0024600312000000
B0809335108595N00756045EA0024600312000000
B0809375108595N00756045EA0024600312007000
B0809415108595N00756045EA0024700312000000
B0809455108595N00756045EA0024600312007000
B0809495108595N00756045EA0024700312000000
B0809535108595N00756045EA0024600312007000
B0809575108595N00756045EA0024600312000000
B0810015108595N00756045EA0024600312000000
B0810055108595N00756045EA0024600312000000
B0810095108595N00756045EA0024600312000000
B0810135108595N00756045EA0024700312007000
B0810175108595N00756045EA0024700312000000
B0810215108595N00756045EA0024600312007000
B0810255108595N00756045EA0024600312007000
B0810295108595N00756045EA0024700320000000
B0810335108595N00756045EA0024600312007000
B0810375108595N00756045EA0024700312007000
B0810415108595N00756045EA0024600320007000
B0810455108595N00756045EA0024700320007000
B0810495108595N00756045EA0024700312000000
B0810535108595N00756045EA0024700312007000
B0810575108595N00756045EA0024600320007000
B0811015108595N00756045EA0024600312000000
B0811055108595N00756045EA0024600312007000
B0811095108595N00756045EA0024600312009000
B0811135108595N00756045EA0024600320000000
B0811175108595N00756045EA0024600320000000
B0811215108595N00756045EA0024600320000000
B0811255108595N00756045EA0024600320000000
B0811295108595N00756045EA0024700320000000
B0811335108595N00756045EA0024700320000000
B0811375108595N00756045EA0024600320000000
B0811415108595N00756045EA0024700312007000
B0811455108595N00756045EA0024700312000000
B0811495108595N00756045EA0024700312007000
B0811535108600N00756050EA0024600320018020
B0811575108616N00756062EA0024300320070150
B0812015108645N00756091EA0024100320086100
K081201180001
B0812055108687N00756137EA0024400320095100
B0812095108741N00756191EA0024700320107100
B0812135108800N00756258EA0026300328119010
B0812175108858N00756333EA0027900344128010
B0812215108904N00756425EA0030000360123000
K081221000005
B0812255108925N00756529EA0032000384120000
B0812295108925N00756645EA0033300400126000
B0812335108908N00756766EA0033900400127000
B0812375108887N00756883EA0035300416128000
B0812415108854N00757000EA0036700432125000
K081241000005
B0812455108804N00757100EA0038000440129000
B0812495108737N00757175EA0039400456126000
B0812535108658N00757229EA0040900464131000
B0812575108570N00757220EA0043500488134000
B0813015108491N00757175EA0045300504133000
K081301000005
B0813055108429N00757087EA0046600520136000
B0813095108379N00756979EA0048900536131010
B0813135108345N00756858EA0050500560136000
B0813175108316N00756733EA0052200576133010
B0813215108295N00756608EA0053600592130000
K081321000005
B0813255108279N00756475EA0055600616126000
B0813295108270N00756350EA0058700640125000
B0813335108258N00756225EA0060200656133000
B0813375108254N00756095EA0061600672131000
B0813415108250N00755966EA0062900688131000
K081341180000
B0813455108250N00755833EA0063500696134000
B0813495108258N00755700EA0065100712135000
B0813535108266N00755566EA0066500728130000
B0813555108270N00755500EA0066900728136000
B0813565108270N00755466EA0067300728133000
B0813575108275N00755433EA0067900736133000
B0813585108275N00755404EA0068700744131000
B0813595108275N00755370EA0069000752127000
B0814005108275N00755337EA0069500752134000
B0814015108275N00755304EA0070000760132000
K081401180002
B0814025108275N00755270EA0070300760134000
B0814035108275N00755237EA0070800768133000
B0814045108275N00755208EA0071400768132000
B0814055108279N00755175EA0072200776133000
B0814095108283N00755050EA0073500792132000
B0814135108287N00754916EA0074500800138000
B0814175108291N00754787EA0075900816132000
B0814215108300N00754662EA0077700832124000
K081421180000
B0814255108312N00754541EA0079100848123000
B0814295108316N00754416EA0080800864132000
B0814335108312N00754291EA0082800888137010
B0814375108304N00754170EA0085800920133000
B0814415108295N00754050EA0088300944121000
K081441000003
B0814455108287N00753925EA0089200952128000
B0814495108279N00753800EA0090200968128000
B0814535108275N00753675EA0091300968126000
B0814575108275N00753554EA0092900984126000
B0815015108275N00753433EA0094101000122000
K081501000002
B0815055108275N00753316EA0095801016122000
B0815095108270N00753195EA0096801024125000
B0815135108262N00753075EA0098501040129000
B0815175108262N00752954EA0099301056118000
B0815215108275N00752845EA0099101048120000
K081521000002
B0815255108291N00752737EA0097301040123000
B0815295108308N00752629EA0097001040122000
B0815335108325N00752525EA0097301040113000
B0815375108337N00752425EA0097201040110000
B0815415108350N00752325EA0097001040108000
K081541000006
B0815455108362N00752229EA0097001040106000
B0815495108375N00752133EA0096901040107000
B0815535108391N00752041EA0096401032108000
B0815575108408N00751945EA0096101032106000
B0816015108425N00751854EA0095901032107000
K081601000009
B0816055108441N00751758EA0096001024109000
B0816095108454N00751662EA0095701016105000
B0816135108462N00751570EA0095001016105000
B0816175108466N00751475EA0094601008104000
B0816215108466N00751375EA0093901000105000
K081621000009
B0816255108454N00751270EA0092500984117000
B0816295108425N00751166EA0091800984117000
B0816335108391N00751058EA0091600976120000
B0816375108358N00750958EA0091500976113000
B0816415108316N00750858EA0091400976114000
K081641180000
B0816455108275N00750766EA0091200976109000
B0816495108233N00750675EA0090900968110000
B0816535108191N00750587EA0090900976106000
B0816575108150N00750500EA0090800976106000
B0817015108100N00750429EA0090700968107000
K081701180003
B0817055108054N00750354EA0091700976103000
B0817095108016N00750275EA0091500976096000
B0817135107991N00750195EA0091200976088000
B0817175107970N00750108EA0090500968101000
B0817215107958N00750020EA0090500968094000
K081721180004
B0817255107958N00749929EA0090500968097000
B0817295107979N00749845EA0090700976099000
B0817335108016N00749779EA0090200968102000
B0817375108066N00749733EA0089100960099000
B0817415108120N00749704EA0088800960096000
K081741180003
B0817455108175N00749683EA0088500960098000
B0817495108229N00749658EA0088800960097000
B0817535108283N00749629EA0089100960093000
B0817575108333N00749587EA0089500968093000
B0818015108387N00749550EA0090100976096000
K081801180000
B0818055108441N00749520EA0090600984094000
B0818095108495N00749554EA0089300968101000
B0818135108520N00749650EA0089500968096000
B0818175108512N00749750EA0089600968098000
B0818215108470N00749837EA0090700976092000
K081821000001
B0818255108412N00749866EA0091700992088000
B0818295108362N00749816EA0091600992095000
B0818335108362N00749721EA0091700992096000
B0818375108412N00749675EA0092501000093000
B0818415108462N00749712EA0092701000090000
K081841000001
B0818455108475N00749804EA0093401008088000
B0818495108441N00749887EA0094201016086000
B0818535108383N00749912EA0093801016098000
B0818575108345N00749837EA0094401016094000
B0819015108366N00749758EA0095101024093000
K081901000001
B0819055108420N00749758EA0095901032092000
B0819095108454N00749833EA0095901032095000
B0819135108437N00749933EA0096701040094000
B0819175108379N00749962EA0097401048086000
B0819215108325N00749920EA0098001056091000
K081921000001
B0819255108312N00749833EA0098301056094000
B0819295108350N00749775EA0099001064088000
B0819335108404N00749795EA0099201064093000
B0819375108429N00749879EA0100001072089000
B0819415108412N00749970EA0100801080090000
K081941000001
B0819455108358N00750016EA0101201088088000
B0819495108300N00749995EA0101901096087000
B0819535108270N00749920EA0102401096086000
B0819575108287N00749841EA0102501104094000
B0820015108341N00749812EA0103001104092000
K082001000001
B0820055108387N00749879EA0103401112100000
B0820095108375N00749975EA0104801120090000
B0820135108320N00750012EA0105301128092000
B0820175108262N00749979EA0105801128091000
B0820215108237N00749895EA0106601144087000
K082021000001
B0820255108262N00749820EA0106701144096000
B0820295108316N00749804EA0107101144089000
B0820335108366N00749858EA0106801144097000
B0820375108366N00749958EA0108601152088000
B0820415108320N00750025EA0109301160089000
K082041000001
B0820455108262N00750033EA0109901168084000
B0820495108212N00749979EA0110101168092000
B0820535108200N00749891EA0110601176089000
B0820575108233N00749825EA0111001176092000
B0821015108291N00749820EA0111401184084000
K082101000001
B0821055108337N00749862EA0111401184087000
B0821095108362N00749941EA0111801184088000
B0821135108358N00750037EA0112101192084000
B0821175108333N00750125EA0112501192087000
B0821215108279N00750175EA0111401184099000
K082121000001
B0821255108212N00750154EA0112301192096000
B0821295108170N00750087EA0113601208080000
B0821335108154N00750012EA0113001200087000
B0821375108166N00749929EA0112701200091000
B0821415108212N00749875EA0113501208087000
K082141000001
B0821455108262N00749879EA0113601216084000
B0821495108312N00749908EA0113301208088000
B0821535108350N00749975EA0112901208092000
B0821575108375N00750066EA0112501208097000
B0822015108412N00750145EA0112301200093000
K082201000001
B0822055108450N00750220EA0111401192095000
B0822095108491N00750304EA0111601192100000
B0822135108533N00750383EA0112001200097000
B0822175108575N00750458EA0111601200103000
B0822215108625N00750533EA0112201200098000
K082221180002
B0822255108670N00750604EA0112401200093000
B0822295108712N00750679EA0112101200095000
B0822335108758N00750762EA0112201200099000
B0822375108791N00750845EA0112701208093000
B0822415108812N00750937EA0112601208095000
K082241180006
B0822455108825N00751037EA0112201200098000
B0822495108829N00751137EA0111401200097000
B0822535108825N00751245EA0110201184105000
B0822575108816N00751358EA0110201184102000
B0823015108808N00751470EA0109801176105000
K082301180007
B0823055108800N00751587EA0109401176105000
B0823095108787N00751708EA0109101176106000
B0823135108783N00751825EA0108901168105000
B0823175108775N00751941EA0108601168104000
B0823215108762N00752058EA0108801152108000
K082321180013
B0823255108758N00752179EA0108001144110000
B0823295108754N00752308EA0107301136114000
B0823335108750N00752433EA0106901136114000
B0823375108750N00752562EA0106401136116000
B0823415108754N00752687EA0105501128116000
K082341180011
B0823455108770N00752812EA0105201120117000
B0823495108783N00752933EA0105201120120000
B0823535108800N00753045EA0105301120112000
B0823575108816N00753162EA0104401120109000
B0824015108837N00753279EA0103801112113000
K082401180008
B0824055108862N00753391EA0103701104116000
B0824095108887N00753504EA0103301104113000
B0824135108912N00753612EA0103001104111000
B0824145108920N00753641EA0103001104110000
B0824155108925N00753666EA0103001104113000
B0824165108933N00753695EA0103001104110000
B0824175108937N00753725EA0103001104110000
B0824185108941N00753750EA0102901104107000
B0824195108945N00753779EA0102701096110000
B0824205108950N00753808EA0102601096108000
B0824215108958N00753837EA0102401096111000
K082421180007
B0824225108962N00753862EA0102301096111000
B0824255108979N00753950EA0101601088113000
B0824295109004N00754058EA0101201088109000
B0824335109020N00754166EA0100501080114000
B0824375109045N00754275EA0100201072117000
B0824415109070N00754383EA0099801072114000
K082441180003
B0824455109100N00754487EA0100001072117000
B0824495109120N00754591EA0099901072109000
B0824535109145N00754691EA0099701072108000
B0824575109170N00754795EA0099401064107000
B0825015109195N00754900EA0097801056112000
K082501180001
B0825055109220N00755008EA0096901048116000
B0825095109250N00755112EA0096401048114000
B0825135109275N00755225EA0095601040117000
B0825175109295N00755341EA0095301040115000
B0825215109316N00755454EA0094801032115000
K082521180003
B0825255109337N00755566EA0093501016120000
B0825295109362N00755687EA0092401008123000
B0825335109387N00755808EA0092301008121000
B0825375109404N00755929EA0092501008115000
B0825415109416N00756045EA0092001008115000
K082541180006
B0825455109437N00756166EA0091301000122000
B0825495109454N00756283EA0091301000114000
B0825535109475N00756395EA0090800992113000
B0825575109495N00756508EA0090200984115000
B0826015109525N00756616EA0090700992109000
K082601180005
B0826055109550N00756725EA0091400992109000
B0826095109579N00756833EA0092101000104000
B0826135109608N00756929EA0092701008100000
B0826175109629N00757025EA0092401008097000
B0826215109650N00757120EA0092301000098000
K082621180007
B0826255109654N00757220EA0092301008097000
B0826295109650N00757325EA0092301008096000
B0826335109637N00757425EA0092601008098000
B0826375109616N00757520EA0093301016089000
B0826415109579N00757604EA0093401016093000
K082641180007
B0826455109525N00757666EA0094101024097000
B0826495109462N00757666EA0094001024092000
B0826535109425N00757591EA0094201024091000
B0826575109425N00757504EA0094801024087000
B0827015109462N00757445EA0094401016087000
K082701180007
B0827055109516N00757433EA0094001016091000
B0827095109566N00757466EA0094101016095000
B0827135109608N00757525EA0094901024089000
B0827175109629N00757600EA0095401032086000
B0827215109629N00757691EA0094901024090000
K082721180007
B0827255109595N00757779EA0095101024093000
B0827295109541N00757825EA0095901032083000
B0827335109483N00757833EA0095501032089000
B0827375109433N00757783EA0095201032092000
B0827415109416N00757695EA0095301032087000
K082741180007
B0827455109425N00757612EA0095001024092000
B0827495109454N00757533EA0095001024094000
B0827535109491N00757462EA0094701024097000
B0827575109541N00757408EA0095301032092000
B0828015109591N00757366EA0095501032097000
K082801180007
B0828055109645N00757341EA0095701032091000
B0828095109700N00757316EA0095701032097000
B0828135109754N00757275EA0096301040089000
B0828175109808N00757237EA0097101048093000
B0828215109866N00757200EA0097401056102000
K082821180007
B0828255109904N00757120EA0097701056102000
B0828295109887N00757020EA0097501048114000
B0828335109820N00757000EA0099201064100000
B0828375109779N00757066EA0099601072085000
B0828415109779N00757162EA0098601064098000
K082841180007
B0828455109820N00757241EA0099501072093000
B0828495109879N00757266EA0100901088089000
B0828535109925N00757220EA0101201088096000
B0828575109920N00757125EA0100701088098000
B0829015109858N00757087EA0101001088094000
K082901180007
B0829055109808N00757145EA0101901096091000
B0829095109804N00757237EA0102401104092000
B0829135109850N00757304EA0103001112092000
B0829175109908N00757312EA0104001120090000
B0829215109950N00757254EA0104301120095000
K082921180007
B0829255109945N00757158EA0104301128095000
B0829295109891N00757095EA0104301120105000
B0829335109829N00757120EA0105001128092000
B0829375109791N00757204EA0104801128098000
B0829415109795N00757304EA0106201144086000
K082941180007
B0829455109833N00757375EA0107301152084000
B0829495109887N00757400EA0106601144101000
B0829535109941N00757350EA0107401152095000
B0829575109945N00757258EA0108001160095000
B0830015109904N00757187EA0109001168092000
K083001180007
B0830055109841N00757187EA0109001168095000
B0830095109800N00757254EA0110001176089000
B0830135109795N00757345EA0110301184093000
B0830175109837N00757416EA0110501184094000
B0830215109895N00757408EA0111001184097000
K083021180007
B0830255109920N00757325EA0112101200087000
B0830295109887N00757258EA0111901200096000
B0830335109825N00757258EA0111701192103000
B0830375109787N00757337EA0113401216089000
B0830415109795N00757433EA0113501216092000
K083041180007
B0830455109841N00757504EA0114101216092000
B0830495109900N00757516EA0114501224095000
B0830535109941N00757466EA0115001232087000
B0830575109945N00757383EA0114601224091000
B0831015109908N00757312EA0114001216097000
K083101180007
B0831055109845N00757295EA0115101232090000
B0831095109795N00757337EA0116401240086000
B0831135109762N00757412EA0116301248092000
B0831175109762N00757512EA0116901248093000
B0831215109791N00757595EA0117601256095000
K083121180007
B0831255109845N00757612EA0119101272078000
B0831295109887N00757575EA0118401264090000
B0831335109895N00757491EA0117801256096000
B0831375109854N00757425EA0119001272088000
B0831415109800N00757416EA0119901280086000
K083141180007
B0831455109750N00757466EA0120301280083000
B0831495109729N00757554EA0120301280094000
B0831535109720N00757658EA0120701288092000
B0831575109725N00757754EA0121601296083000
B0832015109729N00757854EA0119901280105000
K083201180007
B0832055109745N00757966EA0119101272108000
B0832095109762N00758075EA0118901272107000
B0832135109787N00758183EA0118301264114000
B0832175109820N00758295EA0118801264112000
B0832215109854N00758400EA0118701256118000
K083221180004
B0832255109891N00758508EA0118701264113000
B0832295109925N00758612EA0118301256116000
B0832335109954N00758716EA0117901256113000
B0832375109983N00758825EA0117601248115000
B0832415110012N00758933EA0117601248113000
K083241180002
B0832455110041N00759033EA0117201248109000
B0832495110075N00759129EA0116401240112000
B0832535110108N00759229EA0116101232114000
B0832575110141N00759325EA0117101248106000
B0833015110175N00759420EA0117401248107000
K083301180001
B0833055110204N00759520EA0118001256104000
B0833095110229N00759625EA0117901256106000
B0833135110262N00759725EA0117301248112000
B0833175110300N00759825EA0116701240115000
B0833215110341N00759929EA0116901240114000
K083321180002
B0833255110379N00800025EA0116901240111000
B0833295110420N00800120EA0116501240114000
B0833335110458N00800216EA0115901232110000
B0833375110504N00800312EA0114901224116000
B0833415110545N00800416EA0114101216120000
K083341180002
B0833455110587N00800520EA0113901208122000
B0833495110629N00800620EA0114301216117000
B0833535110670N00800720EA0114601224113000
B0833575110704N00800825EA0114601224114000
B0834015110737N00800929EA0114401216116000
K083401180002
B0834055110770N00801029EA0113901216114000
B0834095110808N00801137EA0113101208116000
B0834135110845N00801245EA0112701200121000
B0834175110883N00801354EA0112701200118000
B0834215110912N00801462EA0113201208114000
K083421180004
B0834255110941N00801562EA0112101208112000
B0834295110970N00801658EA0111101192112000
B0834335111004N00801758EA0110001184115000
B0834375111041N00801858EA0109301176115000
B0834415111075N00801958EA0108601168111000
K083441180000
B0834455111112N00802054EA0107801160112000
B0834495111150N00802150EA0107501160110000
B0834535111183N00802245EA0107701152114000
B0834575111225N00802341EA0106901144120000
B0835015111266N00802445EA0106001136121000
K083501000001
B0835055111308N00802545EA0106101136115000
B0835095111350N00802633EA0106301136109000
B0835135111391N00802725EA0105601128111000
B0835175111433N00802816EA0104301120116000
B0835215111479N00802904EA0103401112118000
K083521180000
B0835255111529N00802995EA0103001104113000
B0835295111579N00803083EA0102401096115000
B0835335111637N00803166EA0101401088118000
B0835375111700N00803233EA0100701080118000
B0835415111770N00803287EA0100601080116000
K083541180004
B0835455111837N00803329EA0100901080112000
B0835495111900N00803362EA0100501080110000
B0835535111966N00803400EA0100101080113000
B0835575112029N00803441EA0101401088105000
B0836015112083N00803495EA0102401096092000
K083601180002
B0836055112129N00803558EA0102601104091000
B0836095112175N00803604EA0101701096096000
B0836135112233N00803637EA0101201088104000
B0836175112300N00803662EA0100301080104000
B0836215112366N00803679EA0100701088102000
K083621180002
B0836255112433N00803679EA0101201088097000
B0836295112500N00803675EA0101101088105000
B0836335112566N00803670EA0101901096103000
B0836375112625N00803691EA0102601104090000
B0836415112683N00803700EA0101901096097000
K083641180003
B0836455112741N00803700EA0101801096092000
B0836495112804N00803704EA0101501088099000
B0836535112866N00803708EA0100901080101000
B0836575112929N00803708EA0101101088095000
B0837015112991N00803708EA0100901088099000
K083701180002
B0837055113050N00803716EA0100501080099000
B0837095113108N00803729EA0100501080097000
B0837135113162N00803750EA0100601080090000
B0837175113225N00803775EA0099901072101000
B0837215113287N00803800EA0100401080102000
K083721000001
B0837255113345N00803825EA0100701088093000
B0837295113395N00803862EA0100901080094000
B0837335113441N00803925EA0101301088089000
B0837375113466N00804000EA0101201088092000
B0837415113462N00804095EA0100401080102000
K083741180000
B0837455113412N00804166EA0101301088098000
B0837495113350N00804175EA0102101096092000
B0837535113304N00804125EA0102301104089000
B0837575113295N00804041EA0101401088096000
B0838015113329N00803970EA0101101088094000
K083801180000
B0838055113383N00803950EA0101401088088000
B0838095113437N00803962EA0101701096088000
B0838135113483N00804000EA0101401096083000
B0838175113520N00804058EA0100901080092000
B0838215113562N00804120EA0101001088080000
K083821180000
B0838255113591N00804195EA0100401080099000
B0838295113600N00804291EA0101701088088000
B0838335113562N00804362EA0101801096088000
B0838375113495N00804350EA0101401088106000
B0838415113466N00804262EA0102601096092000
K083841180000
B0838455113504N00804183EA0103001112096000
B0838495113558N00804216EA0103001112109000
B0838535113554N00804320EA0103601120103000
B0838575113491N00804358EA0104901128087000
B0839015113437N00804316EA0106101144093000
K083901180000
B0839055113433N00804229EA0106401152093000
B0839095113483N00804179EA0106001144100000
B0839135113533N00804237EA0107301152100000
B0839175113525N00804333EA0108501168095000
B0839215113470N00804375EA0108901176090000
K083921180000
B0839255113412N00804333EA0109601176093000
B0839295113400N00804245EA0111001192084000
B0839335113437N00804175EA0111201192091000
B0839375113491N00804175EA0111601200095000
B0839415113525N00804250EA0112301208088000
K083941180000
B0839455113508N00804341EA0112701208089000
B0839495113458N00804383EA0113001216094000
B0839535113404N00804341EA0113101216097000
B0839575113395N00804250EA0114101224089000
B0840015113433N00804179EA0114901232095000
K084001180000
B0840055113487N00804195EA0115101240094000
B0840095113512N00804283EA0115601240095000
B0840135113479N00804366EA0115901248090000
B0840175113412N00804366EA0116501248093000
B0840215113370N00804308EA0118001264080000
K084021180000
B0840255113366N00804225EA0117801264093000
B0840295113400N00804150EA0118601272090000
B0840335113454N00804150EA0118601272090000
B0840375113500N00804200EA0119001272085000
B0840415113525N00804279EA0118801272090000
K084041180000
B0840455113550N00804362EA0118901272094000
B0840495113566N00804454EA0119401280089000
B0840535113587N00804545EA0119801280090000
B0840575113604N00804633EA0119701280090000
B0841015113625N00804725EA0118501272094000
K084101180000
B0841055113654N00804820EA0118101264099000
B0841095113687N00804912EA0117501256107000
B0841135113729N00805004EA0117301256112000
B0841175113770N00805100EA0117501264111000
B0841215113812N00805187EA0117301256106000
K084121180002
B0841255113854N00805279EA0116501248106000
B0841295113895N00805366EA0116101248107000
B0841335113937N00805454EA0116201240108000
B0841375113979N00805545EA0115601232111000
B0841415114025N00805641EA0115101224112000
K084141180002
B0841455114066N00805733EA0114701224112000
B0841495114112N00805825EA0114101216114000
B0841535114162N00805916EA0113601208118000
B0841575114216N00806008EA0113201208124000
B0842015114275N00806091EA0113701208116000
K084201180002
B0842055114325N00806170EA0114501224111000
B0842095114375N00806250EA0115001224107000
B0842135114412N00806333EA0115701232097000
B0842175114441N00806420EA0115101232095000
B0842215114466N00806512EA0115701232096000
K084221180003
B0842255114483N00806608EA0115801232087000
B0842295114495N00806704EA0115101232095000
B0842335114508N00806808EA0114501224094000
B0842375114520N00806912EA0113601216102000
B0842415114529N00807025EA0113301208103000
K084241180007
B0842455114537N00807137EA0112901208106000
B0842495114541N00807250EA0112101200106000
B0842535114554N00807362EA0111101184109000
B0842575114570N00807479EA0110301176111000
B0843015114583N00807600EA0109701168115000
K084301180007
B0843055114600N00807716EA0109401168111000
B0843095114620N00807829EA0109001168114000
B0843135114654N00807937EA0107901152118000
B0843175114700N00808037EA0107401152118000
B0843215114745N00808129EA0107301152114000
K084321180004
B0843255114791N00808220EA0106801144114000
B0843295114837N00808312EA0106101136117000
B0843335114887N00808404EA0105701128119000
B0843375114937N00808491EA0105401128117000
B0843415114991N00808579EA0104801120115000
K084341180003
B0843455115041N00808666EA0104301120116000
B0843495115087N00808758EA0103901112116000
B0843535115133N00808850EA0102401112114000
B0843575115179N00808950EA0102601112110000
B0844015115220N00809041EA0102701112106000
K084401180006
B0844055115262N00809129EA0103101112101000
B0844095115300N00809220EA0102801112102000
B0844135115329N00809325EA0102901112105000
B0844175115354N00809425EA0104301128097000
B0844215115354N00809525EA0105401136095000
K084421180009
B0844255115325N00809604EA0105401136090000
B0844295115270N00809633EA0104701128092000
B0844335115208N00809604EA0104701128089000
B0844375115154N00809558EA0104601128093000
B0844415115095N00809525EA0105001136093000
K084441180009
B0844455115037N00809500EA0105001136094000
B0844495114975N00809487EA0104501128096000
B0844535114912N00809508EA0104001120100000
B0844575114850N00809558EA0103901120099000
B0845015114804N00809637EA0103301120108000
K084501180007
B0845055114787N00809741EA0104401128098000
B0845095114779N00809841EA0105401136099000
B0845135114750N00809929EA0106601144089000
B0845175114700N00809958EA0106601152088000
B0845215114645N00809912EA0105701136098000
K084521180007
B0845255114625N00809816EA0106401144094000
B0845295114645N00809737EA0106601152090000
B0845335114691N00809679EA0106101144088000
B0845375114745N00809662EA0106001144091000
B0845415114795N00809704EA0106101144092000
K084541180007
B0845455114833N00809775EA0105101136096000
B0845495114862N00809866EA0104701128099000
B0845535114875N00809970EA0105001128102000
B0845575114887N00810070EA0106201144095000
B0846015114887N00810166EA0106301144092000
K084601180007
B0846055114887N00810262EA0105901144098000
B0846095114900N00810362EA0105701136100000
B0846135114912N00810458EA0105701144099000
B0846175114920N00810558EA0106301144099000
B0846215114925N00810654EA0106901152095000
K084621180005
B0846255114920N00810750EA0107401152091000
B0846295114904N00810841EA0107801160090000
B0846335114883N00810929EA0107801160089000
B0846375114862N00811020EA0107401152096000
B0846415114845N00811125EA0107801160102000
K084641180004
B0846455114816N00811208EA0109501176091000
B0846495114754N00811220EA0109401176101000
B0846535114720N00811141EA0110101184087000
B0846575114741N00811058EA0110301176090000
B0847015114795N00811020EA0110701176100000
K084701180006
B0847055114850N00811041EA0111901192088000
B0847095114879N00811112EA0112101192089000
B0847135114870N00811212EA0111601192100000
B0847175114816N00811275EA0112301192099000
B0847215114754N00811237EA0113401208100000
K084721180006
B0847255114750N00811141EA0113601208100000
B0847295114808N00811104EA0113701208105000
B0847335114850N00811183EA0114701224098000
B0847375114825N00811279EA0115501232093000
B0847415114766N00811308EA0116601240096000
K084741180006
B0847455114720N00811245EA0117101248097000
B0847495114733N00811150EA0117401248092000
B0847535114787N00811120EA0118001256095000
B0847575114829N00811179EA0118801264084000
B0848015114833N00811270EA0118301256096000
K084801180006
B0848055114787N00811350EA0119301264094000
B0848095114729N00811354EA0120601280092000
B0848135114700N00811270EA0120401280093000
B0848175114733N00811187EA0120401280095000
B0848215114791N00811179EA0121201288083000
K084821180006
B0848255114833N00811233EA0121801296085000
B0848295114850N00811320EA0121801296095000
B0848335114812N00811404EA0122601304091000
B0848375114750N00811404EA0123601312091000
B0848415114720N00811325EA0123801312091000
K084841180006
B0848455114741N00811237EA0124401320090000
B0848495114795N00811200EA0124901328087000
B0848535114850N00811225EA0125601336084000
B0848575114891N00811266EA0126501344080000
B0849015114929N00811337EA0124801336095000
K084901180006
B0849055114958N00811433EA0124901328098000
B0849095114983N00811533EA0125501336098000
B0849135114995N00811637EA0125901344090000
B0849175115004N00811737EA0125401336095000
B0849215115016N00811841EA0124901328101000
K084921180004
B0849255115029N00811950EA0124101328102000
B0849295115033N00812058EA0123801320107000
B0849335115041N00812170EA0123201320104000
B0849375115050N00812283EA0123001304111000
B0849415115058N00812404EA0121901296121000
K084941180002
B0849455115066N00812529EA0120901288127000
B0849495115083N00812658EA0119701272130000
B0849535115108N00812791EA0119501272133000
B0849575115129N00812925EA0119401272131000
B0850015115150N00813054EA0119301264129000
K085001180003
B0850055115170N00813183EA0120301280124000
B0850095115187N00813308EA0120801280122000
B0850135115200N00813429EA0120801280119000
B0850175115216N00813558EA0120601280125000
B0850215115229N00813683EA0121901296113000
K085021180007
B0850255115233N00813804EA0121601288114000
B0850295115250N00813925EA0121001288122000
B0850335115266N00814050EA0120701280122000
B0850375115295N00814170EA0119001264127000
B0850415115354N00814270EA0117301248136000
K085041180005
B0850455115420N00814362EA0116501240137000
B0850495115483N00814462EA0115701232139000
B0850535115545N00814566EA0115101224140000
B0850575115600N00814683EA0114001216143000
B0851015115654N00814808EA0113201200146000
K085101180004
B0851055115708N00814933EA0113601208143000
B0851095115754N00815058EA0113401208138000
B0851135115795N00815183EA0111401200141000
B0851175115841N00815312EA0110701192141000
B0851215115887N00815441EA0110401192141000
K085121180006
B0851255115929N00815570EA0109801184139000
B0851295115970N00815700EA0108901176141000
B0851335116012N00815833EA0108301168142000
B0851375116050N00815970EA0107801168140000
B0851415116075N00816112EA0107301160142000
K085141180006
B0851455116100N00816254EA0106501152144000
B0851495116125N00816400EA0107501152142000
B0851535116145N00816541EA0107401144141000
B0851575116166N00816679EA0106301136139000
B0852015116179N00816820EA0105301128140000
K085201180004
B0852055116187N00816966EA0104301112140000
B0852095116191N00817108EA0104201112137000
B0852135116191N00817250EA0104001112130000
B0852175116195N00817395EA0102401096141000
B0852215116200N00817541EA0101801088136000
K085221180006
B0852255116208N00817687EA0101801088142000
B0852295116212N00817833EA0103101104136000
B0852335116220N00817975EA0105701128114000
B0852375116195N00818091EA0108501160101000
B0852415116141N00818141EA0109301168097000
K085241180017
B0852455116095N00818075EA0107901152109000
B0852495116116N00817983EA0109401168101000
B0852535116170N00817962EA0111401192080000
B0852575116220N00818008EA0111901192097000
B0853015116237N00818112EA0112701200102000
K085301180017
B0853055116195N00818187EA0113101208099000
B0853095116137N00818154EA0113001208096000
B0853135116133N00818066EA0113201208095000
B0853175116175N00818000EA0114401216093000
B0853215116229N00818029EA0115901232090000
K085321180017
B0853255116245N00818120EA0116601240093000
B0853295116191N00818191EA0116501240100000
B0853335116133N00818154EA0117901256096000
B0853375116141N00818062EA0118801264096000
B0853415116195N00818033EA0119501264103000
K085341180017
B0853455116237N00818112EA0120701280095000
B0853495116204N00818204EA0121301288096000
B0853535116137N00818216EA0122101288103000
B0853575116112N00818133EA0123401304092000
B0854015116150N00818066EA0123701312096000
K085401180017
B0854055116208N00818091EA0125101320096000
B0854095116216N00818187EA0126201336090000
B0854135116170N00818258EA0126001336097000
B0854175116112N00818237EA0126701336095000
B0854215116095N00818145EA0128301352092000
K085421180017
B0854255116133N00818087EA0129501368084000
B0854295116187N00818091EA0130001376093000
B0854335116225N00818170EA0130401376092000
B0854375116208N00818266EA0131101384088000
B0854415116150N00818308EA0131101384095000
K085441180017
B0854455116100N00818262EA0131601392087000
B0854495116091N00818179EA0132301392093000
B0854535116141N00818129EA0132701392099000
B0854575116195N00818158EA0134001408091000
B0855015116250N00818200EA0132701400110000
K085501180017
B0855055116316N00818237EA0132101392108000
B0855095116379N00818275EA0130801384114000
B0855135116441N00818341EA0129701368117000
B0855175116500N00818429EA0128501360125000
B0855215116554N00818529EA0126601336136000
K085521180013
B0855255116612N00818641EA0125301328140000
B0855295116666N00818762EA0124601312140000
B0855335116712N00818887EA0124101312137000
B0855375116754N00819016EA0123201304139000
B0855415116787N00819150EA0122801296138000
K085541180006
B0855455116825N00819283EA0121301296132000
B0855495116858N00819408EA0122301304133000
B0855535116875N00819529EA0125801336103000
B0855575116887N00819620EA0127601360088000
B0856015116900N00819720EA0124701328116000
K085601180005
B0856055116920N00819845EA0122401304128000
B0856095116933N00819983EA0121801304128000
B0856135116945N00820120EA0121801304128000
B0856175116962N00820254EA0121401296126000
B0856215116975N00820379EA0122101296123000
K085621180007
B0856255116987N00820508EA0120701280127000
B0856295116995N00820637EA0120401272124000
B0856335117004N00820770EA0119401264124000
B0856375117008N00820904EA0118401256128000
B0856415117020N00821045EA0117901248127000
K085641180006
B0856455117037N00821175EA0117801248126000
B0856495117066N00821304EA0117301248128000
B0856535117100N00821425EA0116601240130000
B0856575117137N00821545EA0116201232128000
B0857015117183N00821662EA0115701232131000
K085701180006
B0857055117237N00821770EA0114901224130000
B0857095117287N00821875EA0114801224124000
B0857135117341N00821970EA0114501216121000
B0857175117391N00822066EA0113801208118000
B0857215117445N00822158EA0113301208115000
K085721180006
B0857255117495N00822250EA0113701208118000
B0857295117541N00822345EA0115001224106000
B0857335117583N00822433EA0115401232099000
B0857375117629N00822508EA0114901224105000
B0857415117679N00822587EA0114101216109000
K085741180005
B0857455117729N00822666EA0113701208101000
B0857495117775N00822737EA0113001200111000
B0857535117829N00822812EA0113301208106000
B0857575117883N00822875EA0113401208102000
B0858015117937N00822933EA0113001208102000
K085801180003
B0858055117987N00823000EA0112701200102000
B0858095118033N00823079EA0112001192107000
B0858135118083N00823158EA0111701192107000
B0858175118129N00823237EA0110801184109000
B0858215118179N00823325EA0109801176114000
K085821180002
B0858255118225N00823416EA0109401168113000
B0858295118266N00823516EA0108601160115000
B0858335118304N00823625EA0107501152117000
B0858375118345N00823729EA0107101144119000
B0858415118383N00823837EA0107301144112000
K085841180005
B0858455118412N00823945EA0106201144111000
B0858495118441N00824054EA0105201136120000
B0858535118470N00824166EA0104701136117000
B0858575118495N00824279EA0104501128115000
B0859015118516N00824387EA0104501128109000
K085901180004
B0859055118537N00824500EA0105201136104000
B0859095118554N00824608EA0105701144093000
B0859135118570N00824712EA0105601136099000
B0859175118583N00824812EA0105001136098000
B0859215118604N00824912EA0104601128099000
K085921180007
B0859255118629N00825008EA0103801120102000
B0859295118650N00825112EA0103301120102000
B0859335118666N00825216EA0103101120100000
B0859375118679N00825316EA0103001112098000
B0859415118695N00825420EA0102401104100000
K085941180005
B0859455118704N00825525EA0101901104101000
B0859495118716N00825629EA0101401096101000
B0859535118729N00825737EA0100201088103000
B0859575118741N00825845EA0098801072106000
B0900015118762N00825958EA0097801064109000
K090001180006
B0900055118787N00826066EA0097001056112000
B0900095118825N00826175EA0096801056110000
B0900135118862N00826275EA0096101048110000
B0900175118904N00826375EA0095001032115000
B0900215118954N00826466EA0094001024119000
K090021180006
B0900255119012N00826550EA0094101024113000
B0900295119066N00826625EA0094201024110000
B0900335119120N00826700EA0093701024111000
B0900375119175N00826779EA0092801016114000
B0900415119225N00826862EA0092201008113000
K090041180004
B0900455119279N00826950EA0091401000114000
B0900495119329N00827037EA0090800992115000
B0900535119379N00827133EA0090200984114000
B0900575119429N00827229EA0089600976115000
B0901015119470N00827325EA0089600984112000
K090101180008
B0901055119516N00827420EA0089900984111000
B0901095119558N00827508EA0090800992102000
B0901135119579N00827608EA0092301008092000
B0901175119562N00827700EA0093101016088000
B0901215119512N00827750EA0093201016094000
K090121180009
B0901255119458N00827700EA0093101016103000
B0901295119475N00827608EA0094001024105000
B0901335119537N00827616EA0094501032099000
B0901375119550N00827720EA0094801032100000
B0901415119500N00827787EA0095701040097000
K090141180009
B0901455119445N00827745EA0097201056088000
B0901495119445N00827658EA0097201056098000
B0901535119495N00827620EA0098201064094000
B0901575119541N00827679EA0099001072089000
B0902015119537N00827779EA0098701072097000
K090201180009
B0902055119483N00827829EA0099601080098000
B0902095119433N00827787EA0100601088091000
B0902135119437N00827700EA0101201096093000
B0902175119495N00827683EA0100501088101000
B0902215119520N00827779EA0101401096098000
K090221180009
B0902255119479N00827850EA0101801104093000
B0902295119420N00827825EA0102501112095000
B0902335119412N00827737EA0103301120095000
B0902375119462N00827695EA0103901120096000
B0902415119504N00827766EA0104101128093000
K090241180009
B0902455119479N00827862EA0103901120098000
B0902495119416N00827879EA0105501136089000
B0902535119379N00827812EA0106101144090000
B0902575119395N00827725EA0106801152097000
B0903015119450N00827708EA0107301160092000
K090301180009
B0903055119483N00827787EA0107401160093000
B0903095119458N00827883EA0107501160091000
B0903135119400N00827908EA0108101168093000
B0903175119358N00827850EA0109101176090000
B0903215119362N00827758EA0109401176098000
K090321180009
B0903255119412N00827712EA0110501192088000
B0903295119458N00827758EA0110301184094000
B0903335119462N00827858EA0110301184093000
B0903375119420N00827929EA0110901192084000
B0903415119358N00827925EA0111201192097000
K090341180009
B0903455119320N00827854EA0112601208086000
B0903495119341N00827766EA0112301208101000
B0903535119404N00827775EA0112301208100000
B0903575119416N00827879EA0113301216091000
B0904015119370N00827950EA0113801224093000
K090401180009
B0904055119308N00827945EA0115201232079000
B0904095119262N00827895EA0114601232089000
B0904135119262N00827804EA0113601224100000
B0904175119316N00827750EA0114501232092000
B0904215119366N00827775EA0115901240079000
K090421180009
B0904255119412N00827816EA0115501240085000
B0904295119450N00827879EA0115601240088000
B0904335119475N00827966EA0116001248085000
B0904375119504N00828045EA0116001248090000
B0904415119529N00828137EA0116101248095000
K090441180009
B0904455119541N00828233EA0116101248093000
B0904495119558N00828333EA0114601232102000
B0904535119562N00828450EA0112801216111000
B0904575119562N00828570EA0111901208112000
B0905015119566N00828691EA0111901208109000
K090501180009
B0905055119570N00828812EA0112101200119000
B0905095119570N00828933EA0114001216107000
B0905135119554N00829033EA0115501232093000
B0905175119537N00829129EA0114101224103000
B0905215119529N00829254EA0112401200119000
K090521180013
B0905255119525N00829387EA0111301192124000
B0905295119525N00829520EA0110501184123000
B0905335119516N00829654EA0109401176124000
B0905375119508N00829791EA0108401160128000
B0905415119508N00829929EA0107601152129000
K090541180010
B0905455119508N00830066EA0106901144131000
B0905495119508N00830204EA0106201144128000
B0905535119508N00830341EA0105501128128000
B0905575119508N00830483EA0104501120130000
B0906015119508N00830620EA0104301120125000
K090601180010
B0906055119500N00830758EA0103401112124000
B0906095119495N00830895EA0103601112124000
B0906135119483N00831025EA0104101120118000
B0906175119470N00831154EA0105201128110000
B0906215119454N00831262EA0106601144097000
K090621180014
B0906255119437N00831370EA0105401136106000
B0906295119425N00831483EA0105201128103000
B0906335119404N00831595EA0104501128107000
B0906375119391N00831712EA0104501128105000
B0906415119383N00831829EA0105701136105000
K090641180010
B0906455119350N00831920EA0107001144097000
B0906495119287N00831933EA0106201136107000
B0906535119250N00831850EA0106401136103000
B0906575119279N00831766EA0107501152091000
B0907015119329N00831741EA0107501152089000
K090701180011
B0907055119379N00831775EA0108001160093000
B0907095119404N00831858EA0109001168088000
B0907135119412N00831950EA0109401176086000
B0907175119404N00832041EA0109001168094000
B0907215119395N00832145EA0108201160094000
K090721180011
B0907255119383N00832245EA0108301160101000
B0907295119383N00832354EA0108301160102000
B0907335119387N00832462EA0108801168098000
B0907375119395N00832566EA0109101168098000
B0907415119408N00832670EA0109501168100000
K090741180008
B0907455119420N00832775EA0109901176094000
B0907495119441N00832870EA0109801176099000
B0907535119458N00832970EA0109401176097000
B0907575119479N00833075EA0108601160099000
B0908015119508N00833170EA0107401152101000
K090801180007
B0908055119537N00833270EA0106201136107000
B0908095119570N00833375EA0105801136107000
B0908135119604N00833479EA0104901128113000
B0908175119637N00833583EA0104901128109000
B0908215119675N00833683EA0104501120108000
K090821180007
B0908255119712N00833779EA0103901112108000
B0908295119754N00833879EA0103601112111000
B0908335119795N00833979EA0103001104115000
B0908375119833N00834083EA0102701104114000
B0908415119870N00834187EA0102701104114000
K090841180006
B0908455119904N00834295EA0102401104115000
B0908495119941N00834400EA0102001096116000
B0908535119975N00834512EA0101401088117000
B0908575120008N00834625EA0101101088117000
B0909015120029N00834745EA0101001088116000
K090901180007
B0909055120041N00834866EA0100901088112000
B0909095120045N00834987EA0100401080111000
B0909135120050N00835108EA0099901080112000
B0909175120050N00835233EA0099301072114000
B0909215120054N00835358EA0098401064117000
K090921180009
B0909255120058N00835483EA0098201056112000
B0909295120062N00835600EA0097901056109000
B0909335120062N00835716EA0097701056108000
B0909375120058N00835837EA0097201048109000
B0909415120050N00835958EA0096601040111000
K090941180010
B0909455120041N00836079EA0096701040108000
B0909495120025N00836191EA0097001048100000
B0909535120008N00836295EA0096701040103000
B0909575119970N00836395EA0096801048095000
B0910015119925N00836483EA0096001040099000
K091001180012
B0910055119883N00836583EA0096201040105000
B0910095119829N00836662EA0096501040098000
B0910135119770N00836725EA0097001040099000
B0910175119708N00836725EA0098001056089000
B0910215119675N00836645EA0097501048096000
K091021180012
B0910255119700N00836566EA0097701048100000
B0910295119758N00836570EA0098301056097000
B0910335119783N00836670EA0098501056097000
B0910375119741N00836758EA0098501056099000
B0910415119679N00836766EA0100001080084000
K091041180012
B0910455119637N00836708EA0100101080088000
B0910495119633N00836625EA0099701072092000
B0910535119683N00836579EA0099501072101000
B0910575119737N00836620EA0101401088080000
B0911015119762N00836691EA0102001096080000
K091101180012
B0911055119795N00836762EA0101001088091000
B0911095119833N00836833EA0100901088087000
B0911135119866N00836908EA0100001080093000
B0911175119904N00836983EA0099701072095000
B0911215119950N00837058EA0099501072104000
K091121180008
B0911255119991N00837129EA0098801064098000
B0911295120033N00837200EA0098001056099000
B0911335120083N00837270EA0097401048105000
B0911375120125N00837345EA0099101064094000
B0911415120145N00837429EA0100801088078000
K091141180002
B0911455120120N00837516EA0100001080093000
B0911495120058N00837545EA0099301064106000
B0911535120016N00837466EA0099701072097000
B0911575120025N00837375EA0101201088095000
B0912015120066N00837325EA0101001088091000
K091201180002
B0912055120120N00837350EA0100901080103000
B0912095120137N00837445EA0101501088093000
B0912135120091N00837533EA0102001096100000
B0912175120029N00837529EA0102601104097000
B0912215120012N00837437EA0102201096103000
K091221180002
B0912255120066N00837391EA0102901104099000
B0912295120116N00837454EA0104301120097000
B0912335120100N00837554EA0105401128094000
B0912375120037N00837575EA0105201128103000
B0912415120004N00837495EA0104701120101000
K091241180002
B0912455120050N00837425EA0105701128099000
B0912495120104N00837441EA0107501152094000
B0912535120112N00837533EA0106901136098000
B0912575120062N00837612EA0106501128104000
B0913015120004N00837566EA0107301136098000
K091301180002
B0913055120008N00837475EA0108601152086000
B0913095120054N00837433EA0109601160092000
B0913135120104N00837475EA0109401160093000
B0913175120104N00837575EA0108601152097000
B0913215120041N00837629EA0108801152097000
K091321180002
B0913255119983N00837595EA0110501176088000
B0913295119975N00837512EA0110401176094000
B0913335120016N00837454EA0110801176099000
B0913375120066N00837508EA0111001176096000
B0913415120045N00837612EA0111101176100000
K091341180002
B0913455119983N00837650EA0112601192095000
B0913495119937N00837595EA0113101200090000
B0913535119962N00837508EA0112201192110000
B0913575120029N00837541EA0113701200115000
B0914015120029N00837650EA0115501224096000
K091401180002
B0914055119970N00837700EA0116601240099000
B0914095119925N00837633EA0116301232100000
B0914135119954N00837545EA0117301240103000
B0914175120012N00837550EA0119601264093000
B0914215120054N00837625EA0120901280087000
K091421180002
B0914255120041N00837720EA0120701280100000
B0914295119979N00837766EA0121001280097000
B0914335119929N00837708EA0121801296090000
B0914375119929N00837620EA0121601288098000
B0914415119983N00837566EA0122901304102000
K091441180002
B0914455120037N00837608EA0125101328088000
B0914495120045N00837704EA0125401328091000
B0914535119995N00837775EA0125601328104000
B0914575119937N00837750EA0127101344087000
B0915015119916N00837666EA0127101344092000
K091501180002
B0915055119950N00837587EA0127601352095000
B0915095120008N00837587EA0129001360094000
B0915135120045N00837666EA0130201376090000
B0915175120020N00837758EA0130201376107000
B0915215119954N00837754EA0130801384097000
K091521180002
B0915255119929N00837666EA0132501400090000
B0915295119954N00837591EA0133601416087000
B0915335120012N00837583EA0133901416095000
B0915375120054N00837662EA0134401416093000
B0915415120041N00837762EA0134801424098000
K091541180002
B0915455119979N00837783EA0134501416105000
B0915495119958N00837683EA0134401416109000
B0915535120016N00837620EA0136801440090000
B0915575120070N00837654EA0138301456090000
B0916015120087N00837745EA0138401456092000
K091601180002
B0916055120041N00837812EA0137801456098000
B0916095119983N00837775EA0136901448108000
B0916135119987N00837675EA0138901472092000
B0916175120029N00837625EA0140301488083000
B0916215120087N00837620EA0140501488091000
K091621180002
B0916255120133N00837675EA0141101496085000
B0916295120150N00837762EA0140001488095000
B0916335120141N00837866EA0137901464112000
B0916375120166N00837987EA0136301448122000
B0916415120200N00838108EA0136801456113000
K091641180002
B0916455120225N00838233EA0136401448118000
B0916495120258N00838354EA0136101448120000
B0916535120291N00838470EA0136901456111000
B0916575120320N00838575EA0136601456102000
B0917015120350N00838687EA0134001432122000
K091701180008
B0917055120375N00838816EA0132601416123000
B0917095120400N00838950EA0133001408133000
B0917135120437N00839083EA0131801392138000
B0917175120475N00839220EA0130301376143000
B0917215120512N00839366EA0129101368150000
K091721180005
B0917255120545N00839512EA0128701360148000
B0917295120579N00839654EA0128801360140000
B0917335120616N00839783EA0128401360137000
B0917375120654N00839908EA0127701352132000
B0917415120683N00840037EA0127101344134000
K091741180005
B0917455120716N00840162EA0127501352137000
B0917495120750N00840287EA0128301360125000
B0917535120783N00840408EA0129201368126000
B0917575120812N00840520EA0131901392101000
B0918015120829N00840625EA0134101416084000
K091801180012
B0918055120841N00840720EA0134701424092000
B0918095120870N00840812EA0135201424088000
B0918135120883N00840908EA0134601424091000
B0918175120900N00841016EA0133001408103000
B0918215120925N00841129EA0130901384121000
K091821180012
B0918255120958N00841254EA0129701368125000
B0918295120987N00841383EA0129501376120000
B0918335121008N00841512EA0128201360124000
B0918375121016N00841654EA0126801344130000
B0918415121020N00841795EA0125601336132000
K091841180010
B0918455121020N00841941EA0124501320134000
B0918495121012N00842087EA0123801320130000
B0918535121000N00842233EA0122701304133000
B0918575120983N00842379EA0121801288137000
B0919015120962N00842520EA0121201280134000
K091901180011
B0919055120937N00842662EA0120401272137000
B0919095120904N00842800EA0120501272127000
B0919135120875N00842933EA0120001272130000
B0919175120850N00843066EA0119701272130000
B0919215120825N00843204EA0121001272133000
K091921180010
B0919255120791N00843320EA0124901320103000
B0919295120725N00843345EA0126401336097000
B0919335120675N00843270EA0126801336108000
B0919375120700N00843166EA0128601352103000
B0919415120762N00843150EA0130501376098000
K091941180015
B0919455120808N00843216EA0131901392096000
B0919495120795N00843316EA0132501400097000
B0919535120729N00843362EA0133101400106000
B0919575120675N00843308EA0135201424089000
B0920015120670N00843220EA0136001440092000
K092001180015
B0920055120716N00843158EA0136801440103000
B0920095120775N00843195EA0138301456098000
B0920135120791N00843295EA0139501472091000
B0920175120754N00843375EA0140701480091000
B0920215120687N00843404EA0141101488095000
K092021180015
B0920255120637N00843337EA0141701496101000
B0920295120654N00843241EA0143301504093000
B0920335120708N00843212EA0144801528090000
B0920375120754N00843266EA0145901536087000
B0920415120779N00843358EA0145601536103000
K092041180015
B0920455120791N00843475EA0146201536114000
B0920495120804N00843595EA0146001536114000
B0920535120812N00843725EA0145201528128000
B0920575120820N00843866EA0144201520130000
B0921015120825N00844012EA0142801504138000
K092101180009
B0921055120833N00844166EA0141301488145000
B0921095120833N00844325EA0141101488139000
B0921135120833N00844483EA0140801488141000
B0921175120833N00844637EA0139901480141000
B0921215120833N00844795EA0139701472136000
K092121180013
B0921255120829N00844950EA0139201472139000
B0921295120829N00845108EA0138201456142000
B0921335120825N00845266EA0137501448143000
B0921375120829N00845429EA0136301440145000
B0921415120833N00845595EA0135701432147000
K092141180015
B0921455120837N00845758EA0135501432143000
B0921495120841N00845920EA0135401432142000
B0921535120841N00846079EA0134701424144000
B0921575120841N00846241EA0133701416149000
B0922015120841N00846408EA0133201408149000
K092201180014
B0922055120841N00846570EA0133001408145000
B0922095120833N00846729EA0132901408143000
B0922135120825N00846887EA0132301400143000
B0922175120816N00847041EA0131801400143000
B0922215120812N00847195EA0131501392143000
K092221180012
B0922255120812N00847350EA0130901384144000
B0922295120812N00847508EA0130501384144000
B0922335120816N00847662EA0130101376144000
B0922375120812N00847825EA0129501368146000
B0922415120812N00847983EA0128901368145000
K092241180011
B0922455120820N00848145EA0128701368145000
B0922495120845N00848295EA0128201360144000
B0922535120879N00848433EA0128001360141000
B0922575120916N00848570EA0127701352140000
B0923015120958N00848700EA0127101344139000
K092301180009
B0923055121000N00848829EA0127101344136000
B0923095121045N00848954EA0127101344137000
B0923135121091N00849075EA0128301360128000
B0923175121125N00849191EA0129701376109000
B0923215121154N00849295EA0129401376107000
K092321180013
B0923255121183N00849404EA0126901344125000
B0923295121220N00849529EA0125401328133000
B0923335121254N00849662EA0124801328135000
B0923375121287N00849795EA0125701336130000
B0923415121320N00849912EA0127101344116000
K092341180008
B0923455121358N00850016EA0127101352116000
B0923495121395N00850129EA0125301328130000
B0923535121429N00850254EA0124401320132000
B0923575121462N00850391EA0123701312134000
B0924015121487N00850529EA0123501312130000
K092401180005
B0924055121504N00850666EA0122801304134000
B0924095121512N00850816EA0121901296140000
B0924135121516N00850970EA0121201288143000
B0924175121516N00851129EA0121101288142000
B0924215121516N00851283EA0121101288137000
K092421180011
B0924255121512N00851433EA0120301280138000
B0924295121516N00851587EA0118901264146000
B0924335121520N00851750EA0117601248151000
B0924375121533N00851916EA0116601240151000
B0924415121545N00852079EA0116601240144000
K092441180012
B0924455121554N00852237EA0116801248137000
B0924495121554N00852387EA0116301240138000
B0924535121554N00852545EA0114701224144000
B0924575121554N00852708EA0113301208152000
B0925015121550N00852875EA0112701200149000
K092501180013
B0925055121545N00853041EA0113001208142000
B0925095121541N00853195EA0113501208137000
B0925135121529N00853345EA0113001208138000
B0925175121520N00853495EA0111401192144000
B0925215121508N00853654EA0109801176152000
K092521180012
B0925255121491N00853816EA0109001160150000
B0925295121470N00853975EA0109101168144000
B0925335121441N00854125EA0109001168138000
B0925375121420N00854275EA0108001160141000
B0925415121400N00854420EA0106801144138000
K092541180014
B0925455121383N00854570EA0106001136136000
B0925495121366N00854720EA0105101128137000
B0925535121350N00854870EA0104001120140000
B0925575121337N00855016EA0104401120132000
B0926015121316N00855150EA0105101128125000
K092601180015
B0926055121308N00855270EA0108001160105000
B0926095121287N00855366EA0110101176088000
B0926135121237N00855416EA0109801176095000
B0926175121170N00855383EA0109201168110000
B0926215121154N00855283EA0111001184102000
K092621180018
B0926255121200N00855237EA0112201200092000
B0926295121245N00855275EA0112601208094000
B0926335121258N00855370EA0112401200101000
B0926375121212N00855450EA0113501216094000
B0926415121145N00855441EA0114401224092000
K092641180018
B0926455121108N00855362EA0115201232094000
B0926495121120N00855275EA0116401240088000
B0926535121166N00855245EA0116301240087000
B0926575121212N00855287EA0115901232102000
B0927015121225N00855383EA0117701256085000
K092701180018
B0927055121204N00855462EA0119301272077000
B0927095121150N00855500EA0117701256101000
B0927135121091N00855433EA0117901248111000
B0927175121112N00855341EA0119701272090000
B0927215121166N00855358EA0119901272101000
K092721180018
B0927255121179N00855458EA0121101288101000
B0927295121125N00855508EA0122501304086000
B0927335121070N00855466EA0121801296105000
B0927375121062N00855366EA0122701304092000
B0927415121112N00855329EA0123401312094000
K092741180018
B0927455121158N00855391EA0123901312102000
B0927495121145N00855487EA0125701336088000
B0927535121087N00855516EA0125601336093000
B0927575121033N00855445EA0125601328108000
B0928015121054N00855354EA0127101352092000
K092801180018
B0928055121104N00855354EA0127401352097000
B0928095121137N00855433EA0128501360090000
B0928135121112N00855525EA0129201368092000
B0928175121054N00855550EA0130101376088000
B0928215121004N00855487EA0129901376095000
K092821180018
B0928255121012N00855395EA0130101376097000
B0928295121066N00855362EA0131101392086000
B0928335121108N00855404EA0132101400089000
B0928375121137N00855470EA0133501416080000
B0928415121116N00855558EA0132701408106000
K092841180018
B0928455121050N00855579EA0132601400110000
B0928495121012N00855491EA0134101416095000
B0928535121041N00855412EA0135301432090000
B0928575121087N00855395EA0136201440078000
B0929015121133N00855429EA0136001440089000
K092901180018
B0929055121162N00855495EA0136301440079000
B0929095121175N00855583EA0135501432094000
B0929135121183N00855695EA0135701432105000
B0929175121179N00855812EA0135801432110000
B0929215121179N00855933EA0136201440107000
K092921180017
B0929255121187N00856050EA0134801440109000
B0929295121191N00856170EA0133301424117000
B0929335121195N00856300EA0132001408124000
B0929375121200N00856437EA0131701408120000
B0929415121204N00856562EA0132001408114000
K092941180010
B0929455121204N00856683EA0131701408111000
B0929495121204N00856804EA0130301392110000
B0929535121200N00856929EA0130401392113000
B0929575121191N00857045EA0132501400100000
B0930015121191N00857158EA0131801400104000
K093001180011
B0930055121187N00857279EA0131501392107000
B0930095121183N00857395EA0132601400104000
B0930135121175N00857504EA0134601424097000
B0930175121166N00857595EA0136401440081000
B0930215121158N00857683EA0137201448080000
K093021180014
B0930255121154N00857783EA0136001440096000
B0930295121141N00857883EA0135701440092000
B0930335121112N00857991EA0132701400119000
B0930375121079N00858120EA0132201392119000
B0930415121050N00858241EA0133001408104000
K093041180014
B0930455121025N00858358EA0131901400114000
B0930495120995N00858487EA0129901376125000
B0930535120970N00858620EA0129101368120000
B0930575120954N00858754EA0128901368120000
B0931015120945N00858891EA0127801352125000
K093101180013
B0931055120941N00859033EA0126501344132000
B0931095120933N00859183EA0125601336134000
B0931135120925N00859333EA0125201328136000
B0931175120920N00859483EA0124401320139000
B0931215120916N00859637EA0123301312141000
K093121180012
B0931255120904N00859795EA0122501304143000
B0931295120895N00859950EA0122401296141000
B0931335120883N00900104EA0121701296141000
B0931375120870N00900258EA0121101288141000
B0931415120858N00900412EA0120801280141000
K093141180013
B0931455120850N00900562EA0120201280139000
B0931495120837N00900712EA0120001280140000
B0931535120816N00900862EA0119601272141000
B0931575120804N00901016EA0119201264143000
B0932015120800N00901158EA0119701272128000
K093201180011
B0932055120791N00901291EA0118901264128000
B0932095120783N00901425EA0118501264132000
B0932135120766N00901554EA0120101280114000
B0932175120758N00901662EA0121701296099000
B0932215120745N00901766EA0122501304095000
K093221180011
B0932255120729N00901862EA0123001312090000
B0932295120704N00901954EA0122501304096000
B0932335120675N00902054EA0121801296099000
B0932375120650N00902154EA0120701288107000
B0932415120629N00902266EA0118901272114000
K093241180007
B0932455120600N00902387EA0117201248124000
B0932495120562N00902508EA0115801240124000
B0932535120516N00902633EA0114801224130000
B0932575120470N00902754EA0113701216132000
B0933015120420N00902879EA0112401200135000
K093301180010
B0933055120375N00903008EA0111401192137000
B0933095120329N00903141EA0111101184138000
B0933135120279N00903270EA0111101184134000
B0933175120229N00903395EA0110401176135000
B0933215120183N00903533EA0109401168138000
K093321180013
B0933255120141N00903675EA0109101168141000
B0933295120091N00903808EA0108301160144000
B0933335120037N00903941EA0107601152150000
B0933375119975N00904070EA0107001144147000
B0933415119912N00904195EA0106701144142000
K093341180014
B0933455119854N00904316EA0106101136139000
B0933495119795N00904441EA0104901128145000
B0933535119741N00904570EA0103601112145000
B0933575119683N00904695EA0103501112140000
B0934015119633N00904816EA0102501104138000
K093401180012
B0934055119579N00904941EA0102401104134000
B0934095119525N00905062EA0102501104137000
B0934135119470N00905175EA0102501104130000
B0934175119412N00905279EA0104501120118000
B0934215119354N00905354EA0106801144096000
K093421180018
B0934255119308N00905429EA0107101152097000
B0934295119275N00905529EA0107601152103000
B0934335119291N00905625EA0109001168094000
B0934375119350N00905666EA0109801176102000
B0934415119395N00905620EA0110401176094000
K093441180018
B0934455119400N00905529EA0110101176095000
B0934495119354N00905458EA0110001176099000
B0934535119287N00905458EA0110801184090000
B0934575119237N00905520EA0111101184087000
B0935015119212N00905612EA0112001192091000
K093501180018
B0935055119220N00905704EA0112901200092000
B0935095119270N00905750EA0113101200093000
B0935135119320N00905716EA0113701208096000
B0935175119329N00905629EA0113901208088000
B0935215119283N00905562EA0112701200105000
K093521180018
B0935255119212N00905562EA0113901208091000
B0935295119158N00905608EA0114901224089000
B0935335119120N00905691EA0115601232094000
B0935375119125N00905795EA0116501240098000
B0935415119175N00905850EA0117601248092000
K093541180018
B0935455119225N00905808EA0117501248091000
B0935495119229N00905712EA0117201248105000
B0935535119179N00905645EA0118701264092000
B0935575119116N00905670EA0119901272090000
B0936015119079N00905750EA0120701280087000
K093601180018
B0936055119091N00905850EA0120601280102000
B0936095119145N00905904EA0122001296096000
B0936135119195N00905870EA0122801304083000
B0936175119208N00905783EA0121701288101000
B0936215119175N00905695EA0122801296093000
K093621180018
B0936255119120N00905662EA0124601320079000
B0936295119062N00905679EA0124701320095000
B0936335119025N00905770EA0124801320099000
B0936375119037N00905875EA0126001328089000
B0936415119091N00905916EA0126201336100000
K093641180018
B0936455119145N00905875EA0127601352089000
B0936495119162N00905795EA0128801360082000
B0936535119145N00905712EA0128201352095000
B0936575119091N00905658EA0129501368098000
B0937015119037N00905670EA0131201384077000
K093701180018
B0937055118995N00905725EA0129801368095000
B0937095118966N00905833EA0130001368105000
B0937135118929N00905933EA0131601392094000
B0937175118895N00906029EA0130001376110000
B0937215118858N00906150EA0130201376118000
K093721180014
B0937255118829N00906270EA0132501400111000
B0937295118816N00906391EA0134701424097000
B0937335118812N00906487EA0135801432082000
B0937375118808N00906587EA0134301416101000
B0937415118795N00906708EA0132301392120000
K093741180005
B0937455118783N00906841EA0132301392124000
B0937495118775N00906970EA0133001400112000
B0937535118766N00907091EA0132801400112000
B0937575118745N00907216EA0130901384124000
B0938015118729N00907358EA0129001360137000
K093801180007
B0938055118708N00907508EA0126801344151000
B0938095118683N00907675EA0125201320160000
B0938135118650N00907841EA0124101312161000
B0938175118616N00908004EA0124901320148000
B0938215118600N00908154EA0126601336129000
K093821180016
B0938255118587N00908291EA0126901344123000
B0938295118579N00908433EA0124401320139000
B0938335118562N00908591EA0121101280159000
B0938375118537N00908766EA0120101272160000
B0938415118516N00908933EA0121601288143000
K093841180015
B0938455118504N00909091EA0121401288141000
B0938495118491N00909250EA0119701272154000
B0938535118479N00909425EA0118401256160000
B0938575118454N00909587EA0119801272144000
B0939015118420N00909729EA0120801280130000
K093901180018
B0939055118391N00909866EA0119401264139000
B0939095118362N00910016EA0116801240152000
B0939135118333N00910179EA0116301232152000
B0939175118308N00910337EA0116601240144000
B0939215118283N00910487EA0116901240137000
K093921180015
B0939255118262N00910633EA0116601240136000
B0939295118241N00910779EA0115601232140000
B0939335118229N00910929EA0114901224139000
B0939375118225N00911079EA0113601224135000
B0939415118220N00911229EA0112101208144000
K093941180011
B0939455118220N00911387EA0111201200148000
B0939495118229N00911541EA0111301200142000
B0939535118237N00911691EA0111501200140000
B0939575118250N00911841EA0111101200143000
B0940015118254N00911991EA0110601192149000
K094001180008
B0940055118258N00912145EA0112601208137000
B0940095118258N00912270EA0117601256101000
B0940135118262N00912362EA0119601280078000
B0940175118266N00912454EA0118301264097000
B0940215118275N00912566EA0117201256107000
K094021180008
B0940255118283N00912691EA0117901264110000
B0940295118287N00912812EA0118901272105000
B0940335118291N00912920EA0119701280098000
B0940375118295N00913029EA0119601280099000
B0940415118295N00913141EA0118001264105000
K094041180009
B0940455118295N00913266EA0116401248120000
B0940495118295N00913400EA0116101248117000
B0940535118287N00913529EA0115801240118000
B0940575118283N00913662EA0115401240121000
B0941015118279N00913795EA0115001240124000
K094101180010
B0941055118279N00913933EA0114301232127000
B0941095118283N00914070EA0113701224128000
B0941135118287N00914212EA0114301216129000
B0941175118283N00914358EA0113301208133000
B0941215118279N00914508EA0112801200133000
K094121180012
B0941255118279N00914658EA0112101192137000
B0941295118270N00914808EA0111301184137000
B0941335118266N00914958EA0110601176137000
B0941375118262N00915108EA0109801168139000
B0941415118254N00915258EA0109401168137000
K094141180013
B0941455118250N00915408EA0108901160137000
B0941495118241N00915558EA0108101152139000
B0941535118229N00915708EA0107501144141000
B0941575118220N00915862EA0106801144141000
B0942015118212N00916016EA0106201136141000
K094201180012
B0942055118204N00916166EA0105601128142000
B0942095118191N00916325EA0105201128141000
B0942135118187N00916479EA0104701120140000
B0942175118179N00916633EA0104001112140000
B0942215118170N00916787EA0103301104142000
K094221180014
B0942255118166N00916945EA0102701096142000
B0942295118158N00917104EA0102201096146000
B0942335118145N00917262EA0101801088144000
B0942375118133N00917416EA0101601088144000
B0942415118120N00917570EA0101601088142000
K094241180013
B0942455118108N00917720EA0101101080138000
B0942495118095N00917870EA0100501080143000
B0942535118087N00918016EA0099701072141000
B0942575118079N00918166EA0098901064145000
B0943015118070N00918316EA0098301056147000
K094301180007
B0943055118062N00918466EA0098201056140000
B0943095118054N00918608EA0097501048134000
B0943135118041N00918750EA0097901048130000
B0943175118029N00918879EA0098701064120000
B0943215118016N00919008EA0098801064118000
K094321180011
B0943255118004N00919137EA0098601064121000
B0943295118000N00919262EA0099201064112000
B0943335117991N00919387EA0099301064120000
B0943375117987N00919508EA0101001088101000
B0943415117983N00919612EA0101201088103000
K094341180013
B0943455117979N00919716EA0101701088098000
B0943495117975N00919816EA0102001096090000
B0943535117970N00919912EA0101201088094000
B0943575117975N00920020EA0100501080100000
B0944015117991N00920129EA0100101072109000
K094401180007
B0944055118020N00920225EA0100401080098000
B0944095118058N00920316EA0101001088101000
B0944135118070N00920408EA0102001096089000
B0944175118075N00920495EA0101801096084000
B0944215118087N00920583EA0100501080103000
K094421180007
B0944255118116N00920679EA0100001080101000
B0944295118145N00920775EA0099701072104000
B0944335118166N00920875EA0100201080106000
B0944375118195N00920970EA0099401072104000
B0944415118220N00921066EA0098201056100000
K094441180003
B0944455118241N00921166EA0097801056102000
B0944495118262N00921262EA0097501056101000
B0944535118283N00921362EA0096701040103000
B0944575118312N00921454EA0095801032103000
B0945015118345N00921545EA0094201016108000
K094501180001
B0945055118387N00921637EA0093501008109000
B0945095118429N00921729EA0092301000107000
B0945135118475N00921812EA0093401008112000
B0945175118520N00921895EA0093801016102000
B0945215118550N00921991EA0094601024106000
K094521180003
B0945255118566N00922087EA0095901032096000
B0945295118525N00922162EA0096301040099000
B0945335118466N00922120EA0095901032112000
B0945375118479N00922020EA0097801056099000
B0945415118537N00922000EA0099201064090000
K094541180003
B0945455118570N00922066EA0099201064096000
B0945495118554N00922158EA0099601072095000
B0945535118495N00922200EA0101001088088000
B0945575118437N00922175EA0101401088091000
B0946015118420N00922079EA0101501088104000
K094601180003
B0946055118458N00922008EA0103301112102000
B0946095118512N00922033EA0103701112089000
B0946135118525N00922129EA0103301104106000
B0946175118466N00922191EA0104801120106000
B0946215118412N00922141EA0105901136090000
K094621180003
B0946255118429N00922045EA0105901136110000
B0946295118487N00922033EA0107701152096000
B0946335118516N00922116EA0108401160097000
B0946375118479N00922200EA0109001168101000
B0946415118412N00922179EA0109601176094000
K094641180003
B0946455118400N00922079EA0110201176107000
B0946495118450N00922025EA0112001192097000
B0946535118491N00922079EA0111801192100000
B0946575118466N00922179EA0111901192108000
B0947015118400N00922170EA0113701208089000
K094701180003
B0947055118375N00922079EA0114001216102000
B0947095118416N00922008EA0115201224094000
B0947135118466N00922045EA0114901224102000
B0947175118458N00922150EA0115101224105000
B0947215118400N00922187EA0117501248090000
K094721180003
B0947255118362N00922112EA0117701248097000
B0947295118400N00922029EA0117901248106000
B0947335118450N00922083EA0118301256099000
B0947375118437N00922183EA0119601264095000
B0947415118383N00922212EA0121601288086000
K094741180003
B0947455118337N00922154EA0121901288094000
B0947495118350N00922058EA0121601288104000
B0947535118408N00922041EA0121301280103000
B0947575118445N00922120EA0121801288100000
B0948015118437N00922220EA0123801312088000
K094801180003
B0948055118395N00922279EA0124901320089000
B0948095118341N00922245EA0123901312099000
B0948135118354N00922145EA0123701304115000
B0948175118425N00922162EA0125501312103000
B0948215118420N00922266EA0127201336098000
K094821180003
B0948255118354N00922283EA0126201336105000
B0948295118333N00922183EA0126501336105000
B0948335118391N00922137EA0127201344108000
B0948375118429N00922225EA0129001360103000
B0948415118387N00922304EA0129701368099000
K094841180003
B0948455118320N00922275EA0129801376102000
B0948495118312N00922175EA0130301376101000
B0948535118366N00922116EA0132601400090000
B0948575118416N00922158EA0132901408095000
B0949015118429N00922258EA0133401408099000
K094901180003
B0949055118383N00922325EA0134401416094000
B0949095118325N00922304EA0134901424093000
B0949135118300N00922216EA0134801424092000
B0949175118333N00922133EA0136301440084000
B0949215118383N00922108EA0137301448079000
K094921180003
B0949255118433N00922162EA0135501432098000
B0949295118450N00922270EA0135701432098000
B0949335118441N00922370EA0135801432097000
B0949375118437N00922479EA0133501416109000
B0949415118429N00922604EA0132601408124000
K094941180003
B0949455118420N00922729EA0133801408119000
B0949495118416N00922854EA0132901400122000
B0949535118412N00922987EA0132501392127000
B0949575118412N00923120EA0132801400125000
B0950015118420N00923250EA0132001392129000
K095001180003
B0950055118425N00923383EA0131101384128000
B0950095118433N00923520EA0130601376127000
B0950135118433N00923654EA0130201376127000
B0950175118429N00923791EA0130001368122000
B0950215118420N00923925EA0129401368125000
K095021180007
B0950255118412N00924062EA0128301352130000
B0950295118404N00924195EA0128201352125000
B0950335118400N00924333EA0130301368123000
B0950375118379N00924441EA0134001408098000
B0950415118333N00924500EA0135601432086000
K095041180012
B0950455118275N00924475EA0134801416105000
B0950495118254N00924375EA0135501424097000
B0950535118287N00924312EA0136401440083000
B0950575118337N00924300EA0136301432094000
B0951015118391N00924345EA0137401448094000
K095101180012
B0951055118420N00924425EA0139301464082000
B0951095118429N00924512EA0139601472087000
B0951135118429N00924612EA0139201464099000
B0951175118433N00924725EA0138701464110000
B0951215118445N00924841EA0138101456117000
K095121180010
B0951255118458N00924958EA0138301456095000
B0951295118462N00925079EA0137201448116000
B0951335118483N00925200EA0136201432118000
B0951375118512N00925325EA0136101432123000
B0951415118537N00925450EA0137201440124000
K095141180008
B0951455118558N00925566EA0139301464106000
B0951495118579N00925670EA0140201480096000
B0951535118595N00925779EA0139101464114000
B0951575118616N00925900EA0140301480108000
B0952015118633N00926008EA0141101488098000
K095201180009
B0952055118641N00926125EA0139601480109000
B0952095118650N00926245EA0138301464120000
B0952135118658N00926379EA0138401464112000
B0952175118662N00926508EA0138901464113000
B0952215118670N00926645EA0137801448123000
K095221180011
B0952255118675N00926787EA0137001440127000
B0952295118679N00926925EA0137101448122000
B0952335118687N00927058EA0137701456111000
B0952375118695N00927179EA0137501448110000
B0952415118704N00927308EA0136101432122000
K095241180013
B0952455118712N00927450EA0134201416135000
B0952495118729N00927600EA0134201416131000
B0952535118737N00927733EA0135701432114000
B0952575118745N00927858EA0136001440110000
B0953015118750N00927983EA0134501424122000
K095301180012
B0953055118762N00928120EA0132701400134000
B0953095118779N00928270EA0132501400135000
B0953135118791N00928408EA0133301408121000
B0953175118804N00928529EA0133901416109000
B0953215118812N00928645EA0133101408117000
K095321180011
B0953255118829N00928775EA0132301400124000
B0953295118845N00928908EA0131501392126000
B0953335118862N00929050EA0130901384131000
B0953375118883N00929195EA0130101376131000
B0953415118895N00929345EA0130301376142000
K095341180008
B0953455118916N00929487EA0131101384132000
B0953495118929N00929629EA0131501392122000
B0953535118945N00929762EA0131101384125000
B0953575118958N00929904EA0129501368135000
B0954015118975N00930050EA0129001368134000
K095401180009
B0954055118995N00930191EA0128701360133000
B0954095119012N00930325EA0128401360127000
B0954135119037N00930462EA0127601352123000
B0954175119058N00930595EA0126901344130000
B0954215119079N00930737EA0125501328134000
K095421180009
B0954255119095N00930875EA0125501328133000
B0954295119104N00931008EA0126701344124000
B0954335119120N00931137EA0127001344124000
B0954375119133N00931266EA0127801352124000
B0954415119137N00931379EA0131401392096000
K095441180010
B0954455119141N00931475EA0132101400086000
B0954495119154N00931575EA0129801376112000
B0954535119170N00931700EA0128401360116000
B0954575119191N00931820EA0127601352118000
B0955015119212N00931945EA0126601344121000
K095501180007
B0955055119229N00932079EA0125701336125000
B0955095119237N00932212EA0125101328125000
B0955135119250N00932350EA0124201320129000
B0955175119258N00932491EA0122701304136000
B0955215119270N00932637EA0121501288139000
K095521180007
B0955255119291N00932783EA0120801280143000
B0955295119308N00932933EA0119901272140000
B0955335119329N00933083EA0119301264143000
B0955375119345N00933229EA0119001264133000
B0955415119366N00933370EA0118301256135000
K095541180010
B0955455119391N00933508EA0117501248134000
B0955495119416N00933650EA0116601240138000
B0955535119437N00933791EA0116801240134000
B0955575119454N00933925EA0116401240130000
B0956015119470N00934066EA0115401224138000
K095601180006
B0956055119483N00934212EA0116401240133000
B0956095119495N00934358EA0116801240135000
B0956135119495N00934483EA0121301288091000
B0956175119487N00934562EA0122901312070000
B0956215119483N00934658EA0119001264120000
K095621180016
B0956255119491N00934795EA0114401216149000
B0956295119495N00934958EA0114101216146000
B0956335119500N00935108EA0114901224137000
B0956375119504N00935254EA0115201224135000
B0956415119508N00935395EA0116401232131000
K095641180010
B0956455119495N00935512EA0120801280088000
B0956495119479N00935600EA0121101288085000
B0956535119475N00935708EA0117801256116000
B0956575119479N00935841EA0115601232131000
B0957015119491N00935979EA0115101224130000
K095701180012
B0957055119512N00936116EA0114301216131000
B0957095119529N00936258EA0113401208131000
B0957135119550N00936400EA0111701192133000
B0957175119566N00936545EA0110201176138000
B0957215119579N00936704EA0110501176143000
K095721180011
B0957255119591N00936854EA0111901192144000
B0957295119595N00936987EA0114901224118000
B0957335119579N00937095EA0117001248093000
B0957375119575N00937191EA0116101232096000
B0957415119583N00937304EA0111901192130000
K095741180014
B0957455119608N00937441EA0110001168148000
B0957495119629N00937579EA0113201200129000
B0957535119654N00937700EA0115501224114000
B0957575119683N00937800EA0117901248097000
B0958015119691N00937891EA0119701272093000
K095801180014
B0958055119658N00937966EA0119801272093000
B0958095119591N00937966EA0119101264104000
B0958135119562N00937866EA0119101264102000
B0958175119595N00937787EA0120001272096000
B0958215119654N00937779EA0121001288085000
K095821180014
B0958255119700N00937825EA0121101288088000
B0958295119729N00937908EA0121501288085000
B0958335119725N00938016EA0122101288092000
B0958375119716N00938112EA0123801312086000
B0958415119704N00938200EA0124401320084000
K095841180014
B0958455119662N00938270EA0123801312097000
B0958495119595N00938245EA0123401304105000
B0958535119587N00938141EA0125001320098000
B0958575119633N00938095EA0127101344082000
B0959015119683N00938133EA0127701352092000
K095901180014
B0959055119691N00938229EA0127701344100000
B0959095119641N00938300EA0128301352094000
B0959135119583N00938266EA0128101352095000
B0959175119566N00938170EA0129301360093000
B0959215119591N00938104EA0131801392075000
K095921180014
B0959255119637N00938087EA0131301384098000
B0959295119687N00938158EA0131201384100000
B0959335119679N00938266EA0133001400098000
B0959375119616N00938287EA0132901400094000
B0959415119579N00938204EA0132601400104000
K095941180014
B0959455119595N00938116EA0135001424089000
B0959495119641N00938100EA0136501440077000
B0959535119691N00938141EA0135201424097000
B0959575119712N00938250EA0135001424103000
B1000015119708N00938366EA0135601424102000
K100001180014
B1000055119695N00938483EA0136401440097000
B1000095119691N00938595EA0136901440102000
B1000135119691N00938712EA0135001424115000
B1000175119683N00938845EA0134001408118000
B1000215119687N00938983EA0132601392127000
K100021180010
B1000255119687N00939125EA0131001384133000
B1000295119679N00939275EA0129601368142000
B1000335119679N00939433EA0128901360145000
B1000375119675N00939591EA0128901360140000
B1000415119670N00939741EA0129101360140000
K100041180010
B1000455119670N00939887EA0129001360137000
B1000495119662N00940025EA0128701360134000
B1000535119658N00940170EA0128101344137000
B1000575119658N00940308EA0129601368125000
B1001015119666N00940445EA0130001368125000
K100101180009
B1001055119679N00940579EA0132201392120000
B1001095119666N00940695EA0135501424099000
B1001135119645N00940783EA0137001440079000
B1001175119629N00940870EA0136001432098000
B1001215119633N00940987EA0134001408120000
K100121180013
B1001255119658N00941116EA0133101400128000
B1001295119687N00941245EA0132701400125000
B1001335119720N00941366EA0131801392125000
B1001375119762N00941487EA0130901376129000
B1001415119808N00941604EA0130101368132000
K100141180009
B1001455119862N00941720EA0129801368131000
B1001495119916N00941837EA0128901360134000
B1001535119966N00941958EA0127101344139000
B1001575120020N00942087EA0124801312151000
B1002015120083N00942216EA0123801304153000
K100201180006
B1002055120150N00942333EA0124701312143000
B1002095120208N00942441EA0125701328134000
B1002135120262N00942545EA0127801344112000
B1002175120312N00942629EA0129801368102000
B1002215120362N00942700EA0131701384098000
K100221180013
B1002255120408N00942762EA0132901400083000
B1002295120454N00942829EA0131601392093000
B1002335120504N00942908EA0129101360119000
B1002375120562N00943004EA0126601344125000
B1002415120620N00943100EA0127101352116000
K100241180006
B1002455120675N00943187EA0126401344116000
B1002495120733N00943283EA0124401328131000
B1002535120791N00943387EA0124201328125000
B1002575120845N00943487EA0123801320119000
B1003015120900N00943587EA0122801312125000
K100301180010
B1003055120954N00943691EA0121601296128000
B1003095120995N00943816EA0121801296126000
B1003135121037N00943933EA0121801296125000
B1003175121079N00944054EA0122101304125000
B1003215121120N00944170EA0122401304122000
K100321180010
B1003255121162N00944287EA0121901296125000
B1003295121204N00944400EA0121201296128000
B1003335121241N00944516EA0120901288130000
B1003375121279N00944637EA0122101288130000
B1003415121312N00944758EA0122401288123000
K100341180004
B1003455121350N00944875EA0122101288129000
B1003495121387N00944995EA0121401280130000
B1003535121420N00945120EA0120501272131000
B1003575121450N00945250EA0119501264126000
B1004015121479N00945383EA0119101256132000
K100401180006
B1004055121508N00945516EA0120701272126000
B1004095121525N00945633EA0123701304093000
B1004135121520N00945733EA0125101320080000
B1004175121487N00945812EA0124101312094000
B1004215121416N00945829EA0122901296109000
K100421180015
B1004255121375N00945754EA0123601304095000
B1004295121387N00945670EA0124001312090000
B1004335121433N00945616EA0124401312094000
B1004375121487N00945612EA0125601328092000
B1004415121529N00945658EA0126801336084000
K100441180015
B1004455121550N00945750EA0126201328097000
B1004495121558N00945862EA0124201312110000
B1004535121579N00945983EA0122501296120000
B1004575121600N00946108EA0121801288118000
B1005015121620N00946237EA0119601264132000
K100501180011
B1005055121645N00946383EA0117901248138000
B1005095121666N00946529EA0116601232139000
B1005135121687N00946683EA0115401224144000
B1005175121708N00946833EA0114701216141000
B1005215121729N00946987EA0113901208145000
K100521180011
B1005255121745N00947141EA0113301200147000
B1005295121758N00947295EA0113101200144000
B1005335121770N00947450EA0112701200143000
B1005375121783N00947600EA0112301192144000
B1005415121800N00947754EA0111801184142000
K100541180009
B1005455121816N00947904EA0111201176146000
B1005495121841N00948054EA0110801176144000
B1005535121866N00948208EA0110301168144000
B1005575121887N00948354EA0109301160141000
B1006015121908N00948508EA0107901144145000
K100601180010
B1006055121929N00948662EA0107401144143000
B1006095121950N00948808EA0107401144140000
B1006135121970N00948958EA0106801136139000
B1006175121995N00949108EA0105901128144000
B1006215122016N00949258EA0105301120143000
K100621180011
B1006255122041N00949408EA0104501112144000
B1006295122075N00949554EA0103801104145000
B1006335122104N00949704EA0103301096147000
B1006375122129N00949850EA0102801096143000
B1006415122154N00950000EA0102401088146000
K100641180009
B1006455122175N00950145EA0103001096137000
B1006495122200N00950287EA0103101096135000
B1006535122229N00950425EA0105701120117000
B1006575122237N00950533EA0109401168091000
B1007015122262N00950620EA0110001168095000
K100701180015
B1007055122316N00950670EA0109001152106000
B1007095122379N00950637EA0109401160100000
B1007135122408N00950554EA0109301160098000
B1007175122391N00950458EA0109601160097000
B1007215122337N00950408EA0111101176097000
K100721180015
B1007255122279N00950420EA0111901184097000
B1007295122237N00950504EA0112901192097000
B1007335122245N00950616EA0113501200101000
B1007375122300N00950670EA0114201208103000
B1007415122358N00950625EA0113401200110000
K100741180015
B1007455122358N00950525EA0113601200110000
B1007495122304N00950466EA0115301216096000
B1007535122250N00950475EA0117001240079000
B1007575122204N00950541EA0117101232102000
B1008015122204N00950654EA0118301248098000
K100801180015
B1008055122258N00950712EA0118801256099000
B1008095122316N00950675EA0118701256103000
B1008135122320N00950583EA0118901256098000
B1008175122275N00950520EA0119601264097000
B1008215122216N00950533EA0121301272092000
K100821180015
B1008255122183N00950620EA0121401280102000
B1008295122208N00950725EA0122301288100000
B1008335122270N00950737EA0122801288099000
B1008375122304N00950658EA0123101296103000
B1008415122275N00950579EA0124401304096000
K100841180015
B1008455122216N00950575EA0125401312097000
B1008495122179N00950666EA0125801320104000
B1008535122204N00950770EA0127101336094000
B1008575122262N00950795EA0127401336098000
B1009015122308N00950737EA0128001344094000
K100901180015
B1009055122304N00950654EA0128601352087000
B1009095122262N00950600EA0129401360088000
B1009135122204N00950608EA0130001360096000
B1009175122162N00950687EA0131401376091000
B1009215122170N00950787EA0131901384093000
K100921180015
B1009255122225N00950850EA0130901376106000
B1009295122291N00950812EA0130901376114000
B1009335122304N00950712EA0132401384101000
B1009375122270N00950633EA0134001408087000
B1009415122220N00950604EA0134301408090000
K100941180015
B1009455122162N00950650EA0134001400104000
B1009495122129N00950754EA0135101416100000
B1009535122141N00950862EA0136501424095000
B1009575122154N00950962EA0136901432088000
B1010015122162N00951066EA0135201416102000
K101001180015
B1010055122179N00951191EA0132201384128000
B1010095122195N00951341EA0130101368137000
B1010135122216N00951491EA0128601352140000
B1010175122245N00951645EA0127101336148000
B1010215122270N00951800EA0126701328145000
K101021180011
B1010255122291N00951954EA0126901336140000
B1010295122308N00952108EA0125601328144000
B1010335122337N00952262EA0123901312151000
B1010375122366N00952425EA0123201304157000
B1010415122391N00952583EA0123101304149000
K101041180011
B1010455122416N00952737EA0123301304143000
B1010495122433N00952891EA0122501296144000
B1010535122454N00953050EA0121001280147000
B1010575122470N00953212EA0119901272153000
B1011015122491N00953375EA0119401264148000
K101101180012
B1011055122508N00953533EA0119301264150000
B1011095122529N00953687EA0118901264147000
B1011135122541N00953837EA0118501256144000
B1011175122550N00953987EA0118301256145000
B1011215122558N00954133EA0118101256137000
K101121180007
B1011255122566N00954275EA0117201248140000
B1011295122575N00954420EA0116301232143000
B1011335122587N00954562EA0116101232137000
B1011375122595N00954704EA0116001232138000
B1011415122608N00954845EA0116301232138000
K101141180004
B1011455122625N00954983EA0116601240135000
B1011495122641N00955125EA0115901232138000
B1011535122654N00955270EA0116701240134000
B1011575122670N00955408EA0118101256124000
B1012015122675N00955533EA0120701280110000
K101201180010
B1012055122666N00955641EA0122001296097000
B1012095122662N00955750EA0121901296099000
B1012135122658N00955862EA0121801288103000
B1012175122650N00955966EA0121601288100000
B1012215122641N00956083EA0119701272112000
K101221180007
B1012255122633N00956212EA0117401248126000
B1012295122641N00956358EA0115801232145000
B1012335122666N00956504EA0116901240132000
B1012375122679N00956633EA0118301256110000
B1012415122691N00956754EA0117601248116000
K101241180012
B1012455122720N00956883EA0114701216139000
B1012495122754N00957020EA0113601208144000
B1012535122791N00957158EA0113701208137000
B1012575122825N00957291EA0113601208135000
B1013015122862N00957420EA0112201192141000
K101301180006
B1013055122900N00957562EA0110501176148000
B1013095122933N00957708EA0109801168148000
B1013135122966N00957854EA0109901168138000
B1013175123004N00957991EA0109401168137000
B1013215123045N00958125EA0108401152138000
K101321180010
B1013255123083N00958262EA0107301144141000
B1013295123116N00958408EA0106401136141000
B1013335123150N00958550EA0105301120144000
B1013375123191N00958691EA0104301112146000
B1013415123241N00958833EA0103701104146000
K101341180012
B1013455123295N00958966EA0103601104144000
B1013495123345N00959095EA0103701112136000
B1013535123387N00959225EA0103101104133000
B1013575123429N00959358EA0102701096135000
B1014015123470N00959487EA0102201096134000
K101401180013
B1014055123516N00959612EA0101201080138000
B1014095123558N00959741EA0100901080134000
B1014135123595N00959870EA0101001080135000
B1014175123633N01000000EA0102101088129000
B1014215123654N01000116EA0103001104108000
K101421180012
B1014255123683N01000225EA0103001104115000
B1014295123704N01000341EA0104301112103000
B1014335123725N01000445EA0105901128094000
B1014375123729N01000550EA0106301136090000
B1014415123691N01000645EA0105401128096000
K101441180014
B1014455123625N01000679EA0105101120103000
B1014495123570N01000633EA0105701128094000
B1014535123562N01000545EA0105001120101000
B1014575123612N01000483EA0104201112111000
B1015015123679N01000495EA0105301128098000
K101501180014
B1015055123733N01000558EA0106001128102000
B1015095123770N01000650EA0107101136100000
B1015135123750N01000758EA0106701136104000
B1015175123679N01000779EA0105101120108000
B1015215123633N01000704EA0105601128095000
K101521180014
B1015255123637N01000620EA0105601128090000
B1015295123675N01000558EA0105701128095000
B1015335123733N01000541EA0107101144093000
B1015375123787N01000566EA0108501152086000
B1015415123816N01000650EA0107501144103000
K101541180014
B1015455123804N01000775EA0105901128114000
B1015495123779N01000895EA0106301136107000
B1015535123754N01001012EA0105701128111000
B1015575123737N01001141EA0104301112130000
B1016015123733N01001283EA0103701104128000
K101601180011
B1016055123737N01001425EA0102701096131000
B1016095123750N01001566EA0100901080134000
B1016135123766N01001712EA0099201064141000
B1016175123795N01001858EA0098901056139000
B1016215123825N01001995EA0099201064139000
K101621180010
B1016255123850N01002141EA0099201064133000
B1016295123866N01002279EA0099201064125000
B1016335123879N01002420EA0097801048134000
B1016375123891N01002570EA0096101032142000
B1016415123900N01002725EA0095801024141000
K101641180011
B1016455123912N01002875EA0095701032134000
B1016495123916N01003016EA0094801024132000
B1016535123925N01003170EA0094101008139000
B1016575123933N01003316EA0094401016135000
B1017015123950N01003458EA0094401016135000
K101701180012
B1017055123962N01003600EA0094801024133000
B1017095123975N01003737EA0097101040122000
B1017135123979N01003862EA0099201064097000
B1017175123966N01003970EA0100501080094000
B1017215123962N01004079EA0099901072106000
K101721180018
B1017255124000N01004179EA0099401064109000
B1017295124066N01004216EA0099001064114000
B1017335124125N01004179EA0100001072101000
B1017375124154N01004100EA0100701080091000
B1017415124141N01004016EA0099901072098000
K101741180018
B1017455124087N01003958EA0099701072097000
B1017495124025N01003950EA0099901072094000
B1017535123962N01004000EA0099501064098000
B1017575123916N01004087EA0099501072093000
B1018015123883N01004175EA0100401080087000
K101801180018
B1018055123858N01004266EA0101101088085000
B1018095123833N01004362EA0100301080088000
B1018135123812N01004462EA0099501072089000
B1018175123804N01004575EA0098601064102000
B1018215123787N01004687EA0099601080097000
K101821180015
B1018255123779N01004795EA0099501072096000
B1018295123770N01004904EA0098701064104000
B1018335123766N01005012EA0099101072095000
B1018375123754N01005112EA0099201072095000
B1018415123745N01005208EA0099301072093000
K101841180010
B1018455123733N01005312EA0098301064103000
B1018495123712N01005420EA0098501064096000
B1018535123691N01005525EA0099001072094000
B1018575123662N01005625EA0099401072097000
B1019015123629N01005720EA0100301080096000
K101901180014
B1019055123570N01005775EA0100001080100000
B1019095123504N01005750EA0098601064104000
B1019135123475N01005658EA0098201064100000
B1019175123483N01005566EA0098301064102000
B1019215123520N01005500EA0098901072091000
K101921180014
B1019255123570N01005462EA0098701064095000
B1019295123625N01005462EA0098801064100000
B1019335123679N01005500EA0099901080092000
B1019375123695N01005587EA0100501088090000
B1019415123658N01005675EA0100501088097000
K101941180014
B1019455123591N01005670EA0100701088103000
B1019495123566N01005587EA0101601096092000
B1019535123600N01005533EA0101801096092000
B1019575123650N01005558EA0102101096094000
B1020015123683N01005629EA0103001112091000
K102001180014
B1020055123679N01005716EA0102301104093000
B1020095123625N01005791EA0102401104096000
B1020135123566N01005800EA0104601120079000
B1020175123520N01005750EA0104101120087000
B1020215123520N01005670EA0103301112094000
K102021180014
B1020255123566N01005633EA0103801112092000
B1020295123612N01005670EA0105001128090000
B1020335123641N01005729EA0105501136078000
B1020375123650N01005808EA0104201120088000
B1020415123650N01005912EA0102901112100000
K102041180014
B1020455123625N01006020EA0103001112101000
B1020495123591N01006120EA0103501112096000
B1020535123562N01006225EA0102101104104000
B1020575123529N01006341EA0100801096105000
B1021015123495N01006458EA0099801080109000
K102101180016
B1021055123454N01006570EA0099001072105000
B1021095123408N01006679EA0096301048126000
B1021135123345N01006791EA0094901032130000
B1021175123283N01006904EA0094501032127000
B1021215123225N01007020EA0093601016131000
K102121180019
B1021255123170N01007145EA0093101016133000
B1021295123120N01007266EA0092301008131000
B1021335123066N01007383EA0091401000129000
B1021375123008N01007491EA0090200984129000
B1021415122950N01007600EA0088800976132000
K102141180016
B1021455122887N01007712EA0087400960136000
B1021495122825N01007825EA0087100952132000
B1021535122762N01007933EA0086500952131000
B1021575122704N01008045EA0086200944134000
B1022015122645N01008154EA0086200944126000
K102201180016
B1022055122587N01008266EA0085400936129000
B1022095122525N01008375EA0084500928134000
B1022135122462N01008487EA0084900920137000
B1022175122395N01008591EA0084600920135000
B1022215122333N01008691EA0084400920127000
K102221180015
B1022255122266N01008795EA0083800912129000
B1022295122200N01008891EA0083000904127000
B1022335122137N01008987EA0082500896128000
B1022375122070N01009087EA0081800888125000
B1022415122004N01009179EA0080600880128000
K102241180016
B1022455121933N01009270EA0080200872125000
B1022495121866N01009362EA0080100872120000
B1022535121808N01009458EA0079400864120000
B1022575121741N01009550EA0079100864119000
B1023015121670N01009629EA0078400856121000
K102301180019
B1023055121595N01009704EA0077900848121000
B1023095121520N01009775EA0078300848126000
B1023135121450N01009845EA0079600864116000
B1023175121379N01009883EA0080200872109000
B1023215121304N01009891EA0080500880111000
K102321180021
B1023255121233N01009925EA0081400888098000
B1023295121166N01009920EA0081700888094000
B1023335121112N01009870EA0080300872103000
B1023375121054N01009816EA0079500864102000
B1023415120987N01009783EA0078200856109000
K102341180021
B1023455120916N01009750EA0077000840110000
B1023495120850N01009704EA0076700840106000
B1023535120791N01009645EA0077200840104000
B1023575120745N01009583EA0077700848095000
B1024015120704N01009512EA0077200840109000
K102401180014
B1024055120675N01009420EA0078600856100000
B1024095120679N01009337EA0080000872089000
B1024135120729N01009300EA0080500872103000
B1024175120770N01009375EA0079700864100000
B1024215120745N01009479EA0079200864104000
K102421180014
B1024255120675N01009495EA0079100856101000
B1024295120625N01009433EA0080500880093000
B1024335120608N01009345EA0081700888090000
B1024375120633N01009279EA0081700888098000
B1024415120687N01009304EA0081100880102000
K102441180014
B1024455120687N01009412EA0081000880093000
B1024495120641N01009483EA0082000896094000
B1024535120579N01009516EA0084200920079000
B1024575120525N01009475EA0083700912093000
B1025015120529N01009370EA0083300896118000
K102501180014
B1025055120591N01009375EA0085100920102000
B1025095120600N01009479EA0086200928099000
B1025135120533N01009533EA0086700936110000
B1025175120479N01009458EA0088300952096000
B1025215120504N01009370EA0089700968095000
K102521180014
B1025255120558N01009387EA0090600976100000
B1025295120579N01009479EA0092600992090000
B1025335120545N01009562EA0093201008091000
B1025375120475N01009566EA0092801000109000
B1025415120445N01009462EA0094601016097000
K102541180014
B1025455120483N01009404EA0096301032094000
B1025495120533N01009450EA0096701032104000
B1025535120529N01009558EA0097901048093000
B1025575120470N01009616EA0099801072092000
B1026015120412N01009570EA0100201072093000
K102601180014
B1026055120416N01009475EA0100001072108000
B1026095120479N01009454EA0102401096094000
B1026135120512N01009516EA0104801120078000
B1026175120500N01009612EA0104201112100000
B1026215120433N01009662EA0104701120110000
K102621180014
B1026255120379N01009587EA0106001128103000
B1026295120404N01009500EA0107401144106000
B1026335120462N01009520EA0108201152105000
B1026375120466N01009633EA0109501168098000
B1026415120404N01009691EA0111701192098000
K102641180014
B1026455120350N01009633EA0112701200095000
B1026495120358N01009537EA0113301200111000
B1026535120425N01009541EA0113801208108000
B1026575120441N01009650EA0115601232106000
B1027015120387N01009737EA0117001240106000
K102701180014
B1027055120312N01009716EA0118601256103000
B1027095120291N01009612EA0120001272106000
B1027135120337N01009550EA0121701288103000
B1027175120391N01009595EA0122701304105000
B1027215120391N01009708EA0124401320104000
K102721180014
B1027255120329N01009762EA0125901336099000
B1027295120266N01009729EA0127301352099000
B1027335120245N01009633EA0128301360097000
B1027375120287N01009570EA0129801376098000
B1027415120341N01009600EA0131801392092000
K102741180014
B1027455120358N01009695EA0133001408101000
B1027495120320N01009783EA0134101416090000
B1027535120250N01009787EA0135401432104000
B1027575120212N01009704EA0136901440095000
B1028015120237N01009620EA0137701448102000
K102801180014
B1028055120300N01009637EA0139601472102000
B1028095120316N01009733EA0141601488095000
B1028135120279N01009812EA0142401496088000
B1028175120204N01009804EA0143001504107000
B1028215120170N01009725EA0145701536079000
K102821180014
B1028255120183N01009650EA0146501536094000
B1028295120233N01009608EA0148201560096000
B1028335120283N01009637EA0150401576085000
B1028375120320N01009712EA0150301576101000
B1028415120358N01009825EA0147301560134000
K102841180014
B1028455120400N01009950EA0147401560135000
B1028495120445N01010070EA0148801576123000
B1028535120487N01010191EA0147701560127000
B1028575120529N01010320EA0145201536140000
B1029015120575N01010466EA0144501520151000
K102901180008
B1029055120620N01010620EA0143601504151000
B1029095120658N01010770EA0143601512146000
B1029135120700N01010916EA0144401520140000
B1029175120737N01011050EA0144801520135000
B1029215120779N01011179EA0145201528139000
K102921180010
B1029255120829N01011308EA0145801528136000
B1029295120879N01011433EA0145901536139000
B1029335120929N01011558EA0144901520144000
B1029375120983N01011683EA0143601512147000
B1029415121037N01011812EA0142401496155000
K102941180005
B1029455121095N01011945EA0142401496146000
B1029495121150N01012066EA0142701496141000
B1029535121216N01012179EA0142601496145000
B1029575121283N01012283EA0143101504146000
B1030015121341N01012391EA0143801512131000
K103001180006
B1030055121404N01012495EA0143301504130000
B1030095121466N01012595EA0141401488139000
B1030135121529N01012712EA0140501480142000
B1030175121591N01012825EA0140501472143000
B1030215121654N01012937EA0141201480136000
K103021180007
B1030255121704N01013058EA0140601480137000
B1030295121754N01013187EA0138901456142000
B1030335121804N01013312EA0138901456136000
