AZAN1KP ZANDER/SDI GP941 V2.06
HFDTE020714
HFFXA050
HFPLT Pilot             :DIRK HAMERLYNCK                         
HFGTY Glider type       :Nimbus4DM                               
HFGID Glider ID         :DX        
HFDTM100 GPS Datum      :WGS84
HFRFW Firmware Version  :06
HFRHW Hardware version  :2
HFFTY FR Type           :ZANDER/SDI GP941
HFGPS                   :Garmin,GPS25,12,30000
HFPRS Press Alt Sensor  :Intersema,MS5534A,10000
HFCCL Competition Class :Open                                    
HFCID Competition ID    :D-KIDX    
I023638IAS3941ENL
J020810WDI1113WVE
LZAN 093240 PowerOn
B0932445147025N00553129EV-003800000000000
B0932485147025N00553129EA-003800000000000
B0932525147025N00553129EA-003900040000000
B0932565147025N00553129EA-003900040000000
B0933005147025N00553129EA-003900040007000
B0933045147025N00553129EA-003900040000000
B0933085147025N00553129EA-003900040000000
B0933125147025N00553129EA-003900040000000
B0933165147025N00553129EA-003900040000000
B0933205147025N00553129EA-003900040000000
B0933245147025N00553129EA-003900040000000
B0933285147025N00553129EA-003900040000000
B0933325147025N00553129EA-003900040000000
B0933365147025N00553129EA-003900040000000
B0933405147025N00553129EA-003900040000000
B0933445147025N00553129EA-003900040000000
B0933485147025N00553129EA-003900040000000
B0933525147025N00553129EA-003900040000000
B0933565147025N00553129EA-003900040000000
B0934005147025N00553129EA-003900040000000
B0934045147025N00553129EA-003800040000000
B0934085147025N00553129EA-003800040000000
B0934125147025N00553129EA-003800040000000
B0934165147025N00553129EA-003800040000000
B0934205147025N00553129EA-003800040000000
B0934245147025N00553129EA-003800040000000
B0934285147025N00553129EA-003800040000000
B0934325147025N00553129EA-003800040000000
B0934365147025N00553129EA-003800040000000
B0934405147025N00553129EA-003800040000000
B0934445147025N00553129EA-003800040000000
B0934485147025N00553129EA-003800040000000
B0934525147025N00553129EA-003800040000000
B0934565147025N00553129EA-003800040000000
B0935005147025N00553129EA-003800040000000
B0935045147025N00553129EA-003800040000000
B0935085147025N00553129EA-003800040000000
B0935125147025N00553129EA-003800040000000
B0935165147025N00553129EA-003800040000000
B0935205147025N00553129EA-003800040000000
B0935245147025N00553129EA-003800040000000
B0935285147025N00553129EA-003800040000000
B0935325147025N00553129EA-003800040000000
B0935365147025N00553129EA-003800040000000
B0935405147025N00553129EA-003800040000000
B0935445147025N00553129EA-003800040000000
B0935485147025N00553129EA-003800040000000
B0935525147025N00553129EA-003800040000000
B0935565147025N00553129EA-003800040000000
B0936005147025N00553129EA-003800040000000
B0936045147025N00553129EA-003800040000000
B0936085147025N00553129EA-003800040000000
B0936125147025N00553129EA-003800040000000
B0936165147025N00553129EA-003800040000000
B0936205147025N00553129EA-003800040000000
B0936245147025N00553129EA-003800040000000
B0936285147025N00553129EA-003800040000000
B0936325147025N00553129EA-003800040000000
B0936365147025N00553129EA-003800040000000
B0936405147025N00553129EA-003800040000000
B0936445147025N00553129EA-003800040000000
B0936485147025N00553129EA-003800040000000
B0936525147025N00553129EA-003800040000000
B0936565147025N00553133EA-003800040000000
B0937005147025N00553129EA-003800040000000
B0937045147025N00553129EA-003800040000000
B0937085147025N00553129EA-003800040000000
B0937125147025N00553125EA-003800040003000
B0937165147025N00553125EA-003800040006000
B0937205147025N00553120EA-003800040005000
B0937245147025N00553120EA-003800040004000
B0937285147025N00553120EA-003900040000008
B0937325147025N00553120EA-003900040000004
B0937365147025N00553120EA-003900040000004
B0937405147025N00553120EA-003900040000008
B0937445147025N00553120EA-003900040000000
B0937485147025N00553120EA-003900040000000
B0937525147025N00553120EA-003900040000000
B0937565147025N00553120EA-003900040000000
B0938005147025N00553120EA-003900040000000
B0938045147025N00553120EA-003900040000000
B0938085147025N00553120EA-003900040000000
B0938125147025N00553120EA-003900040000000
B0938165147025N00553120EA-003900040000000
B0938205147025N00553120EA-003900040000000
B0938245147025N00553120EA-003900040000000
B0938285147025N00553120EA-003900040000000
B0938325147025N00553120EA-003900040000000
B0938365147025N00553120EA-003900040000000
B0938405147025N00553120EA-003900040000000
B0938445147025N00553120EA-003900040000000
B0938485147025N00553120EA-003900040000000
B0938525147025N00553120EA-003900040000000
B0938565147025N00553120EA-003900040000000
B0939005147025N00553120EA-003900040000000
B0939045147025N00553120EA-003900040000000
B0939085147025N00553120EA-003900040000000
B0939125147025N00553120EA-003900040000000
B0939165147025N00553120EA-003900040000000
B0939205147025N00553120EA-003900040000000
B0939245147025N00553120EA-003900040000000
B0939285147025N00553120EA-003900040000000
B0939325147025N00553120EA-003900040000000
B0939365147025N00553120EA-003900040000000
B0939405147025N00553120EA-003900040000000
B0939445147025N00553120EA-003900040000000
B0939485147025N00553120EA-003900040000000
B0939525147025N00553120EA-003900040000000
B0939565147025N00553120EA-003900040000000
B0940005147025N00553120EA-003900040000000
B0940045147025N00553120EA-003900040000000
B0940085147025N00553120EA-003900040000000
B0940125147025N00553121EA-003900040000000
B0940165147025N00553120EA-003900040000000
B0940205147025N00553120EA-003900040000000
B0940245147025N00553120EA-003900040000000
B0940285147025N00553120EA-003900040000000
B0940325147025N00553120EA-003900040000000
B0940365147025N00553120EA-003900040000000
B0940405147025N00553120EA-003900040000000
B0940445147025N00553120EA-003900040000000
B0940485147025N00553120EA-003900040000000
B0940525147025N00553120EA-003900040000000
B0940565147025N00553120EA-003900040000000
B0941005147025N00553120EA-003900040000000
B0941045147025N00553120EA-003900040000000
B0941085147025N00553120EA-003900040000000
B0941125147025N00553120EA-003900040000000
B0941165147025N00553120EA-003900040000000
B0941205147025N00553120EA-003900040000000
B0941245147025N00553120EA-003900040000000
B0941285147025N00553120EA-003900040000000
B0941325147025N00553120EA-003900040000000
B0941365147025N00553120EA-003900040000000
B0941405147025N00553120EA-003900040000000
B0941445147025N00553120EA-003900040000000
B0941485147025N00553120EA-003900040000000
B0941525147025N00553120EA-003900040000000
B0941565147025N00553120EA-003900040000000
B0942005147025N00553120EA-003900040000000
B0942045147025N00553120EA-003900040000000
B0942085147025N00553120EA-003900040000000
B0942125147025N00553120EA-003900040000000
B0942165147025N00553120EA-003900040000000
B0942205147025N00553120EA-003900040000000
B0942245147025N00553120EA-003900040000000
B0942285147025N00553120EA-003900040000000
B0942325147025N00553120EA-003900040000000
B0942365147025N00553120EA-003900040000000
B0942405147025N00553120EA-003900040000000
B0942445147025N00553120EA-003900040000000
B0942485147025N00553120EA-003900040000000
B0942525147025N00553120EA-003900040000000
B0942565147025N00553120EA-003900040000000
B0943005147025N00553120EA-003900040000000
B0943045147025N00553120EA-003900040000000
B0943085147025N00553120EA-003900040000000
B0943125147025N00553120EA-003900040000000
B0943165147025N00553120EA-003900040002000
B0943205147025N00553120EA-003900040002000
B0943245147025N00553120EA-003900040000000
B0943285147025N00553120EA-003900040000000
B0943325147025N00553120EA-003900040000000
B0943365147025N00553120EA-003900040000000
B0943405147025N00553120EA-003900040000000
B0943445147025N00553120EA-003900040000000
B0943485147025N00553120EA-003900040000000
B0943525147025N00553120EA-003900040000000
B0943565147025N00553120EA-003900040000000
B0944005147025N00553120EA-003900040000000
B0944045147025N00553120EA-003900040000000
B0944085147025N00553120EA-003900040000000
B0944125147025N00553120EA-003900040000000
B0944165147025N00553120EA-003900040002000
B0944205147025N00553120EA-003900040004000
B0944245147025N00553120EA-003900040003000
B0944285147025N00553120EA-003900040000000
B0944325147025N00553120EA-003900040005000
B0944365147025N00553120EA-003900040001000
B0944405147025N00553120EA-003900040000000
B0944445147025N00553120EA-003900040002000
B0944485147025N00553120EA-003900040001000
B0944525147025N00553120EA-003900040000000
B0944565147025N00553120EA-003900040000008
B0945005147025N00553120EA-003900040000004
B0945045147025N00553120EA-003900040002004
B0945085147025N00553120EA-003900040008008
B0945125147025N00553120EA-003900040003004
B0945165147025N00553120EA-003900040007004
B0945205147025N00553120EA-003900040000000
B0945245147025N00553120EA-003900040002000
B0945285147025N00553120EA-003900040000000
B0945325147025N00553120EA-003900040000000
B0945365147025N00553120EA-003900040000004
B0945405147025N00553120EA-003900040000000
B0945445147025N00553120EA-003900040000000
B0945485147025N00553120EA-003900040000000
B0945525147025N00553120EA-003900040000000
B0945565147025N00553120EA-003900040000000
B0946005147025N00553120EA-003900040000000
B0946045147025N00553120EA-003900040000000
B0946085147025N00553120EA-003900040000000
B0946125147025N00553120EA-003900040000000
B0946165147025N00553120EA-003900040000000
B0946205147025N00553120EA-003900040000000
B0946245147025N00553120EA-003900040000000
B0946285147025N00553120EA-003900040000000
B0946325147025N00553120EA-003900040001000
B0946365147025N00553120EA-003900040000000
B0946405147025N00553120EA-003900040000000
B0946445147025N00553120EA-003900040000000
B0946485147025N00553120EA-003900040000000
B0946525147025N00553120EA-003900040000000
B0946565147025N00553120EA-003900040000000
B0947005147025N00553120EA-003900040000000
B0947045147025N00553120EA-003900040000000
B0947085147025N00553120EA-003900040000000
B0947125147025N00553120EA-003900040004000
B0947165147025N00553120EA-003900040009000
B0947205147025N00553120EA-003900040004000
B0947245147025N00553120EA-003900040000000
B0947285147025N00553120EA-003900040004000
B0947325147025N00553120EA-003900040004000
B0947365147025N00553120EA-003900040000000
B0947405147025N00553120EA-003900040000000
B0947445147025N00553120EA-003900040000000
B0947485147025N00553120EA-003900040000000
B0947525147025N00553120EA-003900040004000
B0947565147025N00553120EA-003900040005000
B0948005147025N00553120EA-003900040007004
B0948045147025N00553120EA-003900040000000
B0948085147025N00553120EA-003900040000000
B0948125147025N00553120EA-003900040006000
B0948165147025N00553120EA-003900040005000
B0948205147025N00553120EA-003900040006000
B0948245147025N00553120EA-003900040004000
B0948285147025N00553120EA-003900040003000
B0948325147025N00553120EA-003900040005000
B0948365147025N00553120EA-003900040004000
B0948405147025N00553120EA-003900040006000
B0948445147025N00553120EA-003900040002000
B0948485147025N00553120EA-003900040000000
B0948525147025N00553120EA-003900040003000
B0948565147025N00553120EA-003900040004000
B0949005147025N00553120EA-003900040008000
B0949045147025N00553120EA-003900040002000
B0949085147025N00553120EA-003900040000000
B0949125147025N00553120EA-003900040005000
B0949165147025N00553120EA-003900040009000
B0949205147025N00553120EA-003900040002000
B0949245147025N00553120EA-003900040000000
B0949285147025N00553120EA-003900040000000
B0949325147025N00553120EA-003900040000000
B0949365147025N00553120EA-003900040001000
B0949405147025N00553120EA-003900040000000
B0949445147025N00553120EA-003900040000000
B0949485147025N00553120EA-003900040002000
B0949525147025N00553120EA-003900040000000
B0949565147025N00553120EA-003900040000000
B0950005147025N00553120EA-003900040000000
B0950045147025N00553120EA-003900040000000
B0950085147025N00553120EA-003900040000000
B0950125147025N00553120EA-003900040000000
B0950165147025N00553120EA-003900040000000
B0950205147025N00553120EA-003900040000000
B0950245147025N00553120EA-003900040000000
B0950285147025N00553120EA-003900040000000
B0950325147025N00553120EA-003900040000000
B0950365147025N00553120EA-003900040000000
B0950405147025N00553120EA-003900040000000
B0950445147025N00553120EA-003900040000000
B0950485147025N00553120EA-003900040000000
B0950525147025N00553120EA-003900040000000
B0950565147025N00553120EA-003900040000000
B0951005147025N00553120EA-003900040000000
B0951045147025N00553120EA-003900040000000
B0951085147025N00553120EA-003900040000000
B0951125147025N00553120EA-003900040000000
B0951165147025N00553120EA-003900040000000
B0951205147025N00553120EA-003900040000000
B0951245147025N00553120EA-003900040000000
B0951285147025N00553120EA-003900040000000
B0951325147025N00553120EA-003900040000000
B0951365147025N00553120EA-003900040000000
B0951405147025N00553120EA-003900040000000
B0951445147025N00553120EA-003900040000000
B0951485147025N00553120EA-003900040000000
B0951525147025N00553120EA-003900040000000
B0951565147025N00553120EA-003900040000000
B0952005147025N00553120EA-003900040000000
B0952045147025N00553120EA-003900040000000
B0952085147025N00553120EA-003900040000000
B0952125147025N00553120EA-003900040000000
B0952165147025N00553120EA-003900040000000
B0952205147025N00553120EA-003900040000000
B0952245147025N00553120EA-003900040000000
B0952285147025N00553120EA-003900040000000
B0952325147025N00553120EA-003900040000000
B0952365147025N00553120EA-003900040000000
B0952405147025N00553120EA-003900040000000
B0952445147025N00553120EA-003900040000000
B0952485147025N00553120EA-003900040000000
B0952525147025N00553120EA-003900040000000
B0952565147025N00553120EA-003900040000000
B0953005147025N00553120EA-003900040000000
B0953045147025N00553120EA-003900040000000
B0953085147025N00553120EA-003900040000000
B0953125147025N00553120EA-003900040000000
B0953165147025N00553120EA-003900040000000
B0953205147025N00553120EA-003900040000000
B0953245147025N00553120EA-003900040000000
B0953285147025N00553120EA-003900040000000
B0953325147025N00553120EA-003900040000000
B0953365147025N00553120EA-003900040000000
B0953405147025N00553120EA-003900040005000
B0953445147025N00553120EA-003900040000000
B0953485147025N00553120EA-003900040000000
B0953525147025N00553120EA-003900040000000
B0953565147025N00553120EA-003900040000000
B0954005147025N00553120EA-003900040000000
B0954045147025N00553120EA-003900040000000
B0954085147025N00553120EA-003900040007000
B0954125147025N00553120EA-003900040000000
B0954165147025N00553120EA-003900040000000
B0954205147025N00553120EA-003900040000000
B0954245147025N00553120EA-003900040000000
B0954285147025N00553120EA-003900040000000
B0954325147025N00553120EA-003900040000000
B0954365147025N00553120EA-003900040000000
B0954405147025N00553120EA-003900040000000
B0954445147025N00553120EA-003900040000000
B0954485147025N00553120EA-003900040000000
B0954525147025N00553120EA-003900040000000
B0954565147025N00553120EA-003900040000000
B0955005147025N00553120EA-003900040000000
B0955045147025N00553120EA-003900040000000
B0955085147025N00553120EA-003900040000000
B0955125147025N00553120EA-003900040000000
B0955165147025N00553120EA-003900040000000
B0955205147025N00553120EA-003900040000000
B0955245147025N00553120EA-003900040000000
B0955285147025N00553120EA-003900040000000
B0955325147025N00553120EA-003900040000000
B0955365147025N00553120EA-003900040000000
B0955405147025N00553120EA-003900040000000
B0955445147025N00553120EA-003900040000000
B0955485147025N00553120EA-003900040000000
B0955525147025N00553120EA-003900040000000
B0955565147025N00553120EA-003900040000000
B0956005147025N00553120EA-003900040000000
B0956045147025N00553120EA-003900040000000
B0956085147025N00553120EA-003900040000000
B0956125147025N00553120EA-003900040000000
B0956165147025N00553120EA-003900040000000
B0956205147025N00553120EA-003900040000000
B0956245147025N00553120EA-003900040000000
B0956285147025N00553120EA-003900040000000
B0956325147025N00553120EA-003900040000000
B0956365147025N00553120EA-003900040000000
B0956405147025N00553120EA-003900040000000
B0956445147025N00553120EA-003900040000000
B0956485147025N00553120EA-003900040000000
B0956525147025N00553120EA-003900040000000
B0956565147025N00553120EA-003900040000000
B0957005147025N00553120EA-003900040000000
B0957045147025N00553120EA-003900040000000
B0957085147025N00553120EA-003900040000000
B0957125147025N00553120EA-003900040000000
B0957165147025N00553120EA-003900040000000
B0957205147025N00553120EA-003900040000000
B0957245147025N00553120EA-003900040000000
B0957285147025N00553120EA-003900040000000
B0957325147025N00553120EA-003900040000000
B0957365147025N00553120EA-003900040000000
B0957405147025N00553120EA-003900040000000
B0957445147025N00553120EA-003900040000000
B0957485147025N00553120EA-003900040000000
B0957525147025N00553120EA-003900040000000
B0957565147025N00553120EA-003900040000000
B0958005147025N00553120EA-003900040000000
B0958045147025N00553120EA-003900040000000
B0958085147025N00553120EA-003900040000000
B0958125147025N00553120EA-003900040000000
B0958165147025N00553120EA-003900040000000
B0958205147025N00553120EA-003900040000000
B0958245147025N00553120EA-003900040000000
B0958285147025N00553120EA-003900040000000
B0958325147025N00553120EA-003900040000000
B0958365147025N00553120EA-003900040000000
B0958405147025N00553120EA-003900040000000
B0958445147025N00553120EA-003900040000000
B0958485147025N00553120EA-003900040000000
B0958525147025N00553120EA-003900040000000
B0958565147025N00553120EA-003900040000000
B0959005147025N00553120EA-003900040000000
B0959045147025N00553120EA-003900040000000
B0959085147025N00553120EA-003900040000000
B0959125147025N00553120EA-003900040000000
B0959165147025N00553120EA-003900040000000
B0959205147025N00553120EA-003900040000000
B0959245147025N00553120EA-003900040000000
B0959285147025N00553120EA-003900040000000
B0959325147025N00553120EA-003900040000000
B0959365147025N00553120EA-003900040000000
B0959405147025N00553120EA-003900040000000
B0959445147025N00553120EA-003900040000000
B0959485147025N00553120EA-003900040000000
B0959525147025N00553120EA-003900040000000
B0959565147025N00553120EA-003900040000000
B1000005147025N00553120EA-003900040000000
B1000045147025N00553120EA-003900040000000
B1000085147025N00553120EA-003900040000000
B1000125147025N00553120EA-003900040000000
B1000165147025N00553120EA-003900040000004
B1000205147025N00553120EA-003900040000000
B1000245147025N00553120EA-003900040000004
B1000285147025N00553120EA-003900040000004
B1000325147025N00553120EA-003900040000004
B1000365147025N00553120EA-003900040000004
B1000405147025N00553120EA-003900040000004
B1000445147025N00553120EA-003900040000004
B1000485147025N00553120EA-003900040000000
B1000525147025N00553120EA-003900040000000
B1000565147025N00553120EA-003900040000000
B1001005147025N00553120EA-003900040000000
B1001045147025N00553120EA-003900040000000
B1001085147025N00553120EA-003900040000000
B1001125147025N00553120EA-003900040000000
B1001165147025N00553120EA-003900040000000
B1001205147025N00553120EA-003900040000004
B1001245147025N00553120EA-003900040000000
B1001285147025N00553120EA-003900040000000
B1001325147025N00553120EA-003900040000000
B1001365147025N00553120EA-003900040000000
B1001405147025N00553120EA-003900040000000
B1001445147025N00553120EA-003900040000000
B1001485147025N00553120EA-003900040004000
B1001525147025N00553120EA-003900040000000
B1001565147025N00553120EA-003900040000000
B1002005147025N00553120EA-003900040000000
B1002045147025N00553120EA-003900040000000
B1002085147025N00553120EA-003900040000000
B1002125147025N00553120EA-003900040001000
B1002165147025N00553120EA-003900040002000
B1002205147025N00553120EA-003900040000000
B1002245147025N00553120EA-003900040000000
B1002285147025N00553120EA-003900040000000
B1002325147025N00553120EA-003900040000000
B1002365147025N00553120EA-003900040000000
B1002405147025N00553120EA-003900040000000
B1002445147025N00553120EA-003900040000000
B1002485147025N00553120EA-003900040000000
B1002525147025N00553112EA-003900040019000
B1002565147045N00553054EA-004100040085016
B1003005147079N00552970EA-000100064099008
B1003045147104N00552891EA0005200128092024
B1003085147133N00552816EA0010600184088020
B1003125147158N00552737EA0014600216092028
K100312180000
B1003165147187N00552654EA0018000256094024
B1003205147216N00552566EA0020900288103044
B1003245147245N00552479EA0023100312101036
B1003285147279N00552391EA0023400312103032
B1003325147308N00552312EA0023900320091040
B1003365147325N00552233EA0023300312090016
K100336180000
B1003405147325N00552141EA0023100312091024
B1003445147304N00552062EA0023100312088020
B1003485147262N00551995EA0023100312088016
B1003525147212N00551933EA0023400312088004
K100352000001
B1003565147158N00551887EA0023400312095012
B1004005147095N00551883EA0022900304099008
B1004045147037N00551920EA0022400304097008
B1004085146991N00551991EA0021800296097008
B1004125146962N00552083EA0021200288094008
K100412000001
B1004165146941N00552175EA0020500280093004
B1004205146900N00552250EA0020400280090008
B1004245146841N00552287EA0020900288091008
B1004285146783N00552262EA0021200288092008
B1004325146754N00552183EA0020600288098008
B1004365146758N00552091EA0020600288095008
K100436000001
B1004405146800N00552033EA0020900288087008
B1004445146854N00552029EA0020400280094008
B1004485146908N00552070EA0020400280098004
B1004525146945N00552141EA0020100280093008
K100452000001
B1004565146958N00552237EA0019700280092004
B1005005146933N00552333EA0019500280099004
B1005045146883N00552395EA0019800280094004
B1005085146820N00552379EA0019300272097004
B1005125146783N00552304EA0019200272096008
B1005165146787N00552212EA0019200272097008
K100516316004
B1005205146812N00552133EA0019300272095008
B1005245146866N00552100EA0019100272096008
B1005285146925N00552108EA0019100264096008
B1005325146979N00552129EA0018400264092008
K100532000001
B1005365147037N00552116EA0018000256098008
B1005405147087N00552075EA0018000256095008
B1005445147125N00552016EA0017600256090008
B1005485147158N00551950EA0016600248093008
B1005525147195N00551879EA0016100240094008
B1005565147216N00551795EA0014900232100008
K100556000001
B1006005147220N00551700EA0014200216099008
B1006045147204N00551608EA0014000216096008
B1006085147170N00551537EA0013200216094004
B1006125147120N00551500EA0012600208095008
K100612000001
B1006165147062N00551512EA0011300192095008
B1006205147008N00551570EA0011200192096008
B1006245146975N00551654EA0011300192095004
B1006285146945N00551741EA0010900192093008
B1006325146925N00551829EA0010200176094024
K100632000001
B1006365146900N00551920EA0009500176094016
B1006405146875N00552020EA0009800176096016
B1006445146854N00552116EA0009800176095020
B1006485146829N00552208EA0009800176095024
B1006525146800N00552300EA0009100168092020
K100652180009
B1006565146775N00552395EA0008800160098024
B1007005146745N00552487EA0008800160100024
B1007045146712N00552583EA0008100160104020
B1007085146679N00552679EA0007100144105024
B1007125146645N00552779EA0006400136109028
K100712180007
B1007165146616N00552879EA0006500144108024
B1007205146583N00552979EA0006600136110028
B1007245146554N00553079EA0006100136110028
B1007285146541N00553187EA0006100136110028
B1007325146545N00553295EA0006000136111028
K100732180006
B1007365146570N00553395EA0006000136109044
B1007405146608N00553470EA0005700128108036
B1007445146658N00553533EA0005000128103016
B1007485146716N00553575EA0005200128106032
B1007525146775N00553583EA0004800120103028
K100752180006
B1007565146825N00553520EA0004000112103024
B1008005146862N00553437EA0003200104102024
B1008045146900N00553354EA0001700088104024
B1008085146937N00553270EA0000200080104028
B1008125146975N00553183EA-001000064106024
K100812180006
B1008165147012N00553100EA-002200056109028
B1008205147050N00553016EA-003300040107028
B1008245147087N00552937EA-003900032098044
B1008285147116N00552866EA-004300032092036
B1008325147145N00552800EA-004700024083016
K100832180002
B1008365147170N00552741EA-004800024071032
B1008405147195N00552695EA-004900024052068
B1008445147208N00552675EA-004800024029040
B1008485147216N00552670EA-004800024015060
B1008525147216N00552670EA-004800024006064
B1008565147216N00552670EA-004800024007012
B1009005147216N00552670EA-004800024006036
B1009045147216N00552670EA-004800024005004
B1009085147216N00552670EA-004800024005008
B1009125147216N00552670EA-004800024005000
B1009165147216N00552670EA-004800024005000
B1009205147216N00552670EA-004800024005000
B1009245147216N00552670EA-004800024006000
B1009285147216N00552670EA-004800024006000
B1009325147216N00552670EA-004800024004000
B1009365147216N00552670EA-004800024004000
B1009405147216N00552670EA-004800024004000
B1009445147216N00552670EA-004800024004000
B1009485147216N00552670EA-004800024005000
B1009525147216N00552670EA-004800024005000
B1009565147216N00552670EA-004800024004000
B1010005147216N00552670EA-004800024007000
B1010045147216N00552670EA-004800024005000
B1010085147216N00552670EA-004800024005000
B1010125147216N00552670EA-004800024007000
B1010165147216N00552670EA-004800024005000
B1010205147216N00552670EA-004800024005000
B1010245147216N00552670EA-004800024006000
B1010285147216N00552670EA-004800024004000
B1010325147216N00552670EA-004800024006000
B1010365147216N00552670EA-004800024006000
B1010405147216N00552670EA-004800024007000
B1010445147216N00552670EA-004800024007000
B1010485147216N00552670EA-004800024005000
B1010525147216N00552670EA-004800024007000
B1010565147216N00552670EA-004800024006000
B1011005147216N00552670EA-004800024009000
B1011045147220N00552670EA-004800024009000
B1011085147220N00552670EA-004800024010000
B1011125147225N00552670EA-004900024006000
B1011165147225N00552670EA-004900024005000
B1011205147229N00552670EA-004900024007000
B1011245147229N00552670EA-004900024007000
B1011285147233N00552670EA-004900024006000
B1011325147233N00552670EA-004900024004000
B1011365147233N00552670EA-004900024006000
B1011405147233N00552670EA-004900024003000
B1011445147233N00552670EA-004900024004000
B1011485147233N00552670EA-004900024005000
B1011525147233N00552670EA-004900024005000
B1011565147233N00552670EA-004900024004000
B1012005147233N00552670EA-004900024004000
B1012045147233N00552670EA-004900024004000
B1012085147233N00552670EA-004900024004000
B1012125147233N00552670EA-004900024004000
B1012165147233N00552670EA-004900024004000
B1012205147233N00552670EA-004900024005000
B1012245147233N00552670EA-004900024005000
B1012285147233N00552670EA-005000024004000
B1012325147233N00552670EA-005000024005000
B1012365147233N00552670EA-005000024005000
B1012405147233N00552670EA-005000024005000
B1012445147233N00552670EA-005000024005000
B1012485147233N00552670EA-005000024004000
B1012525147233N00552670EA-005000024004000
B1012565147233N00552670EA-004900024004000
B1013005147233N00552670EA-004900024005000
B1013045147233N00552670EA-004900024004000
B1013085147233N00552670EA-004900024004000
B1013125147233N00552670EA-004900024005000
B1013165147233N00552670EA-005000024004000
B1013205147233N00552670EA-005000024004000
B1013245147233N00552670EA-005000024004000
B1013285147233N00552670EA-005000024004000
B1013325147233N00552670EA-004900024004000
B1013365147233N00552670EA-005000024004000
B1013405147233N00552670EA-004900024004000
B1013445147233N00552670EA-005000024004000
B1013485147233N00552670EA-004900024004000
B1013525147233N00552670EA-004900024005000
B1013565147233N00552670EA-005000024004000
B1014005147233N00552670EA-005000024005000
B1014045147233N00552670EA-005000024005000
B1014085147233N00552670EA-005000024005000
B1014125147233N00552670EA-005000024004000
B1014165147233N00552670EA-005000024004000
B1014205147233N00552670EA-005000024004000
B1014245147233N00552670EA-005000024003000
B1014285147233N00552670EA-005000024003000
B1014325147233N00552670EA-005000024004000
B1014365147233N00552670EA-005000024004000
B1014405147233N00552670EA-005000024003000
B1014445147233N00552670EA-005000024004000
B1014485147233N00552670EA-005000024004000
B1014525147233N00552670EA-005000024003000
B1014565147233N00552670EA-005000024005000
B1015005147233N00552670EA-005000024004000
B1015045147233N00552670EA-005000024005000
B1015085147233N00552670EA-005000024004000
B1015125147233N00552670EA-005000024005000
B1015165147233N00552670EA-004900024006000
B1015205147233N00552670EA-005000024005000
B1015245147233N00552670EA-005000024005000
B1015285147233N00552670EA-005000024005000
B1015325147233N00552670EA-005000024005000
B1015365147233N00552670EA-005000024005000
B1015405147233N00552670EA-005000024005000
B1015445147233N00552670EA-005000024004000
B1015485147233N00552670EA-005000024004000
B1015525147233N00552670EA-005000024005000
B1015565147233N00552670EA-005000024004000
B1016005147233N00552670EA-005000024005000
B1016045147233N00552670EA-005000024004000
B1016085147233N00552670EA-005000024004000
B1016125147233N00552670EA-005000024004000
B1016165147233N00552670EA-005000024005000
B1016205147233N00552670EA-005000024005000
B1016245147233N00552670EA-005000024004000
B1016285147233N00552670EA-005000024005000
B1016325147233N00552670EA-005000024005000
B1016365147233N00552670EA-005000024004000
B1016405147233N00552670EA-005000024004004
B1016445147233N00552670EA-005000024004000
B1016485147233N00552670EA-005000024004000
B1016525147233N00552670EA-005000024005000
B1016565147233N00552670EA-005000024004000
B1017005147233N00552670EA-005000024005000
B1017045147233N00552670EA-005000024004000
B1017085147233N00552670EA-005000024004000
B1017125147233N00552670EA-005000024003000
B1017165147233N00552670EA-005000024005000
B1017205147233N00552670EA-005000024004000
B1017245147233N00552670EA-005000024004000
B1017285147233N00552670EA-005000024004000
B1017325147233N00552670EA-004900024005000
B1017365147233N00552670EA-004900024005000
B1017405147233N00552670EA-004900024004000
B1017445147233N00552670EA-005000024004000
B1017485147233N00552670EA-005000024004000
B1017525147233N00552670EA-005000024004000
B1017565147233N00552670EA-005000024001000
B1018005147233N00552670EA-005000024001000
B1018045147233N00552670EA-005000024001000
B1018085147233N00552666EA-005000024001000
B1018125147233N00552666EA-005000024000000
B1018165147233N00552666EA-005000024001000
B1018205147237N00552670EA-005000024004000
B1018245147237N00552670EA-005000024005000
B1018285147237N00552670EA-005000024000000
B1018325147237N00552675EA-005000024000000
B1018365147237N00552675EA-005000024001000
B1018405147241N00552679EA-004900024000000
B1018445147241N00552679EA-004900024002000
B1018485147241N00552683EA-005000024000000
B1018525147241N00552687EA-005000024002000
B1018565147241N00552691EA-005000024003000
B1019005147241N00552695EA-005000024002000
B1019045147237N00552695EA-005000024001000
B1019085147237N00552700EA-005000024005000
B1019125147237N00552700EA-005000024003000
B1019165147233N00552704EA-005000024000000
B1019205147233N00552708EA-005000024003000
B1019245147233N00552708EA-005000024001000
B1019285147233N00552712EA-005000024003000
B1019325147229N00552716EA-005000024003000
B1019365147229N00552716EA-005000024001000
B1019405147229N00552720EA-005000024003000
B1019445147229N00552725EA-005000024001000
B1019485147225N00552725EA-005000024005000
B1019525147225N00552729EA-005000024000000
B1019565147220N00552729EA-005000024002000
B1020005147220N00552733EA-005000024001004
B1020045147220N00552733EA-005000024003000
B1020085147220N00552737EA-004900024003000
B1020125147216N00552737EA-004900024002000
B1020165147216N00552741EA-004900024005004
B1020205147216N00552745EA-004900024002000
B1020245147212N00552745EA-004900024007000
B1020285147212N00552750EA-004900024001000
B1020325147208N00552750EA-004900024004000
B1020365147208N00552754EA-004800024002000
B1020405147208N00552754EA-004800024005004
B1020445147204N00552758EA-004800024000000
B1020485147204N00552762EA-004800024001000
B1020525147204N00552766EA-004800024002000
B1020565147200N00552770EA-004800024001004
B1021005147200N00552770EA-004800024005000
B1021045147195N00552775EA-004800024001004
B1021085147195N00552779EA-004700024004004
B1021125147195N00552783EA-004700024001004
B1021165147191N00552787EA-004700024001004
B1021205147191N00552791EA-004700024007004
B1021245147187N00552795EA-004700024006004
B1021285147187N00552800EA-004700024004004
B1021325147187N00552800EA-004700024002004
B1021365147183N00552804EA-004700024001004
B1021405147183N00552808EA-004700024005004
B1021445147179N00552812EA-004700024000004
B1021485147179N00552816EA-004700024000004
B1021525147179N00552820EA-004700024005004
B1021565147175N00552825EA-004700024003004
B1022005147175N00552829EA-004700032003004
B1022045147175N00552833EA-004600032000004
B1022085147170N00552837EA-004600032004004
B1022125147170N00552841EA-004600032002004
B1022165147170N00552845EA-004600032005004
B1022205147166N00552850EA-004600032001004
B1022245147166N00552854EA-004500032000008
B1022285147166N00552858EA-004500032000008
B1022325147162N00552862EA-004500032000004
B1022365147162N00552866EA-004500032002008
B1022405147162N00552870EA-004500032001008
B1022445147158N00552870EA-004500032000008
B1022485147158N00552879EA-004500032003008
B1022525147158N00552879EA-004500032002008
B1022565147154N00552883EA-004500032004012
B1023005147154N00552887EA-004500032002008
B1023045147150N00552891EA-004500032005008
B1023085147150N00552895EA-004500032005008
B1023125147145N00552900EA-004500032001008
B1023165147145N00552904EA-004500032001008
B1023205147145N00552908EA-004500032005012
B1023245147145N00552912EA-004500032006008
B1023285147141N00552916EA-004500032001008
B1023325147141N00552920EA-004500032005008
B1023365147137N00552920EA-004500032000008
B1023405147137N00552925EA-004500032000008
B1023445147133N00552929EA-004500032003004
B1023485147133N00552933EA-004500032004008
B1023525147133N00552937EA-004500032000008
B1023565147129N00552941EA-004500032000008
B1024005147129N00552945EA-004400032004008
B1024045147125N00552950EA-004400032003008
B1024085147125N00552954EA-004400032000008
B1024125147120N00552958EA-004400032003008
B1024165147120N00552962EA-004400032001008
B1024205147116N00552966EA-004400032001008
B1024245147116N00552970EA-004400032003012
B1024285147116N00552975EA-004400032003008
B1024325147112N00552979EA-004300032001008
B1024365147112N00552983EA-004300032000008
B1024405147108N00552983EA-004300032003008
B1024445147108N00552987EA-004300032002008
B1024485147104N00552991EA-004300032004004
B1024525147104N00552995EA-004300032004008
B1024565147100N00553000EA-004300032002004
B1025005147100N00553004EA-004300032005004
B1025045147095N00553004EA-004300032002004
B1025085147095N00553008EA-004300032001004
B1025125147091N00553012EA-004300032000004
B1025165147091N00553016EA-004300032004004
B1025205147087N00553020EA-004300032005004
B1025245147087N00553025EA-004300032005004
B1025285147083N00553029EA-004300032002004
B1025325147083N00553033EA-004300032003004
B1025365147083N00553037EA-004300032000004
B1025405147079N00553037EA-004300032000004
B1025445147079N00553041EA-004300032000004
B1025485147075N00553045EA-004300032004004
B1025525147075N00553050EA-004300032002004
B1025565147070N00553054EA-004300032000004
B1026005147070N00553058EA-004200032005008
B1026045147070N00553062EA-004200032004008
B1026085147066N00553066EA-004200032000008
B1026125147066N00553070EA-004200032005008
B1026165147062N00553075EA-004100032003008
B1026205147062N00553079EA-004100032000008
B1026245147058N00553083EA-004100032000004
B1026285147058N00553087EA-004000032003008
B1026325147054N00553091EA-004000032004008
B1026365147054N00553095EA-004000040001008
B1026405147050N00553095EA-004000040002012
B1026445147050N00553100EA-004000040005008
B1026485147045N00553104EA-004000040000008
B1026525147045N00553108EA-004000040005008
B1026565147041N00553112EA-004000040002008
B1027005147041N00553112EA-004000040005008
B1027045147037N00553116EA-004000040002004
B1027085147033N00553116EA-004000040003008
B1027125147033N00553120EA-004000040004004
B1027165147029N00553120EA-004000040005004
B1027205147025N00553125EA-004000040001004
B1027245147025N00553125EA-004000040002004
B1027285147025N00553125EA-004000040004004
B1027325147025N00553125EA-003900040006004
B1027365147020N00553129EA-003900040004000
B1027405147020N00553129EA-003900040006000
B1027445147020N00553133EA-003900040006000
B1027485147016N00553133EA-003900040005000
B1027525147016N00553137EA-003900040003004
B1027565147012N00553137EA-003900040004000
B1028005147012N00553141EA-003900040006004
B1028045147008N00553141EA-003900040003004
B1028085147008N00553141EA-003900040004004
B1028125147004N00553141EA-003900040004004
B1028165147004N00553141EA-003900040004000
B1028205147004N00553141EA-003900040005000
B1028245147008N00553141EA-003900040003000
B1028285147008N00553141EA-003900040004000
B1028325147008N00553141EA-003900040005000
B1028365147008N00553141EA-003900040005000
B1028405147008N00553141EA-003900040005000
B1028445147008N00553141EA-003900040005000
B1028485147008N00553141EA-003900040005000
B1028525147008N00553141EA-003900040005000
B1028565147008N00553141EA-003900040005000
B1029005147004N00553141EA-003900040005000
B1029045147004N00553141EA-003900040005000
B1029085147004N00553141EA-003900040005000
B1029125147004N00553141EA-003900048005000
B1029165147004N00553137EA-003900048005000
B1029205147004N00553137EA-003900048005000
B1029245147004N00553141EA-003900048004000
B1029285147004N00553141EA-003900048005000
B1029325147004N00553141EA-003900048004000
B1029365147004N00553141EA-003900048005000
B1029405147004N00553141EA-003900048005000
B1029445147004N00553141EA-003900048005000
B1029485147004N00553141EA-003900048005000
B1029525147004N00553141EA-003900048005000
B1029565147004N00553141EA-003900048005000
B1030005147004N00553141EA-003900048005000
B1030045147004N00553141EA-003900040005000
B1030085147004N00553141EA-003900040005000
B1030125147004N00553145EA-003900040005000
B1030165147004N00553141EA-003900040005000
B1030205147004N00553141EA-003900040005000
B1030245147004N00553141EA-003900040005000
B1030285147004N00553141EA-003900040005000
B1030325147004N00553141EA-003900040005000
B1030365147004N00553141EA-003900040005000
B1030405147004N00553141EA-003900040005000
B1030445147004N00553141EA-003900040005000
B1030485147004N00553141EA-003900040005000
B1030525147004N00553141EA-003900040005000
B1030565147004N00553141EA-003900040005000
B1031005147004N00553137EA-003900040005000
B1031045147004N00553137EA-003900048005000
B1031085147004N00553137EA-003900048006000
B1031125147004N00553137EA-003900048006000
B1031165147004N00553137EA-003900048007000
B1031205147004N00553137EA-003900048006000
B1031245147008N00553141EA-003900048007000
B1031285147008N00553141EA-003900048007000
B1031325147004N00553137EA-003900048007000
B1031365147004N00553137EA-003900040007000
B1031405147004N00553137EA-003900040006000
B1031445147004N00553137EA-003900040006000
B1031485147004N00553137EA-003900048006000
B1031525147004N00553137EA-003900048005000
B1031565147004N00553137EA-003900048005000
B1032005147004N00553137EA-003900048005000
B1032045147004N00553137EA-003900048005000
B1032085147004N00553137EA-003900048005000
B1032125147004N00553141EA-003900040005000
B1032165147004N00553141EA-003900048005000
B1032205147004N00553137EA-003900048005000
B1032245147004N00553137EA-003900048005000
B1032285147004N00553137EA-003900048005000
B1032325147004N00553141EA-003900048005000
B1032365147004N00553141EA-003900040005000
B1032405147004N00553141EA-003900040005000
B1032445147004N00553141EA-003900040005000
B1032485147004N00553141EA-003900040005000
B1032525147004N00553141EA-003900040005000
B1032565147004N00553141EA-003900040005000
B1033005147004N00553141EA-003900040005000
B1033045147004N00553141EA-003900040004000
B1033085147004N00553141EA-003900040005000
B1033125147004N00553141EA-003900040005000
B1033165147004N00553141EA-003900040005000
B1033205147004N00553141EA-003900040005000
B1033245147004N00553141EA-003900040004000
B1033285147008N00553141EA-003900040004000
B1033325147008N00553141EA-003900040004000
B1033365147008N00553141EA-003900040005000
B1033405147008N00553141EA-003900040005000
B1033445147008N00553141EA-003900040005000
B1033485147008N00553141EA-003900040005000
B1033525147008N00553141EA-003900040004000
B1033565147008N00553141EA-003900040005000
B1034005147008N00553141EA-003900040005000
B1034045147008N00553141EA-003900040005000
B1034085147008N00553141EA-003900040005000
B1034125147008N00553141EA-003800040005000
B1034165147008N00553141EA-003800040004000
B1034205147008N00553141EA-003800040004000
B1034245147008N00553141EA-003800040005000
B1034285147008N00553141EA-003800040005000
B1034325147008N00553145EA-003800040005000
B1034365147008N00553145EA-003800040005000
B1034405147008N00553145EA-003800040005000
B1034445147008N00553145EA-003800040005000
B1034485147008N00553145EA-003800040004000
B1034525147008N00553141EA-003800040005000
B1034565147008N00553141EA-003800040005004
B1035005147008N00553141EA-003800040005000
B1035045147008N00553141EA-003800040004004
B1035085147008N00553141EA-003800040004004
B1035125147008N00553141EA-003800040005000
B1035165147008N00553141EA-003800040005000
B1035205147008N00553141EA-003800040005000
B1035245147008N00553141EA-003800040005000
B1035285147008N00553141EA-003800040005000
B1035325147008N00553141EA-003800040005000
B1035365147008N00553141EA-003800040005000
B1035405147008N00553141EA-003800040005000
B1035445147008N00553141EA-003800040005000
B1035485147008N00553141EA-003800040004000
B1035525147008N00553141EA-003800040005028
B1035565147008N00553141EA-003800040005016
B1036005147008N00553141EA-003800040005000
B1036045147008N00553141EA-003800040005016
B1036085147008N00553141EA-003800040005004
B1036125147008N00553145EA-003800040005000
B1036165147008N00553145EA-003800040005000
B1036205147008N00553145EA-003800040005000
B1036245147008N00553145EA-003800040005000
B1036285147008N00553141EA-003800040005000
B1036325147004N00553141EA-003800040005000
B1036365147004N00553141EA-003800040005000
B1036405147004N00553141EA-003800040005000
B1036445147004N00553141EA-003800040005000
B1036485147004N00553145EA-003800040005000
B1036525147004N00553145EA-003800040005000
B1036565147008N00553145EA-003800040005000
B1037005147008N00553145EA-003800040005000
B1037045147008N00553141EA-003800040005000
B1037085147008N00553141EA-003800040005000
B1037125147008N00553141EA-003800040005000
B1037165147008N00553141EA-003800040006000
B1037205147008N00553141EA-003800040005000
B1037245147004N00553145EA-003800040006000
B1037285147004N00553145EA-003800040006000
B1037325147004N00553145EA-003800040006000
B1037365147004N00553145EA-003700040005000
B1037405147004N00553145EA-003700040005000
B1037445147004N00553145EA-003700040005000
B1037485147004N00553141EA-003700040005000
B1037525147004N00553141EA-003700040005000
B1037565147004N00553141EA-003700040005000
B1038005147004N00553141EA-003700040006000
B1038045147004N00553141EA-003700040005000
B1038085147004N00553141EA-003700040005000
B1038125147004N00553141EA-003700040005000
B1038165147004N00553141EA-003700040005000
B1038205147004N00553141EA-003700040006000
B1038245147004N00553141EA-003700040006000
B1038285147004N00553141EA-003700040007000
B1038325147004N00553141EA-003700040007000
B1038365147004N00553141EA-003700040007000
B1038405147004N00553141EA-003700040006000
B1038445147004N00553141EA-003700040007000
B1038485147004N00553141EA-003700040007000
B1038525147004N00553141EA-003700040005000
B1038565147004N00553141EA-003700040005000
B1039005147004N00553141EA-003700040006000
B1039045147004N00553141EA-003700040005000
B1039085147008N00553141EA-003700040006000
B1039125147008N00553141EA-003700040005000
B1039165147008N00553141EA-003700040005000
B1039205147008N00553141EA-003700040005000
B1039245147008N00553141EA-003700040007000
B1039285147008N00553141EA-003700040006000
B1039325147008N00553141EA-003700040007000
B1039365147008N00553141EA-003700040005000
B1039405147008N00553141EA-003700040005000
B1039445147008N00553141EA-003700040005000
B1039485147008N00553141EA-003700040005000
B1039525147008N00553141EA-003700040005000
B1039565147008N00553141EA-003700040005000
B1040005147008N00553141EA-003700040005000
B1040045147008N00553141EA-003700040005000
B1040085147008N00553141EA-003700040005000
B1040125147008N00553141EA-003700040005000
B1040165147008N00553141EA-003700040005000
B1040205147008N00553141EA-003700040005000
B1040245147008N00553141EA-003700040005000
B1040285147008N00553141EA-003700040005000
B1040325147008N00553141EA-003700040007000
B1040365147008N00553145EA-003700040005000
B1040405147008N00553141EA-003700040007000
B1040445147008N00553141EA-003700040006000
B1040485147008N00553141EA-003700040007000
B1040525147008N00553141EA-003700040007000
B1040565147008N00553145EA-003700040008000
B1041005147008N00553145EA-003700040008000
B1041045147008N00553145EA-003700040008000
B1041085147008N00553145EA-003700040008000
B1041125147008N00553145EA-003700040007000
B1041165147008N00553145EA-003700040007000
B1041205147008N00553141EA-003700040009000
B1041245147008N00553141EA-003700040008000
B1041285147008N00553141EA-003700040007000
B1041325147008N00553141EA-003700040007000
B1041365147004N00553141EA-003700040008000
B1041405147004N00553141EA-003700040008000
B1041445147004N00553145EA-003700040008000
B1041485147004N00553145EA-003700040009000
B1041525147004N00553145EA-003700040009000
B1041565147004N00553145EA-003700040009000
B1042005147004N00553145EA-003700040008000
B1042045147004N00553145EA-003700040008000
B1042085147004N00553145EA-003700032007000
B1042125147004N00553145EA-003700032006000
B1042165147004N00553145EA-003700032007000
B1042205147004N00553145EA-003700040007000
B1042245147004N00553145EA-003700040007000
B1042285147004N00553145EA-003700040006000
B1042325147008N00553145EA-003700032007000
B1042365147008N00553145EA-003700032007000
B1042405147008N00553145EA-003700040007000
B1042445147008N00553145EA-003700040006000
B1042485147008N00553145EA-003700040007000
B1042525147008N00553145EA-003700040006000
B1042565147008N00553145EA-003700040005000
B1043005147008N00553141EA-003700040005000
B1043045147008N00553141EA-003700040006000
B1043085147008N00553145EA-003700040006000
B1043125147008N00553145EA-003700040007000
B1043165147008N00553141EA-003700040007000
B1043205147008N00553141EA-003700040006000
B1043245147008N00553141EA-003700040007000
B1043285147008N00553141EA-003700040006000
B1043325147008N00553141EA-003700040007000
B1043365147008N00553141EA-003700040005000
B1043405147008N00553141EA-003700040006000
B1043445147004N00553141EA-003700040007000
B1043485147004N00553141EA-003700040008000
B1043525147004N00553141EA-003700040009000
B1043565147004N00553141EA-003700040008000
B1044005147004N00553141EA-003700040007000
B1044045147004N00553141EA-003700040007000
B1044085147004N00553141EA-003700040007000
B1044125147004N00553141EA-003700040006000
B1044165147004N00553141EA-003700040007000
B1044205147004N00553141EA-003700040007000
B1044245147004N00553141EA-003700040007000
B1044285147004N00553141EA-003700040007000
B1044325147004N00553141EA-003700040007000
B1044365147004N00553141EA-003700040007000
B1044405147004N00553141EA-003700040007004
B1044445147004N00553141EA-003700040005000
B1044485147004N00553141EA-003700040005000
B1044525147004N00553141EA-003700040006000
B1044565147004N00553141EA-003700040006000
B1045005147004N00553141EA-003700040005000
B1045045147004N00553141EA-003700040005000
B1045085147004N00553141EA-003700040006000
B1045125147004N00553137EA-003700040008000
B1045165147004N00553137EA-003700040007000
B1045205147004N00553137EA-003700040004000
B1045245147004N00553137EA-003700040004000
B1045285147000N00553137EA-003700040004004
B1045325147000N00553137EA-003700040004000
B1045365146995N00553137EA-003700040004004
B1045405146995N00553137EA-003700040003004
B1045445146991N00553137EA-003700040004004
B1045485146991N00553137EA-003700040003004
B1045525146991N00553137EA-003700040006004
B1045565146991N00553137EA-003700040004004
B1046005146991N00553137EA-003700040004000
B1046045146991N00553137EA-003700040005000
B1046085146991N00553137EA-003700040004000
B1046125146991N00553137EA-003700040005000
B1046165146991N00553137EA-003700040004000
B1046205146991N00553137EA-003800040004000
B1046245146991N00553137EA-003800040004000
B1046285146991N00553137EA-003800040004000
B1046325146991N00553137EA-003700040005000
B1046365146991N00553137EA-003700040005000
B1046405146991N00553137EA-003700040004000
B1046445146991N00553137EA-003700040004000
B1046485146991N00553137EA-003700040004000
B1046525146991N00553137EA-003700040005000
B1046565146991N00553137EA-003700040005000
B1047005146991N00553137EA-003700040005000
B1047045146991N00553137EA-003700040004000
B1047085146991N00553137EA-003700040004000
B1047125146991N00553137EA-003700040005000
B1047165146987N00553137EA-003700040005000
B1047205146991N00553137EA-003700040005000
B1047245146991N00553137EA-003700040005000
B1047285146991N00553137EA-003700040006000
B1047325146991N00553137EA-003900040006000
B1047365146991N00553137EA-003900040008004
B1047405146995N00553137EA-003900040007000
B1047445146995N00553137EA-003900040006004
B1047485146991N00553137EA-003900040004004
B1047525146991N00553137EA-003900040004004
B1047565146991N00553137EA-003900040004004
B1048005146991N00553137EA-003900040005004
B1048045146991N00553137EA-003900040005004
B1048085146991N00553137EA-003900040005004
B1048125146991N00553133EA-003900040004004
B1048165146991N00553137EA-003900040005004
B1048205146991N00553137EA-003900040007004
B1048245146991N00553133EA-003900040006000
B1048285146991N00553137EA-003900040006000
B1048325146991N00553137EA-003900040007000
B1048365146991N00553137EA-003900040008000
B1048405146991N00553137EA-003900040008004
B1048445146991N00553137EA-003900040008000
B1048485146991N00553137EA-003900040006000
B1048525146991N00553137EA-003900040007000
B1048565146991N00553137EA-003900040008000
B1049005146991N00553133EA-003900040009000
B1049045146991N00553133EA-003900040009000
B1049085146991N00553133EA-003900040007000
B1049125146991N00553133EA-003900040007000
B1049165146991N00553133EA-003900040008000
B1049205146991N00553133EA-003900040009000
B1049245146991N00553133EA-003900040009000
B1049285146991N00553133EA-003900040010000
B1049325146991N00553133EA-003900040012000
B1049365146995N00553133EA-003900040013000
B1049405146995N00553133EA-003900040012000
B1049445146995N00553133EA-003900040010000
B1049485146995N00553137EA-003900040012000
B1049525146995N00553137EA-003900040011000
B1049565146995N00553137EA-003900040009000
B1050005146995N00553137EA-003900040007000
B1050045146995N00553133EA-003900040009000
B1050085146995N00553133EA-003900040008000
B1050125146995N00553133EA-003900040009000
B1050165146995N00553133EA-003900040009000
B1050205146995N00553133EA-003900040007000
B1050245146995N00553133EA-003900040007000
B1050285146995N00553133EA-003900040005000
B1050325146995N00553133EA-003900040005000
B1050365146995N00553133EA-003900040005000
B1050405146995N00553133EA-003900040006000
B1050445146995N00553133EA-003900040005000
B1050485146995N00553133EA-003900040005000
B1050525146991N00553133EA-003900040005000
B1050565146995N00553133EA-003900040006000
B1051005146991N00553133EA-003900040006000
B1051045146991N00553133EA-003900040005000
B1051085146991N00553133EA-003900040004000
B1051125146991N00553133EA-003900040005000
B1051165146991N00553133EA-003900040007000
B1051205146991N00553133EA-003900040007000
B1051245146991N00553133EA-003800040006000
B1051285146991N00553133EA-003800040005000
B1051325146991N00553133EA-003800040007000
B1051365146991N00553133EA-003800040005000
B1051405146991N00553133EA-003800040005000
B1051445146995N00553133EA-003800040005000
B1051485147000N00553120EA-003800040035000
B1051525147029N00553050EA-003000040095016
B1051565147062N00552975EA0002000096094008
B1052005147095N00552900EA0007500136092040
B1052045147125N00552833EA0012800192096028
B1052085147158N00552762EA0017500256100032
K105208000006
B1052125147191N00552683EA0021000280102036
B1052165147225N00552604EA0024500328102032
B1052205147262N00552525EA0026200336103032
B1052245147295N00552445EA0027400352099032
B1052285147325N00552375EA0027700360085032
K105228000002
B1052325147354N00552308EA0027400352089016
B1052365147395N00552245EA0026100336098024
B1052405147445N00552204EA0025200328100004
B1052445147508N00552195EA0025000328098008
B1052485147570N00552241EA0025000328100008
K105248000005
B1052525147612N00552325EA0025900344099008
B1052565147620N00552429EA0027100352094008
B1053005147608N00552529EA0027400352094008
B1053045147595N00552633EA0027800360099008
B1053085147600N00552737EA0028700368097008
K105308000005
B1053125147633N00552820EA0029300376096008
B1053165147691N00552858EA0029400376096008
B1053205147745N00552837EA0029300368097008
B1053245147775N00552758EA0029100368096008
B1053285147770N00552670EA0029100368096008
K105328000005
B1053325147733N00552604EA0029500376095008
B1053365147675N00552575EA0029800376097008
B1053405147616N00552591EA0030300384099008
B1053445147579N00552675EA0030600384097008
B1053485147579N00552779EA0031600392096008
K105348268006
B1053525147620N00552858EA0032100400094008
B1053565147675N00552862EA0032500408093008
B1054005147712N00552800EA0032500408093008
B1054045147708N00552716EA0032800408093008
B1054085147666N00552654EA0033000408095008
K105408268009
B1054125147612N00552641EA0033700416091008
B1054165147558N00552683EA0033700416093008
B1054205147529N00552770EA0034100424097008
B1054245147545N00552870EA0035000424095008
B1054285147595N00552916EA0035200432095008
K105428284008
B1054325147650N00552891EA0035900440094008
B1054365147675N00552816EA0036000440091008
B1054405147654N00552737EA0036400448093008
B1054445147600N00552700EA0037000448091008
B1054485147545N00552725EA0037300456095008
K105448294006
B1054525147508N00552808EA0037700456098008
B1054565147516N00552908EA0038200464097008
B1055005147562N00552979EA0038500464096008
B1055045147620N00552983EA0038800472099008
B1055085147666N00552925EA0039000472096008
K105508292005
B1055125147670N00552837EA0039300472095008
B1055165147637N00552758EA0039700480099008
B1055205147583N00552725EA0040400480099008
B1055245147525N00552762EA0040400488098008
B1055285147500N00552858EA0040600488099008
K105528288006
B1055325147525N00552954EA0041500496100008
B1055365147583N00552991EA0042000504099008
B1055405147637N00552950EA0042500504097008
B1055445147650N00552862EA0043200512098008
B1055485147616N00552791EA0043700520097008
K105548286006
B1055525147554N00552787EA0044100520098008
B1055565147508N00552845EA0044400528095008
B1056005147491N00552945EA0045000528098008
B1056045147516N00553037EA0045500536095008
B1056085147570N00553079EA0045600536098008
K105608266006
B1056125147629N00553050EA0045800536097008
B1056165147658N00552975EA0045900544100008
B1056205147658N00552883EA0046600544097008
B1056245147620N00552816EA0046600552098008
B1056285147562N00552795EA0046900552097008
K105628268008
B1056325147508N00552841EA0046900552096008
B1056365147475N00552937EA0047200552101008
B1056405147475N00553045EA0047900560101008
B1056445147516N00553129EA0048000560100008
B1056485147579N00553145EA0048000560104008
K105648274008
B1056525147633N00553095EA0048100560102008
B1056565147654N00553004EA0048400560103008
B1057005147637N00552916EA0049000568099008
B1057045147583N00552862EA0049000576101008
B1057085147520N00552862EA0049500576097008
K105708284007
B1057125147470N00552925EA0049700576096008
B1057165147462N00553033EA0050100584103008
B1057205147495N00553125EA0050600592101008
B1057245147562N00553154EA0050700592104008
B1057285147612N00553100EA0051100592104004
K105728292008
B1057325147616N00553008EA0052500608101008
B1057365147570N00552945EA0053000608100008
B1057405147508N00552966EA0053400616097008
B1057445147470N00553054EA0053700616102008
B1057485147475N00553162EA0054500624099008
K105748274007
B1057525147520N00553237EA0054400624102008
B1057565147587N00553241EA0054500624102008
B1058005147633N00553183EA0055000632100008
B1058045147650N00553091EA0055400632101008
B1058085147629N00553008EA0055700640099008
K105808278008
B1058125147579N00552954EA0055900640102008
B1058165147516N00552958EA0056600648099008
B1058205147462N00553029EA0056800648098008
B1058245147441N00553133EA0057200648100008
B1058285147462N00553237EA0057700656099008
K105828284010
B1058325147516N00553295EA0057600656102008
B1058365147579N00553275EA0057500656105008
B1058405147616N00553200EA0058200664104008
B1058445147608N00553108EA0058800664100008
B1058485147562N00553050EA0059300672099008
K105848288011
B1058525147500N00553058EA0059800680098008
B1058565147458N00553141EA0060200688095008
B1059005147454N00553250EA0060600688100008
B1059045147495N00553333EA0060800688097008
B1059085147554N00553354EA0060600688102008
K105908280010
B1059125147608N00553312EA0060600688102004
B1059165147633N00553225EA0060700688104008
B1059205147620N00553133EA0061000696102004
B1059245147570N00553070EA0061700696102004
B1059285147508N00553070EA0061700696100008
K105928284010
B1059325147454N00553133EA0061700696098008
B1059365147433N00553237EA0062000704100008
B1059405147450N00553350EA0062000704104008
B1059445147504N00553408EA0062000704102008
B1059485147566N00553408EA0062000696102008
K105948278011
B1059525147620N00553358EA0062300704102008
B1059565147645N00553275EA0062300704103008
B1100005147633N00553179EA0062500704104008
B1100045147583N00553120EA0062900712105008
B1100085147516N00553133EA0063300712100008
K110008282010
B1100125147470N00553216EA0063200712104008
B1100165147462N00553333EA0063800720104008
B1100205147500N00553425EA0063900720100008
B1100245147562N00553458EA0063400720104008
B1100285147625N00553420EA0063300712103008
K110028276009
B1100325147658N00553337EA0063500720102008
B1100365147654N00553241EA0064400720097008
B1100405147625N00553154EA0064600728101008
B1100445147562N00553133EA0064900728104008
B1100485147508N00553200EA0065000736099008
K110048270006
B1100525147491N00553316EA0064800728102008
B1100565147520N00553425EA0065000736103008
B1101005147583N00553475EA0065100736101008
B1101045147650N00553462EA0065100728104008
B1101085147695N00553395EA0065100736106008
K110108272008
B1101125147708N00553300EA0065300736102008
B1101165147683N00553212EA0066100744099008
B1101205147629N00553158EA0066100744101008
B1101245147558N00553150EA0066600752102008
B1101285147495N00553187EA0067300760099008
K110128280009
B1101325147441N00553237EA0067500760096008
B1101365147387N00553295EA0067700760093008
B1101405147325N00553345EA0067600760098008
B1101445147262N00553391EA0067300752104004
B1101485147195N00553433EA0066900752105008
K110148000005
B1101525147133N00553475EA0067000752105008
B1101565147070N00553516EA0067300752102008
B1102005147004N00553558EA0067300752104008
B1102045146945N00553604EA0067500760098008
B1102085146879N00553641EA0067800760099008
K110208180007
B1102125146816N00553633EA0068700768099008
B1102165146770N00553570EA0068800768096008
B1102205146766N00553483EA0069100776094008
B1102245146804N00553420EA0068800768093008
B1102285146858N00553416EA0068100768096008
K110228180007
B1102325146912N00553458EA0067400752099004
B1102365146954N00553545EA0067000752102008
B1102405146970N00553650EA0067300752101004
B1102445146979N00553762EA0067800760098004
B1102485146966N00553875EA0068100768100004
K110248180007
B1102525146912N00553941EA0068400768104004
B1102565146854N00553900EA0069200776104008
B1103005146850N00553804EA0069700776103008
B1103045146900N00553745EA0069700784104008
B1103085146966N00553787EA0070600784107008
K110308282010
B1103125146991N00553887EA0071100792101008
B1103165146962N00553991EA0071700800103008
B1103205146895N00554016EA0072200808104008
B1103245146845N00553950EA0072700808103008
B1103285146854N00553854EA0073000816101008
K110328280009
B1103325146904N00553800EA0073200816103008
B1103365146966N00553820EA0073900824103008
B1103405147012N00553904EA0074600832097008
B1103445147020N00554008EA0075300840096008
B1103485146983N00554100EA0075700840096008
K110348272010
B1103525146925N00554125EA0076200848098008
B1103565146879N00554070EA0076600848096008
B1104005146883N00553975EA0077200848099008
B1104045146929N00553920EA0077700856098008
B1104085146991N00553941EA0078200864095008
K110408268010
B1104125147020N00554029EA0078600864093008
B1104165147012N00554137EA0078700872098008
B1104205146958N00554200EA0078900872100008
B1104245146900N00554175EA0079100872099008
B1104285146879N00554087EA0079500872100008
K110428270009
B1104325146908N00554004EA0080200880100008
B1104365146966N00553979EA0080700888098008
B1104405147020N00554033EA0081300888095008
B1104445147041N00554137EA0081800896095008
B1104485147020N00554241EA0082200904098004
K110448264010
B1104525146966N00554304EA0082100904099008
B1104565146904N00554295EA0082400904095004
B1105005146862N00554233EA0082600904094004
B1105045146854N00554141EA0083100912095008
B1105085146879N00554062EA0083900920095008
K110508284008
B1105125146929N00554012EA0084000920097004
B1105165146991N00554025EA0084800928092008
B1105205147029N00554104EA0085400936091008
B1105245147020N00554208EA0085400936093008
B1105285146975N00554275EA0085900936092008
K110528276008
B1105325146916N00554270EA0086100944093008
B1105365146879N00554208EA0087000952090004
B1105405146879N00554125EA0087500960091008
B1105445146916N00554062EA0087600960094004
B1105485146975N00554054EA0088000960094004
K110548264010
B1105525147025N00554120EA0088300960095004
B1105565147033N00554229EA0088600968095004
B1106005146995N00554312EA0088800968096008
B1106045146933N00554337EA0088900976095008
B1106085146883N00554287EA0089700976097004
K110608264009
B1106125146858N00554208EA0090000984096008
B1106165146866N00554120EA0090400984095004
B1106205146916N00554066EA0090700992097004
B1106245146975N00554075EA0091300992088004
B1106285147020N00554145EA0091501000091004
K110628262009
B1106325147025N00554245EA0092001000093004
B1106365146991N00554329EA0092301008091004
B1106405146929N00554345EA0092401008092004
B1106445146883N00554295EA0093001016089004
B1106485146879N00554216EA0093301016090004
K110648268009
B1106525146912N00554141EA0093301016095004
B1106565146966N00554112EA0094001024090008
B1107005147020N00554145EA0094101024093008
B1107045147054N00554233EA0094901032093004
B1107085147045N00554333EA0095401032091008
K110708278008
B1107125147000N00554404EA0095401032093004
B1107165146941N00554420EA0095901040091004
B1107205146891N00554370EA0096301048089004
B1107245146879N00554291EA0096601048092004
B1107285146900N00554208EA0097301056091004
K110728278007
B1107325146945N00554166EA0097501056089004
B1107365147008N00554170EA0097601056094004
B1107405147062N00554216EA0098401064089004
B1107445147100N00554295EA0098501064093004
B1107485147112N00554395EA0099401072089004
K110748280009
B1107525147087N00554487EA0099301072091004
B1107565147033N00554537EA0098401064098004
B1108005146970N00554525EA0098301064095004
B1108045146920N00554466EA0098501072094004
B1108085146895N00554383EA0099401072095004
K110808264007
B1108125146891N00554295EA0099701080095004
B1108165146920N00554220EA0099701080096008
B1108205146983N00554208EA0099501072101008
B1108245147037N00554266EA0100401088094004
B1108285147054N00554366EA0100801096091008
K110828274008
B1108325147025N00554454EA0100801088092008
B1108365146966N00554500EA0100701088096008
B1108405146904N00554491EA0101701096091004
B1108445146862N00554441EA0102701112085008
B1108485146845N00554362EA0102701112091004
K110848286010
B1108525146866N00554279EA0103201112090004
B1108565146908N00554229EA0103001112089004
B1109005146970N00554225EA0102501104094004
B1109045147029N00554262EA0102701104094008
B1109085147075N00554329EA0103401112087008
K110908280008
B1109125147100N00554420EA0103601112092008
B1109165147104N00554520EA0103601112093008
B1109205147083N00554625EA0103101112096004
B1109245147041N00554708EA0102501104097008
B1109285146983N00554750EA0101701096097004
K110928280007
B1109325146920N00554741EA0101601096093004
B1109365146875N00554683EA0101601096094008
B1109405146845N00554604EA0101601096093008
B1109445146833N00554512EA0101801104094004
B1109485146845N00554429EA0102601104090008
K110948274006
B1109525146875N00554354EA0102701112090004
B1109565146920N00554300EA0102501104093004
B1110005146983N00554287EA0102001104099004
B1110045147045N00554320EA0102001104096004
B1110085147095N00554387EA0102601104095004
K111008180007
B1110125147137N00554458EA0102701112092004
B1110165147183N00554533EA0102101096100004
B1110205147229N00554608EA0101601096102004
B1110245147275N00554691EA0101601096102004
B1110285147320N00554770EA0101301088107004
K111028000005
B1110325147370N00554850EA0100101088106004
B1110365147420N00554933EA0098001064120004
B1110405147487N00555025EA0096701048132004
B1110445147550N00555120EA0097101048128004
B1110485147612N00555212EA0097501056126008
K111048000004
B1110525147670N00555304EA0098501064120008
B1110565147729N00555383EA0101601096104008
B1111005147775N00555450EA0102701104090008
B1111045147825N00555520EA0102701104097008
B1111085147870N00555587EA0103001104094008
K111108180001
B1111125147912N00555658EA0102901104099004
B1111165147962N00555733EA0102501104103008
B1111205148012N00555812EA0102301096106004
B1111245148062N00555891EA0102301096103004
B1111285148112N00555970EA0101801088105008
K111128000004
B1111325148162N00556045EA0101101088104008
B1111365148212N00556120EA0100601080105008
B1111405148266N00556204EA0098201056118008
B1111445148325N00556295EA0097101048123004
B1111485148383N00556391EA0096701040127008
K111148000006
B1111525148445N00556487EA0096101032128004
B1111565148504N00556583EA0095801032127004
B1112005148562N00556675EA0095801032125008
B1112045148620N00556766EA0095201024127008
B1112085148683N00556862EA0094001016130008
K111208000007
B1112125148745N00556954EA0094001016134008
B1112165148808N00557050EA0093601016131004
B1112205148866N00557150EA0093501008132008
B1112245148920N00557250EA0096701032119004
B1112285148966N00557320EA0099601072090004
K111228180000
B1112325149004N00557387EA0100001080087008
B1112365149045N00557462EA0099401072102008
B1112405149091N00557541EA0100501080096004
B1112445149137N00557616EA0101301096093008
B1112485149179N00557691EA0102501096098004
K111248000001
B1112525149220N00557770EA0103901112092004
B1112565149258N00557850EA0105301128090004
B1113005149295N00557920EA0106901144083004
B1113045149325N00557987EA0107801152082004
B1113085149362N00558066EA0108101152097004
K111308000004
B1113125149400N00558150EA0109601168096004
B1113165149437N00558229EA0111101192093004
B1113205149470N00558304EA0111901192091004
B1113245149508N00558379EA0113001208091004
B1113285149545N00558458EA0114201216090004
K111328000005
B1113325149579N00558541EA0115501224091004
B1113365149612N00558629EA0116601240099008
B1113405149645N00558725EA0117001248105008
B1113445149679N00558829EA0116301240114004
B1113485149708N00558945EA0116101232120008
K111348000006
B1113525149733N00559070EA0116101232121008
B1113565149754N00559195EA0116101240118008
B1114005149766N00559316EA0116401240116008
B1114045149779N00559437EA0116401240112008
B1114085149791N00559558EA0116101240114008
K111408000004
B1114125149800N00559670EA0117101248104008
B1114165149816N00559775EA0117601256102008
B1114205149829N00559883EA0117201248099008
B1114245149845N00559995EA0116101240106008
B1114285149862N00600116EA0113201216123008
K111428000006
B1114325149883N00600254EA0112201200135008
B1114365149904N00600395EA0111901192135008
B1114405149925N00600541EA0111601192138008
B1114445149945N00600683EA0111801200135008
B1114485149970N00600825EA0112701200135008
K111448000004
B1114525149987N00600962EA0113601216131008
B1114565150008N00601095EA0114201224123008
B1115005150025N00601225EA0114201216127008
B1115045150045N00601358EA0114601224127004
B1115085150062N00601487EA0115501232121008
K111508180000
B1115125150079N00601612EA0115601232120004
B1115165150095N00601737EA0115601232120004
B1115205150116N00601866EA0114601224126004
B1115245150133N00602000EA0114601224124004
B1115285150145N00602129EA0115501232117004
K111528000002
B1115325150158N00602262EA0116201240117004
B1115365150175N00602391EA0117301248116008
B1115405150187N00602516EA0117901256116008
B1115445150195N00602637EA0118701264116004
B1115485150200N00602762EA0119301272109008
K111548180001
B1115525150195N00602883EA0119801272113004
B1115565150191N00603008EA0119101272116004
B1116005150183N00603145EA0116901256126008
B1116045150170N00603295EA0115101232134008
B1116085150162N00603445EA0114601224136008
K111608000001
B1116125150158N00603604EA0114201224136008
B1116165150158N00603758EA0113401216137008
B1116205150166N00603912EA0112901208138008
B1116245150179N00604070EA0112301200140008
B1116285150187N00604233EA0111601192142008
K111628180002
B1116325150200N00604395EA0110801184142008
B1116365150212N00604558EA0110401184143008
B1116405150220N00604720EA0110001176142008
B1116445150233N00604883EA0109601168145008
B1116485150241N00605045EA0108901168144008
K111648180004
B1116525150250N00605208EA0108301160146008
B1116565150262N00605370EA0108001152144008
B1117005150270N00605529EA0107301152142008
B1117045150283N00605687EA0106101144143008
B1117085150287N00605854EA0104601128148008
K111708180002
B1117125150295N00606020EA0103201112149008
B1117165150300N00606195EA0103001104151008
B1117205150312N00606358EA0103001112148012
B1117245150320N00606520EA0103001112144008
B1117285150337N00606670EA0103001112142012
K111728180001
B1117325150350N00606820EA0103001104139012
B1117365150362N00606975EA0102301104138008
B1117405150375N00607125EA0101601096141008
B1117445150387N00607279EA0100801088142008
B1117485150395N00607437EA0099901080144008
K111748000001
B1117525150408N00607595EA0098301064151008
B1117565150420N00607762EA0097001048157008
B1118005150429N00607933EA0096601040158012
B1118045150441N00608104EA0096101040156008
B1118085150454N00608275EA0095401032157012
K111808000002
B1118125150466N00608450EA0094901024159012
B1118165150479N00608620EA0094601024158012
B1118205150491N00608787EA0094601024153012
B1118245150504N00608950EA0094401024150012
B1118285150516N00609112EA0093701016148012
K111828000001
B1118325150525N00609270EA0093101008150012
B1118365150537N00609437EA0092501000153012
B1118405150550N00609595EA0092101000153008
B1118445150554N00609750EA0094701024135008
B1118485150554N00609879EA0095801032118008
K111848180001
B1118525150558N00610000EA0096101040106008
B1118565150558N00610120EA0093901016115008
B1119005150558N00610254EA0091901008125008
B1119045150558N00610400EA0090600984137008
B1119085150558N00610554EA0089900976140008
K111908000004
B1119125150558N00610704EA0089900976138008
B1119165150554N00610854EA0090900984135008
B1119205150550N00610987EA0093101008117008
B1119245150541N00611108EA0094101024109008
B1119285150537N00611220EA0095401024103008
K111928180007
B1119325150533N00611325EA0097001040091008
B1119365150529N00611425EA0096201048094008
B1119405150525N00611541EA0094201024113008
B1119445150520N00611675EA0092801008123004
B1119485150516N00611820EA0091700992130008
K111948000001
B1119525150512N00611970EA0090400984137004
B1119565150512N00612120EA0089500976141004
B1120005150508N00612275EA0088700968142008
B1120045150508N00612429EA0088000960139008
B1120085150508N00612583EA0088500960138008
K112008180000
B1120125150500N00612716EA0091300984120008
B1120165150495N00612820EA0093801016095008
B1120205150487N00612920EA0094201024094008
B1120245150483N00613020EA0094901024094008
B1120285150475N00613125EA0095301032093008
K112028180003
B1120325150470N00613233EA0095701032094004
B1120365150458N00613337EA0095601032100008
B1120405150450N00613441EA0094801024101004
B1120445150437N00613554EA0093001008111004
B1120485150420N00613679EA0092601000118004
K112048000004
B1120525150404N00613800EA0092201000117004
B1120565150387N00613933EA0091800992122004
B1121005150370N00614062EA0091801000121004
B1121045150350N00614191EA0092301000116008
B1121085150337N00614316EA0092901008117008
K112108180003
B1121125150320N00614433EA0095301032103008
B1121165150316N00614529EA0095701032093008
B1121205150304N00614629EA0095401032099008
B1121245150295N00614733EA0095401032099008
B1121285150279N00614833EA0095301032102004
K112128000003
B1121325150254N00614933EA0095401032100008
B1121365150225N00615029EA0095201024105004
B1121405150187N00615120EA0095101024106004
B1121445150133N00615195EA0094201016104004
B1121485150079N00615270EA0093601008109004
K112148000005
B1121525150025N00615345EA0092901008108004
B1121565149975N00615437EA0091300992115004
B1122005149937N00615550EA0090600984120008
B1122045149920N00615675EA0090100976119008
B1122085149920N00615804EA0089500976121008
K112208000005
B1122125149929N00615937EA0088300960131008
B1122165149945N00616075EA0087900952131008
B1122205149962N00616208EA0087200952130008
B1122245149979N00616345EA0086200936138008
B1122285149995N00616487EA0086500944132008
K112228000007
B1122325150012N00616620EA0088100952124008
B1122365150025N00616754EA0088900968118008
B1122405150041N00616870EA0090000976103008
B1122445150050N00616987EA0089900976107008
B1122485150062N00617108EA0087900952118008
K112248180000
B1122525150075N00617241EA0085400936131008
B1122565150091N00617387EA0084500920134004
B1123005150104N00617529EA0084200920134008
B1123045150116N00617675EA0084100920130008
B1123085150129N00617808EA0085900944117008
K112308180004
B1123125150137N00617920EA0088100960098008
B1123165150141N00618025EA0088300960089008
B1123205150145N00618129EA0087000952097004
B1123245150158N00618245EA0084900928114008
B1123285150175N00618375EA0083500920120004
K112328000001
B1123325150200N00618504EA0082100896132004
B1123365150233N00618641EA0081100888131004
B1123405150262N00618770EA0080200880132004
B1123445150287N00618908EA0079300872136008
B1123485150316N00619045EA0079200864135008
K112348000004
B1123525150337N00619183EA0079000864133008
B1123565150354N00619325EA0077700856131008
B1124005150366N00619462EA0077200848131008
B1124045150379N00619604EA0076200840133008
B1124085150391N00619754EA0073700816153008
K112408000008
B1124125150404N00619904EA0076300840142008
B1124165150412N00620016EA0080900880099008
B1124205150420N00620112EA0082000896085008
B1124245150420N00620212EA0082000896094008
B1124285150416N00620325EA0082000888096008
K112428180005
B1124325150408N00620441EA0081600888101004
B1124365150391N00620558EA0081500888104008
B1124405150354N00620670EA0081300888105004
B1124445150312N00620779EA0081200888110004
B1124485150266N00620887EA0080800880116004
K112448180010
B1124525150220N00620987EA0081300888110004
B1124565150179N00621087EA0080800880113004
B1125005150137N00621183EA0081100888110004
B1125045150095N00621283EA0081700896100008
B1125085150058N00621379EA0081100888110008
K112508180004
B1125125150016N00621483EA0080400880113008
B1125165149975N00621587EA0080200872110008
B1125205149933N00621695EA0079500872112008
B1125245149887N00621787EA0080300880105008
B1125285149837N00621858EA0080400880095004
K112528180005
B1125325149783N00621929EA0080000880096008
B1125365149733N00622008EA0080300880098004
B1125405149687N00622083EA0080900888088004
B1125445149641N00622158EA0080900888092004
B1125485149608N00622250EA0081100888095004
K112548180008
B1125525149587N00622345EA0080400880100004
B1125565149612N00622454EA0079800872105004
B1126005149670N00622516EA0080300880099004
B1126045149741N00622529EA0080900888095004
B1126085149804N00622495EA0082200896099004
K112608180008
B1126125149841N00622412EA0082900904099004
B1126165149825N00622316EA0083600912101004
B1126205149762N00622304EA0083600912103004
B1126245149712N00622375EA0083400912099008
B1126285149704N00622479EA0083500912095008
K112628192009
B1126325149741N00622566EA0083800912093004
B1126365149800N00622608EA0084300920097008
B1126405149866N00622600EA0085700936098004
B1126445149916N00622541EA0085800936099004
B1126485149912N00622437EA0085800936107004
K112648224008
B1126525149862N00622383EA0086500944100004
B1126565149800N00622404EA0087000944096008
B1127005149770N00622495EA0087000944099008
B1127045149770N00622600EA0087100952097008
B1127085149816N00622687EA0087700952101008
K112708240008
B1127125149883N00622716EA0088600960106004
B1127165149929N00622645EA0089100968105008
B1127205149908N00622550EA0089500968101004
B1127245149845N00622516EA0089500968108004
B1127285149791N00622570EA0090400984104008
K112728224008
B1127325149787N00622679EA0091100984098008
B1127365149833N00622770EA0091500984102008
B1127405149895N00622770EA0092101000105008
B1127445149929N00622683EA0092101000106008
B1127485149904N00622587EA0092101000101008
K112748236007
B1127525149841N00622554EA0092701000107008
B1127565149787N00622612EA0093601008102008
B1128005149787N00622720EA0093601008102004
B1128045149833N00622808EA0094501024102008
B1128085149900N00622808EA0094901024106004
K112808252006
B1128125149933N00622725EA0095401024101004
B1128165149916N00622629EA0095701032098008
B1128205149862N00622575EA0095701032101008
B1128245149795N00622595EA0096101032105004
B1128285149762N00622691EA0096301040099008
K112828276004
B1128325149783N00622800EA0097101048101008
B1128365149841N00622850EA0098001056105008
B1128405149900N00622808EA0098401056103008
B1128445149908N00622712EA0099001064101008
B1128485149870N00622633EA0099401072096008
K112848298007
B1128525149808N00622608EA0099201064104008
B1128565149745N00622650EA0099401072108004
B1129005149712N00622745EA0100401080107008
B1129045149737N00622854EA0101401088105004
B1129085149804N00622900EA0101901096106004
K112908296005
B1129125149862N00622850EA0102801104106008
B1129165149875N00622754EA0103601112102008
B1129205149841N00622670EA0103601112101004
B1129245149779N00622633EA0103601112107008
B1129285149712N00622654EA0104201112108008
K112928280004
B1129325149654N00622720EA0104501120103008
B1129365149625N00622816EA0105601128098008
B1129405149600N00622920EA0106901144095008
B1129445149579N00623016EA0108101152089008
B1129485149570N00623116EA0108101152092008
K112948180008
B1129525149566N00623225EA0108201160092004
B1129565149558N00623329EA0108701160092008
B1130005149545N00623425EA0109101168089004
B1130045149525N00623520EA0108901160089004
B1130085149508N00623620EA0106901144102004
K113008000001
B1130125149487N00623741EA0104501128119004
B1130165149466N00623875EA0102201104132004
B1130205149437N00624016EA0101201088139004
B1130245149400N00624162EA0100101072140008
B1130285149350N00624295EA0100001072141008
K113028000002
B1130325149295N00624429EA0099801072141008
B1130365149241N00624558EA0099301064147008
B1130405149183N00624687EA0098201056150008
B1130445149120N00624816EA0097401048150008
B1130485149058N00624937EA0099301056141008
K113048000001
B1130525148995N00625033EA0101301088123008
B1130565148929N00625116EA0102601096118008
B1131005148870N00625204EA0103301104110008
B1131045148820N00625304EA0103601112108008
B1131085148787N00625416EA0104101120110008
K113108180009
B1131125148762N00625529EA0105101128104004
B1131165148741N00625645EA0105701136105008
B1131205148733N00625758EA0106901144096004
B1131245148725N00625870EA0107201144098004
B1131285148720N00625983EA0106301136106004
K113128180005
B1131325148720N00626100EA0105501128111004
B1131365148712N00626220EA0105001128114004
B1131405148695N00626341EA0105001128113004
B1131445148679N00626458EA0104901120111004
B1131485148658N00626579EA0103701112118004
K113148000004
B1131525148637N00626708EA0101801096123008
B1131565148608N00626845EA0101801096128008
B1132005148579N00626979EA0104201104121008
B1132045148550N00627091EA0106701144104008
B1132085148487N00627141EA0106801144106008
K113208180006
B1132125148433N00627091EA0107301144103008
B1132165148425N00626995EA0107601152100008
B1132205148462N00626912EA0107601144101008
B1132245148520N00626858EA0107801152105008
B1132285148591N00626862EA0108501160102008
K113228180006
B1132325148645N00626933EA0109301168105008
B1132365148645N00627045EA0110101176099008
B1132405148583N00627095EA0110601184105004
B1132445148533N00627029EA0111801192106008
B1132485148550N00626929EA0112801200106004
K113248252012
B1132525148612N00626895EA0113401208105004
B1132565148675N00626962EA0114501224107008
B1133005148704N00627075EA0114501216117008
B1133045148695N00627204EA0113601216120008
B1133085148670N00627329EA0113501208121008
K113308268008
B1133125148637N00627458EA0113401208127004
B1133165148600N00627583EA0113201208127008
B1133205148566N00627712EA0112701200129008
B1133245148529N00627845EA0112201200132008
B1133285148487N00627975EA0112201192133008
K113328180006
B1133325148450N00628108EA0111501184133008
B1133365148408N00628245EA0110101176139008
B1133405148366N00628387EA0108901168144008
B1133445148325N00628529EA0108201160145008
B1133485148283N00628675EA0108001152142008
K113348000002
B1133525148241N00628820EA0107601152143008
B1133565148200N00628962EA0107301144143008
B1134005148158N00629100EA0106701144143008
B1134045148125N00629241EA0106401136137008
B1134085148087N00629379EA0105501128140008
K113408000003
B1134125148050N00629508EA0104901128133008
B1134165148012N00629641EA0104701120135008
B1134205147979N00629775EA0104701120134008
B1134245147945N00629908EA0104801128133008
B1134285147908N00630033EA0105701136123008
K113428000001
B1134325147875N00630154EA0105901136121008
B1134365147841N00630279EA0104901120127008
B1134405147800N00630412EA0102901104144008
B1134445147758N00630554EA0102101096147008
B1134485147720N00630695EA0101701088145008
K113448000006
B1134525147679N00630833EA0101601088144008
B1134565147641N00630970EA0101601096136008
B1135005147604N00631104EA0101601088132008
B1135045147570N00631237EA0100301080138008
B1135085147533N00631370EA0099701072136008
K113508000004
B1135125147504N00631508EA0099701072131008
B1135165147475N00631641EA0099401072132008
B1135205147454N00631775EA0099301072130008
B1135245147433N00631904EA0100001072122008
B1135285147420N00632033EA0100001080118008
K113528000001
B1135325147400N00632162EA0101201088113008
B1135365147383N00632279EA0103401112100008
B1135405147366N00632383EA0104601120089008
B1135445147350N00632483EA0105001128090004
B1135485147333N00632591EA0104901128096008
K113548180007
B1135525147312N00632700EA0105701128096004
B1135565147287N00632800EA0106901144096004
B1136005147266N00632895EA0108401160087004
B1136045147245N00632987EA0108501160090004
B1136085147225N00633087EA0107301152100004
K113608180000
B1136125147208N00633191EA0106901144103004
B1136165147183N00633304EA0106601136111004
B1136205147162N00633429EA0105701136117004
B1136245147137N00633554EA0104901120123004
B1136285147112N00633687EA0104101120126004
K113628000002
B1136325147079N00633816EA0103501112125004
B1136365147041N00633941EA0102801104127004
B1136405147004N00634070EA0102501096128008
B1136445146966N00634195EA0102501104129008
B1136485146929N00634320EA0105301128115008
K113648180003
B1136525146900N00634420EA0108601160095008
B1136565146879N00634516EA0108601160100008
B1137005146904N00634620EA0109601168103008
B1137045146962N00634666EA0109901176099008
B1137085147020N00634620EA0110401184104008
K113708180005
B1137125147037N00634516EA0111201192107004
B1137165147008N00634416EA0112401200106008
B1137205146954N00634345EA0113101208105008
B1137245146883N00634337EA0114101216108008
B1137285146820N00634404EA0114601224108008
K113728180005
B1137325146800N00634520EA0115701232112008
B1137365146837N00634620EA0117101248106004
B1137405146900N00634641EA0117601256102008
B1137445146958N00634587EA0118601264102008
B1137485146979N00634487EA0119401272105008
K113748306003
B1137525146950N00634387EA0120401280104008
B1137565146887N00634337EA0121001288108008
B1138005146816N00634366EA0121201296108008
B1138045146766N00634458EA0122501304107008
B1138085146741N00634570EA0123601312108008
K113808286004
B1138125146729N00634687EA0124601328109008
B1138165146725N00634804EA0124801328112008
B1138205146729N00634920EA0124501320114008
B1138245146725N00635050EA0122301304126004
B1138285146720N00635200EA0120501288141008
K113828180005
B1138325146716N00635358EA0119101272150008
B1138365146708N00635525EA0117801256153008
B1138405146695N00635700EA0117101248159008
B1138445146683N00635875EA0116801248158008
B1138485146670N00636041EA0116801248152012
K113848000002
B1138525146654N00636208EA0116401240152008
B1138565146633N00636375EA0115601232152012
B1139005146616N00636541EA0115001224155012
B1139045146600N00636716EA0114601224157008
B1139085146583N00636887EA0114301216159008
K113908000001
B1139125146566N00637058EA0113901216158008
B1139165146550N00637220EA0113801216153008
B1139205146529N00637387EA0113701216154008
B1139245146508N00637550EA0113601216151008
B1139285146483N00637712EA0113401208147012
K113928180000
B1139325146458N00637875EA0113201208152008
B1139365146429N00638025EA0115101224141012
B1139405146408N00638166EA0116201240131012
B1139445146387N00638300EA0116801248124012
B1139485146370N00638433EA0117101248123012
K113948180003
B1139525146354N00638562EA0118001256120008
B1139565146341N00638691EA0117901264117008
B1140005146333N00638825EA0117101248123008
B1140045146320N00638966EA0115701232129008
B1140085146312N00639108EA0115401232135008
K114008000003
B1140125146291N00639250EA0115501232126008
B1140165146258N00639375EA0115601232122008
B1140205146212N00639491EA0115101232126008
B1140245146166N00639616EA0114501224133008
B1140285146116N00639741EA0114201216134008
K114028000001
B1140325146062N00639862EA0113801216132008
B1140365146012N00639983EA0113601208134008
B1140405145962N00640108EA0113201208135008
B1140445145908N00640229EA0112401200136008
B1140485145854N00640362EA0110801176144008
K114048000003
B1140525145800N00640495EA0109601168148008
B1140565145745N00640637EA0108901160149008
B1141005145695N00640783EA0108601160147008
B1141045145650N00640920EA0109401168137008
B1141085145608N00641050EA0109701176132008
K114108180002
B1141125145570N00641187EA0109701168132012
B1141165145545N00641325EA0109401168135008
B1141205145525N00641466EA0110901184130008
B1141245145512N00641591EA0113001208110008
B1141285145504N00641712EA0114201216107008
K114128180005
B1141325145491N00641829EA0115101232106008
B1141365145483N00641945EA0115301232107008
B1141405145475N00642062EA0115501232103008
B1141445145470N00642175EA0115601240098004
B1141485145462N00642291EA0114901224105008
K114148180001
B1141525145450N00642408EA0114601224109004
B1141565145437N00642529EA0114101224111004
B1142005145429N00642654EA0114201224110004
B1142045145416N00642779EA0113801216117004
B1142085145400N00642908EA0114201224118004
K114208180001
B1142125145383N00643025EA0114801232107004
B1142165145366N00643141EA0115601240111004
B1142205145345N00643258EA0115901240111004
B1142245145325N00643375EA0116801248106008
B1142285145308N00643475EA0117601256096008
K114228180003
B1142325145291N00643575EA0117001248097008
B1142365145275N00643683EA0115201232113008
B1142405145254N00643804EA0114001224114004
B1142445145233N00643937EA0113401216126008
B1142485145208N00644075EA0114201216124008
K114248000001
B1142525145183N00644204EA0115901240117008
B1142565145162N00644320EA0119301272098008
B1143005145145N00644420EA0121601296092008
B1143045145133N00644520EA0122401304093008
B1143085145120N00644633EA0123501312100008
K114308180003
B1143125145108N00644750EA0123901312109008
B1143165145100N00644870EA0124501320112008
B1143205145091N00644991EA0124801320113008
B1143245145079N00645116EA0124101320120008
B1143285145070N00645250EA0122901304120008
K114328000002
B1143325145062N00645391EA0122201296128008
B1143365145050N00645533EA0122201296128008
B1143405145041N00645675EA0122201304127008
B1143445145029N00645816EA0121701296130008
B1143485145020N00645958EA0121101288131008
K114348000002
B1143525145012N00646104EA0120201280136008
B1143565145012N00646250EA0119801272133008
B1144005145016N00646391EA0119401272132008
B1144045145025N00646533EA0118201264135008
B1144085145037N00646679EA0117201248139008
K114408000006
B1144125145050N00646829EA0116901248138008
B1144165145066N00646970EA0116801248133008
B1144205145079N00647116EA0115701240136008
B1144245145095N00647262EA0115101232137008
B1144285145104N00647412EA0114601224136008
K114428000003
B1144325145104N00647562EA0114501224139008
B1144365145095N00647708EA0114501224135008
B1144405145070N00647850EA0114601224132008
B1144445145050N00647991EA0113401208137008
B1144485145025N00648137EA0112601200141008
K114448000004
B1144525145004N00648283EA0112201200138008
B1144565144979N00648425EA0111601192136008
B1145005144958N00648566EA0111301192137008
B1145045144945N00648708EA0111001192135008
B1145085144933N00648850EA0110901184134008
K114508000007
B1145125144920N00648991EA0110601184140008
B1145165144904N00649133EA0111101192129008
B1145205144887N00649270EA0110901184132008
B1145245144870N00649412EA0110601184132008
B1145285144850N00649558EA0110001176138008
K114528000004
B1145325144837N00649708EA0109201168140008
B1145365144820N00649866EA0108801168138008
B1145405144804N00650020EA0109301168136008
B1145445144791N00650175EA0109901176133008
B1145485144770N00650333EA0110001176136008
K114548180008
B1145525144750N00650487EA0110001176139008
B1145565144725N00650637EA0110001176137008
B1146005144700N00650783EA0109801176133008
B1146045144666N00650920EA0109601176130008
B1146085144633N00651062EA0108301160134008
K114608180003
B1146125144600N00651204EA0107301152139008
B1146165144570N00651350EA0107401152140008
B1146205144541N00651487EA0108101160131008
B1146245144512N00651620EA0108201160127008
B1146285144483N00651754EA0108201160130008
K114628180000
B1146325144450N00651887EA0108501160131008
B1146365144420N00652020EA0108801168128008
B1146405144395N00652150EA0108801168126008
B1146445144366N00652279EA0108501160128008
B1146485144337N00652412EA0107201152131008
K114648000002
B1146525144300N00652550EA0106201136137008
B1146565144258N00652691EA0106201136141008
B1147005144220N00652820EA0109701160126008
B1147045144187N00652933EA0111401192109008
B1147085144154N00653037EA0111201192108008
K114708180002
B1147125144120N00653145EA0110101176112008
B1147165144079N00653254EA0109601168123008
B1147205144041N00653366EA0109201168123008
B1147245144004N00653479EA0108901168125008
B1147285143966N00653595EA0107801152127008
K114728000007
B1147325143933N00653720EA0107601152122008
B1147365143904N00653845EA0107101144122008
B1147405143875N00653970EA0106601136123008
B1147445143854N00654108EA0106201136126008
B1147485143833N00654241EA0107201144125008
K114748180000
B1147525143812N00654362EA0109701176106008
B1147565143800N00654466EA0111801192093008
B1148005143787N00654554EA0112701208085004
B1148045143775N00654645EA0112601200089008
B1148085143762N00654745EA0112201200104004
K114808000002
B1148125143745N00654854EA0112301200100004
B1148165143733N00654958EA0112701200098004
B1148205143720N00655066EA0112601200099004
B1148245143704N00655179EA0111901200103004
B1148285143687N00655300EA0111501192112004
K114828180000
B1148325143670N00655425EA0111501192117004
B1148365143654N00655545EA0113301208106004
B1148405143641N00655645EA0114201216093004
B1148445143625N00655750EA0112701208104004
B1148485143612N00655866EA0111201184116004
K114848000003
B1148525143595N00655995EA0110101176122004
B1148565143575N00656133EA0108501160131004
B1149005143558N00656279EA0106201136141004
B1149045143541N00656437EA0104901128150004
B1149085143520N00656600EA0104601120154004
K114908000006
B1149125143500N00656754EA0104801128145008
B1149165143475N00656908EA0104101120143008
B1149205143458N00657062EA0104001112148008
B1149245143441N00657208EA0107301136131008
B1149285143429N00657325EA0109701168108008
K114928180003
B1149325143412N00657433EA0109401176096008
B1149365143400N00657550EA0107601152111008
B1149405143383N00657679EA0105801136124008
B1149445143366N00657816EA0104601120130004
B1149485143350N00657958EA0104101120129008
K114948000002
B1149525143329N00658095EA0104001120128008
B1149565143312N00658233EA0103701112129008
B1150005143300N00658370EA0103401104132008
B1150045143287N00658504EA0102901104131008
B1150085143275N00658637EA0102101096132008
K115008000007
B1150125143270N00658770EA0100901088130008
B1150165143270N00658908EA0099901080135008
B1150205143279N00659050EA0099801072136008
B1150245143295N00659191EA0100001072133008
B1150285143320N00659320EA0102601088124008
K115028000004
B1150325143333N00659437EA0105001128108008
B1150365143304N00659525EA0106801144100008
B1150405143241N00659545EA0106601144103008
B1150445143183N00659479EA0106201136109008
B1150485143166N00659379EA0107201144102008
K115048000003
B1150525143195N00659291EA0108801168093008
B1150565143245N00659250EA0110001176087008
B1151005143304N00659245EA0110101176091008
B1151045143350N00659308EA0110601184096004
B1151085143362N00659404EA0111801200091008
K115108172000
B1151125143325N00659475EA0112701200094008
B1151165143266N00659483EA0113001208095008
B1151205143216N00659425EA0112901208098004
B1151245143195N00659329EA0113701216095008
B1151285143212N00659241EA0114801224089004
K115128112002
B1151325143258N00659191EA0115101232089004
B1151365143320N00659204EA0115001224097004
B1151405143366N00659270EA0115501232097004
B1151445143383N00659366EA0115901240093004
B1151485143362N00659462EA0117001240095004
K115148190002
B1151525143320N00659529EA0117901256091004
B1151565143258N00659541EA0118301256093004
B1152005143204N00659495EA0118201256099004
B1152045143170N00659404EA0118001256098004
B1152085143179N00659300EA0119001264096004
K115208214001
B1152125143212N00659220EA0119801280094004
B1152165143266N00659187EA0120201280090008
B1152205143325N00659195EA0120201280097008
B1152245143375N00659250EA0120401280096004
B1152285143404N00659333EA0120701280096008
K115228184001
B1152325143412N00659429EA0120401280096004
B1152365143400N00659533EA0120201280099004
B1152405143375N00659637EA0120201280101004
B1152445143345N00659737EA0120301280103004
B1152485143316N00659845EA0120601280106004
K115248000003
B1152525143291N00659954EA0120901288105004
B1152565143266N00700062EA0121001288108008
B1153005143245N00700175EA0121301288105008
B1153045143225N00700283EA0121601296105008
B1153085143204N00700387EA0121801296106008
K115308000001
B1153125143183N00700495EA0121901296105004
B1153165143162N00700600EA0122201296103008
B1153205143141N00700708EA0121701288104004
B1153245143116N00700825EA0120801280111004
B1153285143091N00700950EA0120201280120004
K115328000003
B1153325143066N00701079EA0119701272123004
B1153365143037N00701212EA0118301264131008
B1153405143016N00701354EA0116801240137008
B1153445142987N00701504EA0115001224149008
B1153485142962N00701658EA0114601216145008
K115348000005
B1153525142941N00701812EA0114001216144008
B1153565142920N00701970EA0113101208145008
B1154005142895N00702129EA0111801192146008
B1154045142870N00702287EA0110601184146008
B1154085142841N00702441EA0109201168146008
K115408180001
B1154125142804N00702604EA0106201136161008
B1154165142770N00702775EA0105201120165008
B1154205142737N00702941EA0105201128155008
B1154245142712N00703095EA0105201128148012
B1154285142683N00703250EA0104401120146008
K115428180000
B1154325142658N00703404EA0104001112142012
B1154365142629N00703550EA0104001112136012
B1154405142604N00703691EA0104001112133012
B1154445142579N00703820EA0104001112130012
B1154485142558N00703950EA0103701112128012
K115448000003
B1154525142533N00704075EA0102901104127012
B1154565142508N00704208EA0101601096133008
B1155005142483N00704345EA0100701088134008
B1155045142462N00704483EA0100001072141008
B1155085142450N00704629EA0099801072139008
K115508000009
B1155125142437N00704770EA0099201064138012
B1155165142425N00704916EA0099301072136008
B1155205142412N00705054EA0099701072129008
B1155245142408N00705187EA0099701080126008
B1155285142395N00705320EA0100001080124008
K115528000003
B1155325142375N00705450EA0100401080121008
B1155365142354N00705583EA0100301080125008
B1155405142333N00705712EA0103001096111008
B1155445142308N00705812EA0105501128090008
B1155485142262N00705875EA0106401136090008
K115548180006
B1155525142200N00705870EA0106901144097008
B1155565142158N00705795EA0108101152092008
B1156005142158N00705704EA0108101160095008
B1156045142200N00705637EA0108401160096008
B1156085142258N00705629EA0109001168094008
K115608180006
B1156125142308N00705675EA0109601168090008
B1156165142341N00705766EA0109601168096004
B1156205142337N00705875EA0110201176098008
B1156245142300N00705962EA0111801192092004
B1156285142241N00705995EA0112701200094004
K115628294006
B1156325142179N00705975EA0113201208093004
B1156365142129N00705908EA0113701216096004
B1156405142108N00705812EA0114201216095004
B1156445142125N00705716EA0114201216100004
B1156485142170N00705654EA0114501224100008
K115648288004
B1156525142229N00705645EA0114701224098008
B1156565142287N00705695EA0114301216102008
B1157005142325N00705791EA0114501224103008
B1157045142325N00705904EA0115301232102008
B1157085142308N00706016EA0116401240101008
K115708298006
B1157125142258N00706091EA0117101248100008
B1157165142195N00706087EA0116901240106008
B1157205142150N00706004EA0117301248107008
B1157245142162N00705908EA0118701264102008
B1157285142216N00705870EA0119301264102008
K115728280008
B1157325142279N00705920EA0119401272105008
B1157365142300N00706029EA0120101272106004
B1157405142270N00706129EA0121201288104008
B1157445142212N00706179EA0121101280106008
B1157485142145N00706154EA0121801296104008
K115748318006
B1157525142104N00706066EA0122701296105008
B1157565142104N00705962EA0123601312101008
B1158005142145N00705891EA0124301320099008
B1158045142208N00705883EA0124901320102008
B1158085142258N00705954EA0125101328104008
K115808334004
B1158125142266N00706070EA0125101328109008
B1158165142245N00706195EA0125101320116008
B1158205142208N00706312EA0124901320119008
B1158245142170N00706437EA0124301312123008
B1158285142141N00706566EA0123601304126008
K115828180006
B1158325142112N00706700EA0122801304127008
B1158365142087N00706837EA0122301296125008
B1158405142062N00706966EA0122201296123008
B1158445142045N00707095EA0121601288123008
B1158485142025N00707225EA0121601288119008
K115848000001
B1158525142008N00707354EA0120701280120008
B1158565141987N00707487EA0120101272124008
B1159005141966N00707616EA0119801264122008
B1159045141945N00707745EA0119101264121008
B1159085141920N00707870EA0118401256119008
K115908000001
B1159125141891N00708000EA0118401256117008
B1159165141862N00708120EA0117801248116008
B1159205141833N00708250EA0115701240128008
B1159245141800N00708391EA0113701208144008
B1159285141770N00708541EA0112801200151008
K115928000005
B1159325141741N00708695EA0112201192150008
B1159365141712N00708850EA0112201192148008
B1159405141687N00709004EA0111501192152008
B1159445141666N00709162EA0111301184152008
B1159485141641N00709316EA0110801176150008
K115948000007
B1159525141620N00709466EA0110501176146008
B1159565141604N00709612EA0110501176143008
B1200005141587N00709754EA0110501176137012
B1200045141566N00709895EA0110501184130008
B1200085141545N00710033EA0110501176132012
K120008000004
B1200125141520N00710170EA0112001192126012
B1200165141491N00710291EA0115001224109012
B1200205141470N00710391EA0116701240087012
B1200245141450N00710491EA0116001232098008
B1200285141429N00710604EA0115201224105008
K120028180004
B1200325141408N00710725EA0114101216111004
B1200365141383N00710850EA0113101208119008
B1200405141366N00710987EA0112701200125008
B1200445141345N00711120EA0112701200124008
B1200485141329N00711245EA0113301208117004
K120048180000
B1200525141312N00711366EA0113801216111008
B1200565141291N00711483EA0113401208116008
B1201005141270N00711608EA0113101208119008
B1201045141254N00711733EA0113101208117004
B1201085141233N00711854EA0114201216112008
K120108180000
B1201125141216N00711962EA0116701240091008
B1201165141200N00712058EA0117401248087008
B1201205141170N00712162EA0118001256097008
B1201245141116N00712233EA0120101272101008
B1201285141045N00712220EA0121201288097004
K120128180005
