AZAN5CC ZANDER/SDI GP941 V2.11
HFDTE020714
HFFXA050
HFPLT Pilot             :Wilfried Grosskinsky                    
HFGTY Glider type       :Nimbus 4M                               
HFGID Glider ID         :D-KBGY    
HFDTM100 GPS Datum      :WGS84
HFRFW Firmware Version  :11
HFRHW Hardware version  :2
HFFTY FR Type           :ZANDER/SDI GP941
HFGPS                   :Garmin,GPS25,12,30000
HFPRS Press Alt Sensor  :Intersema,MS5534A,10000
HFCCL Competition Class :Offene                                  
HFCID Competition ID    :2I        
I023638IAS3941ENL
J020810WDI1113WVE
LZAN 072422 PowerOn
C160514075348160514000104
C5024333N00631733E DAHLEMER BIN
C5035500N00635966E SCHUETZENHOF
C4923166N00644916E DILLINGEN   
C5122583N00858866E MENGERINGHAU
C5049383N00611183E AACHEN  MERZ
C5035500N00635966E SCHUETZENHOF
C5024333N00631733E DAHLEMER BIN
C5033066N00551216E VERVIERS TEU
B0724265024341N00631758EV0050400000000000
B0724305024341N00631758EV0050400000000000
B0724345024341N00631758EV0050400000000000
B0724385024341N00631758EV0050400000000000
B0724425024341N00631758EV0050400000000000
B0724465024341N00631758EV0050400000000000
B0724505024341N00631758EV0050400000000000
B0724545024341N00631758EV0050400000000000
B0724585024341N00631758EV0050400000000000
B0725025024341N00631758EV0050400000000000
B0725065024341N00631758EV0050400000000000
B0725105024341N00631758EV0050400000000000
B0725145024341N00631758EV0050400000000000
B0725185024341N00631758EV0050400000000000
B0725225024183N00631579EA0050400608000000
B0725265024183N00631579EA0050400600000000
B0725305024183N00631579EA0050400608000000
B0725345024183N00631579EA0050400600000000
B0725385024183N00631575EA0050400600000000
B0725425024183N00631575EA0050400600000000
B0725465024183N00631575EA0050400600000000
B0725505024183N00631575EA0050400600000000
B0725545024183N00631575EA0050400600000000
B0725585024183N00631575EA0050400600000000
B0726025024183N00631575EA0050400600000000
B0726065024183N00631575EA0050400600000000
B0726105024183N00631575EA0050400600000000
B0726145024183N00631575EA0050400600000000
B0726185024183N00631575EA0050400600000000
B0726225024183N00631575EA0050400600000000
B0726265024183N00631575EA0050400600000000
B0726305024183N00631575EA0050400600000000
B0726345024183N00631575EA0050400600000000
B0726385024183N00631575EA0050400600000000
B0726425024183N00631575EA0050400600000000
B0726465024183N00631575EA0050400600000000
B0726505024183N00631575EA0050400600002000
B0726545024183N00631575EA0050400600003000
B0726585024183N00631575EA0050400600000000
B0727025024183N00631575EA0050400592000000
B0727065024183N00631575EA0050400592000000
B0727105024183N00631575EA0050400592000008
B0727145024183N00631575EA0050400592000004
B0727185024183N00631575EA0050500592000008
B0727225024183N00631575EA0050500592000008
B0727265024183N00631575EA0050500592000008
B0727305024183N00631575EA0050500592000008
B0727345024183N00631575EA0050500592000008
B0727385024183N00631570EA0050500592000008
B0727425024183N00631570EA0050500592000008
B0727465024183N00631570EA0050500592000008
B0727505024183N00631570EA0050500592000008
B0727545024183N00631570EA0050500592000008
B0727585024183N00631570EA0050500592000008
B0728025024183N00631570EA0050500592000008
B0728065024183N00631570EA0050500592000008
B0728105024183N00631570EA0050500592000008
B0728145024183N00631570EA0050500592000008
B0728185024183N00631570EA0050500592000008
B0728225024183N00631570EA0050500592000008
B0728265024183N00631570EA0050500592000008
B0728305024183N00631570EA0050500592000008
B0728345024183N00631570EA0050500592000008
B0728385024183N00631570EA0050500592000008
B0728425024183N00631570EA0050500592000008
B0728465024187N00631570EA0050500592000008
B0728505024187N00631570EA0050500592000008
B0728545024187N00631570EA0050500592005004
B0728585024187N00631570EA0050500592001008
B0729025024187N00631570EA0050500592004004
B0729065024183N00631570EA0050500592002004
B0729105024183N00631570EA0050500592003004
B0729145024183N00631570EA0050500592002004
B0729185024183N00631570EA0050500592000004
B0729225024183N00631570EA0050500592000004
B0729265024183N00631570EA0050500592000004
B0729305024183N00631570EA0050500592000004
B0729345024183N00631570EA0050500592000004
B0729385024183N00631575EA0050500592000004
B0729425024183N00631575EA0050500600000004
B0729465024183N00631575EA0050500600000004
B0729505024183N00631575EA0050500600000004
B0729545024183N00631575EA0050500600000004
B0729585024183N00631575EA0050500600000004
B0730025024183N00631575EA0050500600000004
B0730065024183N00631575EA0050500600000004
B0730105024183N00631575EA0050500600000004
B0730145024183N00631575EA0050500600000004
B0730185024183N00631575EA0050500600000004
B0730225024183N00631575EA0050500600000004
B0730265024183N00631570EA0050500600000004
B0730305024187N00631570EA0050500600000004
B0730345024187N00631570EA0050500600000004
B0730385024187N00631570EA0050500600000004
B0730425024187N00631570EA0050500592000004
B0730465024187N00631570EA0050500592001004
B0730505024187N00631570EA0050500592000004
B0730545024187N00631570EA0050500592000004
B0730585024187N00631570EA0050500592000004
B0731025024187N00631570EA0050500592000004
B0731065024187N00631570EA0050500592000004
B0731105024187N00631570EA0050500592000004
B0731145024187N00631570EA0050500592001004
B0731185024187N00631570EA0050500592001004
B0731225024187N00631570EA0050500592000004
B0731265024187N00631570EA0050500592000004
B0731305024187N00631570EA0050500592000004
B0731345024187N00631570EA0050500592000004
B0731385024187N00631570EA0050500592000004
B0731425024187N00631570EA0050500592000004
B0731465024187N00631570EA0050500592000004
B0731505024187N00631570EA0050500592000004
B0731545024187N00631570EA0050500592000004
B0731585024187N00631570EA0050500592000004
B0732025024187N00631570EA0050500592002004
B0732065024187N00631570EA0050500592002004
B0732105024187N00631570EA0050500592000004
B0732145024187N00631575EA0050500592000004
B0732185024187N00631575EA0050500592000004
B0732225024187N00631575EA0050500600000004
B0732265024187N00631575EA0050500600000004
B0732305024183N00631575EA0050500600000004
B0732345024183N00631575EA0050500600000004
B0732385024187N00631575EA0050500592000004
B0732425024187N00631575EA0050500592000004
B0732465024187N00631570EA0050500592000004
B0732505024187N00631570EA0050500592000004
B0732545024187N00631570EA0050500592000004
B0732585024187N00631570EA0050500592000004
B0733025024187N00631570EA0050500592000004
B0733065024187N00631570EA0050500592000004
B0733105024187N00631570EA0050500592000004
B0733145024187N00631570EA0050500592000004
B0733185024187N00631570EA0050500592002004
B0733225024187N00631570EA0050500592004004
B0733265024187N00631570EA0050500592002004
B0733305024187N00631570EA0050500592002004
B0733345024187N00631570EA0050500592001004
B0733385024187N00631570EA0050500592000004
B0733425024187N00631570EA0050500592000004
B0733465024187N00631570EA0050500592000004
B0733505024187N00631570EA0050500592000004
B0733545024187N00631570EA0050500592000004
B0733585024187N00631570EA0050500592000004
B0734025024187N00631570EA0050500592000004
B0734065024187N00631570EA0050500592000004
B0734105024187N00631570EA0050500592000004
B0734145024187N00631570EA0050500592000004
B0734185024187N00631570EA0050500592000004
B0734225024187N00631570EA0050500592000004
B0734265024187N00631570EA0050500592000004
B0734305024187N00631571EA0050500592005004
B0734345024187N00631570EA0050500592004004
B0734385024187N00631570EA0050500592000004
B0734425024187N00631570EA0050500592003004
B0734465024187N00631570EA0050500592001004
B0734505024187N00631570EA0050500592004004
B0734545024187N00631570EA0050500592002004
B0734585024187N00631570EA0050500592003004
B0735025024187N00631570EA0050500592000004
B0735065024187N00631570EA0050500592000004
B0735105024187N00631570EA0050500592000004
B0735145024187N00631570EA0050500592000004
B0735185024187N00631570EA0050500592000004
B0735225024187N00631570EA0050500592000004
B0735265024187N00631570EA0050500592000004
B0735305024187N00631570EA0050500592000004
B0735345024187N00631570EA0050500592000004
B0735385024187N00631570EA0050500592000004
B0735425024187N00631570EA0050500592000004
B0735465024187N00631570EA0050500592000004
B0735505024187N00631570EA0050500592000004
B0735545024187N00631570EA0050500592000004
B0735585024187N00631570EA0050500592000004
B0736025024191N00631570EA0050500592001004
B0736065024191N00631570EA0050500592000004
B0736105024191N00631570EA0050500592000004
B0736145024191N00631570EA0050500592002004
B0736185024191N00631570EA0050500592000004
B0736225024191N00631570EA0050500592001004
B0736265024191N00631570EA0050500600005004
B0736305024191N00631570EA0050500600000004
B0736345024191N00631570EA0050500600002004
B0736385024191N00631570EA0050500600002004
B0736425024191N00631570EA0050500600000004
B0736465024191N00631570EA0050500600000004
B0736505024191N00631570EA0050500600000004
B0736545024191N00631570EA0050500600000004
B0736585024191N00631570EA0050500600000004
B0737025024191N00631570EA0050500600000004
B0737065024191N00631570EA0050500592000004
B0737105024191N00631570EA0050500592000004
B0737145024191N00631570EA0050500592000004
B0737185024191N00631570EA0050500592000004
B0737225024191N00631570EA0050500592000004
B0737265024191N00631570EA0050500592000004
B0737305024191N00631570EA0050500592000004
B0737345024191N00631570EA0050500592000004
B0737385024191N00631570EA0050500592000004
B0737425024191N00631566EA0050500592000004
B0737465024195N00631566EA0050500592000004
B0737505024195N00631566EA0050500592000004
B0737545024195N00631566EA0050500592000004
B0737585024195N00631566EA0050500592000004
B0738025024195N00631566EA0050500592000004
B0738065024195N00631566EA0050500592000004
B0738105024191N00631570EA0050500592000004
B0738145024195N00631566EA0050500592000004
B0738185024195N00631566EA0050500592000004
B0738225024191N00631566EA0050500592000004
B0738265024191N00631570EA0050500592000004
B0738305024191N00631570EA0050500592000004
B0738345024191N00631570EA0050500592000004
B0738385024195N00631566EA0050500592000004
B0738425024195N00631566EA0050500592000004
B0738465024200N00631566EA0050500592000004
B0738505024200N00631570EA0050500592000004
B0738545024204N00631570EA0050500592000028
B0738585024204N00631575EA0050500592000016
B0739025024208N00631579EA0050500592000004
B0739065024208N00631583EA0050500592000016
B0739105024212N00631587EA0050500592000012
B0739145024212N00631591EA0050500592000008
B0739185024220N00631591EA0050500584000028
B0739225024225N00631591EA0050500584000020
B0739265024229N00631587EA0050500584000040
B0739305024229N00631583EA0050400584000032
B0739345024233N00631579EA0050400584002020
B0739385024233N00631570EA0050400584000032
B0739425024229N00631558EA0050400584000040
B0739465024225N00631550EA0050400584000032
B0739505024225N00631545EA0050400584002044
B0739545024225N00631545EA0050400584000040
B0739585024220N00631541EA0050400584003000
B0740025024216N00631525EA0050400584000024
B0740065024208N00631512EA0050400584000108
B0740105024204N00631495EA0050400584000056
B0740145024195N00631483EA0050400584000100
B0740185024195N00631475EA0050400584000104
B0740225024191N00631470EA0050400584000060
B0740265024191N00631470EA0050400584003080
B0740305024191N00631466EA0050400584001000
B0740345024187N00631454EA0050300584000032
B0740385024183N00631450EA0050300584000060
B0740425024179N00631441EA0050300584000032
B0740465024179N00631433EA0050300584000060
B0740505024175N00631425EA0050300584000060
B0740545024170N00631416EA0050300584000048
B0740585024166N00631408EA0050300584000056
B0741025024166N00631400EA0050300584000052
B0741065024162N00631391EA0050300584000048
B0741105024162N00631383EA0050200584000040
B0741145024166N00631375EA0050200584000048
B0741185024170N00631370EA0050200584000040
B0741225024175N00631366EA0050200584000040
B0741265024179N00631362EA0050200584000044
B0741305024183N00631358EA0050200584000040
B0741345024183N00631350EA0050100584000036
B0741385024183N00631341EA0050100584002040
B0741425024179N00631333EA0050100584000044
B0741465024175N00631329EA0050100584000040
B0741505024170N00631320EA0050100584000016
B0741545024170N00631320EA0050100584008032
B0741585024170N00631320EA0050100584006012
B0742025024170N00631320EA0050000584011016
B0742065024170N00631320EA0050000584011008
B0742105024170N00631320EA0050000584010008
B0742145024170N00631320EA0050000584008008
B0742185024170N00631320EA0050000584006008
B0742225024170N00631320EA0050000584003008
B0742265024170N00631320EA0050000584000008
B0742305024170N00631320EA0050000584003008
B0742345024170N00631320EA0050000584003008
B0742385024170N00631320EA0050000584004008
B0742425024170N00631320EA0050000584003008
B0742465024170N00631320EA0050000584001008
B0742505024170N00631320EA0050000584000008
B0742545024170N00631320EA0050000584003008
B0742585024175N00631320EA0050000584002008
B0743025024175N00631320EA0050000584005008
B0743065024175N00631325EA0050000584002008
B0743105024175N00631325EA0050000584004004
B0743145024175N00631325EA0050000584008008
B0743185024175N00631325EA0050000584011004
B0743225024175N00631325EA0050000584008004
B0743265024175N00631325EA0050000584006008
B0743305024175N00631325EA0050000584004008
B0743345024170N00631325EA0050000584000004
B0743385024175N00631325EA0050000584001008
B0743425024175N00631325EA0050000584003004
B0743465024175N00631325EA0050000584004004
B0743505024175N00631325EA0050000584004004
B0743545024175N00631325EA0050000584008004
B0743585024175N00631325EA0050000584008008
B0744025024175N00631325EA0050000584007008
B0744065024175N00631325EA0050000584006008
B0744105024175N00631325EA0050000584009008
B0744145024175N00631325EA0050000584009008
B0744185024175N00631325EA0050000584008008
B0744225024175N00631325EA0050000584007008
B0744265024175N00631325EA0050100584007008
B0744305024175N00631325EA0050100584009008
B0744345024175N00631325EA0050100584009008
B0744385024175N00631325EA0050100584008008
B0744425024175N00631320EA0050100584009008
B0744465024175N00631320EA0050100584008008
B0744505024175N00631320EA0050100584009008
B0744545024175N00631325EA0050100584008008
B0744585024175N00631325EA0050100584005008
B0745025024175N00631325EA0050100584001008
B0745065024170N00631325EA0050100584001008
B0745105024170N00631325EA0050100584005008
B0745145024170N00631325EA0050100584006008
B0745185024170N00631325EA0050100584007008
B0745225024170N00631325EA0050100584006008
B0745265024170N00631325EA0050100584004008
B0745305024170N00631325EA0050100584006008
B0745345024170N00631325EA0050100584006008
B0745385024170N00631325EA0050100584007008
B0745425024170N00631325EA0050100584007008
B0745465024170N00631325EA0050100584007008
B0745505024170N00631325EA0050100584005008
B0745545024170N00631325EA0050100584005008
B0745585024170N00631325EA0050100584000008
B0746025024170N00631325EA0050200584002008
B0746065024170N00631325EA0050200584004008
B0746105024170N00631325EA0050200584005008
B0746145024170N00631325EA0050200584003008
B0746185024170N00631325EA0050100584003008
B0746225024170N00631325EA0050100584002008
B0746265024170N00631325EA0050100584001008
B0746305024170N00631325EA0050100584000008
B0746345024170N00631325EA0050100584000008
B0746385024170N00631325EA0050100584001008
B0746425024170N00631325EA0050100584003008
B0746465024170N00631325EA0050100584005008
B0746505024170N00631325EA0050100584007008
B0746545024170N00631325EA0050100584008004
B0746585024170N00631325EA0050000584009008
B0747025024170N00631325EA0050000584011004
B0747065024170N00631325EA0050100584014004
B0747105024170N00631325EA0050100584013004
B0747145024170N00631325EA0050100584010004
B0747185024170N00631325EA0050100584010008
B0747225024170N00631320EA0050100584006008
B0747265024170N00631320EA0050100584007012
B0747305024170N00631320EA0050100584009008
B0747345024170N00631320EA0050100584009008
B0747385024170N00631320EA0050100584017008
B0747425024170N00631320EA0050100584009156
B0747465024170N00631320EA0050100584016652
B0747505024170N00631320EA0050100584006999
B0747545024170N00631320EA0050100584016999
B0747585024170N00631320EA0050100584024999
B0748025024170N00631320EA0050100584022999
B0748065024170N00631320EA0050100584019999
B0748105024170N00631320EA0050100584028999
B0748145024170N00631325EA0050100584033999
B0748185024175N00631329EA0050100584044999
B0748225024183N00631350EA0050100584050999
B0748265024191N00631375EA0050100584108999
B0748305024208N00631416EA0050000584121999
B0748345024225N00631462EA0050000584120999
B0748385024245N00631516EA0050000584115999
K074838000060
B0748425024270N00631579EA0050000584106999
B0748465024300N00631645EA0050000584103999
B0748505024329N00631720EA0050400592116999
B0748545024358N00631791EA0051300592117999
B0748585024391N00631866EA0051800600111999
K074858000032
B0749025024425N00631937EA0053000608122999
B0749065024458N00632008EA0053800616118999
B0749105024491N00632070EA0054400624110999
B0749145024537N00632112EA0055600640117999
B0749185024587N00632120EA0056100640109999
K074918000030
B0749225024641N00632104EA0056100648107999
B0749265024691N00632054EA0057000648118999
B0749305024725N00631983EA0058600664103999
B0749345024741N00631895EA0059500680111999
B0749385024745N00631800EA0059700680110999
K074938000030
B0749425024733N00631700EA0059900680112999
B0749465024720N00631595EA0060000688112999
B0749505024704N00631495EA0060900688112999
B0749545024687N00631395EA0061100696108999
B0749585024666N00631295EA0062200704112999
K074958000006
B0750025024650N00631195EA0063400712116999
B0750065024629N00631091EA0064400728117999
B0750105024608N00630987EA0065700736116999
B0750145024591N00630883EA0065900744115999
B0750185024575N00630783EA0066200744112999
K075018000005
B0750225024554N00630679EA0066500744116999
B0750265024537N00630579EA0066800752111999
B0750305024516N00630475EA0067200752112999
B0750345024495N00630375EA0068100760116999
B0750385024470N00630275EA0068600768107999
K075038000005
B0750425024450N00630175EA0069700776116999
B0750465024429N00630079EA0070400784112999
B0750505024408N00629979EA0071500800119999
B0750545024383N00629879EA0072500800112999
B0750585024362N00629775EA0073000808114999
K075058000006
B0751025024337N00629670EA0074400824110999
B0751065024312N00629566EA0075300832110999
B0751105024287N00629470EA0077500856114999
B0751145024262N00629370EA0079300872113999
B0751185024245N00629275EA0081300896112999
K075118000007
B0751225024225N00629179EA0082700912113999
B0751265024204N00629079EA0083800920113999
B0751305024183N00628979EA0084000920112999
B0751345024162N00628879EA0084100928115999
B0751385024141N00628783EA0084600928116999
K075138000008
B0751425024116N00628687EA0085400936123999
B0751465024095N00628595EA0085400936131999
B0751505024070N00628495EA0085400936123999
B0751545024050N00628400EA0086000936125999
B0751585024029N00628304EA0086300944104999
K075158000016
B0752025024008N00628200EA0086800952105999
B0752065023991N00628100EA0087800960111999
B0752105023966N00628004EA0089100976104999
B0752145023941N00627904EA0090600992103999
B0752185023920N00627800EA0091801000123999
K075218000005
B0752225023904N00627691EA0092501008109999
B0752265023887N00627587EA0094501024110999
B0752305023875N00627491EA0095601040113999
B0752345023858N00627391EA0096001040104999
B0752385023837N00627287EA0097201048110999
K075238000003
B0752425023804N00627187EA0098801064113999
B0752465023770N00627087EA0099501072119999
B0752505023737N00626987EA0099701080115999
B0752545023700N00626883EA0101001088124999
B0752585023666N00626783EA0101401096117999
K075258000001
B0753025023633N00626679EA0101501096115999
B0753065023600N00626579EA0102101104117999
B0753105023566N00626483EA0102701112120999
B0753145023537N00626383EA0103201112114999
B0753185023504N00626283EA0103501112111999
K075318000003
B0753225023470N00626179EA0103501120114999
B0753265023437N00626075EA0104101120115999
B0753305023404N00625970EA0105101128118999
B0753345023366N00625862EA0106501144115999
B0753385023329N00625754EA0108001160120999
K075338180004
B0753425023295N00625645EA0109701176120999
B0753465023258N00625541EA0110101184117999
B0753505023220N00625429EA0110501184120999
B0753545023183N00625325EA0111101192118999
B0753585023150N00625220EA0112001200118999
K075358180003
B0754025023116N00625116EA0112601208118999
B0754065023083N00625016EA0113001208118999
B0754105023050N00624908EA0112901208119999
B0754145023016N00624804EA0113001208118999
B0754185022983N00624700EA0113501216114999
K075418180000
B0754225022950N00624595EA0114001216115999
B0754265022920N00624487EA0114301224114999
B0754305022887N00624379EA0114601224115999
B0754345022858N00624275EA0115501232115999
B0754385022825N00624166EA0116701248118999
K075438180002
B0754425022787N00624066EA0117601256123999
B0754465022754N00623966EA0118201264116999
B0754505022716N00623870EA0119901280120999
B0754545022679N00623770EA0120601288115999
B0754585022645N00623675EA0121501296114999
K075458000002
B0755025022612N00623575EA0122701304118999
B0755065022575N00623475EA0123501320117999
B0755105022537N00623379EA0123801320117999
B0755145022504N00623283EA0124201328107999
B0755185022470N00623179EA0125301336109999
K075518180000
B0755225022441N00623075EA0126101344112999
B0755265022404N00622975EA0127001352117999
B0755305022370N00622870EA0127501360114999
B0755345022333N00622770EA0128901368118999
B0755385022300N00622666EA0130101384115999
K075538000001
B0755425022270N00622562EA0130501384113999
B0755465022237N00622458EA0130501384110999
B0755505022208N00622354EA0130801392113999
B0755545022175N00622245EA0130801392112999
B0755585022145N00622141EA0131101392119999
K075558180001
B0756025022112N00622029EA0131301392117999
B0756065022079N00621920EA0131601400114999
B0756105022045N00621812EA0132201408116999
B0756145022012N00621708EA0133201416117999
B0756185021979N00621604EA0133801416114999
K075618180001
B0756225021945N00621504EA0134001424116999
B0756265021908N00621400EA0134201424117999
B0756305021870N00621300EA0134801432116999
B0756345021829N00621204EA0135201432120999
B0756385021787N00621108EA0135901440112999
K075638180001
B0756425021745N00621012EA0136901448119999
B0756465021704N00620908EA0137501456113999
B0756505021666N00620804EA0137901464117999
B0756545021625N00620695EA0137901464116999
B0756585021587N00620583EA0138501464116999
K075658180005
B0757025021550N00620470EA0139001472115999
B0757065021512N00620366EA0139801480116999
B0757105021475N00620262EA0140301488112999
B0757145021437N00620158EA0141001488109999
B0757185021395N00620058EA0142301504117999
K075718180004
B0757225021362N00619958EA0143101512111999
B0757265021329N00619854EA0143801520118999
B0757305021295N00619750EA0143601520111999
B0757345021258N00619637EA0143801520094999
B0757385021220N00619529EA0144101528070999
K075738180023
B0757425021191N00619429EA0144701528076860
B0757465021158N00619333EA0145001536066704
B0757505021129N00619237EA0145001528073676
B0757545021095N00619145EA0144701528064644
B0757585021066N00619054EA0144101520064644
K075758180038
B0758025021033N00618966EA0143901520065648
B0758065021008N00618883EA0143501520068460
B0758105020983N00618791EA0141601496070180
B0758145020958N00618691EA0141201496063040
B0758185020933N00618595EA0141201488059112
K075818180042
B0758225020895N00618508EA0140801488071028
B0758265020845N00618445EA0140701488091032
B0758305020791N00618425EA0139901480081020
B0758345020737N00618445EA0138901472091024
B0758385020700N00618516EA0138201464090016
K075838180041
B0758425020695N00618600EA0137901464092016
B0758465020716N00618683EA0137601456097000
B0758505020750N00618762EA0136501448100008
B0758545020787N00618850EA0135501440114008
B0758585020829N00618945EA0135001432119004
K075858180041
B0759025020870N00619041EA0135001432119004
B0759065020908N00619137EA0135301440114008
B0759105020950N00619229EA0136001440114004
B0759145020987N00619325EA0136401448116004
B0759185021025N00619425EA0137001448117004
K075918000003
B0759225021058N00619520EA0137301456115004
B0759265021095N00619616EA0137001448114012
B0759305021129N00619712EA0137001448116008
B0759345021162N00619812EA0136601448113008
B0759385021195N00619920EA0136601448118008
K075938000004
B0759425021225N00620029EA0136601448120004
B0759465021254N00620141EA0135801440128008
B0759505021291N00620254EA0134501424134004
B0759545021337N00620370EA0133001416143004
B0759585021387N00620495EA0131301392151004
K075958000007
B0800025021441N00620625EA0130301384154004
B0800065021491N00620754EA0130401384157004
B0800105021545N00620891EA0130801392157004
B0800145021591N00621025EA0130801384156008
B0800185021641N00621162EA0130201384157008
K080018000002
B0800225021695N00621291EA0129901376151012
B0800265021745N00621420EA0129701376155008
B0800305021800N00621550EA0129401376153008
B0800345021850N00621675EA0128001368150008
B0800385021904N00621800EA0127401360154008
K080038000001
B0800425021958N00621925EA0126201344152008
B0800465022012N00622050EA0126201344157008
B0800505022062N00622175EA0126401344154008
B0800545022112N00622304EA0126701344152008
B0800585022158N00622433EA0126701352147008
K080058000003
B0801025022204N00622566EA0127401352151008
B0801065022245N00622695EA0129301376143008
B0801105022283N00622816EA0130101384134008
B0801145022316N00622933EA0129701376131008
B0801185022354N00623058EA0127501360143008
K080118000003
B0801225022391N00623195EA0126201344150008
B0801265022429N00623341EA0124601328163008
B0801305022475N00623495EA0124301328164008
B0801345022520N00623641EA0124601328160008
B0801385022566N00623791EA0124701328160008
K080138180001
B0801425022608N00623933EA0125501336156012
B0801465022654N00624075EA0125801344154008
B0801505022695N00624216EA0125801344156012
B0801545022737N00624354EA0126001344154012
B0801585022783N00624491EA0125101336152012
K080158180001
B0802025022825N00624629EA0124801328154012
B0802065022875N00624766EA0124801328154008
B0802105022925N00624900EA0125001336151008
B0802145022970N00625037EA0125201336152008
B0802185023020N00625170EA0125501336152008
K080218180003
B0802225023062N00625304EA0127101352146008
B0802265023095N00625429EA0127901368138008
B0802305023133N00625554EA0127101360139012
B0802345023170N00625683EA0125701344148008
B0802385023208N00625820EA0124501328154008
K080238000004
B0802425023245N00625962EA0124201328157008
B0802465023287N00626108EA0123601320161008
B0802505023329N00626254EA0123201312161008
B0802545023366N00626404EA0122701312158008
B0802585023412N00626550EA0122101304157008
K080258180000
B0803025023458N00626691EA0122301304153008
B0803065023508N00626829EA0121801296160008
B0803105023558N00626975EA0121601296162008
B0803145023608N00627116EA0121601296160008
B0803185023654N00627258EA0122301304155008
K080318180003
B0803225023700N00627391EA0122401304149008
B0803265023745N00627525EA0121801296152008
B0803305023791N00627658EA0120901288155008
B0803345023837N00627795EA0120301280159008
B0803385023879N00627933EA0120501288153008
K080338000001
B0803425023916N00628062EA0121801304149008
B0803465023954N00628179EA0124401328132008
B0803505023983N00628279EA0126701352111008
B0803545024012N00628370EA0127701368100008
B0803585024037N00628458EA0128501368102008
K080358000002
B0804025024070N00628541EA0129901376104008
B0804065024095N00628625EA0130201384102004
B0804105024129N00628712EA0130701392101008
B0804145024170N00628791EA0131201400107004
B0804185024212N00628870EA0130601392110004
K080418000005
B0804225024262N00628962EA0129701384128004
B0804265024316N00629058EA0130401392134004
B0804305024370N00629145EA0132701408126004
B0804345024416N00629237EA0133101416125004
B0804385024466N00629337EA0131701408133004
K080438000008
B0804425024516N00629445EA0130501392142004
B0804465024570N00629558EA0130301384141004
B0804505024620N00629675EA0130701392141004
B0804545024670N00629800EA0130001384148008
B0804585024720N00629925EA0130101384154008
K080458000004
B0805025024775N00630050EA0130701392151008
B0805065024825N00630175EA0130201384152008
B0805105024875N00630300EA0129501384153012
B0805145024929N00630429EA0128801376153008
B0805185024979N00630566EA0128401368158008
K080518000002
B0805225025029N00630708EA0128801376159008
B0805265025075N00630850EA0128301376156008
B0805305025116N00631000EA0127901368157008
B0805345025154N00631150EA0127401360164012
B0805385025204N00631287EA0128501368156008
K080538180001
B0805425025254N00631412EA0129501384147008
B0805465025304N00631529EA0129101376145008
B0805505025350N00631654EA0128001368150012
B0805545025404N00631783EA0127301360152008
B0805585025462N00631908EA0126801352151008
K080558000002
B0806025025525N00632020EA0127101360150008
B0806065025591N00632137EA0127101360152008
B0806105025650N00632262EA0127401360148008
B0806145025691N00632387EA0129901384142008
B0806185025712N00632500EA0134601432112008
K080618180004
B0806225025720N00632600EA0134001424112008
B0806265025729N00632716EA0131301400129008
B0806305025737N00632850EA0129701384138004
B0806345025745N00633000EA0128501376149008
B0806385025737N00633158EA0128501368152004
K080638000002
B0806425025708N00633304EA0128301376146004
B0806465025666N00633445EA0127101360154008
B0806505025616N00633587EA0126501352156008
B0806545025562N00633729EA0125301344159008
B0806585025508N00633870EA0124701336158008
K080658180005
B0807025025450N00634012EA0124101328160008
B0807065025395N00634158EA0123301320164008
B0807105025345N00634308EA0123101312165008
B0807145025295N00634458EA0122701312164008
B0807185025254N00634604EA0122401304162008
K080718180005
B0807225025208N00634754EA0121901304163008
B0807265025166N00634908EA0121501296164008
B0807305025125N00635058EA0120701288162008
B0807345025087N00635212EA0120301288165008
B0807385025050N00635366EA0119801280163008
K080738180003
B0807425025016N00635520EA0119801280159008
B0807465024991N00635666EA0120201288153008
B0807505024966N00635820EA0120301288155008
B0807545024950N00635970EA0121101296146008
B0807585024937N00636112EA0121501304140008
K080758180004
B0808025024929N00636250EA0121001296140008
B0808065024920N00636395EA0120301288150012
B0808105024916N00636541EA0119801280154008
B0808145024912N00636691EA0119201272156008
B0808185024916N00636841EA0119401280151008
K080818000003
B0808225024916N00636991EA0119601280151008
B0808265024920N00637141EA0121701296146008
B0808305024920N00637287EA0123201312144008
B0808345024925N00637420EA0123501320135008
B0808385024929N00637554EA0122401304137008
K080838180000
B0808425024933N00637700EA0120401288148008
B0808465024941N00637854EA0118001264159008
B0808505024950N00638020EA0116401248163008
B0808545024958N00638191EA0115401240169004
B0808585024970N00638362EA0114901232169008
K080858180002
B0809025024979N00638529EA0114801224166008
B0809065024987N00638695EA0114401224163008
B0809105024995N00638854EA0114201224160008
B0809145025004N00639016EA0114001216157008
B0809185025012N00639175EA0113101208156008
K080918180003
B0809225025016N00639333EA0112401208159008
B0809265025025N00639495EA0111701200159008
B0809305025033N00639650EA0110901192157008
B0809345025045N00639808EA0110801192156008
B0809385025054N00639958EA0112501200150008
K080938180003
B0809425025062N00640087EA0115001224136008
B0809465025070N00640208EA0116101240123008
B0809505025083N00640325EA0115601240123008
B0809545025095N00640454EA0114501224130008
B0809585025108N00640587EA0113601216137008
K080958000001
B0810025025125N00640720EA0112801208140008
B0810065025141N00640858EA0112101200140008
B0810105025162N00640995EA0111601200142008
B0810145025183N00641133EA0111101192142008
B0810185025208N00641266EA0110901192142008
K081018180000
B0810225025225N00641404EA0110801192142008
B0810265025250N00641537EA0110301184140008
B0810305025270N00641670EA0110201184139008
B0810345025295N00641800EA0109901184134008
B0810385025312N00641929EA0109701176131004
K081038180001
B0810425025329N00642058EA0109801176131008
B0810465025350N00642187EA0109101176133004
B0810505025375N00642312EA0108901168134004
B0810545025404N00642429EA0108501168133004
B0810585025437N00642545EA0108401168132004
K081058000002
B0811025025466N00642658EA0108901176122004
B0811065025500N00642770EA0108901176127004
B0811105025533N00642875EA0110101184123008
B0811145025570N00642979EA0111801200115008
B0811185025604N00643070EA0112201208107008
K081118000001
B0811225025637N00643170EA0111501200121008
B0811265025675N00643275EA0111601200122004
B0811305025708N00643379EA0111801208124008
B0811345025745N00643483EA0112901216122004
B0811385025779N00643583EA0113801224118004
K081138000003
B0811425025816N00643683EA0114001224115008
B0811465025854N00643783EA0113901224118008
B0811505025887N00643887EA0113301224118008
B0811545025920N00643995EA0112101208126008
B0811585025958N00644108EA0112101208129004
K081158000003
B0812025025995N00644216EA0113501224118008
B0812065026029N00644320EA0114301224121004
B0812105026050N00644425EA0117301256104004
B0812145026020N00644504EA0119001272088008
B0812185025958N00644516EA0118201264095008
K081218180002
B0812225025908N00644437EA0117601264101004
B0812265025916N00644337EA0118101272096008
B0812305025966N00644287EA0118601272092008
B0812345026020N00644304EA0119001280096008
B0812385026070N00644362EA0119001272106008
K081238180002
B0812425026108N00644450EA0117301264115008
B0812465026141N00644558EA0115401240128004
B0812505026179N00644675EA0113901224137008
B0812545026216N00644795EA0113501224136004
B0812585026254N00644920EA0113801224141004
K081258180002
B0813025026300N00645045EA0114401232136008
B0813065026341N00645166EA0114801232133008
B0813105026379N00645287EA0115001240134008
B0813145026420N00645408EA0115201240131008
B0813185026458N00645525EA0116001248129008
K081318180002
B0813225026495N00645637EA0117301256123008
B0813265026541N00645733EA0119101280120008
B0813305026600N00645783EA0122001296101008
B0813345026645N00645741EA0123001320084008
B0813385026654N00645641EA0121501304099008
K081338180003
B0813425026608N00645550EA0122301312103004
B0813465026545N00645545EA0123501328097008
B0813505026500N00645616EA0123901336101004
B0813545026512N00645712EA0124701336105004
B0813585026566N00645729EA0126101352094004
K081358056008
B0814025026600N00645650EA0125101344097004
B0814065026579N00645537EA0125501344106004
B0814105026520N00645491EA0128101368092004
B0814145026470N00645529EA0128801384088008
B0814185026462N00645620EA0127801368107008
K081418056010
B0814225026512N00645683EA0129501384101004
B0814265026562N00645645EA0131001400089008
B0814305026570N00645541EA0130001392098008
B0814345026525N00645454EA0131201392103008
B0814385026466N00645462EA0132701416093008
K081438070008
B0814425026445N00645545EA0132001416104008
B0814465026495N00645616EA0131801408121012
B0814505026558N00645570EA0134101432105008
B0814545026566N00645462EA0134701440099012
B0814585026516N00645391EA0135001448106012
K081458080013
B0815025026458N00645433EA0136501456103008
B0815065026470N00645529EA0136501456108008
B0815105026537N00645512EA0135201448123008
B0815145026537N00645379EA0136601456124008
B0815185026466N00645362EA0138601480111004
K081518042011
B0815225026462N00645466EA0136501456128008
B0815265026545N00645458EA0137501464132008
B0815305026545N00645333EA0141001488115008
B0815345026475N00645308EA0141101504116008
B0815385026445N00645412EA0142201504112008
K081538082013
B0815425026491N00645483EA0145801552091008
B0815465026545N00645454EA0146201560093008
B0815505026566N00645350EA0145501544109008
B0815545026529N00645254EA0146601552100008
B0815585026466N00645241EA0148401576084004
K081558066004
B0816025026429N00645312EA0147101576100008
B0816065026458N00645420EA0146201552125008
B0816105026520N00645479EA0150401592110008
B0816145026575N00645483EA0152901616082008
B0816185026629N00645454EA0152001608088008
K081618074010
B0816225026691N00645429EA0150001592092004
B0816265026762N00645445EA0147801576103008
B0816305026825N00645520EA0145901552127008
B0816345026879N00645612EA0146001544121008
B0816385026920N00645712EA0147001560114008
K081638180003
B0816425026954N00645820EA0147001552122008
B0816465026979N00645937EA0146401552127004
B0816505026987N00646066EA0145701544132008
B0816545027000N00646195EA0145101536135008
B0816585027016N00646320EA0145501544125008
K081658000003
B0817025027020N00646445EA0143301528125008
B0817065027029N00646583EA0141901504135008
B0817105027033N00646725EA0141701504140008
B0817145027037N00646862EA0141701504135008
B0817185027050N00646995EA0141301496129008
K081718180002
B0817225027079N00647120EA0140201488132008
B0817265027120N00647245EA0139201480136004
B0817305027170N00647362EA0137901464142008
B0817345027220N00647487EA0136301448148008
B0817385027279N00647612EA0135201440151008
K081738180000
B0817425027337N00647741EA0134901432153004
B0817465027395N00647866EA0133701424156008
B0817505027458N00647995EA0132301408161008
B0817545027525N00648125EA0130801392167008
B0817585027591N00648254EA0130001384167008
K081758000001
B0818025027658N00648387EA0129301376166008
B0818065027720N00648516EA0129101376165008
B0818105027783N00648641EA0128501368161008
B0818145027845N00648762EA0128301368159008
B0818185027912N00648879EA0127801360158008
K081818000002
B0818225027975N00649000EA0127101352160008
B0818265028037N00649116EA0126701344155008
B0818305028100N00649237EA0126101344154008
B0818345028162N00649358EA0124801336156008
B0818385028229N00649475EA0124101320157008
K081838000001
B0818425028300N00649583EA0123601312159008
B0818465028375N00649683EA0124401320151008
B0818505028445N00649754EA0127001352140008
B0818545028512N00649820EA0129101376126008
B0818585028554N00649908EA0129101376119008
K081858000002
B0819025028591N00650012EA0127501360126008
B0819065028625N00650129EA0126101344134008
B0819105028658N00650258EA0124601336140004
B0819145028691N00650391EA0123901320145008
B0819185028725N00650533EA0123101312149004
K081918000004
B0819225028754N00650670EA0122701304150004
B0819265028783N00650812EA0121901304149004
B0819305028812N00650954EA0121601296147004
B0819345028841N00651095EA0121201288147008
B0819385028870N00651237EA0120701288147008
K081938180000
B0819425028895N00651379EA0120401288146008
B0819465028920N00651520EA0120101280145008
B0819505028950N00651658EA0120001280145004
B0819545028975N00651795EA0119501272144008
B0819585029004N00651933EA0118901272142008
K081958180001
B0820025029037N00652066EA0118401264143008
B0820065029066N00652200EA0118501264141008
B0820105029095N00652329EA0119101272132008
B0820145029120N00652454EA0119001272132008
B0820185029150N00652579EA0118601264134008
K082018180002
B0820225029179N00652708EA0117701256134004
B0820265029208N00652833EA0117701256134008
B0820305029237N00652962EA0116801248138004
B0820345029270N00653091EA0116301240139004
B0820385029304N00653220EA0116201240138004
K082038180000
B0820425029341N00653345EA0115601232138004
B0820465029379N00653479EA0114901224140008
B0820505029412N00653608EA0114401224141008
B0820545029445N00653737EA0114801232134004
B0820585029475N00653854EA0115501232125008
K082058180004
B0821025029504N00653970EA0115301232122008
B0821065029533N00654087EA0115701240125008
B0821105029533N00654200EA0118301256109004
B0821145029491N00654283EA0119701272094008
B0821185029425N00654308EA0119901280092004
K082118180004
B0821225029358N00654270EA0119501272098004
B0821265029325N00654179EA0120501280093004
B0821305029325N00654087EA0120901288090004
B0821345029354N00654008EA0120901288087008
B0821385029400N00653954EA0120301280093008
K082138180004
B0821425029454N00653937EA0120801288089008
B0821465029504N00653945EA0121101296084008
B0821505029545N00653975EA0120301280090008
B0821545029575N00654050EA0119201272099008
B0821585029595N00654141EA0119201272098004
K082158008011
B0822025029604N00654237EA0118701264101008
B0822065029616N00654337EA0118701264102004
B0822105029625N00654437EA0118401264102004
B0822145029637N00654537EA0117201256106004
B0822185029654N00654645EA0115701240116004
K082218000004
B0822225029679N00654758EA0114901232120004
B0822265029708N00654870EA0113901224122004
B0822305029741N00654979EA0113501216123004
B0822345029775N00655091EA0112401208128004
B0822385029816N00655204EA0112101200129004
K082238000003
B0822425029850N00655316EA0111701200129004
B0822465029891N00655429EA0111201192128004
B0822505029929N00655541EA0110501184130004
B0822545029970N00655654EA0109701184133008
B0822585030016N00655766EA0109301176138008
K082258000002
B0823025030058N00655879EA0109101176135008
B0823065030104N00655987EA0109001168131008
B0823105030150N00656095EA0108301168130004
B0823145030195N00656204EA0107901160130008
B0823185030241N00656308EA0107901160126012
K082318000001
B0823225030283N00656412EA0108101168123008
B0823265030320N00656520EA0108701168117012
B0823305030350N00656625EA0108701168118012
B0823345030379N00656737EA0107801160120004
B0823385030408N00656854EA0106601152126008
K082338180001
B0823425030437N00656975EA0106401144131004
B0823465030462N00657100EA0105601144133004
B0823505030487N00657229EA0104601128138004
B0823545030512N00657362EA0104201128138004
B0823585030533N00657495EA0103701120140004
K082358180000
B0824025030554N00657633EA0103301120138004
B0824065030575N00657766EA0102901112136008
B0824105030591N00657900EA0101601096138008
B0824145030612N00658037EA0101401096140008
B0824185030633N00658170EA0101701104136008
K082418180002
B0824225030654N00658300EA0101801104135004
B0824265030679N00658429EA0101601096131008
B0824305030704N00658558EA0101501096132008
B0824345030725N00658683EA0101301096129008
B0824385030750N00658808EA0100901096128004
K082438180003
B0824425030775N00658929EA0100201080132008
B0824465030804N00659050EA0099901080131008
B0824505030833N00659166EA0100201088126008
B0824545030862N00659291EA0099701080128004
B0824585030887N00659420EA0098201064138008
K082458180002
B0825025030912N00659550EA0098101064135004
B0825065030945N00659679EA0097601056136004
B0825105030975N00659804EA0097801064137004
B0825145031004N00659920EA0099201072128004
B0825185031033N00700025EA0099701080118004
K082518180001
B0825225031062N00700133EA0098501072118004
B0825265031095N00700245EA0097301064125008
B0825305031125N00700366EA0096001048132008
B0825345031154N00700495EA0095001040135004
B0825385031179N00700625EA0094601032136008
K082538180001
B0825425031212N00700754EA0094501032136004
B0825465031241N00700883EA0095501040134004
B0825505031270N00701008EA0096301048125004
B0825545031295N00701129EA0095901048123004
B0825585031308N00701258EA0095101032128008
K082558180005
B0826025031320N00701391EA0094501032132008
B0826065031333N00701525EA0094101024133004
B0826105031345N00701658EA0093701024132008
B0826145031354N00701791EA0093301016131004
B0826185031366N00701925EA0093001016131004
K082618180005
B0826225031370N00702054EA0092601008129004
B0826265031379N00702187EA0091901008131004
B0826305031387N00702320EA0091501000133004
B0826345031391N00702454EA0090800992132004
B0826385031400N00702587EA0090400984132004
K082638180003
B0826425031404N00702720EA0089900984132004
B0826465031412N00702850EA0089600984132004
B0826505031420N00702983EA0089400976133004
B0826545031429N00703108EA0089200976129004
B0826585031433N00703237EA0089200976126004
K082658180002
B0827025031445N00703362EA0089000976125004
B0827065031450N00703483EA0089000976122004
B0827105031458N00703604EA0089000976121004
B0827145031462N00703720EA0089300984112004
B0827185031470N00703837EA0089700984107004
K082718180005
B0827225031479N00703954EA0089500984114004
B0827265031491N00704066EA0089000976116004
B0827305031500N00704191EA0087800968121004
B0827345031508N00704312EA0087300960120004
B0827385031520N00704437EA0087100960122004
K082738180006
B0827425031533N00704562EA0086700952123004
B0827465031545N00704691EA0085800944121004
B0827505031554N00704816EA0085300944127004
B0827545031566N00704945EA0085100936129004
B0827585031583N00705070EA0084700936128012
K082758180005
B0828025031595N00705200EA0084200928127008
B0828065031612N00705325EA0083600928128008
B0828105031629N00705450EA0083200920130008
B0828145031645N00705579EA0082900920130004
B0828185031658N00705708EA0082800912128008
K082818180004
B0828225031675N00705837EA0082000912130004
B0828265031691N00705962EA0081100904132004
B0828305031712N00706091EA0080600896133004
B0828345031737N00706212EA0080100888132004
B0828385031766N00706333EA0080100888129004
K082838180001
B0828425031791N00706445EA0080400888124004
B0828465031816N00706562EA0080400888125004
B0828505031837N00706683EA0080400888123004
B0828545031854N00706804EA0079900888123008
B0828585031870N00706920EA0080000888118008
K082858180003
B0829025031883N00707037EA0080100896116004
B0829065031900N00707150EA0080000888117008
B0829105031916N00707266EA0079700888117004
B0829145031933N00707375EA0079700888117004
B0829185031950N00707483EA0079100880115008
K082918180001
B0829225031966N00707591EA0078400880113008
B0829265031979N00707700EA0077800864113012
B0829305031995N00707808EA0077000864115008
B0829345032012N00707920EA0076400856116004
B0829385032025N00708029EA0076300856115008
K082938180000
B0829425032041N00708137EA0076300856112004
B0829465032054N00708245EA0076000856112004
B0829505032070N00708358EA0075900848113004
B0829545032087N00708462EA0076100856110004
B0829585032095N00708570EA0076200856108004
K082958180002
B0830025032108N00708675EA0076200856105004
B0830065032120N00708775EA0076000856104004
B0830105032129N00708879EA0075100848105004
B0830145032137N00708983EA0074300840110004
B0830185032145N00709091EA0074300840108004
K083018180000
B0830225032150N00709195EA0073900832108004
B0830265032158N00709300EA0073400824110004
B0830305032162N00709408EA0072700824110004
B0830345032166N00709520EA0071800808114004
B0830385032170N00709641EA0071400800116004
K083038180001
B0830425032170N00709762EA0071200800118004
B0830465032170N00709879EA0071200800117004
B0830505032170N00710000EA0071100800119004
B0830545032166N00710120EA0070500792119004
B0830585032166N00710237EA0070100792116004
K083058180004
B0831025032162N00710354EA0069600784116004
B0831065032162N00710475EA0068700776120004
B0831105032162N00710595EA0068000768119004
B0831145032158N00710712EA0067600760116004
B0831185032154N00710829EA0067500760115004
K083118180004
B0831225032150N00710945EA0066900760114004
B0831265032150N00711066EA0066600752113004
B0831305032150N00711187EA0065800744117004
B0831345032154N00711308EA0065800744115004
B0831385032154N00711429EA0065400744114004
K083138180008
B0831425032158N00711545EA0064800736115004
B0831465032158N00711666EA0064500728120004
B0831505032158N00711783EA0064500728116004
B0831545032154N00711900EA0063600720112004
B0831585032154N00712016EA0063400720112004
K083158180006
B0832025032154N00712129EA0062900712114004
B0832065032154N00712241EA0063200720114004
B0832105032162N00712341EA0063500720102004
B0832145032183N00712433EA0064600728099004
B0832185032216N00712504EA0064800736092004
K083218180004
B0832225032275N00712520EA0064100728097004
B0832265032325N00712470EA0064600736096004
B0832305032329N00712379EA0065400744090004
B0832345032283N00712320EA0065200736089004
B0832385032216N00712337EA0064800736096008
K083238180004
B0832425032179N00712416EA0065300744100008
B0832465032191N00712504EA0065400744096004
B0832505032241N00712533EA0065300736093008
B0832545032287N00712479EA0065500744094004
B0832585032287N00712387EA0065800744091004
K083258018006
B0833025032245N00712320EA0065800744092008
B0833065032179N00712333EA0065600744095008
B0833105032133N00712404EA0066200752100008
B0833145032137N00712487EA0067000760086008
B0833185032183N00712529EA0066100752092004
K083318016008
B0833225032241N00712495EA0065700744102008
B0833265032250N00712404EA0066500752093004
B0833305032208N00712333EA0067100760091004
B0833345032145N00712325EA0067100760092008
B0833385032100N00712395EA0066900760103008
K083338024007
B0833425032125N00712470EA0066900760094012
B0833465032183N00712479EA0066900760095008
B0833505032225N00712412EA0067100760094008
B0833545032216N00712320EA0068000768092008
B0833585032166N00712262EA0067600768088008
K083358050008
B0834025032100N00712283EA0066900760098008
B0834065032070N00712370EA0067100760101008
B0834105032095N00712445EA0068000768094008
B0834145032150N00712445EA0067600768094004
B0834185032187N00712375EA0067700768096008
K083418034008
B0834225032175N00712279EA0068400776091008
B0834265032120N00712229EA0067900768090008
B0834305032058N00712258EA0066900760097008
B0834345032029N00712354EA0067000760102008
B0834385032033N00712454EA0067500768102004
K083438028008
B0834425032070N00712529EA0068100768097008
B0834465032129N00712533EA0068100768097004
B0834505032162N00712458EA0068000768097004
B0834545032133N00712366EA0067600768100008
B0834585032066N00712358EA0068100768096008
K083458344005
B0835025032029N00712429EA0068100768098004
B0835065032045N00712520EA0068100768095008
B0835105032095N00712570EA0068100768096004
B0835145032150N00712529EA0068100776096004
B0835185032154N00712433EA0068100768097004
K083518036002
B0835225032100N00712370EA0068000768096004
B0835265032041N00712395EA0068100776097004
B0835305032020N00712483EA0068100776096004
B0835345032062N00712554EA0068100768095004
B0835385032125N00712570EA0068100768100004
K083538034005
B0835425032187N00712554EA0068400768105004
B0835465032241N00712529EA0068800776096004
B0835505032291N00712495EA0068800776099008
B0835545032345N00712450EA0068700776101008
B0835585032400N00712395EA0067200760115004
K083558180004
B0836025032458N00712333EA0066200752121008
B0836065032520N00712262EA0065400744123004
B0836105032579N00712187EA0064500736124004
B0836145032641N00712108EA0063600728129004
B0836185032700N00712029EA0063500720124004
K083618000002
B0836225032758N00711950EA0063700728118004
B0836265032816N00711875EA0064100728114004
B0836305032870N00711800EA0064400736111004
B0836345032908N00711708EA0065000736105004
B0836385032920N00711604EA0066300744103004
K083638180004
B0836425032887N00711520EA0067700760094004
B0836465032825N00711525EA0067100760099004
B0836505032795N00711620EA0066600752104004
B0836545032829N00711712EA0067600760103004
B0836585032891N00711733EA0067500760100004
K083658180004
B0837025032941N00711666EA0068300768101008
B0837065032933N00711562EA0068300776103008
B0837105032870N00711520EA0069300784101008
B0837145032816N00711583EA0069800784102008
B0837185032833N00711679EA0069800784105008
K083718052003
B0837225032895N00711695EA0069700784108008
B0837265032937N00711608EA0070700800107008
B0837305032900N00711516EA0071900808105008
B0837345032829N00711520EA0072600816104008
B0837385032808N00711616EA0073000824100008
K083738036005
B0837425032854N00711679EA0073200824100004
B0837465032912N00711637EA0073200824108008
B0837505032916N00711529EA0073900832105008
B0837545032854N00711479EA0074600840102008
B0837585032795N00711533EA0075200840106008
K083758030006
B0838025032800N00711633EA0075500848107008
B0838065032862N00711650EA0075500848104008
B0838105032900N00711562EA0076000848110008
B0838145032862N00711470EA0077000864103008
B0838185032791N00711479EA0077400864104008
K083818028007
B0838225032762N00711575EA0077900872105004
B0838265032800N00711654EA0078300872106008
B0838305032866N00711633EA0078300872105024
B0838345032887N00711529EA0078400872109016
B0838385032845N00711429EA0079100880107000
K083838036006
B0838425032775N00711425EA0080400896100012
B0838465032737N00711512EA0080700896103012
B0838505032762N00711595EA0081400904100008
B0838545032825N00711608EA0081700904103004
B0838585032866N00711525EA0081900912103008
K083858030009
B0839025032850N00711416EA0082500920103012
B0839065032783N00711362EA0083200920105008
B0839105032725N00711412EA0083800928102012
B0839145032720N00711516EA0084500936105012
B0839185032779N00711554EA0085400944102008
K083918036009
B0839225032816N00711479EA0085700952102008
B0839265032787N00711375EA0085800952106008
B0839305032716N00711358EA0087000960106008
B0839345032679N00711441EA0088100976102008
B0839385032712N00711520EA0088400976100008
K083938014009
B0839425032770N00711500EA0088400976106004
B0839465032783N00711395EA0089200984103008
B0839505032733N00711316EA0089700984106008
B0839545032666N00711341EA0090701000104008
B0839585032654N00711441EA0091301000105008
K083958026010
B0840025032700N00711504EA0091301000106008
B0840065032754N00711454EA0091801016104004
B0840105032745N00711345EA0092601016103008
B0840145032687N00711287EA0093301024106008
B0840185032625N00711333EA0094101032103008
K084018028009
B0840225032629N00711437EA0094301032108008
B0840265032687N00711470EA0094601040108008
B0840305032729N00711391EA0095601048101004
B0840345032708N00711287EA0096101056102008
B0840385032637N00711258EA0096901056105008
K084038038008
B0840425032595N00711337EA0097401064101008
B0840465032620N00711429EA0097801072102004
B0840505032683N00711433EA0098001072107008
B0840545032712N00711341EA0098901080103008
B0840585032670N00711245EA0099201080104008
K084058030007
B0841025032600N00711225EA0099701088105008
B0841065032545N00711287EA0100101088103008
B0841105032533N00711387EA0099901088104008
B0841145032566N00711483EA0099601088108008
B0841185032629N00711520EA0100101088106004
K084118018008
B0841225032687N00711487EA0101101104100008
B0841265032720N00711404EA0102301112094004
B0841305032708N00711300EA0102701112095004
B0841345032650N00711237EA0102701112096004
B0841385032583N00711254EA0102701112100004
K084138040008
B0841425032537N00711337EA0102701112103008
B0841465032541N00711445EA0102301112105008
B0841505032579N00711529EA0102301112106008
B0841545032641N00711558EA0103501120104008
B0841585032695N00711520EA0104701136096004
K084158040007
B0842025032716N00711429EA0105601144091008
B0842065032691N00711341EA0105601144089004
B0842105032625N00711295EA0104201128105004
B0842145032554N00711325EA0104401128102008
B0842185032512N00711408EA0104401128101008
K084218024006
B0842225032504N00711516EA0103801120105004
B0842265032525N00711620EA0103801120111008
B0842305032570N00711704EA0104101128110004
B0842345032633N00711725EA0104801136105004
B0842385032670N00711650EA0105601144099008
K084238014008
B0842425032645N00711550EA0105701144103008
B0842465032575N00711516EA0106101152107012
B0842505032520N00711595EA0106501152110008
B0842545032541N00711695EA0106601152113004
B0842585032604N00711695EA0107501160107008
K084258026009
B0843025032620N00711595EA0106201152119008
B0843065032558N00711504EA0105901144128008
B0843105032475N00711541EA0106501152128008
B0843145032445N00711662EA0106501152126008
B0843185032491N00711758EA0107001160122008
K084318336011
B0843225032558N00711737EA0109001176113008
B0843265032566N00711633EA0109301184109008
B0843305032495N00711583EA0108301176121008
B0843345032454N00711683EA0107801168122008
B0843385032504N00711754EA0109201176116008
K084338018002
B0843425032554N00711675EA0109201184116008
B0843465032529N00711566EA0111301200108008
B0843505032462N00711545EA0112301216096008
B0843545032420N00711633EA0111201200115008
B0843585032433N00711741EA0112001208105008
K084358026011
B0844025032470N00711825EA0112001208109008
B0844065032495N00711920EA0113201216104008
B0844105032500N00712020EA0113301224101008
B0844145032508N00712137EA0111901208115004
B0844185032508N00712270EA0110901192128008
K084418180004
B0844225032500N00712408EA0110801192129004
B0844265032487N00712550EA0110301184134004
B0844305032470N00712687EA0110201184134004
B0844345032454N00712829EA0109001176136004
B0844385032445N00712970EA0108201168139008
K084438180007
B0844425032433N00713120EA0107401160141008
B0844465032420N00713262EA0107401152139008
B0844505032404N00713404EA0107001152137008
B0844545032391N00713545EA0106401144140008
B0844585032379N00713691EA0105001136146008
K084458180006
B0845025032370N00713845EA0103801120149008
B0845065032362N00714000EA0103001112147008
B0845105032358N00714158EA0102501112152004
B0845145032358N00714316EA0104101120145008
B0845185032358N00714462EA0105101136135008
K084518180011
B0845225032354N00714604EA0105001136133008
B0845265032345N00714745EA0105101136133012
B0845305032337N00714891EA0104001120138008
B0845345032333N00715041EA0102801112143008
B0845385032325N00715195EA0101801096147008
K084538180010
B0845425032320N00715354EA0101401096149004
B0845465032312N00715512EA0100901088148008
B0845505032304N00715666EA0100501088149012
B0845545032300N00715820EA0099701080150008
B0845585032295N00715983EA0099001064154012
K084558180009
B0846025032295N00716141EA0098201064157012
B0846065032291N00716304EA0097501056156008
B0846105032295N00716466EA0096501048159008
B0846145032295N00716633EA0095601040162008
B0846185032295N00716800EA0095401032163008
K084618180007
B0846225032295N00716962EA0095101032159008
B0846265032295N00717120EA0095101032155008
B0846305032300N00717275EA0095101032153008
B0846345032300N00717433EA0094601024153008
B0846385032304N00717591EA0093701016155008
K084638180006
B0846425032308N00717750EA0092801008157008
B0846465032312N00717908EA0092401008156008
B0846505032312N00718066EA0092301000154008
B0846545032316N00718220EA0091901000153008
B0846585032320N00718375EA0091300992153008
K084658180006
B0847025032329N00718533EA0091000992153008
B0847065032337N00718687EA0090800984153008
B0847105032341N00718837EA0090100984151008
B0847145032345N00718991EA0089500976151008
B0847185032350N00719145EA0089400976151008
K084718180004
B0847225032354N00719295EA0088700968149008
B0847265032362N00719445EA0088700968147008
B0847305032370N00719587EA0089500976138008
B0847345032375N00719720EA0090200984134008
B0847385032383N00719850EA0090200984129008
K084738180005
B0847425032383N00719979EA0090100984129008
B0847465032387N00720108EA0089900984128008
B0847505032391N00720237EA0089900984127012
B0847545032395N00720358EA0089200976124008
B0847585032400N00720483EA0088500968127008
K084758180002
B0848025032412N00720612EA0087800960124008
B0848065032429N00720737EA0087400960129004
B0848105032441N00720866EA0087400960129008
B0848145032454N00720991EA0087700960124004
B0848185032470N00721112EA0087800968122004
K084818180003
B0848225032483N00721229EA0087800960118008
B0848265032495N00721350EA0087800960117008
B0848305032504N00721470EA0088400968114004
B0848345032500N00721587EA0089500976114008
B0848385032500N00721691EA0091801000100004
K084838180006
B0848425032529N00721758EA0093301016085004
B0848465032583N00721766EA0093301016095008
B0848505032620N00721691EA0093801024095008
B0848545032595N00721604EA0094701032092004
B0848585032541N00721583EA0095201040093008
K084858180006
B0849025032495N00721641EA0095201040097008
B0849065032495N00721733EA0095601040099008
B0849105032541N00721791EA0096301048098008
B0849145032600N00721762EA0097201056097008
B0849185032604N00721666EA0097601064100004
K084918056002
B0849225032550N00721616EA0098401072099008
B0849265032495N00721662EA0099701080093004
B0849305032500N00721750EA0099701088096004
B0849345032554N00721795EA0100201088098008
B0849385032600N00721750EA0101401104093008
K084938044005
B0849425032600N00721650EA0102101112095008
B0849465032545N00721604EA0102501112096008
B0849505032491N00721650EA0103401120095004
B0849545032491N00721737EA0103801128094008
B0849585032545N00721783EA0104201128101008
K084958034005
B0850025032595N00721741EA0105701144096008
B0850065032595N00721645EA0106601160094008
B0850105032541N00721595EA0107001160096008
B0850145032487N00721645EA0107801168098004
B0850185032483N00721737EA0108401176096008
K085018034005
B0850225032537N00721783EA0109201184100008
B0850265032583N00721729EA0110401192102008
B0850305032570N00721637EA0111501200099004
B0850345032508N00721608EA0111701208096008
B0850385032458N00721670EA0112401216102020
K085038004005
B0850425032458N00721770EA0113401224097012
B0850465032504N00721820EA0114401232100000
B0850505032550N00721770EA0115801248097008
B0850545032537N00721675EA0116401256097004
B0850585032475N00721637EA0117201256098000
K085058342007
B0851025032425N00721691EA0117901272096004
B0851065032429N00721791EA0118001272101004
B0851105032483N00721829EA0119101280103004
B0851145032525N00721775EA0120801296095004
B0851185032512N00721683EA0121701304097008
K085118000007
B0851225032454N00721637EA0122301312097008
B0851265032400N00721683EA0123401328094004
B0851305032395N00721779EA0123401320099008
B0851345032441N00721837EA0123901336101004
B0851385032491N00721804EA0125801352091004
K085138006007
B0851425032500N00721716EA0126101352097008
B0851465032458N00721629EA0127101360100008
B0851505032395N00721608EA0129001384092004
B0851545032350N00721662EA0129301384095008
B0851585032345N00721758EA0129301384097004
K085158020007
B0852025032387N00721820EA0130101392102004
B0852065032441N00721795EA0131601408095004
B0852105032454N00721708EA0132401416100004
B0852145032400N00721637EA0132201408111008
B0852185032337N00721675EA0133801424099008
K085218342007
B0852225032333N00721775EA0133701424102008
B0852265032391N00721820EA0134201432112008
B0852305032437N00721762EA0137301456090008
B0852345032429N00721670EA0137701464095008
B0852385032370N00721612EA0138101464103004
K085238018006
B0852425032308N00721629EA0138901480094008
B0852465032258N00721691EA0138801480092004
B0852505032216N00721775EA0138301472104004
B0852545032175N00721875EA0137701464112004
B0852585032137N00721975EA0139301480111004
K085258014007
B0853025032129N00722091EA0138801472113004
B0853065032141N00722220EA0138301464121004
B0853105032145N00722345EA0139001480115008
B0853145032141N00722466EA0138801472110008
B0853185032129N00722595EA0136001448126008
K085318180006
B0853225032112N00722741EA0134201432136008
B0853265032091N00722895EA0132801416144008
B0853305032075N00723058EA0131901408149008
B0853345032062N00723220EA0131601400149008
B0853385032045N00723379EA0132601416138008
K085338180015
B0853425032037N00723520EA0134101432124008
B0853465032020N00723654EA0133501424128008
B0853505032004N00723800EA0130801392145008
B0853545031983N00723962EA0129101376154008
B0853585031966N00724125EA0129301376150004
K085358180010
B0854025031945N00724275EA0130101392139008
B0854065031933N00724420EA0130701392133008
B0854105031916N00724562EA0129701384137008
B0854145031900N00724716EA0127101360150008
B0854185031875N00724879EA0126101344155008
K085418180010
B0854225031850N00725037EA0126001344153008
B0854265031825N00725195EA0126101344147008
B0854305031808N00725345EA0126701352142008
B0854345031791N00725495EA0126401352146008
B0854385031779N00725641EA0127101352140008
K085438180010
B0854425031766N00725779EA0127101360136008
B0854465031754N00725916EA0126501352136008
B0854505031737N00726058EA0125301344138008
B0854545031720N00726204EA0124301328143008
B0854585031708N00726354EA0123301320144008
K085458180006
B0855025031691N00726504EA0122901312145004
B0855065031670N00726650EA0123001320140008
B0855105031650N00726787EA0123201320131008
B0855145031625N00726920EA0123701328136008
B0855185031595N00727050EA0125501344130008
K085518180008
B0855225031570N00727175EA0126101344129008
B0855265031541N00727312EA0125601344133008
B0855305031516N00727454EA0124201336139008
B0855345031487N00727604EA0123601320143008
B0855385031458N00727758EA0123301320150008
K085538180010
B0855425031429N00727904EA0123201320148008
B0855465031400N00728050EA0123501320144008
B0855505031375N00728191EA0123501320146008
B0855545031345N00728329EA0123601320142008
B0855585031316N00728462EA0123801328134008
K085558180007
B0856025031287N00728595EA0123601320139008
B0856065031262N00728737EA0123201320135012
B0856105031233N00728879EA0122701312136008
B0856145031208N00729029EA0121501304147004
B0856185031195N00729183EA0121301304142008
K085618180010
B0856225031208N00729325EA0121501304137008
B0856265031237N00729466EA0120401288139008
B0856305031270N00729604EA0119201280143008
B0856345031304N00729745EA0118501272144008
B0856385031337N00729891EA0117201264149008
K085638180007
B0856425031375N00730037EA0116501248156008
B0856465031408N00730187EA0115601240154008
B0856505031441N00730333EA0114501224155008
B0856545031475N00730483EA0113901224155008
B0856585031504N00730633EA0113901224150008
K085658180005
B0857025031533N00730779EA0113501216150008
B0857065031554N00730925EA0113301216147008
B0857105031575N00731066EA0113301216143008
B0857145031587N00731208EA0113501224137008
B0857185031600N00731350EA0112901216138008
K085718180006
B0857225031608N00731500EA0111501200141008
B0857265031612N00731650EA0109801184143004
B0857305031625N00731804EA0108101160148008
B0857345031641N00731958EA0107501160149008
B0857385031662N00732108EA0106101152153008
K085738180007
B0857425031683N00732266EA0105501136155008
B0857465031691N00732425EA0105001136156008
B0857505031695N00732587EA0105101136155008
B0857545031695N00732754EA0105601136153008
B0857585031700N00732912EA0107001152150008
K085758180010
B0858025031700N00733058EA0108401168131008
B0858065031695N00733195EA0108701176131008
B0858105031695N00733337EA0108501168135008
B0858145031691N00733475EA0108401168132008
B0858185031687N00733620EA0108301168134008
K085818180010
B0858225031687N00733766EA0107801160142008
B0858265031704N00733912EA0106901152150008
B0858305031733N00734058EA0106601152145008
B0858345031770N00734195EA0106101144148008
B0858385031812N00734333EA0105501144147008
K085838180005
B0858425031854N00734466EA0105501136145008
B0858465031895N00734595EA0105001136144008
B0858505031933N00734733EA0104801128145008
B0858545031970N00734866EA0104501128144008
B0858585032008N00735000EA0104001128142008
K085858180004
B0859025032045N00735133EA0103901120143008
B0859065032079N00735266EA0103301120136008
B0859105032112N00735395EA0103101120142008
B0859145032133N00735537EA0103001120140008
B0859185032137N00735675EA0103801128131008
K085918180004
B0859225032125N00735808EA0104301128124008
B0859265032108N00735933EA0104601136121008
B0859305032087N00736058EA0104701136119008
B0859345032066N00736183EA0105601144121004
B0859385032045N00736295EA0106901160109008
K085938180009
B0859425032033N00736400EA0108301168099004
B0859465032008N00736495EA0109301184093004
B0859505031950N00736541EA0109401184093008
B0859545031887N00736504EA0109401184096008
B0859585031866N00736408EA0109101176098004
K085958180009
B0900025031891N00736329EA0109901184090008
B0900065031937N00736295EA0110101192086008
B0900105031991N00736295EA0109801184090008
B0900145032041N00736325EA0109801184093004
B0900185032079N00736387EA0110401192092008
K090018180009
B0900225032091N00736470EA0110501192093004
B0900265032054N00736554EA0110301192098004
B0900305031987N00736562EA0110101184098008
B0900345031937N00736487EA0109901184100008
B0900385031937N00736391EA0110501192093008
K090038030008
B0900425031979N00736333EA0112001208085008
B0900465032029N00736354EA0111901208094008
B0900505032037N00736441EA0111701208093008
B0900545031991N00736508EA0111201200094008
B0900585031925N00736508EA0111501200091008
K090058032011
B0901025031870N00736454EA0111701208091008
B0901065031845N00736366EA0112701216093008
B0901105031850N00736275EA0113101216089004
B0901145031900N00736237EA0112801216092008
B0901185031945N00736283EA0112601208101008
K090118024013
B0901225031979N00736362EA0112901216100008
B0901265032020N00736425EA0112701216100004
B0901305032079N00736466EA0111201200110008
B0901345032145N00736516EA0110201192128008
B0901385032220N00736566EA0111101200131008
K090138180009
B0901425032291N00736620EA0111201200128004
B0901465032362N00736675EA0109901184134008
B0901505032433N00736741EA0109301176135008
B0901545032508N00736808EA0108101168135008
B0901585032583N00736875EA0107501160140004
K090158000003
B0902025032662N00736933EA0107401160136008
B0902065032741N00736991EA0107301160132004
B0902105032820N00737054EA0107001152138004
B0902145032887N00737145EA0106901152142004
B0902185032937N00737258EA0106701152138004
K090218180000
B0902225032983N00737379EA0106701152139008
B0902265033020N00737500EA0106201152134008
B0902305033058N00737629EA0104701136137008
B0902345033095N00737762EA0103901128146008
B0902385033137N00737891EA0103001112145008
K090238180002
B0902425033179N00738020EA0102501112141008
B0902465033220N00738150EA0101801104143008
B0902505033258N00738279EA0101101096147008
B0902545033300N00738404EA0100601088143008
B0902585033341N00738529EA0100001088143008
K090258180001
B0903025033375N00738654EA0099701080138008
B0903065033416N00738775EA0099401080138008
B0903105033454N00738891EA0099401080135008
B0903145033487N00739004EA0100101088124008
B0903185033520N00739112EA0100201088120008
K090318180001
B0903225033550N00739220EA0100001088119008
B0903265033583N00739333EA0100701088119004
B0903305033616N00739425EA0104201120107008
B0903345033666N00739458EA0106201144095008
B0903385033700N00739400EA0106701160095008
K090338180002
B0903425033670N00739308EA0106701160098008
B0903465033595N00739295EA0107401160109008
B0903505033558N00739387EA0108601176106004
B0903545033600N00739454EA0109801184104008
B0903585033645N00739395EA0110401192107004
K090358006014
B0904025033612N00739295EA0111201200104004
B0904065033537N00739300EA0112601216106004
B0904105033512N00739395EA0113401224102004
B0904145033558N00739458EA0114401232104004
B0904185033600N00739404EA0114901240099004
K090418002015
B0904225033566N00739308EA0113901232107008
B0904265033483N00739312EA0115001240108008
B0904305033454N00739416EA0115801248111008
B0904345033504N00739470EA0116601256106008
B0904385033545N00739395EA0116901264110004
K090438354015
B0904425033504N00739300EA0118201272105008
B0904465033429N00739316EA0119301288099012
B0904505033404N00739412EA0119701288104008
B0904545033450N00739479EA0120501296103008
B0904585033500N00739437EA0121201304097008
K090458002014
B0905025033487N00739333EA0121501304102004
B0905065033420N00739291EA0121701312101008
B0905105033358N00739350EA0122701320102008
B0905145033345N00739450EA0122901320104008
B0905185033391N00739512EA0123501328099008
K090518356012
B0905225033445N00739470EA0123601328099008
B0905265033450N00739370EA0124201336099008
B0905305033400N00739291EA0124601336102008
B0905345033329N00739312EA0124601344100008
B0905385033300N00739408EA0125201344099008
K090538004009
B0905425033320N00739500EA0125301344100008
B0905465033362N00739583EA0124501344103008
B0905505033416N00739666EA0122801320120008
B0905545033470N00739766EA0121601304134008
B0905585033525N00739883EA0121001296140004
K090558180002
B0906025033579N00740004EA0120401296143008
B0906065033629N00740133EA0120001288144004
B0906105033675N00740266EA0119501288144004
B0906145033720N00740400EA0119001280145008
B0906185033766N00740537EA0118701272146008
K090618180005
B0906225033808N00740670EA0118301272147008
B0906265033854N00740808EA0117301264148008
B0906305033895N00740950EA0116401248149008
B0906345033937N00741095EA0115301240155008
B0906385033975N00741241EA0113901224161008
K090638180003
B0906425034020N00741391EA0112701216165008
B0906465034058N00741545EA0112501208164008
B0906505034095N00741691EA0113201216153008
B0906545034120N00741833EA0113101216146008
B0906585034141N00741979EA0113001216147008
K090658180003
B0907025034158N00742120EA0113001216140008
B0907065034179N00742245EA0115001240131008
B0907105034200N00742366EA0116901256115008
B0907145034220N00742475EA0117901264103008
B0907185034237N00742583EA0119101272106008
K090718180007
B0907225034241N00742687EA0120801296099008
B0907265034208N00742770EA0122001312094008
B0907305034141N00742779EA0122901312094008
B0907345034104N00742695EA0124101328099004
B0907385034129N00742620EA0125501344089008
K090738180005
B0907425034179N00742637EA0125001336099004
B0907465034200N00742725EA0126101344097004
B0907505034166N00742808EA0127101360091008
B0907545034104N00742829EA0127701368089008
B0907585034050N00742770EA0128101368098008
K090758350013
B0908025034050N00742679EA0129901384092008
B0908065034100N00742662EA0129901384092008
B0908105034137N00742733EA0130101384102008
B0908145034116N00742829EA0132101408092004
B0908185034054N00742854EA0132101408092008
K090818346014
B0908225034000N00742783EA0132101408104008
B0908265034000N00742687EA0133801424097008
B0908305034041N00742650EA0134101432092008
B0908345034095N00742700EA0134001424106008
B0908385034095N00742800EA0135301440097004
K090838352012
B0908425034041N00742854EA0135601448096008
B0908465033975N00742808EA0135901448099008
B0908505033958N00742716EA0137501456096008
B0908545033987N00742650EA0137801464092008
B0908585034045N00742641EA0137601464096008
K090858354011
B0909025034091N00742704EA0138601472095004
B0909065034079N00742808EA0137901464097008
B0909105034012N00742845EA0137601464105008
B0909145033962N00742783EA0138901472095008
B0909185033962N00742691EA0139001480096008
K090918336009
B0909225034008N00742633EA0139501480091008
B0909265034066N00742616EA0139801488098008
B0909305034125N00742641EA0140201488104008
B0909345034187N00742679EA0138501480107004
B0909385034258N00742725EA0136901456125008
K090938336007
B0909425034341N00742775EA0135801448133004
B0909465034429N00742820EA0133601432140004
B0909505034525N00742862EA0133001416148008
B0909545034616N00742900EA0132701416152008
B0909585034716N00742937EA0130801400156008
K090958180000
B0910025034816N00742970EA0128801376166008
B0910065034925N00743008EA0128301368166008
B0910105035029N00743037EA0128501376164008
B0910145035129N00743058EA0128701376159008
B0910185035229N00743083EA0128301368157008
K091018180001
B0910225035329N00743125EA0127101352161008
B0910265035433N00743179EA0126201344167008
B0910305035529N00743245EA0125601344164008
B0910345035625N00743320EA0125001336166008
B0910385035716N00743400EA0124701336161008
K091038180003
B0910425035808N00743487EA0124601336162008
B0910465035900N00743570EA0124701336160008
B0910505035991N00743645EA0125201336157008
B0910545036083N00743725EA0124801336159012
B0910585036175N00743795EA0124801336155008
K091058180004
B0911025036270N00743862EA0123901328156008
B0911065036366N00743925EA0123601320157008
B0911105036466N00743991EA0123101312158008
B0911145036562N00744058EA0122401312155008
B0911185036654N00744129EA0122101304153008
K091118180009
B0911225036750N00744195EA0121501296158008
B0911265036850N00744262EA0121201296160008
B0911305036950N00744325EA0120701288160008
B0911345037045N00744383EA0120901296158008
B0911385037145N00744445EA0121101296157008
K091138180009
B0911425037237N00744504EA0120401288158008
B0911465037329N00744566EA0120401288153008
B0911505037416N00744625EA0119801280152008
B0911545037504N00744687EA0119801280150008
B0911585037587N00744754EA0120001288146008
K091158180002
B0912025037670N00744825EA0120001288144008
B0912065037745N00744895EA0122401312133008
B0912105037816N00744962EA0125201344115008
B0912145037866N00745029EA0128701376095008
B0912185037887N00745112EA0128801376085008
K091218180007
B0912225037866N00745208EA0127301360100004
B0912265037800N00745241EA0127401360099008
B0912305037737N00745200EA0127401360097004
B0912345037704N00745112EA0128101368098004
B0912385037712N00745016EA0129501384095004
K091238180007
B0912425037754N00744958EA0129901392092004
B0912465037812N00744975EA0130901400095004
B0912505037837N00745062EA0131901400098004
B0912545037804N00745145EA0131901408096004
B0912585037737N00745145EA0131701400100004
K091258012005
B0913025037691N00745075EA0132101408096008
B0913065037683N00744979EA0132601416094008
B0913105037712N00744895EA0132901416091008
B0913145037766N00744862EA0133301424096008
B0913185037825N00744866EA0133601424097008
K091318026003
B0913225037887N00744904EA0133601424100008
B0913265037950N00744954EA0132801416103008
B0913305038020N00745008EA0130801392117008
B0913345038091N00745075EA0129201384127004
B0913385038175N00745133EA0128301368134008
K091338180007
B0913425038258N00745175EA0127401360142004
B0913465038350N00745204EA0126101344152004
B0913505038450N00745225EA0125101336156004
B0913545038545N00745241EA0124601328155004
B0913585038650N00745258EA0123601320160008
K091358000002
B0914025038750N00745266EA0123401320160008
B0914065038850N00745279EA0123101312152008
B0914105038950N00745291EA0122701312157008
B0914145039050N00745308EA0123001320152008
B0914185039145N00745329EA0123001320150008
K091418180003
B0914225039241N00745354EA0123201320144008
B0914265039337N00745395EA0123101320145008
B0914305039425N00745454EA0122701312151008
B0914345039516N00745520EA0123201320143008
B0914385039595N00745604EA0123401320144008
K091438180006
B0914425039670N00745695EA0122801312140008
B0914465039741N00745795EA0121801304139008
B0914505039804N00745912EA0120301296143008
B0914545039862N00746041EA0118701272148008
B0914585039916N00746175EA0117701264153008
K091458180009
B0915025039975N00746308EA0117001256157008
B0915065040033N00746445EA0116701248157008
B0915105040091N00746575EA0116701256150008
B0915145040145N00746708EA0117201256153008
B0915185040195N00746833EA0120601296130008
K091518180010
B0915225040241N00746929EA0123901328106008
B0915265040275N00747012EA0125201344090008
B0915305040312N00747087EA0125301344094008
B0915345040354N00747162EA0123301328113004
B0915385040412N00747237EA0120901304123008
K091538000001
B0915425040483N00747312EA0119101280136004
B0915465040562N00747383EA0117601264146004
B0915505040650N00747429EA0116801256148004
B0915545040745N00747458EA0116101248153004
B0915585040841N00747479EA0114901240152008
K091558000001
B0916025040937N00747500EA0114301232151008
B0916065041033N00747529EA0113601224152008
B0916105041125N00747562EA0113001216153008
B0916145041220N00747604EA0112501216148008
B0916185041308N00747654EA0112701216148008
K091618180002
B0916225041387N00747729EA0116001240133008
B0916265041437N00747816EA0120501280109008
B0916305041437N00747908EA0122901320081008
B0916345041387N00747958EA0121801312096008
B0916385041329N00747908EA0122001312105004
K091638180004
B0916425041333N00747812EA0123201320099008
B0916465041387N00747779EA0124301336096004
B0916505041437N00747825EA0125201344092004
B0916545041441N00747920EA0125201344092004
B0916585041395N00747991EA0125201344099004
K091658290003
B0917025041329N00747970EA0126301352097004
B0917065041308N00747887EA0127001360094004
B0917105041341N00747816EA0128101368091008
B0917145041395N00747787EA0129301384090008
B0917185041450N00747783EA0129601384086008
K091718316005
B0917225041508N00747808EA0129501384097008
B0917265041558N00747879EA0129301376103004
B0917305041604N00747970EA0126701360116008
B0917345041654N00748079EA0124601336130008
B0917385041708N00748195EA0123101320137008
K091738180004
B0917425041766N00748320EA0121601304141004
B0917465041829N00748445EA0119401280150008
B0917505041891N00748583EA0118701272155008
B0917545041950N00748720EA0118001264157008
B0917585042016N00748854EA0117501256157008
K091758180009
B0918025042079N00748987EA0117201256156008
B0918065042145N00749108EA0116701248152008
B0918105042216N00749225EA0115301240152008
B0918145042291N00749341EA0115201240156008
B0918185042362N00749445EA0115301240152008
K091818180008
B0918225042437N00749541EA0115301240149008
B0918265042516N00749633EA0115001240153008
B0918305042600N00749716EA0115501248147008
B0918345042675N00749795EA0114401232147008
B0918385042754N00749887EA0113301224151012
K091838180002
B0918425042833N00749983EA0113101216151008
B0918465042908N00750083EA0112501208152008
B0918505042983N00750191EA0112201208150008
B0918545043050N00750308EA0111201200152008
B0918585043116N00750429EA0110901192154008
K091858180006
B0919025043175N00750562EA0110701192154024
B0919065043233N00750700EA0110301192156016
B0919105043295N00750833EA0109801184157000
B0919145043358N00750962EA0109601184155012
B0919185043420N00751095EA0109301176151008
K091918180009
B0919225043479N00751220EA0108801176148004
B0919265043541N00751354EA0108101168147008
B0919305043595N00751483EA0107801160147008
B0919345043641N00751616EA0107701168145008
B0919385043683N00751745EA0108501176137008
K091938180011
B0919425043725N00751862EA0108701176130008
B0919465043779N00751966EA0108401176128008
B0919505043837N00752058EA0108301168132008
B0919545043900N00752150EA0107901168133008
B0919585043970N00752233EA0108101168130004
K091958180005
B0920025044041N00752312EA0108501176128008
B0920065044108N00752395EA0109201184129008
B0920105044175N00752470EA0110401192119008
B0920145044237N00752545EA0110501200118008
B0920185044300N00752620EA0110501192121008
K092018180007
B0920225044366N00752700EA0110801200124008
B0920265044433N00752770EA0111801200126008
B0920305044495N00752833EA0115301240112008
B0920345044550N00752866EA0117301256090008
B0920385044600N00752833EA0117301264096008
K092038180004
B0920425044620N00752737EA0117201264099008
B0920465044575N00752666EA0117301264093004
B0920505044512N00752670EA0116301256095008
B0920545044466N00752750EA0115001240096008
B0920585044475N00752858EA0113901232112008
K092058180004
B0921025044520N00752954EA0114601240118004
B0921065044579N00753025EA0116401256109008
B0921105044641N00753062EA0117301264105008
B0921145044695N00753033EA0117301264097008
B0921185044725N00752945EA0116701256100004
K092118344004
B0921225044704N00752845EA0116701256100008
B0921265044641N00752787EA0116701256101004
B0921305044570N00752791EA0116801256099004
B0921345044512N00752858EA0116401256102004
B0921385044500N00752970EA0116101248115004
K092138000006
B0921425044529N00753083EA0117101264112004
B0921465044583N00753162EA0118001272111004
B0921505044645N00753229EA0117701272112008
B0921545044712N00753291EA0116801256130008
B0921585044791N00753345EA0115901248134004
K092158338006
B0922025044866N00753400EA0115401240133008
B0922065044945N00753458EA0114501232131008
B0922105045025N00753516EA0113901224137008
B0922145045104N00753575EA0115801240136004
B0922185045179N00753625EA0119901280113008
K092218180004
B0922225045241N00753625EA0122501312094004
B0922265045270N00753558EA0123201320090004
B0922305045250N00753466EA0123001320096004
B0922345045187N00753450EA0123501328096004
B0922385045133N00753516EA0123701328101004
K092238180006
B0922425045129N00753625EA0124901344103004
B0922465045179N00753691EA0125601344104008
B0922505045237N00753654EA0126901360104008
B0922545045233N00753558EA0127901376099004
B0922585045170N00753525EA0127901376099008
K092258324005
B0923025045116N00753591EA0129001384101004
B0923065045116N00753700EA0129301384100004
B0923105045175N00753750EA0130701392101008
B0923145045229N00753700EA0131501408101008
B0923185045220N00753604EA0132401416102004
K092318308006
B0923225045158N00753579EA0133201424094008
B0923265045108N00753654EA0133201424100004
B0923305045112N00753762EA0134101432102004
B0923345045158N00753820EA0135601448096008
B0923385045216N00753800EA0135901456096008
K092338306006
B0923425045237N00753716EA0136601464092008
B0923465045204N00753637EA0136501456095008
B0923505045141N00753616EA0136901464097004
B0923545045083N00753679EA0137001464100008
B0923585045070N00753787EA0137301464102008
K092358312006
B0924025045087N00753904EA0136801464112008
B0924065045112N00754037EA0135001440125008
B0924105045141N00754183EA0133501424141008
B0924145045170N00754337EA0132001408145008
B0924185045191N00754495EA0130001392148008
K092418180006
B0924225045212N00754666EA0128501376158004
B0924265045229N00754845EA0127501368156008
B0924305045233N00755020EA0127001360157008
B0924345045229N00755195EA0126001352159008
B0924385045220N00755370EA0125601344158008
K092438180016
B0924425045212N00755541EA0125701344155008
B0924465045208N00755704EA0127201360141008
B0924505045220N00755854EA0127901368137008
B0924545045258N00755991EA0128401368135008
B0924585045312N00756112EA0127101360142008
K092458180016
B0925025045379N00756229EA0125301344149008
B0925065045454N00756341EA0123401320159008
B0925105045541N00756445EA0122401312162008
B0925145045633N00756545EA0121501296165008
B0925185045729N00756633EA0121001296163008
K092518180010
B0925225045825N00756725EA0120901296164008
B0925265045916N00756816EA0120301288162008
B0925305046004N00756908EA0119701288163008
B0925345046095N00756995EA0118601280160008
B0925385046187N00757083EA0118501272162008
K092538180007
B0925425046275N00757170EA0118001272159008
B0925465046362N00757254EA0119301272151008
B0925505046445N00757325EA0119301280143008
B0925545046529N00757395EA0119701288135008
B0925585046608N00757458EA0120801296131008
K092558180010
B0926025046679N00757525EA0121801312125008
B0926065046737N00757600EA0123901320113008
B0926105046791N00757670EA0124701336101008
B0926145046833N00757758EA0124501336105008
B0926185046875N00757862EA0122701320118008
K092618180005
B0926225046916N00757979EA0121501304135008
B0926265046962N00758112EA0121001296139008
B0926305047008N00758245EA0120301288144004
B0926345047054N00758391EA0119101280147008
B0926385047104N00758537EA0116801264156008
K092638180009
B0926425047158N00758687EA0115901248156008
B0926465047212N00758841EA0115301240156008
B0926505047266N00758991EA0115001232155008
B0926545047325N00759145EA0114401232160008
B0926585047383N00759295EA0114201232157008
K092658180017
B0927025047433N00759441EA0113801224153008
B0927065047487N00759587EA0112401216156008
B0927105047541N00759737EA0111901208159008
B0927145047595N00759883EA0111501200155008
B0927185047645N00800029EA0110601192157008
K092718180014
B0927225047700N00800170EA0109701184151008
B0927265047754N00800308EA0109401184153008
B0927305047808N00800445EA0109301176151008
B0927345047862N00800579EA0109001176142008
B0927385047912N00800712EA0109801184136008
K092738180015
B0927425047958N00800837EA0111101200124008
B0927465048000N00800954EA0112401208117008
B0927505048037N00801062EA0114001224104008
B0927545048083N00801154EA0114901240106008
B0927585048133N00801229EA0115501240103008
K092758180015
B0928025048183N00801300EA0115801248110008
B0928065048241N00801370EA0115001240116004
B0928105048304N00801441EA0113801232120008
B0928145048375N00801512EA0113001216128008
B0928185048445N00801587EA0112401208132008
K092818180002
B0928225048520N00801666EA0111201200135008
B0928265048591N00801745EA0110601192139008
B0928305048670N00801829EA0109701184142008
B0928345048745N00801916EA0108501176146008
B0928385048829N00802000EA0107301160151008
K092838180003
B0928425048912N00802083EA0106101152156008
B0928465048995N00802170EA0105601144149008
B0928505049075N00802254EA0104801136146008
B0928545049154N00802341EA0104001128144008
B0928585049237N00802420EA0103301120147008
K092858180007
B0929025049320N00802495EA0104401128143008
B0929065049395N00802562EA0108001160122008
B0929105049462N00802587EA0110801192098008
B0929145049508N00802541EA0111301208091008
B0929185049512N00802450EA0111201200094004
K092918180012
B0929225049462N00802391EA0110801200094008
B0929265049391N00802420EA0110201192099004
B0929305049354N00802516EA0110401192099004
B0929345049350N00802629EA0111101200094004
B0929385049383N00802729EA0111301208099004
K092938180012
B0929425049437N00802783EA0112401216100004
B0929465049495N00802758EA0112401216098004
B0929505049516N00802670EA0112501216100004
B0929545049483N00802591EA0112901224096004
B0929585049416N00802579EA0112901224098008
K092958302012
B0930025049354N00802641EA0113401224097008
B0930065049325N00802750EA0113901232100008
B0930105049350N00802850EA0114601240097008
B0930145049412N00802875EA0114901240094008
B0930185049454N00802816EA0114801240100008
K093018306010
B0930225049454N00802720EA0115701248098008
B0930265049404N00802666EA0116001256096008
B0930305049337N00802691EA0116401256098004
B0930345049295N00802783EA0117101264096008
B0930385049304N00802891EA0117601264099008
K093038296011
B0930425049350N00802962EA0117501264099008
B0930465049412N00803004EA0117601264100004
B0930505049475N00803050EA0117301264110008
B0930545049545N00803108EA0117101264114008
B0930585049616N00803179EA0117301264118008
K093058180012
B0931025049679N00803262EA0119401280109008
B0931065049733N00803337EA0120301296100008
B0931105049783N00803420EA0120001296102008
B0931145049841N00803512EA0118001272120008
B0931185049904N00803616EA0116801256128004
K093118180010
B0931225049966N00803720EA0115901248132008
B0931265050037N00803829EA0114201232138004
B0931305050104N00803941EA0112801216144004
B0931345050170N00804058EA0111501208149004
B0931385050241N00804175EA0110301192152004
K093138180011
B0931425050312N00804295EA0110401192152004
B0931465050375N00804412EA0110401192147004
B0931505050437N00804525EA0111601200141008
B0931545050495N00804629EA0112901216130008
B0931585050545N00804729EA0113501224118008
K093158180011
B0932025050600N00804829EA0112401216124008
B0932065050654N00804933EA0110801200131004
B0932105050712N00805041EA0112301200132008
B0932145050762N00805133EA0115701232110004
B0932185050812N00805175EA0118001264085004
K093218180010
B0932225050862N00805141EA0116801264092008
B0932265050870N00805050EA0116301248101008
B0932305050820N00804983EA0117601264094004
B0932345050754N00805000EA0117601264102008
B0932385050716N00805095EA0117901272102008
K093238180010
B0932425050729N00805204EA0118301272098008
B0932465050787N00805245EA0118701280101008
B0932505050833N00805200EA0119101280096008
B0932545050829N00805108EA0118901280102004
B0932585050766N00805054EA0119701288103008
K093258294010
B0933025050695N00805091EA0120501296100008
B0933065050666N00805195EA0121101304096008
B0933105050679N00805308EA0120901296105004
B0933145050716N00805416EA0119001288123008
B0933185050766N00805525EA0118401272130008
K093318308012
B0933225050829N00805633EA0118001272133008
B0933265050895N00805737EA0117501264138008
B0933305050962N00805841EA0117001256139008
B0933345051029N00805950EA0115801248144008
B0933385051095N00806066EA0114701240146008
K093338180010
B0933425051166N00806183EA0113301224150008
B0933465051237N00806304EA0111901208155008
B0933505051312N00806420EA0111601200154004
B0933545051383N00806541EA0111101200154008
B0933585051454N00806662EA0110601192152008
K093358180012
B0934025051525N00806783EA0109901184152008
B0934065051595N00806904EA0109301184152008
B0934105051666N00807029EA0108301168155008
B0934145051737N00807154EA0107501160157008
B0934185051808N00807275EA0107501160157008
K093418180012
B0934225051879N00807395EA0107301160153008
B0934265051945N00807512EA0106901152150008
B0934305052016N00807625EA0106501152145008
B0934345052083N00807737EA0105901144142008
B0934385052154N00807841EA0106001144139008
K093438180011
B0934425052220N00807933EA0106901152128008
B0934465052283N00808020EA0107401160121008
B0934505052333N00808120EA0108001168117008
B0934545052370N00808229EA0109301184113004
B0934585052400N00808341EA0112001200106008
K093458180012
B0935025052379N00808437EA0114401232092012
B0935065052320N00808454EA0114301232088008
B0935105052291N00808375EA0113601224100008
B0935145052325N00808300EA0115001240097008
B0935185052379N00808316EA0116101248099008
K093518180013
B0935225052412N00808404EA0116701256101008
B0935265052379N00808491EA0117201256096004
B0935305052316N00808500EA0116501256101008
B0935345052266N00808433EA0116901256099004
B0935385052258N00808341EA0118701272091004
K093538324008
B0935425052283N00808262EA0119301288091008
B0935465052333N00808233EA0119401288095008
B0935505052379N00808295EA0119601288101004
B0935545052362N00808395EA0120901296098008
B0935585052300N00808404EA0121701312095004
K093558344005
B0936025052262N00808325EA0122801312097004
B0936065052287N00808245EA0123501328090008
B0936105052341N00808233EA0123601328092008
B0936145052383N00808304EA0123601328100008
B0936185052375N00808408EA0124901336101008
K093618332006
B0936225052325N00808462EA0125601344091008
B0936265052270N00808425EA0125601344091008
B0936305052245N00808333EA0126601352095008
B0936345052283N00808270EA0127101360089008
B0936385052333N00808283EA0127201360089012
K093638334007
B0936425052370N00808354EA0127101360096008
B0936465052395N00808454EA0127101360097012
B0936505052391N00808558EA0127401368096012
B0936545052345N00808641EA0128401376098008
B0936585052287N00808629EA0128901376094008
K093658320008
B0937025052262N00808550EA0129101384091008
B0937065052283N00808466EA0129301384090008
B0937105052333N00808420EA0129301384092008
B0937145052395N00808433EA0129801392090008
B0937185052441N00808491EA0129901392095004
K093718278005
B0937225052483N00808566EA0129901392096008
B0937265052529N00808641EA0127401376105004
B0937305052591N00808720EA0124701344130004
B0937345052662N00808808EA0123901328137004
B0937385052729N00808895EA0124101328133004
K093738180013
B0937425052800N00808991EA0125001336134008
B0937465052858N00809083EA0129001368110008
B0937505052908N00809158EA0131301400100008
B0937545052958N00809204EA0133201424085008
B0937585053012N00809187EA0132701408093004
K093758180011
B0938025053041N00809100EA0131901408102008
B0938065053020N00809008EA0132301408094004
B0938105052954N00808975EA0132001408096004
B0938145052887N00809020EA0131401408106008
B0938185052845N00809125EA0131401400111008
K093818180011
B0938225052841N00809250EA0131301400119004
B0938265052866N00809383EA0130901400127008
B0938305052904N00809504EA0131801408121008
B0938345052945N00809629EA0130801400128008
B0938385052991N00809754EA0129301384137008
K093838180011
B0938425053037N00809891EA0126801368152008
B0938465053091N00810037EA0125101336157008
B0938505053141N00810191EA0124701336166008
B0938545053191N00810345EA0124601336161008
B0938585053241N00810495EA0124301328158008
K093858180009
B0939025053291N00810650EA0123601328156008
B0939065053341N00810800EA0122401312156008
B0939105053391N00810954EA0121601304155008
B0939145053441N00811108EA0121401304156008
B0939185053487N00811258EA0124201320143008
K093918180017
B0939225053525N00811387EA0128701360119008
B0939265053570N00811466EA0132201400094008
B0939305053625N00811466EA0133601424089008
B0939345053650N00811387EA0133101424095008
B0939385053604N00811320EA0132801424102008
K093938180020
B0939425053537N00811345EA0133301424101008
B0939465053504N00811445EA0134501440106008
B0939505053533N00811545EA0135201448108008
B0939545053595N00811533EA0135601448103008
B0939585053608N00811429EA0136201456108004
K093958298008
B0940025053550N00811375EA0137501472104008
B0940065053491N00811429EA0138501480103008
B0940105053495N00811537EA0139501488105008
B0940145053554N00811566EA0140201496101004
B0940185053595N00811487EA0140401496104008
K094018326006
B0940225053562N00811395EA0141401512106004
B0940265053491N00811400EA0141701512107004
B0940305053454N00811500EA0142901520105004
B0940345053487N00811595EA0144301536103004
B0940385053545N00811579EA0144801544097004
K094038318006
B0940425053566N00811483EA0144801544103004
B0940465053520N00811412EA0145601552100004
B0940505053450N00811445EA0145601552104004
B0940545053416N00811545EA0146601560104004
B0940585053425N00811654EA0147201568101004
K094058314007
B0941025053479N00811708EA0147901576095008
B0941065053537N00811675EA0147101568100008
B0941105053558N00811579EA0147201568103004
B0941145053525N00811487EA0148101576103008
B0941185053466N00811441EA0149101584095004
K094118306005
B0941225053400N00811466EA0149601592094004
B0941265053358N00811550EA0149801592093008
B0941305053341N00811650EA0150501600098008
B0941345053345N00811754EA0151301608094008
B0941385053362N00811850EA0151401608091008
K094138324007
B0941425053395N00811941EA0150801600104004
B0941465053445N00812029EA0149001584113008
B0941505053500N00812125EA0147101568123004
B0941545053562N00812229EA0145101552135004
B0941585053629N00812341EA0143101528144004
K094158180020
B0942025053700N00812458EA0142201512154004
B0942065053770N00812570EA0143701520141008
B0942105053825N00812658EA0147201560114008
B0942145053875N00812737EA0147301568108008
B0942185053933N00812833EA0144501544126008
K094218180005
B0942225053995N00812937EA0143101520138008
B0942265054070N00813041EA0142301512141008
B0942305054145N00813145EA0142701512139008
B0942345054216N00813245EA0144301536135008
B0942385054279N00813345EA0144801536131008
K094238180011
B0942425054341N00813441EA0145001544127008
B0942465054400N00813541EA0145001536127008
B0942505054462N00813645EA0143601528132008
B0942545054529N00813758EA0142301512138008
B0942585054595N00813870EA0140701504143008
K094258180009
B0943025054662N00813991EA0139901488143008
B0943065054733N00814108EA0139401480143008
B0943105054804N00814220EA0139401480148008
B0943145054879N00814329EA0140101488142008
B0943185054954N00814425EA0141501504139008
K094318180013
B0943225055029N00814508EA0142301512135008
B0943265055108N00814575EA0142201512133008
B0943305055187N00814645EA0141101504136008
B0943345055266N00814720EA0140201488138008
B0943385055341N00814800EA0139901488138008
K094338180007
B0943425055425N00814883EA0138501480143008
B0943465055512N00814966EA0136801456159008
B0943505055604N00815054EA0136001448160008
B0943545055695N00815145EA0135601448159008
B0943585055787N00815233EA0135101440155008
K094358180007
B0944025055879N00815320EA0134001432160008
B0944065055975N00815404EA0133501424161008
B0944105056070N00815491EA0132501416164008
B0944145056170N00815570EA0131101400163008
B0944185056266N00815650EA0130301392164008
K094418180008
B0944225056362N00815733EA0131801400155012
B0944265056445N00815808EA0132301408147008
B0944305056537N00815887EA0131401400155012
B0944345056625N00815970EA0130301392156012
B0944385056716N00816058EA0128501368160008
K094438180007
B0944425056812N00816145EA0126501360169008
B0944465056908N00816241EA0125001344168008
B0944505057008N00816333EA0124101328170008
B0944545057108N00816425EA0125201336163008
B0944585057200N00816508EA0127701368155008
K094458180012
B0945025057275N00816579EA0133301416121012
B0945065057325N00816625EA0136901456089008
B0945105057370N00816670EA0137601464083008
B0945145057420N00816716EA0136901456095008
B0945185057479N00816770EA0135601440109004
K094518180000
B0945225057545N00816833EA0133601424123008
B0945265057625N00816895EA0132601408131004
B0945305057708N00816962EA0131701408139004
B0945345057795N00817025EA0132201408144004
B0945385057883N00817083EA0133101416138004
K094538180004
B0945425057966N00817137EA0134101424135008
B0945465058045N00817183EA0136501456117008
B0945505058120N00817220EA0138101464113008
B0945545058187N00817262EA0140701488105008
B0945585058241N00817320EA0141901504099008
K094558180008
B0946025058287N00817387EA0141401504099008
B0946065058350N00817437EA0140501488110008
B0946105058425N00817479EA0139401480125008
B0946145058512N00817516EA0139501480131004
B0946185058595N00817570EA0141001496131008
K094618180003
B0946225058666N00817633EA0144601536116004
B0946265058720N00817691EA0146701552093004
B0946305058770N00817758EA0146201552098008
B0946345058833N00817833EA0143801536117008
B0946385058900N00817920EA0142201512132004
K094638180004
B0946425058979N00818012EA0140201488146008
B0946465059062N00818108EA0139001480149012
B0946505059145N00818208EA0138501472150008
B0946545059225N00818304EA0138001464148012
B0946585059304N00818400EA0137701464150012
K094658180008
B0947025059387N00818487EA0136101456151008
B0947065059475N00818579EA0134601432157008
B0947105059566N00818670EA0133601424160012
B0947145059654N00818766EA0132601416160008
B0947185059745N00818862EA0131401400161008
K094718180008
B0947225059837N00818962EA0130001392164008
B0947265059925N00819066EA0129401384164008
B0947305100016N00819166EA0128301368163008
B0947345100104N00819270EA0126801360163008
B0947385100195N00819370EA0125901344164008
K094738180010
B0947425100283N00819470EA0126701352153008
B0947465100366N00819562EA0127701368141008
B0947505100433N00819658EA0128701376125008
B0947545100491N00819754EA0129501384111008
B0947585100550N00819825EA0130501392102004
K094758180017
B0948025100608N00819875EA0131301400099008
B0948065100670N00819929EA0131901408102004
B0948105100725N00819987EA0133601424098004
B0948145100779N00820033EA0134601432096004
B0948185100841N00820045EA0135401440095004
K094818180007
B0948225100891N00819995EA0136001448095004
B0948265100904N00819900EA0136501456099004
B0948305100870N00819820EA0137801464096004
B0948345100808N00819816EA0138501472093004
B0948385100762N00819883EA0138601480095004
K094838180007
B0948425100754N00819987EA0139301480099004
B0948465100783N00820087EA0139801488100004
B0948505100833N00820154EA0139901496097004
B0948545100895N00820195EA0139901488100004
B0948585100962N00820220EA0139001480104004
K094858256003
B0949025101037N00820245EA0137001464115004
B0949065101116N00820287EA0136001448131004
B0949105101195N00820333EA0138401464119004
B0949145101258N00820387EA0139501488100004
B0949185101320N00820445EA0138001472112008
K094918180008
B0949225101395N00820508EA0135701448135008
B0949265101479N00820575EA0133301424146004
B0949305101570N00820650EA0131701408149008
