AZANF52 ZANDER GP940 V1.25
HFDTE020714
HFFXA050
HFPLT Pilot             :?? ??????????????4??/_??Q`??????????????
HFGTY Glider type       :?1???7???1???2???2???8???2???E?????@@Ek?
HFGID Glider ID         :??????????
HFDTM100 GPS Datum      :WGS84
HFRFW Firmware Version  :1.25
HFRHW Hardware version  :A
HFFTY FR Type           :ZANDER GP940
HFGPS                   :Motorola,VP ONCORE,8,30000
HFPRS Press Alt Sensor  :Motorola,MPX100A,10000
HFCCL Competition Class :?????????????????????k.?.???????????????
HFCID Competition ID    :??????????
I023638IAS3941ENL
J020810WDI1113WVE
LZAN 073935 PowerOn
C020714073643020714000102
C5126200N00741983E ISERLOHN SUE
C5118850N00742716E ALTENHGNSCHD
C4944583N01012033E KITZINGEN   
C4933666N00734750E ESSWEILER   
C5118850N00742716E ALTENHGNSCHD
C5126200N00741983E ISERLOHN SUE
B0739395126304N00742241EV0005800000009000
B0739435126304N00742241EV0005800000000000
B0739475126304N00742241EV0005800000007000
B0739515126304N00742241EV0005700000007000
B0739555126300N00742245EA0005800000009000
B0739595126304N00742241EA0005700000007000
B0740035126266N00742208EA0005800000007000
B0740075126266N00742208EA0005700000007000
B0740115126262N00742208EA0005700000000000
B0740155126262N00742208EA0005700000009000
B0740195126262N00742208EA0005700000000000
B0740235126308N00742245EA0005700000000000
B0740275126304N00742241EA0005700152007000
B0740315126300N00742233EA0005700144012000
B0740355126304N00742233EA0005800144000000
B0740395126304N00742237EA0005700144000000
B0740435126308N00742237EA0005700144000000
B0740475126308N00742237EA0005700144000000
B0740515126308N00742233EA0005700144000000
B0740555126312N00742233EA0005700144000000
B0740595126312N00742233EA0005700144000000
B0741035126316N00742233EA0005600152000000
B0741075126320N00742229EA0005600152000000
B0741115126320N00742229EA0005700152000000
B0741155126325N00742229EA0005700152000000
B0741195126329N00742229EA0005600152000000
B0741235126329N00742229EA0005700152000000
B0741275126333N00742225EA0005700152000000
B0741315126333N00742225EA0005600152000000
B0741355126337N00742225EA0005500152000000
B0741395126337N00742220EA0005600152000000
B0741435126337N00742220EA0005500152000000
B0741475126337N00742220EA0005500152000000
B0741515126337N00742220EA0005500152000000
B0741555126337N00742220EA0005500152000000
B0741595126337N00742220EA0005500152000000
B0742035126337N00742220EA0005600152000000
B0742075126337N00742220EA0005600152000000
B0742115126337N00742220EA0005500152000000
B0742155126337N00742220EA0005500152000000
B0742195126337N00742220EA0005600152000000
B0742235126337N00742220EA0005500152000000
B0742275126337N00742220EA0005500152000000
B0742315126341N00742220EA0005600152000000
B0742355126341N00742220EA0005600152000000
B0742395126341N00742220EA0005400152000000
B0742435126341N00742220EA0005600152000000
B0742475126341N00742220EA0005500152007000
B0742515126341N00742220EA0005600152000000
B0742555126341N00742220EA0005500152000000
B0742595126341N00742220EA0005600152000000
B0743035126341N00742220EA0005600152007000
B0743075126341N00742220EA0005600152000000
B0743115126341N00742220EA0005600152007000
B0743155126341N00742220EA0005600152000000
B0743195126341N00742225EA0005500152007000
B0743235126341N00742225EA0005600152000000
B0743275126341N00742225EA0005500152000000
B0743315126341N00742225EA0005400152000000
B0743355126341N00742225EA0005400152000000
B0743395126341N00742225EA0005400152000000
B0743435126341N00742225EA0005400152007000
B0743475126341N00742225EA0005400152000000
B0743515126341N00742225EA0005400152000000
B0743555126341N00742225EA0005400152000000
B0743595126341N00742225EA0005400152000000
B0744035126341N00742225EA0005400152000000
B0744075126341N00742225EA0005400152000000
B0744115126341N00742225EA0005400152000000
B0744155126341N00742225EA0005400152000000
B0744195126341N00742225EA0005400152000000
B0744235126341N00742225EA0005500152000000
B0744275126341N00742225EA0005500152000000
B0744315126341N00742225EA0005500152000000
B0744355126341N00742225EA0005400160000000
B0744395126341N00742225EA0005400160000000
B0744435126341N00742225EA0005400160000000
B0744475126341N00742225EA0005500152000000
B0744515126341N00742225EA0005400152000000
B0744555126341N00742225EA0005400160000000
B0744595126341N00742225EA0005400160000000
B0745035126341N00742225EA0005500160007000
B0745075126341N00742225EA0005500152000000
B0745115126341N00742225EA0005500152000000
B0745155126341N00742225EA0005500152007000
B0745195126341N00742225EA0005500152000000
B0745235126341N00742225EA0005500152000000
B0745275126341N00742225EA0005500152000000
B0745315126341N00742225EA0005500152000000
B0745355126341N00742225EA0005500152000000
B0745395126341N00742225EA0005400152000000
B0745435126341N00742225EA0005400152000000
B0745475126341N00742225EA0005500152000000
B0745515126341N00742225EA0005500152000000
B0745555126341N00742225EA0005500152000000
B0745595126341N00742225EA0005500152000000
B0746035126341N00742225EA0005600152000000
B0746075126341N00742225EA0005600152000000
B0746115126341N00742225EA0005500152000000
B0746155126341N00742225EA0005600152000000
B0746195126341N00742225EA0005600152000000
B0746235126341N00742225EA0005600152000000
B0746275126341N00742225EA0005600152000000
B0746315126341N00742225EA0005500152000000
B0746355126341N00742225EA0005500152000000
B0746395126341N00742225EA0005500152000000
B0746435126341N00742225EA0005600152000000
B0746475126341N00742225EA0005600152000000
B0746515126341N00742225EA0005500152000000
B0746555126341N00742225EA0005500152000000
B0746595126341N00742225EA0005600152000000
B0747035126341N00742225EA0005600152000000
B0747075126341N00742225EA0005600152000000
B0747115126341N00742225EA0005600152000000
B0747155126341N00742225EA0005600152000000
B0747195126341N00742225EA0005600152000000
B0747235126341N00742225EA0005600152000000
B0747275126341N00742225EA0005600152000000
B0747315126341N00742225EA0005600152000000
B0747355126341N00742225EA0005600152000000
B0747395126341N00742225EA0005600152000000
B0747435126341N00742225EA0005700152000000
B0747475126341N00742225EA0005600152000000
B0747515126341N00742225EA0005600152000000
B0747555126341N00742225EA0005600152000000
B0747595126341N00742225EA0005600152000000
B0748035126341N00742225EA0005600152000000
B0748075126341N00742225EA0005600152000000
B0748115126341N00742225EA0005500152000000
B0748155126341N00742225EA0005600152000000
B0748195126341N00742225EA0005600152000000
B0748235126341N00742225EA0005600152000000
B0748275126341N00742225EA0005600152000000
B0748315126341N00742225EA0005600152000000
B0748355126341N00742225EA0005600152000000
B0748395126341N00742225EA0005600152000000
B0748435126341N00742225EA0005600152000000
B0748475126341N00742225EA0005600152000000
B0748515126341N00742225EA0005500152000000
B0748555126341N00742225EA0005600152000000
B0748595126341N00742225EA0005600152000000
B0749035126341N00742225EA0005600152000000
B0749075126341N00742225EA0005600152000000
B0749115126341N00742225EA0005600152000000
B0749155126341N00742225EA0005700152000000
B0749195126337N00742224EA0005600152000000
B0749235126337N00742220EA0005600152000000
B0749275126337N00742225EA0005600152000000
B0749315126337N00742225EA0005600152000000
B0749355126337N00742220EA0005700152000000
B0749395126337N00742220EA0005600152000000
B0749435126337N00742220EA0005700152000000
B0749475126337N00742220EA0005700152000000
B0749515126337N00742220EA0005600152000000
B0749555126337N00742220EA0005700152000000
B0749595126337N00742220EA0005600152000000
B0750035126337N00742220EA0005600152000000
B0750075126337N00742220EA0005700152000000
B0750115126337N00742220EA0005600152000000
B0750155126337N00742220EA0005700152000000
B0750195126337N00742220EA0005700160000000
B0750235126337N00742220EA0005700160000000
B0750275126337N00742220EA0005700160000000
B0750315126337N00742220EA0005700152000000
B0750355126337N00742220EA0005600152000000
B0750395126337N00742220EA0005600152000000
B0750435126337N00742220EA0005700152000000
B0750475126337N00742220EA0005600152000000
B0750515126337N00742220EA0005700152000000
B0750555126337N00742220EA0005700152000000
B0750595126337N00742220EA0005700152000000
B0751035126337N00742220EA0005700152000000
B0751075126337N00742220EA0005700152000000
B0751115126337N00742220EA0005700152000000
B0751155126337N00742220EA0005700152000000
B0751195126337N00742220EA0005700152000000
B0751235126337N00742220EA0005800152000000
B0751275126337N00742220EA0005700152000000
B0751315126333N00742220EA0005700152000000
B0751355126333N00742220EA0005700152000000
B0751395126333N00742220EA0005700152000000
B0751435126333N00742220EA0005700152000000
B0751475126333N00742220EA0005700152000000
B0751515126333N00742220EA0005700152000000
B0751555126333N00742220EA0005800152000000
B0751595126333N00742220EA0005700152000000
B0752035126333N00742220EA0005800152000000
B0752075126333N00742220EA0005700152000000
B0752115126333N00742220EA0005800152000000
B0752155126333N00742220EA0005800152000000
B0752195126333N00742220EA0005800152000000
B0752235126333N00742220EA0005700152000000
B0752275126333N00742220EA0005800152007000
B0752315126333N00742220EA0005700152000000
B0752355126333N00742220EA0005700152000000
B0752395126333N00742220EA0005800152000000
B0752435126333N00742220EA0005700152000000
B0752475126333N00742220EA0005700152000000
B0752515126333N00742220EA0005800152000000
B0752555126333N00742220EA0005800152000000
B0752595126333N00742220EA0005800152000000
B0753035126333N00742216EA0005800152000000
B0753075126333N00742220EA0005700152000000
B0753115126333N00742216EA0005800152000000
B0753155126333N00742220EA0005800152007000
B0753195126333N00742220EA0005700152007000
B0753235126337N00742220EA0005800152007000
B0753275126337N00742220EA0005700152000000
B0753315126337N00742220EA0005700152000000
B0753355126337N00742220EA0005800152000000
B0753395126337N00742220EA0005700152000000
B0753435126337N00742220EA0005800152000000
B0753475126337N00742220EA0005800152000000
B0753515126337N00742220EA0005700152000000
B0753555126337N00742220EA0005700152000000
B0753595126337N00742220EA0005700152000000
B0754035126337N00742220EA0005800152000000
B0754075126337N00742220EA0005800152000000
B0754115126337N00742220EA0005800152000000
B0754155126337N00742220EA0005800152000000
B0754195126337N00742220EA0005800152000000
B0754235126337N00742220EA0005800152000000
B0754275126337N00742220EA0005700152000000
B0754315126337N00742220EA0005700152000000
B0754355126337N00742220EA0005800152000000
B0754395126337N00742220EA0005800152000000
B0754435126337N00742220EA0005800152000000
B0754475126337N00742220EA0005700160000000
B0754515126337N00742220EA0005800152000000
B0754555126337N00742220EA0005800160000000
B0754595126337N00742220EA0005800160000000
B0755035126337N00742220EA0005800160000000
B0755075126337N00742220EA0005800160007000
B0755115126337N00742220EA0005800160000000
B0755155126337N00742220EA0005800160000000
B0755195126337N00742220EA0005800152000000
B0755235126337N00742220EA0005800160000000
B0755275126337N00742220EA0005800152000000
B0755315126337N00742220EA0005800152000000
B0755355126337N00742220EA0005800152000000
B0755395126337N00742220EA0005800152000000
B0755435126337N00742220EA0005800152000000
B0755475126337N00742220EA0005800152000000
B0755515126337N00742220EA0005800152000000
B0755555126337N00742220EA0005800160000000
B0755595126337N00742220EA0005800160000000
B0756035126341N00742220EA0005800160000000
B0756075126341N00742220EA0005700160000000
B0756115126341N00742220EA0005800160000000
B0756155126341N00742220EA0005800168000000
B0756195126341N00742220EA0005800168000000
B0756235126341N00742220EA0005800168000000
B0756275126341N00742220EA0005800168000000
B0756315126341N00742220EA0005800168000000
B0756355126341N00742220EA0005800168000000
B0756395126341N00742220EA0005800160000000
B0756435126341N00742220EA0005800160000000
B0756475126341N00742220EA0005800160000000
B0756515126341N00742220EA0005800160000000
B0756555126341N00742220EA0005800160000000
B0756595126341N00742220EA0005800160000000
B0757035126341N00742220EA0005800160000000
B0757075126341N00742220EA0005800160007000
B0757115126341N00742220EA0005800160000000
B0757155126341N00742220EA0005800160000000
B0757195126341N00742220EA0005800160000000
B0757235126341N00742220EA0005700160000000
B0757275126341N00742220EA0005800160000000
B0757315126341N00742220EA0005800160000000
B0757355126341N00742220EA0005800160000000
B0757395126341N00742220EA0005800160000000
B0757435126341N00742220EA0005800160000000
B0757475126341N00742220EA0005700160000000
B0757515126341N00742220EA0005900160000000
B0757555126341N00742220EA0005800160000000
B0757595126341N00742220EA0005900160000000
B0758035126341N00742220EA0005800160000000
B0758075126341N00742220EA0005800160000000
B0758115126341N00742220EA0005800160000000
B0758155126341N00742220EA0005800160000000
B0758195126341N00742220EA0005800160000000
B0758235126341N00742220EA0005800160000000
B0758275126341N00742220EA0005800160000000
B0758315126341N00742220EA0005800160000000
B0758355126341N00742220EA0005800160007000
B0758395126341N00742220EA0005800160000000
B0758435126341N00742220EA0005800160000000
B0758475126341N00742220EA0005800160000000
B0758515126341N00742220EA0005800160000000
B0758555126341N00742220EA0005800160000000
B0758595126341N00742220EA0005800160000000
B0759035126341N00742220EA0005800160000000
B0759075126341N00742220EA0005800160000000
B0759115126341N00742220EA0005800160000000
B0759155126341N00742220EA0005800160000000
B0759195126341N00742220EA0005800160000000
B0759235126341N00742220EA0005800160000000
B0759275126341N00742220EA0005800168000000
B0759315126341N00742220EA0005800168007000
B0759355126345N00742220EA0005800168000000
B0759395126345N00742220EA0005800168000000
B0759435126345N00742220EA0005800168000000
B0759475126345N00742220EA0005800168000000
B0759515126345N00742220EA0005800168000000
B0759555126345N00742220EA0005800168000000
B0759595126341N00742220EA0005800168000000
B0800035126341N00742220EA0005800168000000
B0800075126341N00742220EA0005800168000000
B0800115126341N00742220EA0005800168000000
B0800155126341N00742220EA0005800168000000
B0800195126341N00742220EA0005800168000000
B0800235126341N00742220EA0005800168000000
B0800275126341N00742220EA0005800160000000
B0800315126341N00742220EA0005800160000000
B0800355126341N00742220EA0005900160000000
B0800395126341N00742220EA0005800160000000
B0800435126341N00742220EA0005800160000000
B0800475126341N00742220EA0005800160000000
B0800515126341N00742220EA0005800160000000
B0800555126341N00742220EA0005800160000000
B0800595126341N00742220EA0005800160000000
B0801035126341N00742220EA0005800160000000
B0801075126341N00742220EA0005800160000000
B0801115126341N00742220EA0005800160000000
B0801155126341N00742220EA0005800160000000
B0801195126341N00742220EA0005800160000000
B0801235126341N00742220EA0005800160000000
B0801275126341N00742220EA0005800160000000
B0801315126341N00742220EA0005800160000000
B0801355126341N00742220EA0005800160000000
B0801395126341N00742220EA0005900160000000
B0801435126341N00742220EA0005800160000000
B0801475126341N00742220EA0005800160000000
B0801515126341N00742220EA0005800160000000
B0801555126341N00742220EA0005800160000000
B0801595126341N00742220EA0005800160000000
B0802035126341N00742220EA0005800160000000
B0802075126341N00742220EA0005800160000000
B0802115126341N00742220EA0005800160000000
B0802155126341N00742220EA0005800160000000
B0802195126341N00742220EA0005800160000000
B0802235126341N00742220EA0005900160000000
B0802275126341N00742220EA0005800160000000
B0802315126341N00742220EA0005800160000000
B0802355126341N00742220EA0005800160000000
B0802395126341N00742220EA0005800160000000
B0802435126341N00742220EA0005800160000000
B0802475126341N00742220EA0005800160000000
B0802515126341N00742220EA0005800160000000
B0802555126341N00742220EA0005800160000000
B0802595126341N00742220EA0005800160000000
B0803035126341N00742220EA0005800160000000
B0803075126341N00742220EA0005800160000000
B0803115126341N00742220EA0005800160000000
B0803155126341N00742220EA0005800160000000
B0803195126341N00742220EA0005800160000000
B0803235126341N00742220EA0005800160000000
B0803275126341N00742220EA0005800160000000
B0803315126341N00742220EA0005800160000000
B0803355126341N00742220EA0005800160000000
B0803395126341N00742220EA0005800160000000
B0803435126341N00742220EA0005900160000000
B0803475126341N00742220EA0005800160000000
B0803515126341N00742220EA0005800160000000
B0803555126341N00742220EA0005800160000000
B0803595126341N00742220EA0005800160000000
B0804035126341N00742220EA0005800160000000
B0804075126341N00742220EA0005900160000000
B0804115126341N00742220EA0005900160000000
B0804155126341N00742220EA0005800160000000
B0804195126341N00742220EA0005800160007000
B0804235126341N00742220EA0005800160000000
B0804275126341N00742216EA0005900160000000
B0804315126341N00742212EA0005800160007000
B0804355126341N00742208EA0005800160000000
B0804395126341N00742208EA0005800152000000
B0804435126341N00742208EA0005900160000000
B0804475126341N00742208EA0005800160007000
B0804515126341N00742208EA0005700160000000
B0804555126341N00742208EA0005900160000000
B0804595126341N00742208EA0005800160000000
B0805035126341N00742208EA0005800160000000
B0805075126341N00742208EA0005800160000000
B0805115126341N00742208EA0005800160000000
B0805155126341N00742208EA0005800160000000
B0805195126341N00742208EA0005800160000000
B0805235126341N00742208EA0005800160000000
B0805275126341N00742208EA0005800160000000
B0805315126341N00742208EA0005800160000000
B0805355126341N00742208EA0005700160000000
B0805395126345N00742208EA0005800160000000
B0805435126345N00742208EA0005900168000000
B0805475126345N00742208EA0005800168000000
B0805515126345N00742208EA0005700168000000
B0805555126345N00742208EA0005800168000000
B0805595126345N00742208EA0005800168000000
B0806035126345N00742208EA0005700168000000
B0806075126350N00742208EA0005800176000000
B0806115126350N00742208EA0005800176000000
B0806155126345N00742208EA0005700176000000
B0806195126345N00742208EA0005800168000000
B0806235126345N00742208EA0005700168000000
B0806275126345N00742208EA0005800168000000
B0806315126345N00742208EA0005800168000000
B0806355126345N00742208EA0005900168000000
B0806395126345N00742208EA0005900168000000
B0806435126345N00742208EA0005800168000000
B0806475126345N00742208EA0005800168000000
B0806515126345N00742208EA0005800000000000
B0806555126345N00742208EA0005800168000000
B0806595126345N00742208EA0005700168000000
B0807035126345N00742208EA0005800168000000
B0807075126345N00742208EA0005800168000000
B0807115126345N00742208EA0005800168000000
B0807155126350N00742208EA0005800168000000
B0807195126350N00742208EA0005800168000000
B0807235126350N00742208EA0005700168000000
B0807275126350N00742208EA0005700168000000
B0807315126350N00742208EA0005800168000000
B0807355126350N00742208EA0005800168000000
B0807395126350N00742208EA0005700168000000
B0807435126350N00742208EA0005800168000000
B0807475126350N00742208EA0005800168000000
B0807515126350N00742208EA0005700168000000
B0807555126350N00742208EA0005800000000000
B0807595126350N00742208EA0005800176000000
B0808035126345N00742208EA0005800176000000
B0808075126345N00742208EA0005800176000000
B0808115126345N00742208EA0005800176000000
B0808155126345N00742208EA0005800176000000
B0808195126345N00742208EA0005700176000000
B0808235126345N00742208EA0005700168000000
B0808275126345N00742208EA0005800168000000
B0808315126345N00742208EA0005800176000000
B0808355126345N00742208EA0005800176000000
B0808395126345N00742208EA0005800168000000
B0808435126345N00742208EA0005800168000000
B0808475126345N00742208EA0005800168000000
B0808515126345N00742208EA0005800168007000
B0808555126345N00742208EA0005800168000000
B0808595126345N00742208EA0005800168000000
C020714080900020714000102
C5126200N00741983E ISERLOHN SUE
C5118850N00742716E ALTENHGNSCHD
C4944583N01012033E KITZINGEN   
C4933666N00734750E ESSWEILER   
C5118850N00742716E ALTENHGNSCHD
C5126200N00741983E ISERLOHN SUE
B0809035126341N00742208EA0005700168000000
B0809075126341N00742208EA0005800160000000
B0809115126341N00742208EA0005800160000000
B0809155126341N00742208EA0005700160000000
B0809195126341N00742208EA0005800160000000
B0809235126341N00742208EA0005800160000000
B0809275126341N00742208EA0005800160000000
B0809315126341N00742208EA0005800160000000
B0809355126341N00742208EA0005800160000000
B0809395126337N00742208EA0005800160000000
B0809435126337N00742208EA0005800152000000
B0809475126337N00742208EA0005800152000000
B0809515126337N00742208EA0005700160000000
B0809555126341N00742208EA0005800160000000
B0809595126337N00742208EA0005800160000000
B0810035126337N00742208EA0005700160000000
B0810075126337N00742208EA0005700160000000
B0810115126337N00742208EA0005800160000000
B0810155126341N00742208EA0005700160000000
B0810195126341N00742208EA0005800160000000
B0810235126341N00742208EA0005800160000000
B0810275126337N00742208EA0005700160007000
B0810315126308N00742162EA0005400160103030
B0810355126254N00742083EA0011100208125010
B0810395126208N00742020EA0019400296111020
K081039152047
B0810435126162N00741950EA0025600360111010
B0810475126108N00741870EA0029800408117010
B0810515126058N00741787EA0033100432104000
B0810555126008N00741712EA0032600432110000
B0810595125945N00741650EA0030300408122000
K081059156047
B0811035125870N00741616EA0030300408109010
B0811075125804N00741612EA0030200408098100
B0811115125737N00741604EA0030000400097150
B0811155125675N00741587EA0030300408096175
B0811195125612N00741566EA0031400416084175
K081119136021
B0811235125550N00741545EA0031700424093175
B0811275125491N00741525EA0032600432089175
B0811315125429N00741516EA0033000432090175
B0811355125366N00741529EA0033900448092175
B0811395125304N00741533EA0034700456088175
K081139132020
B0811435125245N00741533EA0035400464086175
B0811475125183N00741554EA0035200464092175
B0811515125120N00741550EA0035800472090175
B0811555125062N00741525EA0036100472088175
B0811595125008N00741483EA0036400472092175
K081159120016
B0812035124954N00741437EA0037000480088175
B0812075124904N00741391EA0036600480095175
B0812115124850N00741337EA0037000480092175
B0812155124795N00741287EA0037300480092175
B0812195124745N00741241EA0037500488091175
K081219086015
B0812235124691N00741204EA0037500488093175
B0812275124633N00741158EA0037300480094175
B0812315124583N00741108EA0037300480092175
B0812355124529N00741050EA0037900488092175
B0812395124483N00740987EA0038000488093175
K081239076013
B0812435124437N00740916EA0039300504089175
B0812475124400N00740837EA0040200512087200
B0812515124416N00740750EA0041000520089175
B0812555124466N00740737EA0041800000082175
B0812595124495N00740808EA0040900000090175
K081259078014
B0813035124479N00740904EA0041200000093175
B0813075124420N00740945EA0042400000087175
B0813115124354N00740945EA0043200528087200
B0813155124308N00740883EA0044000536088175
B0813195124316N00740791EA0045000544090175
K081319358009
B0813235124366N00740762EA0045600552095175
B0813275124400N00740833EA0046700560088175
B0813315124375N00740916EA0047400000094175
B0813355124304N00740920EA0049000000084175
B0813395124270N00740845EA0049200000086125
K081339358010
B0813435124291N00740762EA0049300584089030
B0813475124341N00740745EA0049800584084000
B0813515124379N00740800EA0049300584089000
B0813555124387N00740895EA0048400576092000
B0813595124341N00740962EA0048800576091000
K081359000010
B0814035124275N00740954EA0049200576093000
B0814075124241N00740866EA0048400576102000
B0814115124266N00740779EA0049200584101000
B0814155124325N00740775EA0049700000087000
B0814195124358N00740845EA0049200576091000
K081419340006
B0814235124350N00740954EA0048700000102000
B0814275124308N00741029EA0050300600086000
B0814315124254N00741066EA0049900592087000
B0814355124195N00741033EA0050100000086000
B0814395124162N00740950EA0049300592098000
K081439342006
B0814435124179N00740858EA0049900600095000
B0814475124220N00740808EA0050800608087000
B0814515124270N00740787EA0050400608093000
B0814555124320N00740804EA0050500608091000
B0814595124362N00740866EA0049800600096000
K081459344010
B0815035124379N00740958EA0048500592099000
B0815075124387N00741066EA0046900568117000
B0815115124400N00741179EA0046300568114000
B0815155124412N00741300EA0045800560120000
B0815195124425N00741416EA0045300552117000
K081519346010
B0815235124437N00741533EA0046000560114000
B0815275124445N00741650EA0045500560117000
B0815315124454N00741766EA0044200544121000
B0815355124462N00741891EA0044200544116000
B0815395124470N00742004EA0044200544113000
K081539192028
B0815435124479N00742116EA0043600536113000
B0815475124491N00742229EA0043200536114000
B0815515124500N00742345EA0042300528114000
B0815555124512N00742458EA0042000520110000
B0815595124516N00742575EA0041100512112000
K081559190045
B0816035124529N00742691EA0040500504114000
B0816075124545N00742804EA0040200504109000
B0816115124558N00742916EA0040900512103000
B0816155124575N00743016EA0042700528089000
B0816195124608N00743091EA0042700528088000
K081619190045
B0816235124666N00743079EA0042700528091000
B0816275124683N00742995EA0042300528090000
B0816315124650N00742912EA0041600520098000
B0816355124591N00742912EA0042000528094000
B0816395124537N00742966EA0042900536090000
K081639190045
B0816435124500N00743037EA0044400552082000
B0816475124483N00743125EA0043900544094000
B0816515124516N00743200EA0044200552093000
B0816555124570N00743187EA0045200560093000
B0816595124583N00743095EA0045000560097000
K081659346004
B0817035124541N00743025EA0046100568089000
B0817075124483N00743033EA0047400576088000
B0817115124450N00743108EA0047900584086000
B0817155124475N00743191EA0046900576098000
B0817195124529N00743191EA0048400592094000
K081719022006
B0817235124554N00743104EA0048700592095000
B0817275124520N00743025EA0049600600088000
B0817315124462N00743033EA0050600608088000
B0817355124433N00743116EA0050900616090000
B0817395124462N00743195EA0050900616091000
K081739008003
B0817435124520N00743179EA0051300616101000
B0817475124533N00743083EA0052300624092000
B0817515124483N00743025EA0053100632093000
B0817555124425N00743075EA0053800640093000
B0817595124416N00743170EA0054300648094000
K081759020006
B0818035124462N00743225EA0054500648096000
B0818075124512N00743166EA0055500664095000
B0818115124500N00743070EA0056000664093000
B0818155124437N00743037EA0057300680090000
B0818195124387N00743091EA0057500680091000
K081819024006
B0818235124387N00743191EA0057500680098000
B0818275124445N00743225EA0057900688102000
B0818315124483N00743158EA0059600704091000
B0818355124466N00743066EA0059300704095000
B0818395124400N00743045EA0060700712084000
K081839020007
B0818435124358N00743116EA0060600712098000
B0818475124370N00743212EA0061800720091000
B0818515124425N00743245EA0061800720096000
B0818555124470N00743183EA0062900736092000
B0818595124462N00743087EA0062700736095000
K081859000007
B0819035124408N00743033EA0063400736096000
B0819075124345N00743079EA0064300752090000
B0819115124337N00743179EA0063900744095000
B0819155124383N00743237EA0065100760091000
B0819195124433N00743195EA0066300768087000
K081919348006
B0819235124437N00743100EA0065900768095000
B0819275124395N00743025EA0067700784086000
B0819315124337N00743037EA0067500776088000
B0819355124300N00743120EA0067100776096000
B0819395124325N00743212EA0068100784091000
K081939358008
B0819435124375N00743233EA0068800792093000
B0819475124416N00743166EA0069600800091000
B0819515124408N00743070EA0070000800088000
B0819555124358N00743016EA0070500808090000
B0819595124295N00743054EA0070800816088000
K081959000007
B0820035124279N00743154EA0070300808096000
B0820075124316N00743225EA0071800824090000
B0820115124366N00743200EA0072100824093000
B0820155124387N00743104EA0073000832090000
B0820195124350N00743029EA0073400832090000
K082019004007
B0820235124283N00743025EA0074200840088000
B0820275124250N00743100EA0073600840095000
B0820315124266N00743195EA0073800840096000
B0820355124320N00743216EA0075200856088000
B0820395124358N00743150EA0075800856084000
K082039028005
B0820435124350N00743054EA0076200864086000
B0820475124300N00743000EA0077100872086000
B0820515124241N00743016EA0077300872089000
B0820555124208N00743100EA0077100872094000
B0820595124229N00743187EA0077100872087000
K082059024005
B0821035124283N00743208EA0077400872095000
B0821075124325N00743150EA0078400888086000
B0821115124325N00743054EA0078500888090000
B0821155124275N00742987EA0079200896093000
B0821195124208N00743000EA0079400896093000
K082119008007
B0821235124150N00743037EA0079400896092000
B0821275124091N00743079EA0079300896097000
B0821315124033N00743129EA0077900888107000
B0821355123970N00743183EA0076600872111000
B0821395123904N00743237EA0075600864112000
K082139012009
B0821435123837N00743295EA0075200856114000
B0821475123775N00743345EA0076000864104000
B0821515123712N00743395EA0075200856110000
B0821555123650N00743445EA0075800864104000
B0821595123591N00743487EA0076000864094000
K082159286014
B0822035123525N00743525EA0075000856103000
B0822075123458N00743562EA0074900856103000
B0822115123391N00743595EA0076000864098000
B0822155123333N00743625EA0077500880087000
B0822195123283N00743662EA0077600880081000
K082219284016
B0822235123254N00743750EA0077200880092000
B0822275123275N00743841EA0076300872099000
B0822315123337N00743854EA0076300872099000
B0822355123362N00743766EA0076200872095000
B0822395123325N00743679EA0076500872099000
K082239284016
B0822435123262N00743650EA0077800880091000
B0822475123200N00743637EA0077700880096000
B0822515123133N00743629EA0077500880096000
B0822555123070N00743633EA0077300880095000
B0822595123008N00743675EA0077200880100000
K082259284016
B0823035122966N00743745EA0077800888089000
B0823075122966N00743845EA0076400872098000
B0823115123016N00743900EA0076100872097000
B0823155123066N00743837EA0075900872097000
B0823195123066N00743737EA0076100872095000
K082319284016
B0823235123054N00743641EA0076100872094000
B0823275123041N00743541EA0074700856105000
B0823315123025N00743437EA0074300856103000
B0823355123008N00743333EA0073700848105000
B0823395122991N00743229EA0073500848107000
K082339284016
B0823435122975N00743120EA0073400848107000
B0823475122962N00743016EA0072900840109000
B0823515122950N00742904EA0072300832113000
B0823555122933N00742795EA0071800832117000
B0823595122920N00742683EA0070800824120000
K082359162034
B0824035122900N00742566EA0070800824118000
B0824075122883N00742454EA0070300816119000
B0824115122866N00742337EA0069700808120000
B0824155122845N00742220EA0068900800121000
B0824195122820N00742108EA0069300808115000
K082419152052
B0824235122795N00742004EA0069800808106000
B0824275122775N00741904EA0069900808103000
B0824315122750N00741808EA0070500816094000
B0824355122725N00741716EA0071600824091000
B0824395122704N00741629EA0073200840082000
K082439142049
B0824435122725N00741545EA0073300840085000
B0824475122779N00741533EA0073500832089000
B0824515122808N00741616EA0074600848089000
B0824555122770N00741700EA0075700856079000
B0824595122704N00741691EA0076300864093000
K082459148054
B0825035122679N00741595EA0077500864082000
B0825075122720N00741537EA0077800872096000
B0825115122766N00741600EA0078800000095000
B0825155122737N00741695EA0080500888092000
B0825195122670N00741679EA0080600896096000
K082519346010
B0825235122654N00741579EA0082000000095000
B0825275122700N00741533EA0083000912090000
B0825315122737N00741604EA0083400912094000
B0825355122708N00741695EA0084900936089000
B0825395122645N00741691EA0085700944091000
K082539000009
B0825435122620N00741595EA0086000000097000
B0825475122670N00741541EA0086800952098000
B0825515122712N00741604EA0088200000091000
B0825555122683N00741695EA0089100976094000
B0825595122616N00741700EA0090200984089000
K082559340009
B0826035122583N00741612EA0091200992096000
B0826075122625N00741545EA0091401000097000
B0826115122670N00741600EA0092300000096000
B0826155122650N00741700EA0093901016095000
B0826195122583N00741733EA0094701032093000
K082619342013
B0826235122516N00741758EA0094501024109000
B0826275122441N00741783EA0094101024117000
B0826315122362N00741804EA0093501024122000
B0826355122279N00741825EA0093101016125000
B0826395122200N00741845EA0093701024120000
K082639332013
B0826435122116N00741862EA0092301016124000
B0826475122037N00741879EA0092001016120000
B0826515121958N00741895EA0092201016114000
B0826555121879N00741912EA0093001024111000
B0826595121804N00741925EA0093001024110000
K082659308014
B0827035121729N00741941EA0092701016112000
B0827075121658N00741962EA0091701008115000
B0827115121579N00741983EA0091501008113000
B0827155121508N00742000EA0090501000113000
B0827195121429N00742020EA0089000984127000
K082719314009
B0827235121350N00742041EA0088900984124000
B0827275121270N00742058EA0089000984117000
B0827315121195N00742075EA0089000992111000
B0827355121120N00742087EA0088800984111000
B0827395121041N00742100EA0088400984112000
K082739314011
B0827435120966N00742112EA0088400984108000
B0827475120891N00742120EA0088500984110000
B0827515120820N00742129EA0088800992104000
B0827555120745N00742133EA0088700984105000
B0827595120679N00742104EA0088000984106000
K082759322011
B0828035120608N00742112EA0088200984112000
B0828075120541N00742133EA0090001000097000
B0828115120483N00742162EA0090001000095000
B0828155120420N00742200EA0088900992104000
B0828195120354N00742233EA0087000976114000
K082819314009
B0828225120295N00742258EA0086100968117000
B0828235120279N00742266EA0086000960117000
B0828245120262N00742275EA0086000960116000
B0828255120241N00742283EA0085800960118000
B0828265120225N00742291EA0085700960118000
B0828275120204N00742295EA0085500960118000
B0828285120187N00742304EA0085600960115000
B0828295120166N00742312EA0085800960110000
B0828305120150N00742320EA0085900960110000
B0828315120129N00742325EA0085800960109000
B0828355120058N00742350EA0084600952118000
B0828395119983N00742379EA0084400944119000
K082839296011
B0828435119908N00742404EA0083800944115000
B0828475119833N00742425EA0082800936118000
B0828515119754N00742450EA0083100936114000
B0828555119683N00742475EA0083300936109000
B0828595119612N00742500EA0084300944100000
K082859314011
B0829035119550N00742533EA0084700952090000
B0829075119491N00742591EA0084700952098000
B0829115119433N00742645EA0085700960097000
B0829155119383N00742712EA0086300968088000
B0829195119370N00742808EA0086200968088000
K082919308011
B0829235119416N00742875EA0085300952098000
B0829275119479N00742841EA0084700952107000
B0829315119491N00742741EA0086400968104000
B0829355119470N00742654EA0087500976090000
B0829395119420N00742595EA0088000984089000
B0829405119408N00742591EA0088000984086000
B0829415119391N00742587EA0088000984088000
K082941308011
B0829425119375N00742591EA0088100984088000
B0829435119358N00742595EA0088300984087000
B0829445119345N00742608EA0088300984091000
B0829455119333N00742625EA0088500984088000
B0829465119320N00742645EA0088700992089000
B0829475119316N00742666EA0088700992084000
B0829485119312N00742691EA0088800992086000
B0829495119312N00742716EA0088600992086000
B0829515119320N00742762EA0088400984088000
B0829555119370N00742812EA0087600984092000
B0829595119420N00742754EA0087300976103000
K082959324007
B0830035119400N00742666EA0088400992093000
B0830075119337N00742637EA0088400984096000
B0830085119320N00742633EA0088300984101000
B0830095119304N00742633EA0088000984100000
B0830105119287N00742637EA0088000984105000
B0830115119270N00742637EA0087700984104000
B0830125119250N00742637EA0087700984103000
B0830135119233N00742641EA0087900984102000
B0830145119216N00742645EA0087800984100000
B0830155119200N00742645EA0087600984099000
B0830165119183N00742650EA0087400984098000
B0830175119166N00742658EA0087100976104000
B0830185119150N00742670EA0086900976105000
B0830195119133N00742683EA0086800976104000
B0830205119116N00742700EA0086700976105000
B0830215119104N00742716EA0086500968104000
K083021322006
B0830225119087N00742733EA0086100968104000
B0830235119075N00742750EA0085800968105000
B0830245119058N00742766EA0085600960106000
B0830255119045N00742787EA0085400960109000
B0830275119012N00742820EA0085200960116000
B0830315118954N00742895EA0085600960113000
B0830355118895N00742958EA0086700976099000
B0830395118845N00743016EA0087000976089000
K083039292010
B0830435118791N00743079EA0086100968097000
B0830475118737N00743145EA0085300960096000
B0830515118683N00743216EA0083800944107000
B0830555118629N00743295EA0082600936112000
B0830595118570N00743375EA0081800928116000
K083059270017
B0831035118512N00743454EA0081500920115000
B0831075118454N00743533EA0081000920118000
B0831115118391N00743612EA0080100912120000
B0831155118329N00743691EA0079700904120000
B0831195118270N00743770EA0079300904119000
K083119254023
B0831235118208N00743850EA0078900896118000
B0831275118154N00743933EA0078600896117000
B0831315118100N00744016EA0078500896114000
B0831355118050N00744100EA0078100888111000
B0831395118000N00744183EA0077800888106000
K083139250024
B0831435117958N00744275EA0077500888105000
B0831475117912N00744362EA0077500888108000
B0831515117866N00744450EA0078700896102000
B0831555117825N00744529EA0080100912093000
B0831595117787N00744600EA0081500928084000
K083159248029
B0832035117729N00744633EA0081600928092000
B0832075117691N00744566EA0081600928086000
B0832115117720N00744495EA0080600912094000
B0832155117779N00744525EA0081100904094000
B0832195117800N00744620EA0082000920096000
K083219248025
B0832235117779N00744716EA0083300936095000
B0832275117725N00744750EA0083800936090000
B0832315117679N00744675EA0083100928094000
B0832355117712N00744595EA0083600928094000
B0832395117770N00744620EA0084400000091000
K083239342004
B0832435117795N00744704EA0085800944090000
B0832475117791N00744795EA0086600952086000
B0832515117733N00744825EA0086000944093000
B0832555117687N00744750EA0086500952087000
B0832595117708N00744666EA0086700944093000
K083259332003
B0833035117770N00744687EA0086900000101000
B0833075117775N00744787EA0088100960089000
B0833115117712N00744808EA0087300960098000
B0833155117679N00744716EA0087400952107000
B0833195117712N00744645EA0088900968090000
K083319282003
B0833235117770N00744666EA0089300000097000
B0833275117770N00744770EA0090200984095000
B0833315117712N00744787EA0090200984095000
B0833355117683N00744691EA0089800976107000
B0833395117733N00744633EA0091200992100000
K083339310004
B0833435117779N00744708EA0091200000103000
B0833475117737N00744791EA0092101000098000
B0833515117687N00744729EA0092001000104000
B0833555117720N00744645EA0093501008096000
B0833595117775N00744683EA0094100000093000
K083359286004
B0834035117770N00744791EA0093501016107000
B0834075117704N00744808EA0094101024100000
B0834115117679N00744712EA0094701016103000
B0834155117725N00744654EA0095901032095000
B0834195117783N00744691EA0095400000101000
K083419350005
B0834235117791N00744800EA0096701048097000
B0834275117737N00744854EA0096701040097000
B0834315117687N00744779EA0095801032104000
B0834355117712N00744683EA0097301056097000
B0834395117758N00744612EA0097101056110000
K083439298004
B0834435117804N00744533EA0097801064110000
B0834475117850N00744454EA0097601064111000
B0834515117895N00744370EA0097301064111000
B0834555117945N00744287EA0097101056112000
B0834595117987N00744195EA0096701056117000
K083459212047
B0835035118029N00744095EA0095701048119000
B0835075118070N00743995EA0095001040119000
B0835115118108N00743900EA0094501040116000
B0835155118141N00743795EA0094001032121000
B0835195118179N00743691EA0093501032119000
K083519200062
B0835235118212N00743583EA0092601024124000
B0835275118250N00743475EA0092001016127000
B0835315118287N00743370EA0091701016127000
B0835355118329N00743266EA0091401008127000
B0835395118366N00743166EA0090901008128000
K083539196067
B0835435118408N00743066EA0090801008121000
B0835475118450N00742966EA0089901000124000
B0835515118487N00742866EA0089801000123000
B0835555118533N00742766EA0089701000124000
B0835595118575N00742670EA0091401016121000
K083559200067
B0836035118612N00742591EA0094901048093000
B0836075118629N00742500EA0093701032102000
B0836115118575N00742433EA0094301040100000
B0836155118516N00742491EA0094301048108000
B0836195118516N00742600EA0095801056101000
K083619200068
B0836235118570N00742654EA0096001064105000
B0836275118637N00742629EA0096601064103000
B0836315118683N00742554EA0097101072107000
B0836355118725N00742470EA0096601064107000
B0836395118770N00742379EA0094801048121000
K083639342006
B0836435118812N00742283EA0094101040125000
B0836475118858N00742183EA0093601032125000
B0836515118887N00742075EA0093801040116000
B0836555118916N00741979EA0093701032107000
B0836565118933N00741962EA0093701032108000
B0836575118950N00741958EA0093601032109000
B0836585118966N00741962EA0093401032110000
B0836595118983N00741975EA0093100000110000
B0837005118995N00741991EA0092900000111000
B0837015119008N00742016EA0092800000114000
K083701198071
B0837025119012N00742045EA0092500000114000
B0837035119012N00742075EA0092201032115000
B0837045119008N00742104EA0091901032115000
B0837055119000N00742133EA0091701024117000
B0837075118975N00742179EA0091501024116000
B0837115118908N00742245EA0091301016115000
B0837155118850N00742316EA0091201016113000
B0837195118791N00742387EA0090601016111000
K083719198071
B0837235118737N00742462EA0090501008108000
B0837275118695N00742558EA0089601000110000
B0837315118654N00742654EA0089601000114000
B0837355118616N00742750EA0092301032103000
B0837395118583N00742833EA0093701040086000
K083739202065
B0837435118533N00742879EA0094001048088000
B0837475118487N00742833EA0094401048088000
B0837515118500N00742741EA0094401048097000
B0837555118562N00742737EA0095600000090000
B0837595118583N00742825EA0096301048093000
K083759342006
B0838035118545N00742908EA0097001048093000
B0838075118500N00742979EA0098801072090000
B0838115118466N00743058EA0099601080090000
B0838155118437N00743141EA0100501088086000
B0838195118404N00743233EA0098501072107000
K083819342006
B0838235118366N00743341EA0098401072113000
B0838275118329N00743445EA0098301072114000
B0838315118291N00743558EA0097301064117000
B0838355118254N00743675EA0096501056122000
B0838395118212N00743791EA0095801056125000
K083839236018
B0838435118175N00743908EA0095501048125000
B0838475118133N00744029EA0094801040129000
B0838515118095N00744150EA0094201040135000
B0838555118054N00744266EA0094201040126000
B0838595118016N00744383EA0093401032126000
K083859228037
B0839035117979N00744504EA0092901024124000
B0839075117941N00744620EA0092601024126000
B0839115117904N00744729EA0093301032117000
B0839155117866N00744833EA0094801048105000
B0839195117837N00744920EA0096501064090000
K083919230046
B0839235117795N00744991EA0096201056092000
B0839275117733N00745016EA0096101064094000
B0839315117670N00745029EA0096501064093000
B0839355117612N00745054EA0095901056093000
B0839395117550N00745087EA0095601056096000
K083939232035
B0839435117487N00745133EA0095101048095000
B0839475117429N00745195EA0095601056098000
B0839515117375N00745258EA0096401064094000
B0839555117320N00745320EA0096001064093000
B0839595117270N00745387EA0095401056098000
K083959272018
B0840035117220N00745458EA0094001048106000
B0840075117162N00745529EA0093201040113000
B0840115117100N00745604EA0092001024120000
B0840155117037N00745679EA0091101016121000
B0840195116975N00745758EA0090201008122000
K084019256022
B0840235116904N00745833EA0089101000129000
B0840275116837N00745908EA0089601000121000
B0840315116770N00745979EA0090101008121000
B0840355116704N00746050EA0089901008120000
B0840395116637N00746125EA0089101000125000
K084039256025
B0840435116566N00746204EA0088500992128000
B0840475116495N00746279EA0088100992129000
B0840515116425N00746354EA0087400984132000
B0840555116354N00746429EA0086800976133000
B0840595116283N00746508EA0086200968132000
K084059254026
B0841035116212N00746583EA0085600968131000
B0841075116141N00746662EA0085300960131000
B0841115116066N00746737EA0084900960134000
B0841155115995N00746812EA0084600952134000
B0841195115929N00746887EA0084100952133000
K084119252025
B0841235115858N00746966EA0083200944134000
B0841275115791N00747045EA0083300944130000
B0841315115725N00747125EA0082600936130000
B0841355115658N00747212EA0082000928132000
B0841395115595N00747295EA0081600928131000
K084139246024
B0841435115533N00747379EA0081500920122000
B0841475115475N00747462EA0080100912128000
B0841515115412N00747550EA0079200904127000
B0841555115350N00747637EA0079100904123000
B0841595115295N00747725EA0078600896122000
K084159246027
B0842035115241N00747812EA0078600896117000
B0842075115187N00747900EA0078100888115000
B0842115115141N00747991EA0078200888112000
B0842155115104N00748087EA0077600888108000
B0842195115075N00748191EA0077600888105000
K084219246024
B0842235115045N00748295EA0077500888103000
B0842275115025N00748400EA0076200872106000
B0842315115004N00748512EA0075300864111000
B0842355114979N00748620EA0075200864106000
B0842395114954N00748725EA0074400856107000
K084239228033
B0842435114929N00748841EA0073200840112000
B0842475114912N00748954EA0073200840106000
B0842515114891N00749066EA0072800840104000
B0842555114870N00749179EA0072300832105000
B0842595114850N00749287EA0072500832103000
K084259224040
B0843035114833N00749387EA0072900840095000
B0843075114816N00749483EA0073200840091000
B0843115114808N00749575EA0073400848090000
B0843155114795N00749666EA0074000848086000
B0843195114783N00749758EA0074500856084000
K084319222040
B0843235114766N00749845EA0074700856083000
B0843275114754N00749945EA0075100864092000
B0843315114741N00750037EA0076200872088000
B0843355114750N00750129EA0075300864097000
B0843395114745N00750225EA0075700864094000
K084339220039
B0843435114720N00750312EA0075700864091000
B0843475114695N00750400EA0075200864090000
B0843515114662N00750479EA0074300856096000
B0843555114629N00750570EA0074100848094000
B0843595114595N00750654EA0073600848091000
K084359224039
B0844035114558N00750737EA0073500848094000
B0844075114525N00750816EA0072900840093000
B0844115114487N00750900EA0072400832088000
B0844155114450N00750979EA0071900832093000
B0844195114416N00751070EA0070900816097000
K084419234034
B0844235114379N00751158EA0070500816096000
B0844275114350N00751245EA0070600816093000
B0844315114320N00751337EA0069500808097000
B0844355114291N00751425EA0068900800094000
B0844395114300N00751516EA0067500784097000
K084439236031
B0844435114358N00751562EA0065800768107000
B0844475114416N00751533EA0065700768105000
B0844515114470N00751483EA0065200760101000
B0844555114512N00751416EA0064400752105000
B0844595114562N00751358EA0063700744103000
K084459236031
B0845035114608N00751300EA0063200744101000
B0845075114654N00751241EA0062500736103000
B0845115114704N00751187EA0062100728100000
B0845155114754N00751133EA0061000720105000
B0845195114808N00751079EA0060500712106000
K084519236031
B0845235114862N00751020EA0060200712107000
B0845275114916N00750966EA0060300712103000
B0845315114966N00750912EA0060700720100000
B0845355115012N00750858EA0060900720095000
B0845395115058N00750804EA0060500720099000
K084539226042
B0845435115104N00750750EA0059600712101000
B0845475115154N00750695EA0057600688106000
B0845515115208N00750637EA0057100680105000
B0845555115262N00750583EA0056200672106000
B0845595115312N00750529EA0055900672098000
K084559228038
B0846035115366N00750479EA0054400656105000
B0846075115425N00750425EA0054400656102000
B0846115115479N00750375EA0054100656103000
B0846155115533N00750329EA0053300640102000
B0846195115591N00750287EA0051900632103000
K084619228038
B0846235115654N00750254EA0051100624108000
B0846275115716N00750220EA0052100632086000
B0846315115775N00750187EA0053100640075000
B0846355115837N00750154EA0051900632078000
B0846395115904N00750116EA0049900608114030
K084639204019
B0846435115966N00750087EA0051700632097175
B0846475116025N00750058EA0052700640095150
B0846515116075N00750016EA0055000664083150
B0846555116112N00749954EA0054700656098150
B0846595116125N00749862EA0055100664090175
K084659204019
B0847035116150N00749775EA0055800672093150
B0847075116179N00749700EA0055700672097150
B0847115116212N00749625EA0056300672090150
B0847155116245N00749562EA0056900680086175
B0847195116283N00749500EA0056300680093150
K084719204019
B0847235116329N00749445EA0057300688093175
B0847275116379N00749395EA0058500696088150
B0847315116429N00749379EA0058900704088150
B0847355116483N00749395EA0058500696093175
B0847395116537N00749391EA0058300696090150
K084739204019
B0847435116591N00749387EA0058400696088175
B0847475116645N00749370EA0058400696091175
B0847515116704N00749358EA0058400696092150
B0847555116762N00749345EA0059000704092150
B0847595116816N00749329EA0059800712087150
K084759200017
B0848035116875N00749308EA0060500720087175
B0848075116925N00749283EA0062000736084175
B0848115116979N00749258EA0063000744088175
B0848155117029N00749237EA0064300752089150
B0848195117070N00749191EA0064000752090150
K084819152008
B0848235117087N00749104EA0064400752086150
B0848275117058N00749025EA0064900760086175
B0848315117004N00748983EA0065700768088175
B0848355116950N00749000EA0066400776085175
B0848395116912N00749070EA0066300776087175
K084839152008
B0848435116916N00749162EA0066500776089150
B0848475116954N00749220EA0067500784090175
B0848515117004N00749241EA0068300800089150
B0848555117054N00749241EA0068900800076125
B0848595117095N00749225EA0067800792076030
K084859024007
B0849035117137N00749191EA0066200776088000
B0849075117191N00749145EA0065500768095000
B0849115117245N00749116EA0066000768092000
B0849155117295N00749091EA0066600776086000
B0849195117350N00749100EA0066900000084000
K084919152006
B0849235117370N00749183EA0066500776091000
B0849275117333N00749258EA0066400776090000
B0849315117270N00749237EA0066900776091000
B0849355117250N00749141EA0067800784095000
B0849395117291N00749079EA0068900784088000
K084939152006
B0849435117345N00749112EA0067700000098000
B0849475117345N00749212EA0067800784098000
B0849515117287N00749254EA0068500784091000
B0849555117237N00749195EA0069300800088000
B0849595117237N00749100EA0070000808097000
K084959356007
B0850035117291N00749066EA0069900800095000
B0850075117345N00749108EA0068900000101000
B0850115117362N00749200EA0070300808092000
B0850155117345N00749287EA0070200808087000
B0850195117316N00749362EA0070900816086000
K085019354006
B0850235117254N00749375EA0071200816088000
B0850275117212N00749300EA0072100824093000
B0850315117237N00749216EA0073600840087000
B0850355117291N00749233EA0073200000091000
B0850395117308N00749325EA0072200824107000
K085039032007
B0850435117275N00749408EA0075400856089000
B0850475117216N00749404EA0074700848092000
B0850515117179N00749316EA0074900848098000
B0850555117208N00749233EA0076500864090000
B0850595117266N00749237EA0076500864095000
K085059028005
B0851035117291N00749320EA0076500864096000
B0851075117254N00749400EA0076800864101000
B0851115117187N00749375EA0077400864094000
B0851155117183N00749270EA0077600872100000
B0851195117241N00749233EA0077500864105000
K085119018007
B0851235117275N00749325EA0078000872100000
B0851275117245N00749412EA0079400888093000
B0851315117183N00749416EA0079100888093000
B0851355117154N00749325EA0079000888103000
B0851395117200N00749258EA0080000904100000
K085139074000
B0851435117250N00749320EA0079400904108000
B0851475117229N00749425EA0080500904103000
B0851515117166N00749441EA0080600912100000
B0851555117112N00749370EA0080700912105000
B0851595117137N00749279EA0082800936091000
K085159036005
B0852035117187N00749275EA0083300936090000
B0852075117216N00749354EA0083300936092000
B0852115117183N00749433EA0083400936090000
B0852155117120N00749433EA0083300936098000
B0852195117075N00749354EA0084100944097000
K085219026007
B0852235117091N00749266EA0085300952094000
B0852275117150N00749270EA0085500960093000
B0852315117170N00749358EA0085900960094000
B0852355117129N00749429EA0086800968092000
B0852395117066N00749408EA0086400968097000
K085239358006
B0852435117054N00749308EA0087300976100000
B0852475117104N00749266EA0088000000101000
B0852515117145N00749333EA0088800992096000
B0852555117129N00749425EA0089100992095000
B0852595117062N00749445EA0088600984103000
K085259006005
B0853035117016N00749366EA0089300992103000
B0853075117050N00749279EA0089801000106000
B0853115117104N00749325EA0090801008104000
B0853155117095N00749429EA0091701016098000
B0853195117029N00749462EA0092001016096000
K085319342005
B0853235116979N00749391EA0093201032092000
B0853275116987N00749295EA0093701032097000
B0853315117045N00749279EA0094301040099000
B0853355117075N00749366EA0094301040106000
B0853395117033N00749450EA0094701040102000
K085339356009
B0853435116966N00749408EA0094901048103000
B0853475116975N00749308EA0095701048107000
B0853515117033N00749308EA0096501064099000
B0853555117045N00749412EA0096501064105000
B0853595116987N00749470EA0097101064104000
K085359004006
B0854035116937N00749387EA0097101064107000
B0854075116962N00749300EA0098701080101000
B0854115117020N00749300EA0098301080106000
B0854155117054N00749387EA0099201088102000
B0854195117029N00749483EA0100301096097000
K085419354010
B0854235116966N00749512EA0100601104096000
B0854275116912N00749450EA0100601104100000
B0854315116904N00749345EA0100801104105000
B0854355116950N00749283EA0101701112102000
B0854395117004N00749329EA0101401112108000
K085439346008
B0854435117000N00749437EA0102301128102000
B0854475116937N00749483EA0102901128098000
B0854515116883N00749420EA0102901128103000
B0854555116887N00749325EA0104201144098000
B0854595116933N00749275EA0103501136103000
K085459342011
B0855035116987N00749320EA0104101136101000
B0855075116995N00749420EA0105001144095000
B0855115116945N00749495EA0105501152096000
B0855155116883N00749500EA0105801152093000
B0855195116833N00749433EA0105701152097000
K085519342010
B0855235116829N00749333EA0106101152095000
B0855275116870N00749279EA0106601160090000
B0855315116929N00749304EA0106001152102000
B0855355116950N00749400EA0107301160098000
B0855395116912N00749483EA0107401160098000
K085539354008
B0855435116845N00749479EA0107301160099000
B0855475116816N00749383EA0107601160097000
B0855515116845N00749308EA0107901168096000
B0855555116908N00749320EA0106801152103000
B0855595116941N00749412EA0108101168104000
K085559344008
B0856035116920N00749508EA0109301184096000
B0856075116887N00749600EA0109201184103000
B0856115116850N00749683EA0110301192094000
B0856155116812N00749762EA0110101192099000
B0856195116758N00749833EA0110301192096000
K085619346008
B0856235116704N00749879EA0110301200094000
B0856275116645N00749937EA0109001184108000
B0856315116587N00750000EA0108201176106000
B0856355116529N00750066EA0108701184110000
B0856395116470N00750129EA0110301200100000
K085639266017
B0856435116416N00750187EA0110901208095000
B0856475116358N00750241EA0109901200103000
B0856515116295N00750300EA0107501176118000
B0856555116225N00750358EA0106301160118000
B0856595116150N00750420EA0106001160118000
K085659262020
B0857035116079N00750479EA0105501160118000
B0857075116008N00750545EA0105101152120000
B0857115115941N00750612EA0106101160107000
B0857155115883N00750670EA0107401176098000
B0857195115825N00750725EA0108001184091000
K085719274025
B0857235115770N00750779EA0107601184095000
B0857275115708N00750837EA0106701168105000
B0857315115650N00750904EA0106301168104000
B0857355115587N00750970EA0105901168109000
B0857395115529N00751037EA0105201160112000
K085739272023
B0857435115462N00751104EA0104001144116000
B0857475115400N00751170EA0103301144119000
B0857515115333N00751241EA0103401144115000
B0857555115275N00751308EA0103301144115000
B0857595115212N00751375EA0102901136117000
K085759260022
B0858035115154N00751450EA0102201136117000
B0858075115091N00751516EA0101901128119000
B0858115115029N00751579EA0101501128115000
B0858155114966N00751641EA0101601128114000
B0858195114908N00751708EA0100701120114000
K085819248022
B0858235114845N00751779EA0099701112119000
B0858275114779N00751850EA0098401096125000
B0858315114712N00751929EA0097601088125000
B0858355114650N00752004EA0096701080122000
B0858395114579N00752083EA0094701056133000
K085839248019
B0858435114516N00752166EA0095501064126000
B0858475114458N00752250EA0097601088105000
B0858515114408N00752325EA0098901104101000
B0858555114383N00752416EA0099201104092000
B0858595114408N00752504EA0099001104092000
K085859252018
B0859035114470N00752529EA0097501088108000
B0859075114512N00752445EA0098101096103000
B0859115114479N00752358EA0097701088106000
B0859155114412N00752350EA0098201096100000
B0859195114350N00752370EA0098201096098000
K085919252018
B0859235114287N00752412EA0098101096098000
B0859275114241N00752487EA0097701096102000
B0859315114212N00752579EA0097701096097000
B0859355114187N00752675EA0097601088100000
B0859395114158N00752775EA0097301088101000
K085939194000
B0859435114133N00752879EA0096301080107000
B0859475114108N00752987EA0095701072108000
B0859515114083N00753091EA0095601072106000
B0859555114062N00753200EA0094601064110000
B0859595114041N00753308EA0093901056112000
K085959218017
B0900035114020N00753420EA0093201048114000
B0900075114004N00753533EA0093201048111000
B0900115113975N00753637EA0093001048109000
B0900155113920N00753720EA0092501040111000
B0900195113858N00753787EA0092301040111000
K090019218017
B0900235113795N00753854EA0091601032112000
B0900275113733N00753916EA0091301024111000
B0900315113670N00753979EA0090801024112000
B0900355113608N00754045EA0089901016117000
B0900395113541N00754112EA0088901008117000
K090039248027
B0900435113479N00754179EA0088501000114000
B0900475113416N00754245EA0087900992113000
B0900515113350N00754308EA0086900984116000
B0900555113287N00754375EA0086300976117000
B0900595113220N00754445EA0085500968121000
K090059258023
B0901035113154N00754516EA0083800952129000
B0901075113083N00754591EA0083100944132000
B0901115113012N00754670EA0083600952125000
B0901155112945N00754737EA0083800952120000
B0901195112875N00754804EA0083100944124000
K090119260026
B0901235112800N00754875EA0082500944132000
B0901275112729N00754945EA0081900936129000
B0901315112654N00755016EA0081700936131000
B0901355112587N00755091EA0082100936124000
B0901395112525N00755162EA0083100944108000
K090139260026
B0901435112470N00755233EA0085400968095000
B0901475112425N00755304EA0085800976090000
B0901515112387N00755387EA0085500968094000
B0901555112345N00755462EA0085500968091000
B0901595112300N00755533EA0084300960102000
K090159260025
B0902035112245N00755604EA0083300952106000
B0902075112191N00755679EA0082700944108000
B0902115112129N00755754EA0081500928113000
B0902155112066N00755825EA0080700920116000
B0902195112004N00755900EA0080400920113000
K090219254031
B0902235111941N00755975EA0080400920118000
B0902275111883N00756045EA0082900944100000
B0902315111833N00756112EA0082900944098000
B0902355111833N00756216EA0083900960101000
B0902395111887N00756258EA0084900968096000
K090239254030
B0902435111929N00756187EA0084400960105000
B0902475111895N00756100EA0085200968101000
B0902515111829N00756137EA0085600976102000
B0902555111837N00756241EA0087500992095000
B0902595111891N00756262EA0088401000086000
K090259302006
B0903035111920N00756183EA0088101000096000
B0903075111879N00756108EA0088501000095000
B0903115111820N00756129EA0089301008093000
B0903155111795N00756220EA0090201016093000
B0903195111837N00756287EA0091101024093000
K090319334003
B0903235111891N00756245EA0091301032090000
B0903275111879N00756154EA0091601032093000
B0903315111820N00756133EA0091801032097000
B0903355111783N00756216EA0093001048096000
B0903395111812N00756304EA0094601064092000
K090339294004
B0903435111866N00756308EA0095501072086000
B0903475111895N00756229EA0095401072093000
B0903515111858N00756154EA0095601072094000
B0903555111795N00756175EA0096101080096000
B0903595111779N00756275EA0097201088092000
K090359308007
B0904035111820N00756337EA0098701104088000
B0904075111870N00756312EA0099501112083000
B0904115111879N00756225EA0098901104093000
B0904155111825N00756175EA0098801104098000
B0904195111766N00756208EA0100901120088000
K090419296009
B0904235111737N00756287EA0101701136092000
B0904275111766N00756362EA0102401136083000
B0904315111825N00756350EA0101701136098000
B0904355111845N00756262EA0103301152090000
B0904395111812N00756191EA0104601160083000
K090439346004
B0904435111754N00756175EA0105201168087000
B0904475111704N00756225EA0106001176087000
B0904515111700N00756325EA0106101176093000
B0904555111750N00756383EA0106801184095000
B0904595111800N00756337EA0107201192093000
K090459318003
B0905035111787N00756237EA0107801192095000
B0905075111729N00756216EA0108901208095000
B0905115111687N00756295EA0109001208096000
B0905155111704N00756395EA0109701216097000
B0905195111766N00756404EA0110101216092000
K090519308005
B0905235111795N00756325EA0110001216100000
B0905275111762N00756241EA0111801240090000
B0905315111704N00756254EA0112001240092000
B0905355111679N00756350EA0112601240088000
B0905395111712N00756437EA0112701240091000
K090539300002
B0905435111775N00756433EA0112901248094000
B0905475111804N00756354EA0113401256100000
B0905515111775N00756275EA0114901264085000
B0905555111708N00756262EA0114901264098000
B0905595111670N00756341EA0116501280088000
K090559304007
B0906035111683N00756437EA0116901288084000
B0906075111737N00756479EA0117101288093000
B0906115111783N00756425EA0117601296093000
B0906155111775N00756341EA0117901296092000
B0906195111712N00756312EA0117201288102000
K090619296008
B0906235111662N00756387EA0118901304094000
B0906275111675N00756483EA0119701312088000
B0906315111733N00756525EA0119201312099000
B0906355111779N00756462EA0119701312097000
B0906395111762N00756375EA0120001320096000
K090639286007
B0906435111695N00756366EA0119301312101000
B0906475111662N00756462EA0119801312101000
B0906515111691N00756554EA0121701328085000
B0906555111745N00756575EA0121801328088000
B0906595111791N00756512EA0121401328095000
K090659274009
B0907035111775N00756420EA0121701328095000
B0907075111716N00756395EA0122201336094000
B0907115111670N00756466EA0123101344086000
B0907155111666N00756566EA0123101344091000
B0907195111670N00756670EA0124001352089000
K090719286007
B0907235111658N00756770EA0124201352088000
B0907275111616N00756854EA0125201368085000
B0907315111570N00756916EA0125401368086000
B0907355111512N00756966EA0125301368086000
B0907395111454N00757029EA0123701352102000
K090739286007
B0907435111387N00757095EA0122301336119000
B0907475111316N00757162EA0121801336118000
B0907515111250N00757229EA0120601320123000
B0907555111179N00757300EA0119401312127000
B0907595111125N00757341EA0119701312128000
K090759256028
B0908035111050N00757391EA0119301312128000
B0908075110954N00757454EA0117701296130000
B0908115110870N00757500EA0115301272139000
B0908155110787N00757545EA0114501264140000
B0908195110720N00757583EA0113101248144000
K090819256026
B0908235110633N00757625EA0112301240147000
B0908275110545N00757670EA0111901240140000
B0908315110458N00757712EA0111401232141000
B0908355110375N00757754EA0109801216153000
B0908395110287N00757791EA0110401224143000
B0908435110204N00757829EA0110301224137000
K090843260022
B0908475110120N00757870EA0109801216138000
B0908515110033N00757904EA0110201224131000
B0908555109954N00757945EA0109501216129000
B0908595109875N00757987EA0108601208128000
B0909035109791N00758029EA0107401192134000
K090903266017
B0909075109708N00758079EA0106201184134000
B0909115109625N00758137EA0107001184128000
B0909155109550N00758200EA0107601192125000
B0909195109483N00758266EA0109901208103000
B0909235109425N00758312EA0111301224091000
K090923288015
B0909275109362N00758345EA0112001240093000
B0909315109312N00758295EA0113401248090000
B0909355109325N00758212EA0113301248092000
B0909395109383N00758225EA0114401248092000
B0909435109404N00758308EA0115801264087000
K090943288012
B0909475109370N00758387EA0116801272085000
B0909515109308N00758395EA0117201280091000
B0909555109275N00758316EA0117901288085000
B0909595109308N00758241EA0117501288095000
B0910035109366N00758262EA0118401296098000
K091003326005
B0910075109375N00758358EA0119801304093000
B0910115109316N00758408EA0120401312098000
B0910155109270N00758337EA0121300000101000
B0910195109304N00758258EA0122201336097000
B0910235109358N00758287EA0122601336098000
K091023012003
B0910275109362N00758383EA0124201352091000
B0910315109300N00758416EA0124301352101000
B0910355109262N00758325EA0126001368094000
B0910395109304N00758262EA0126201384098000
B0910435109354N00758320EA0126401384109000
K091043018006
B0910475109350N00758425EA0128201400097000
B0910515109316N00758516EA0129501408092000
B0910555109279N00758600EA0130301424091000
B0910595109241N00758679EA0130301424096000
B0911035109195N00758766EA0129801416110000
K091103022010
B0911075109141N00758858EA0128301408121000
B0911115109087N00758954EA0126001384141000
B0911155109020N00759062EA0124801368146000
B0911195108958N00759170EA0124701368139000
B0911235108887N00759275EA0125801376131000
K091123242024
B0911275108820N00759366EA0125301376131000
B0911315108754N00759462EA0123701360138000
B0911355108683N00759558EA0123201352139000
B0911395108616N00759658EA0122101344143000
B0911435108545N00759762EA0120301328149000
K091143244036
B0911475108470N00759875EA0119501312152000
B0911515108400N00759987EA0119301312149000
B0911555108329N00800100EA0119201312149000
B0911595108266N00800216EA0118901312149000
B0912035108204N00800337EA0118501304147000
K091203244035
B0912075108137N00800458EA0118101304146000
B0912115108079N00800575EA0119001296133000
B0912155108029N00800666EA0123301352087000
B0912195107991N00800733EA0122901352085000
B0912235107954N00800812EA0119801320114000
K091223248043
B0912275107904N00800912EA0118301304129000
B0912315107854N00801016EA0118101296125000
B0912355107804N00801120EA0117601296125000
B0912395107750N00801225EA0118101296125000
B0912435107695N00801329EA0120001312115000
K091243238031
B0912475107645N00801425EA0122201336098000
B0912515107600N00801508EA0121301336104000
B0912555107550N00801604EA0122001336109000
B0912595107504N00801695EA0122001344112000
B0913035107454N00801787EA0121901336115000
K091303248035
B0913075107395N00801875EA0121301336117000
B0913115107341N00801966EA0118901312130000
B0913155107283N00802070EA0118001296130000
B0913195107225N00802175EA0117001288135000
B0913235107162N00802279EA0116801288133000
K091323242032
B0913275107104N00802383EA0116301288132000
B0913315107045N00802487EA0116001280133000
B0913355106987N00802595EA0114501264140000
B0913395106929N00802712EA0114501264139000
B0913435106875N00802825EA0115101272133000
K091343240033
B0913475106820N00802933EA0114701272133000
B0913515106766N00803037EA0113801256134000
B0913555106712N00803145EA0114701264117000
B0913595106662N00803245EA0115001272110000
B0914035106616N00803341EA0115201272108000
K091403242040
B0914075106575N00803437EA0116301280088000
B0914115106537N00803520EA0116201280098000
B0914155106500N00803612EA0117701296086000
B0914195106479N00803708EA0117301296086000
B0914235106475N00803812EA0115801280098000
K091423244040
B0914275106483N00803925EA0114601264108000
B0914315106495N00804050EA0114501264111000
B0914355106508N00804170EA0113101256115000
B0914395106520N00804295EA0112501248121000
B0914435106533N00804425EA0112601248116000
K091443220035
B0914475106545N00804541EA0112301240112000
B0914515106558N00804666EA0111101232123000
B0914555106570N00804791EA0110901232122000
B0914595106583N00804916EA0110601224120000
B0915035106600N00805037EA0109701216121000
K091503194047
B0915075106616N00805166EA0108401208125000
B0915115106629N00805295EA0108001200128000
B0915155106641N00805425EA0107801200125000
B0915195106654N00805554EA0107201192124000
B0915235106666N00805683EA0106601184129000
K091523188052
B0915275106683N00805812EA0106801184123000
B0915315106695N00805933EA0107701192113000
B0915355106708N00806041EA0109901216099000
B0915395106720N00806137EA0109901216092000
B0915435106750N00806225EA0110901224087000
K091543188054
B0915475106775N00806300EA0110701232087000
B0915515106833N00806337EA0110201224103000
B0915555106875N00806275EA0112401240088000
B0915595106870N00806183EA0113001248088000
B0916035106816N00806137EA0112901248095000
K091603188054
B0916075106762N00806179EA0112701248103000
B0916115106750N00806279EA0114401256085000
B0916155106791N00806333EA0114101264092000
B0916195106845N00806304EA0114201256099000
B0916235106854N00806208EA0115701272088000
K091623340004
B0916275106804N00806145EA0115501272096000
B0916315106741N00806170EA0115801272096000
B0916355106720N00806262EA0116901280087000
B0916395106754N00806337EA0116001280096000
B0916435106816N00806329EA0115701272107000
K091643008006
B0916475106825N00806229EA0117501288089000
B0916515106775N00806170EA0118001296088000
B0916555106716N00806195EA0118201296094000
B0916595106691N00806283EA0119101304083000
B0917035106716N00806362EA0118001296098000
K091703038008
B0917075106783N00806366EA0118901304098000
B0917115106804N00806279EA0120101320094000
B0917155106766N00806204EA0120401320088000
B0917195106700N00806212EA0120501320097000
B0917235106666N00806291EA0121301328086000
K091723014005
B0917275106683N00806379EA0120601320093000
B0917315106741N00806412EA0121601328092000
B0917355106775N00806345EA0121901336092000
B0917395106745N00806258EA0122001336096000
B0917435106679N00806262EA0123001344090000
K091743334005
B0917475106650N00806350EA0123501352091000
B0917515106658N00806441EA0124301360085000
B0917555106666N00806537EA0123101352104000
B0917595106675N00806650EA0121401336116000
B0918035106687N00806775EA0120501320128000
K091803188048
B0918075106695N00806900EA0120401320121000
B0918115106700N00807020EA0121001320113000
B0918155106687N00807137EA0121101328110000
B0918195106670N00807250EA0121001328109000
B0918235106650N00807362EA0120401320115000
K091823188048
B0918275106629N00807483EA0120801320120000
B0918315106608N00807608EA0121701328111000
B0918355106583N00807720EA0121901336108000
B0918395106566N00807837EA0121101328116000
B0918435106550N00807962EA0120401320117000
K091843208044
B0918475106533N00808087EA0120101320119000
B0918515106520N00808208EA0120101320118000
B0918555106504N00808329EA0119801312118000
B0918595106483N00808450EA0118901312117000
B0919035106462N00808570EA0118501296116000
K091903210046
B0919075106441N00808687EA0119001304106000
B0919115106420N00808795EA0120501320100000
B0919155106400N00808900EA0122001336091000
B0919195106379N00808991EA0123201344094000
B0919235106337N00809062EA0123801352088000
K091923214049
B0919275106275N00809045EA0124401352093000
B0919315106254N00808954EA0124701360096000
B0919355106291N00808883EA0124901352093000
B0919395106350N00808912EA0125201360094000
B0919435106375N00809008EA0126501368094000
K091943214049
B0919475106358N00809095EA0127101376083000
B0919515106304N00809137EA0126601376096000
B0919555106245N00809083EA0127901384096000
B0919595106250N00808983EA0129001392088000
B0920035106308N00808958EA0127401384104000
K092003020005
B0920075106345N00809050EA0128501384105000
B0920115106312N00809141EA0129201400097000
B0920155106262N00809208EA0130901416092000
B0920195106216N00809262EA0130801416084000
B0920235106162N00809308EA0129301408105000
K092023012007
B0920275106100N00809354EA0128801400105000
B0920315106033N00809395EA0127201384112000
B0920355105958N00809437EA0125901368128000
B0920395105879N00809475EA0126901376123000
B0920435105804N00809512EA0126401384117000
K092043270014
B0920475105729N00809550EA0124601360127000
B0920515105645N00809579EA0125701368120000
B0920555105562N00809600EA0126801376111000
B0920595105491N00809608EA0128201392098000
B0921035105420N00809616EA0128701400094000
K092103284023
B0921075105350N00809625EA0127901400101000
B0921115105279N00809658EA0126101384111000
B0921155105208N00809712EA0123801360125000
B0921195105133N00809783EA0122401344135000
B0921235105058N00809858EA0121601336136000
K092123278022
B0921275104983N00809941EA0120901328135000
B0921315104904N00810020EA0120301320135000
B0921355104829N00810104EA0119601312134000
B0921395104754N00810187EA0118401304139000
B0921435104683N00810275EA0118401304136000
K092143272019
B0921475104612N00810354EA0118501304126000
B0921515104545N00810433EA0118801304117000
B0921555104479N00810504EA0119701312112000
B0921595104416N00810575EA0120501320102000
B0922035104358N00810637EA0120801328098000
K092203262032
B0922075104300N00810695EA0119801320102000
B0922115104241N00810770EA0118201304106000
B0922155104187N00810862EA0116901288111000
B0922195104141N00810970EA0115701280113000
B0922235104095N00811079EA0116101280112000
K092223272023
B0922275104050N00811183EA0116601288109000
B0922315104008N00811291EA0116601288109000
B0922355103966N00811400EA0117101288108000
B0922395103929N00811500EA0120001320084000
B0922435103904N00811591EA0119601320095000
K092243256034
B0922475103912N00811700EA0118001304103000
B0922515103883N00811808EA0116401288115000
B0922555103829N00811895EA0115201280117000
B0922595103770N00811983EA0113501256119000
B0923035103712N00812075EA0112301248122000
K092303260029
B0923075103645N00812166EA0111301232136000
B0923115103575N00812254EA0112301240124000
B0923155103508N00812337EA0114301264115000
B0923195103454N00812404EA0116701288090000
B0923235103395N00812454EA0116301280079000
K092323254041
B0923275103341N00812416EA0116201280085000
B0923315103354N00812320EA0114601272101000
B0923355103416N00812300EA0113501256110000
B0923395103475N00812366EA0113801256103000
B0923435103512N00812458EA0114301264102000
K092343248036
B0923475103533N00812562EA0116601280096000
B0923515103550N00812658EA0116901288088000
B0923555103525N00812758EA0116301280088000
B0923595103458N00812787EA0115601272095000
B0924035103420N00812704EA0116001272097000
K092403306009
B0924075103454N00812625EA0116501280104000
B0924115103508N00812579EA0118601296095000
B0924155103562N00812558EA0119601312087000
B0924195103608N00812604EA0119601312078000
B0924235103604N00812704EA0118801304088000
K092423304014
B0924275103541N00812741EA0117001288095000
B0924315103491N00812662EA0117001272114000
B0924355103470N00812562EA0119201296090000
B0924395103475N00812475EA0119801304087000
B0924435103516N00812420EA0119301304100000
K092443274008
B0924475103575N00812445EA0120001312087000
B0924515103616N00812512EA0119901312093000
B0924555103637N00812608EA0120701312090000
B0924595103616N00812704EA0120101312099000
B0925035103587N00812804EA0118001288116000
K092503320006
B0925075103545N00812908EA0117901288115000
B0925115103500N00813004EA0117401288115000
B0925155103450N00813095EA0115101264125000
B0925195103391N00813195EA0114401256131000
B0925235103333N00813291EA0113701248131000
K092523320006
B0925275103275N00813391EA0112501240130000
B0925315103212N00813491EA0111601224131000
B0925355103150N00813591EA0111001224130000
B0925395103087N00813695EA0110501216131000
B0925435103029N00813804EA0109701208129000
K092543242029
B0925475102970N00813912EA0109201208134000
B0925515102912N00814020EA0109301208124000
B0925555102870N00814133EA0108701200122000
B0925595102837N00814254EA0107901192124000
B0926035102804N00814379EA0106401176129000
K092603244028
B0926075102775N00814508EA0106401176130000
B0926115102745N00814633EA0107301184123000
B0926155102725N00814750EA0110401216102000
B0926195102708N00814854EA0109401208101000
B0926235102745N00814937EA0109501216095000
K092623236031
B0926275102804N00814929EA0107301192109000
B0926315102825N00814820EA0106601184111000
B0926355102779N00814741EA0107401192104000
B0926395102712N00814758EA0107601192098000
B0926435102670N00814841EA0107301192102000
K092643236031
B0926475102637N00814941EA0105901176109000
B0926515102600N00815045EA0105101168120000
B0926555102554N00815158EA0104601168121000
B0926595102512N00815275EA0103601152130000
B0927035102466N00815391EA0103101144130000
K092703234025
B0927075102420N00815504EA0103201152126000
B0927115102379N00815612EA0102901144119000
B0927155102333N00815712EA0102401144115000
B0927195102287N00815812EA0102101136116000
B0927235102245N00815912EA0101101128118000
K092723234039
B0927275102200N00816016EA0099701112124000
B0927315102150N00816116EA0098501104128000
B0927355102100N00816225EA0098001096123000
B0927395102050N00816329EA0098301096120000
B0927435102000N00816433EA0100401112110000
K092743234039
B0927475101962N00816525EA0102101136095000
B0927515101908N00816583EA0102901144083000
B0927555101854N00816545EA0103001144087000
B0927595101858N00816454EA0103001144096000
B0928035101916N00816429EA0104500000097000
K092803232040
B0928075101958N00816495EA0105801160090000
B0928115101950N00816591EA0106301160091000
B0928155101891N00816629EA0106501160086000
B0928195101850N00816554EA0106101160103000
B0928235101879N00816475EA0107001168097000
K092823306008
B0928275101937N00816483EA0107701168097000
B0928315101962N00816575EA0108401176101000
B0928355101925N00816662EA0109901192086000
B0928395101862N00816641EA0109201184093000
B0928435101854N00816541EA0109201184097000
K092843326009
B0928475101912N00816508EA0110101192096000
B0928515101966N00816562EA0111401200090000
B0928555101995N00816650EA0111801208087000
B0928595101983N00816745EA0112301216086000
B0929035101925N00816783EA0111801208087000
K092903304006
B0929075101870N00816729EA0110301200100000
B0929115101887N00816629EA0110901200095000
B0929155101950N00816620EA0112201208095000
B0929195102000N00816670EA0113101216087000
B0929235102029N00816750EA0113601224082000
K092923306003
B0929275102029N00816845EA0113101224087000
B0929315101995N00816933EA0112201216094000
B0929355101929N00816954EA0112501216085000
B0929395101875N00816912EA0111801216090000
B0929435101850N00816825EA0111601208100000
K092943304003
B0929475101858N00816729EA0112201216093000
B0929515101900N00816658EA0112201216104000
B0929555101945N00816604EA0113601224088000
B0929595101991N00816575EA0113701232086000
B0930035102045N00816575EA0112901224086000
K093003300008
B0930075102091N00816633EA0110701208097000
B0930115102091N00816741EA0109301184100000
B0930155102058N00816837EA0109201184095000
B0930195102025N00816933EA0108101176106000
B0930235101987N00817041EA0107301168114000
K093023328009
B0930275101950N00817145EA0106301160118000
B0930315101912N00817258EA0105901160121000
B0930355101875N00817366EA0105601160121000
B0930395101837N00817475EA0105201152119000
K093039328009
B0930435101800N00817587EA0105101152121000
B0930475101766N00817695EA0104601152118000
B0930515101733N00817804EA0102701136123000
B0930555101695N00817916EA0102701128118000
B0930595101654N00818020EA0102101128117000
K093059226038
B0931035101608N00818120EA0102201128115000
B0931075101566N00818225EA0103001136108000
B0931115101525N00818320EA0104701152098000
B0931155101487N00818408EA0105501160096000
B0931195101433N00818466EA0106201168090000
K093119228040
B0931235101375N00818433EA0106801176086000
B0931275101370N00818345EA0106501168096000
B0931315101425N00818312EA0107100000093000
B0931355101466N00818383EA0107000000091000
B0931395101466N00818491EA0107301176097000
K093139228040
B0931435101425N00818575EA0108901192091000
B0931475101362N00818604EA0108401184094000
B0931515101312N00818537EA0109101192094000
B0931555101333N00818454EA0109001192100000
B0931595101395N00818458EA0109000000096000
K093159306011
B0932035101416N00818562EA0109301200105000
B0932075101379N00818658EA0110501208095000
B0932115101312N00818679EA0110701216095000
B0932155101258N00818625EA0110401208091000
B0932195101266N00818529EA0110201208101000
K093219292010
B0932235101320N00818500EA0110400000103000
B0932275101375N00818566EA0111701224090000
B0932315101387N00818666EA0112101232095000
B0932355101370N00818770EA0112301240099000
B0932395101320N00818850EA0113001240086000
K093239294010
B0932435101262N00818812EA0113101240085000
B0932475101275N00818729EA0112001232096000
B0932515101345N00818737EA0110600000111000
B0932555101366N00818850EA0112201248105000
B0932595101358N00818962EA0114501264097000
K093259326011
B0933035101345N00819058EA0117201288080000
B0933075101329N00819145EA0117201296085000
B0933115101275N00819183EA0117601296074000
B0933155101233N00819120EA0117400000091000
B0933195101254N00819041EA0117701296092000
K093319328011
B0933235101312N00819037EA0118401296089000
B0933275101362N00819087EA0119401312101000
B0933315101400N00819166EA0121101328079000
B0933355101400N00819258EA0119701312090000
B0933395101350N00819316EA0120101312093000
K093339310008
B0933435101295N00819283EA0120701320084000
B0933475101279N00819191EA0119601312109000
B0933515101320N00819120EA0122501328092000
B0933555101383N00819125EA0123700000087000
B0933595101404N00819204EA0123201336088000
K093359274003
B0934035101370N00819283EA0122201328096000
B0934075101304N00819283EA0122401328101000
B0934115101275N00819191EA0124101344102000
B0934155101283N00819108EA0126801376080000
B0934195101333N00819062EA0125800000100000
K093419178004
B0934235101375N00819137EA0126601376099000
B0934275101320N00819195EA0126901384101000
B0934315101279N00819116EA0128401392097000
B0934355101312N00819033EA0128601400104000
B0934395101379N00819066EA0128800000113000
K093439322006
B0934435101370N00819175EA0130701424102000
B0934475101308N00819145EA0131601432098000
B0934515101320N00819050EV0132100000103000
B0934555101383N00819129EA0132800000106000
B0934595101341N00819208EA0133301456103000
K093459304007
B0935035101287N00819145EA0134801472101000
B0935075101312N00819062EV0136000000093000
B0935115101366N00819150EA0136601480101000
B0935155101325N00819225EA0137201488096000
B0935195101266N00819175EA0138501496091000
K093519304007
B0935235101283N00819083EA0140501520088000
B0935275101341N00819075EA0141300000089000
B0935315101383N00819150EA0142701544082000
B0935355101362N00819229EA0142001536090000
B0935395101300N00819245EA0140501520110000
K093539118007
B0935435101258N00819150EA0143001536109000
B0935475101250N00819054EA0145101560095000
B0935515101283N00818983EA0145101560085000
B0935555101345N00819020EA0145901568087000
B0935595101358N00819116EA0148201592073000
K093559144007
B0936035101312N00819179EA0148001600089000
B0936075101250N00819154EA0148701592078000
B0936115101229N00819066EA0150001608085000
B0936155101275N00819004EV0150301608088000
B0936195101333N00819070EA0149800000100000
K093619152007
B0936235101325N00819179EA0152301640091000
B0936275101270N00819216EA0153701656082000
B0936315101225N00819158EA0153301648093000
B0936355101237N00819070EA0154301656086000
B0936395101295N00819066EA0153400000098000
K093639152007
B0936435101329N00819162EA0154300000099000
B0936475101295N00819262EA0155801672099000
B0936515101237N00819304EA0156501680097000
B0936555101183N00819237EA0156501680099000
B0936595101204N00819154EA0157101680088000
K093659152007
B0937035101266N00819179EA0157401688095000
B0937075101295N00819275EA0158601696099000
B0937115101275N00819379EA0159601712105000
B0937155101225N00819462EA0160101712103000
B0937195101154N00819491EA0161301728102000
K093719152007
B0937235101095N00819458EA0161301728095000
B0937275101062N00819379EA0160201712096000
B0937315101075N00819287EA0160101712091000
B0937355101125N00819233EA0160601720088000
B0937395101183N00819241EA0160401720090000
K093739280003
B0937435101237N00819304EA0160801712099000
B0937475101258N00819400EA0162001728091000
B0937515101229N00819487EA0162601736094000
B0937555101166N00819487EA0163401744100000
B0937595101120N00819404EA0159900000128000
K093759238004
B0938035101062N00819308EA0159301720135000
B0938075100983N00819250EA0159201720128000
B0938115100900N00819225EA0158701712125000
B0938155100812N00819229EA0158701712114000
B0938195100733N00819266EA0158301704110000
K093819276002
B0938235100662N00819329EA0157901704106000
B0938275100595N00819404EA0156901696115000
B0938315100529N00819483EA0156901696113000
B0938355100462N00819558EA0156501688113000
B0938395100404N00819641EA0156001688115000
K093839310010
B0938435100345N00819729EA0155901688109000
B0938475100287N00819816EA0156001688106000
B0938515100237N00819904EA0155801680112000
B0938555100183N00819995EA0156401688103000
B0938595100137N00820075EA0156501688096000
K093859264027
B0939035100091N00820150EA0156101680090000
B0939075100045N00820225EA0155701680093000
B0939115100000N00820304EA0155501680093000
B0939155059954N00820383EA0156601688085000
B0939195059912N00820454EA0156801688081000
K093919258031
B0939235059866N00820525EA0156601688084000
B0939275059820N00820591EA0156801688083000
B0939315059775N00820662EA0155901688089000
B0939355059725N00820741EA0155101672093000
B0939395059679N00820825EA0154201664097000
K093939264028
B0939435059629N00820916EA0153501656105000
B0939475059579N00821004EA0152801648104000
B0939515059525N00821091EA0152701648103000
B0939555059475N00821170EA0153601656095000
B0939595059433N00821241EA0153701656087000
K093959256037
B0940035059387N00821304EA0152801648089000
B0940075059337N00821362EA0152501648091000
B0940115059287N00821408EA0153101656086000
B0940155059233N00821450EA0153701656088000
B0940195059187N00821495EA0154101664080000
K094019256032
B0940235059137N00821541EA0154001664088000
B0940275059083N00821583EA0154801672086000
B0940315059029N00821629EA0155701680080000
B0940355058975N00821675EA0155601680086000
B0940395058925N00821720EA0155901680083000
K094039266022
B0940435058870N00821766EA0154901672088000
B0940475058812N00821825EA0154301664091000
B0940515058754N00821879EA0154001664092000
B0940555058700N00821933EA0154201664089000
B0940595058645N00821991EA0154001664088000
K094059278021
B0941035058591N00822045EA0153901664092000
B0941075058541N00822104EA0153701656082000
B0941115058491N00822166EA0153001656089000
B0941155058445N00822237EA0153001656091000
B0941195058395N00822300EA0153501656088000
K094119268025
B0941235058350N00822370EA0153801664088000
B0941275058304N00822437EA0154601672084000
B0941315058262N00822504EA0155201672079000
B0941355058216N00822566EA0154901672079000
B0941395058166N00822629EA0154201664088000
K094139260031
B0941435058116N00822687EA0154801672084000
B0941475058070N00822737EA0155001672077000
B0941515058020N00822779EA0154301672082000
B0941555057966N00822820EA0153301656087000
B0941595057908N00822862EA0152501648092000
K094159262029
B0942035057845N00822908EA0152101648092000
B0942075057779N00822954EA0152201648099000
B0942115057716N00823000EA0152701648085000
B0942155057658N00823041EA0152701648086000
B0942195057595N00823083EA0151901648086000
K094219280026
B0942235057537N00823125EA0151101640092000
B0942275057475N00823179EA0150101624098000
B0942315057420N00823254EA0149501624106000
B0942355057362N00823341EA0148201608116000
B0942395057304N00823429EA0147401600118000
K094239274027
B0942435057241N00823516EA0146601592116000
B0942475057175N00823595EA0145901592127000
B0942515057108N00823679EA0145001576125000
B0942555057041N00823762EA0144801576125000
B0942595056979N00823845EA0144601568124000
K094259254034
B0943035056916N00823920EA0144601568116000
B0943075056854N00824000EA0143901568115000
B0943115056795N00824075EA0143101560114000
B0943155056733N00824154EA0142901552120000
B0943195056670N00824233EA0143501560106000
K094319252034
B0943235056612N00824300EA0144901568103000
B0943275056558N00824362EA0146401584086000
B0943315056520N00824445EA0145501584095000
B0943355056529N00824545EA0145801584087000
B0943395056575N00824600EA0146401592088000
K094339252033
B0943435056625N00824570EA0146501592090000
B0943475056633N00824479EA0147001592090000
B0943515056583N00824425EA0147901608084000
B0943555056525N00824450EA0147801600086000
B0943595056491N00824541EA0147401600088000
K094359314010
B0944035056508N00824637EA0148001608090000
B0944075056554N00824691EA0148201608085000
B0944115056608N00824683EA0147801600092000
B0944155056629N00824595EA0147801600092000
B0944195056583N00824533EA0148501608087000
K094419332009
B0944235056525N00824562EA0147901600082000
B0944275056495N00824654EA0147101592104000
B0944315056483N00824766EA0146801592108000
B0944355056466N00824879EA0147301600104000
B0944395056454N00824987EA0147601600095000
K094439252010
B0944435056433N00825091EA0147201600096000
B0944475056404N00825191EA0146801592094000
B0944515056370N00825291EA0146901592094000
B0944555056333N00825383EA0146601592095000
B0944595056291N00825479EA0147201600098000
K094459234040
B0945035056254N00825570EA0147301600090000
B0945075056208N00825654EA0147101600093000
B0945115056162N00825733EA0147101592093000
B0945155056116N00825812EA0147301600096000
B0945195056075N00825883EA0147301600092000
K094519242041
B0945235056033N00825950EA0144801576103000
B0945275055983N00826029EA0143401560112000
B0945315055925N00826116EA0142401552120000
B0945355055866N00826200EA0142901552117000
B0945395055812N00826275EA0144301568101000
K094539240034
B0945435055762N00826341EA0145301584097000
B0945475055712N00826404EA0145001576097000
B0945515055662N00826470EA0144001568103000
B0945555055604N00826537EA0143301560106000
B0945595055541N00826600EA0142901560107000
K094559248029
B0946035055475N00826662EA0143001560107000
B0946075055412N00826725EA0142501552108000
B0946115055345N00826779EA0143401560105000
B0946155055287N00826825EA0144701576089000
B0946195055233N00826866EA0144901576081000
K094619268027
B0946235055175N00826912EA0143801568090000
B0946275055108N00826958EA0142001552108000
B0946315055041N00827016EA0140701536114000
B0946355054970N00827079EA0139801528121000
B0946395054900N00827141EA0139101520123000
K094639272017
B0946435054833N00827212EA0138701512124000
B0946475054766N00827275EA0138401512118000
B0946515054700N00827333EA0138101504111000
B0946555054641N00827404EA0137401504109000
B0946595054591N00827487EA0136901496111000
K094659260019
B0947035054541N00827579EA0135601488114000
B0947075054491N00827670EA0134301472120000
B0947115054437N00827770EA0133201456126000
B0947155054379N00827875EA0132601456126000
B0947195054325N00827970EA0134001464118000
K094719244030
B0947235054275N00828058EA0135701488101000
B0947275054245N00828150EA0136301488095000
B0947315054262N00828245EA0136201488089000
B0947355054312N00828308EA0136601488095000
B0947395054370N00828300EA0135801488089000
K094739242024
B0947435054404N00828216EA0133901464105000
B0947475054362N00828133EA0133901464100000
B0947515054300N00828150EA0133701464105000
B0947555054258N00828233EA0133101456106000
B0947595054216N00828320EA0133401456099000
K094759282001
B0948035054179N00828408EA0133401456093000
B0948075054141N00828495EA0133701464092000
B0948115054104N00828583EA0133501456090000
B0948155054066N00828670EA0133101456089000
B0948195054029N00828758EA0132701456089000
K094819244026
B0948235053987N00828845EA0132601456095000
B0948275053950N00828933EA0132601448089000
B0948315053908N00829020EA0132601448096000
B0948355053866N00829108EA0132601456090000
B0948395053820N00829183EA0132401448088000
K094839250035
B0948435053770N00829258EA0132301448088000
B0948475053720N00829329EA0131801440088000
B0948515053670N00829400EA0131101432093000
B0948555053612N00829466EA0129701424096000
B0948595053558N00829541EA0128401408105000
K094859260033
B0949035053500N00829620EA0127701400112000
B0949075053441N00829695EA0127401400111000
B0949115053387N00829775EA0126701392115000
B0949155053329N00829854EA0126101384112000
B0949195053270N00829933EA0125801384111000
K094919254030
B0949235053212N00830004EA0125601384108000
B0949275053158N00830079EA0124801376108000
B0949315053095N00830154EV0123801368113000
B0949355053037N00830241EA0123800000114000
B0949395052991N00830333EA0124501368106000
K094939254030
B0949435052954N00830429EA0124201368102000
B0949475052916N00830533EA0123701360111000
B0949515052883N00830637EA0125001368107000
B0949555052854N00830733EA0127401392090000
B0949595052829N00830825EV0128200000091000
K094959246030
B0950035052766N00830837EA0128600000086000
B0950075052729N00830775EA0128000000086000
B0950115052737N00830687EA0128001400088000
B0950155052791N00830650EA0129501416083000
B0950195052841N00830687EA0130501424082000
K095019254028
B0950235052862N00830779EA0131101432089000
B0950275052837N00830870EA0132601448086000
B0950315052779N00830887EA0133201456083000
B0950355052741N00830829EA0132501448086000
B0950395052758N00830745EA0132701448092000
K095039262006
B0950435052816N00830716EA0134601464088000
B0950475052858N00830791EA0135101472095000
B0950515052825N00830883EA0135201472103000
B0950555052762N00830854EA0135801472093000
B0950595052779N00830762EA0135301464106000
K095059286006
B0951035052837N00830820EA0136501480106000
B0951075052795N00830916EA0138701496099000
B0951115052745N00830870EA0139700000091000
B0951155052770N00830791EA0139301488100000
B0951195052829N00830837EA0141601512095000
K095119280018
B0951235052808N00830941EA0142501520097000
B0951275052741N00830945EA0143001528096000
B0951315052733N00830858EA0143101528095000
B0951355052795N00830812EA0143900000098000
B0951395052829N00830904EA0144701544094000
K095139278011
B0951435052775N00830987EA0145201552100000
B0951475052725N00830933EA0146001560092000
B0951515052750N00830850EA0145601560098000
B0951555052812N00830870EA0147100000097000
B0951595052812N00830979EA0148200000095000
K095159286012
B0952035052745N00831000EA0148501568091000
B0952075052712N00830929EA0149001584089000
B0952115052737N00830854EA0148901584093000
B0952155052804N00830870EA0149400000097000
B0952195052816N00830975EA0151501608088000
K095219292013
B0952235052770N00831045EA0151801616088000
B0952275052712N00831025EA0151701616091000
B0952315052700N00830937EA0151501616090000
B0952355052750N00830887EA0151601616096000
B0952395052800N00830945EA0153601632084000
K095239274010
B0952435052791N00831045EA0153101624096000
B0952475052725N00831070EA0154101640086000
B0952515052679N00831020EA0153901640080000
B0952555052679N00830929EA0153601632097000
B0952595052733N00830879EA0156101656080000
K095259278005
B0953035052783N00830908EA0156901664084000
B0953075052804N00831004EA0156901664088000
B0953115052779N00831095EA0158501688082000
B0953155052725N00831137EA0159101688080000
B0953195052670N00831108EA0158201680086000
K095319286007
B0953235052645N00831029EA0158501680081000
B0953275052658N00830950EA0159001688084000
B0953315052712N00830912EA0158901688090000
B0953355052762N00830962EA0160401704080000
B0953395052770N00831058EA0160701704088000
K095339296009
B0953435052716N00831120EA0161501712091000
B0953475052662N00831087EA0163301728077000
B0953515052654N00831012EA0162701728088000
B0953555052704N00830966EA0162901728093000
B0953595052762N00831008EA0164601744078000
K095359284010
B0954035052762N00831104EA0165201744086000
B0954075052704N00831166EA0165301744096000
B0954115052645N00831145EA0167601768076000
B0954155052616N00831083EA0166401760087000
B0954195052629N00830995EA0166401760087000
K095419274008
B0954235052683N00830970EA0167101768085000
B0954275052729N00831033EA0168001776083000
B0954315052725N00831133EA0168701784088000
B0954355052670N00831191EA0169301792084000
B0954395052616N00831175EA0170201800073000
K095439292010
B0954435052587N00831108EA0169201792086000
B0954475052600N00831029EA0169301792081000
B0954515052645N00830983EA0168901784090000
B0954555052708N00831000EA0169801800080000
B0954595052733N00831083EA0170901808081000
K095459290010
B0955035052712N00831175EA0170801808083000
B0955075052654N00831220EA0171301808087000
B0955115052587N00831220EA0171501816087000
B0955155052520N00831241EA0170501808093000
B0955195052458N00831295EA0169301800096000
K095519290010
B0955235052408N00831379EA0168101784107000
B0955275052358N00831475EA0167601784110000
B0955315052312N00831570EA0167601784115000
B0955355052262N00831658EA0166901776105000
B0955395052220N00831750EA0166801776105000
K095539254021
B0955435052179N00831845EA0167501784107000
B0955475052137N00831925EA0169301808086000
B0955515052100N00831995EA0169501808082000
B0955555052058N00832070EA0169401808085000
B0955595052016N00832137EA0169101808087000
K095559244037
B0956035051979N00832216EA0168201800090000
B0956075051937N00832291EA0167101792089000
B0956115051891N00832370EA0165501768101000
B0956155051841N00832458EA0163601752114000
B0956195051787N00832554EA0163001752115000
K095619242031
B0956235051741N00832658EA0163101752115000
B0956275051695N00832754EA0164101760103000
B0956315051654N00832841EA0164801768092000
B0956355051612N00832920EA0164701768088000
B0956395051570N00833008EA0164001760097000
K095639242039
B0956435051529N00833091EA0164201760095000
B0956475051483N00833175EA0164201760093000
B0956515051437N00833250EA0164901768091000
B0956555051391N00833320EA0166001776084000
B0956595051345N00833387EA0165901776084000
K095659248039
B0957035051295N00833454EA0165701776095000
B0957075051245N00833525EA0164701768098000
B0957115051183N00833595EA0161701744123000
B0957155051112N00833679EA0159801720132000
B0957195051033N00833766EA0159501720133000
B0957235050954N00833850EA0159501720126000
K095723254032
B0957275050879N00833937EA0158601712133000
B0957315050800N00834025EA0157701704136000
B0957355050720N00834108EA0156601688140000
B0957395050641N00834195EA0156401688137000
B0957435050562N00834283EA0156401688136000
K095743260037
B0957475050483N00834366EA0155901680137000
B0957515050404N00834445EA0155101680135000
B0957555050320N00834520EA0154301672138000
B0957595050233N00834600EA0153601664141000
B0958035050150N00834675EA0154201672137000
K095803260039
B0958075050070N00834750EA0155201680121000
B0958115049995N00834812EA0154501672123000
B0958155049920N00834879EA0153901664121000
B0958195049845N00834937EA0153801664124000
B0958235049770N00834995EA0154401672114000
K095823266038
B0958275049700N00835054EA0154101664111000
B0958315049633N00835116EA0154501672114000
B0958355049566N00835175EA0155301680108000
B0958395049504N00835233EA0155501680110000
B0958435049441N00835295EA0155701680111000
K095843266028
B0958475049383N00835370EA0155801688110000
B0958515049329N00835437EA0155801688103000
B0958555049270N00835504EA0155501680107000
B0958595049216N00835579EA0155201680108000
B0959035049162N00835658EA0155101680111000
K095903252024
B0959075049116N00835754EA0154901680105000
B0959115049070N00835850EA0153601664112000
B0959155049016N00835941EA0152201648119000
B0959195048958N00836037EA0151201640125000
B0959235048900N00836137EA0149901632128000
K095923244032
B0959275048837N00836237EA0147101600139000
B0959315048766N00836345EA0146501592140000
B0959355048695N00836450EA0146601592134000
B0959395048629N00836545EA0146801592128000
B0959435048566N00836637EA0146701592126000
K095943246041
B0959475048504N00836725EA0146901592120000
B0959515048441N00836804EA0147001600110000
B0959555048379N00836866EA0147801600103000
B0959595048320N00836912EA0148801616091000
B1000035048262N00836954EA0149001616093000
K100003254046
B1000075048200N00837000EA0148501608095000
B1000115048137N00837058EA0148801616100000
B1000155048083N00837129EA0149801624095000
B1000195048025N00837195EA0150201624088000
B1000235047970N00837258EA0150201624087000
K100023270028
B1000275047916N00837316EA0149501624091000
B1000315047858N00837379EA0148201608097000
B1000355047795N00837450EA0146701592105000
B1000395047733N00837525EA0145001576115000
B1000435047662N00837600EA0144201568115000
K100043272028
B1000475047591N00837675EA0143901560116000
B1000515047529N00837754EA0144001560111000
B1000555047479N00837841EA0143701560106000
B1000595047420N00837925EA0143501560111000
B1001035047366N00838000EA0143101552102000
K100103262033
B1001075047312N00838070EA0142501552103000
B1001115047254N00838141EA0142301544102000
B1001155047200N00838200EA0142001544092000
B1001195047145N00838254EA0141601536093000
B1001235047091N00838312EA0139701520106000
K100123258037
B1001275047033N00838375EA0139001512101000
B1001315046975N00838441EA0138001496113000
B1001355046912N00838512EA0139201512115000
B1001395046854N00838579EA0142201544091000
B1001435046816N00838662EA0144401568091000
K100143256031
B1001475046829N00838758EA0145901584090000
B1001515046883N00838804EA0146701592094000
B1001555046929N00838745EA0149001608084000
B1001595046916N00838662EA0150101624083000
B1002035046862N00838629EA0149701616093000
K100203256031
B1002075046808N00838687EA0151901640091000
B1002115046808N00838783EA0153601656083000
B1002155046854N00838841EA0154101664090000
B1002195046908N00838812EA0156501688086000
B1002235046920N00838733EA0158501704075000
K100223278004
B1002275046891N00838662EA0158201704085000
B1002315046837N00838633EA0159501712084000
B1002355046783N00838675EA0160901728084000
B1002395046758N00838770EA0161901744089000
