AZAN1GM ZANDER/SDI GP941 V2.11
HFDTE020714
HFFXA050
HFPLT Pilot             :AERT MANTE                              
HFGTY Glider type       :ventus2cxt                              
HFGID Glider ID         :ph-1381   
HFDTM100 GPS Datum      :WGS84
HFRFW Firmware Version  :11
HFRHW Hardware version  :2
HFFTY FR Type           :ZANDER/SDI GP941
HFGPS                   :Garmin,GPS25,12,30000
HFPRS Press Alt Sensor  :Intersema,MS5534A,10000
HFCCL Competition Class :18-meter                                
HFCID Competition ID    :81        
I023638IAS3941ENL
J020810WDI1113WVE
LZAN 083126 PowerOn
C150614111242150614000102
C5211516N00508816E HILVERSUM   
C5211516N00508816E HILVERSUM   
C5121833N00612900E VENLO GLD   
C5203400N00555400E TERLET      
C5211516N00508816E HILVERSUM   
C5211516N00508816E HILVERSUM   
B0831305211425N00509058EV-007200000000000
B0831345211425N00509058EV-007300000000012
B0831385211429N00509058EA-007300008000008
B0831425211425N00509058EA-007300008000004
B0831465211425N00509058EA-007300008000008
B0831505211429N00509058EA-007300000000004
B0831545211429N00509058EA-007300000000004
B0831585211429N00509058EA-007300000000004
B0832025211429N00509058EA-007300008000004
B0832065211429N00509058EA-007300008000004
B0832105211429N00509058EA-007300008000004
B0832145211425N00509058EA-007300008000004
B0832185211425N00509058EA-007300008000004
B0832225211425N00509058EA-007300008000000
B0832265211429N00509058EA-007300008000000
B0832305211429N00509058EA-007300008000000
B0832345211429N00509058EA-007300008000000
B0832385211429N00509058EA-007300008000000
B0832425211429N00509058EA-007300008000000
B0832465211429N00509058EA-007300008000000
B0832505211429N00509058EA-007300008000000
B0832545211429N00509058EA-007300008000004
B0832585211429N00509058EA-007300008000000
B0833025211429N00509058EA-007300000000024
B0833065211429N00509058EA-007200000000016
B0833105211429N00509058EA-007200000000016
B0833145211429N00509058EA-007200000000020
B0833185211429N00509058EA-007200000000000
B0833225211429N00509058EA-007200000000008
B0833265211429N00509058EA-007200000000008
B0833305211429N00509058EA-007200008000004
B0833345211429N00509058EA-007200008000004
B0833385211425N00509058EA-007200008000008
B0833425211425N00509058EA-007200008000008
B0833465211429N00509058EA-007200008000008
B0833505211429N00509058EA-007200008000008
B0833545211429N00509058EA-007200008000008
B0833585211429N00509058EA-007200000000004
B0834025211429N00509058EA-007200000000008
B0834065211429N00509058EA-007200000000004
B0834105211425N00509058EA-007200008000004
B0834145211425N00509058EA-007200008000004
B0834185211425N00509058EA-007200000000004
B0834225211425N00509058EA-007200000000004
B0834265211425N00509058EA-007200000000004
B0834305211429N00509058EA-007200000000000
B0834345211429N00509058EA-007200008000000
B0834385211429N00509058EA-007200008000004
B0834425211429N00509058EA-007200008000000
B0834465211429N00509058EA-007200008000004
B0834505211429N00509058EA-007200008000004
B0834545211425N00509058EA-007200008000004
B0834585211425N00509058EA-007200008000004
B0835025211425N00509058EA-007200008000004
B0835065211429N00509058EA-007200008000004
B0835105211429N00509058EA-007200008000000
B0835145211425N00509058EA-007200008000000
B0835185211425N00509058EA-007200008000000
B0835225211425N00509058EA-007200008000000
B0835265211425N00509058EA-007200008000000
B0835305211425N00509058EA-007200008000000
B0835345211425N00509058EA-007200008000000
B0835385211425N00509058EA-007200008000000
B0835425211425N00509058EA-007200008000000
B0835465211429N00509058EA-007200008000000
B0835505211429N00509058EA-007200008000004
B0835545211429N00509058EA-007200008000000
B0835585211429N00509058EA-007200008000000
B0836025211429N00509058EA-007200008000000
B0836065211429N00509058EA-007200008000000
B0836105211429N00509058EA-007200008000000
B0836145211429N00509058EA-007200008000000
B0836185211429N00509058EA-007200008000000
B0836225211429N00509058EA-007200008000004
B0836265211429N00509058EA-007200008000000
B0836305211429N00509058EA-007300008000000
B0836345211429N00509058EA-007300008000000
B0836385211429N00509058EA-007300008000000
B0836425211429N00509058EA-007300008000000
B0836465211429N00509058EA-007300008000000
B0836505211429N00509058EA-007300008000000
B0836545211429N00509058EA-007300008000000
B0836585211429N00509058EA-007300008000000
B0837025211429N00509058EA-007300008000000
B0837065211429N00509058EA-007300008000000
B0837105211429N00509058EA-007300008000024
B0837145211429N00509058EA-007300008000012
B0837185211429N00509058EA-007300008000004
B0837225211429N00509058EA-007300008000016
B0837265211429N00509058EA-007300008000004
B0837305211429N00509058EA-007300008000004
B0837345211429N00509058EA-007300008000000
B0837385211425N00509058EA-007300008000000
B0837425211429N00509054EA-007300008000004
B0837465211429N00509050EA-007300008000000
B0837505211429N00509050EA-007300008000040
B0837545211429N00509045EA-007300000000024
B0837585211433N00509041EA-007300000000036
B0838025211433N00509041EA-007300000000040
B0838065211433N00509045EA-007300000000008
B0838105211433N00509045EA-007300000000024
B0838145211433N00509045EA-007300000000004
B0838185211433N00509045EA-007300000000008
B0838225211433N00509045EA-007300000000000
B0838265211433N00509045EA-007300000000000
B0838305211433N00509041EA-007300000000000
B0838345211433N00509041EA-007300000000000
B0838385211433N00509045EA-007300000000000
B0838425211433N00509045EA-007300008000000
B0838465211433N00509041EA-007300000000000
B0838505211433N00509041EA-007300000000000
B0838545211433N00509041EA-007300008000000
B0838585211433N00509041EA-007300008000000
B0839025211433N00509045EA-007300008000000
B0839065211433N00509045EA-007300008000000
B0839105211433N00509045EA-007300008000004
B0839145211433N00509045EA-007300008000000
B0839185211433N00509045EA-007300000000004
B0839225211433N00509045EA-007300000000004
B0839265211433N00509045EA-007300000000004
B0839305211433N00509045EA-007300000000004
B0839345211433N00509045EA-007300000000012
B0839385211433N00509045EA-007300000000008
B0839425211433N00509041EA-007300000000004
B0839465211433N00509041EA-007300000000008
B0839505211433N00509041EA-007300000000008
B0839545211433N00509041EA-007300000000008
B0839585211433N00509041EA-007300000000008
B0840025211433N00509041EA-007300000000008
B0840065211433N00509041EA-007300000000000
B0840105211433N00509041EA-007300000000004
B0840145211433N00509041EA-007300000000000
B0840185211433N00509041EA-007300008000000
B0840225211433N00509041EA-007300008000004
B0840265211433N00509041EA-007300008000000
B0840305211433N00509041EA-007300008000000
B0840345211433N00509041EA-007300008000000
B0840385211433N00509041EA-007300000000000
B0840425211433N00509041EA-007300000000000
B0840465211433N00509045EA-007300000000004
B0840505211433N00509045EA-007300000000000
B0840545211433N00509041EA-007300000000008
B0840585211433N00509041EA-007300000000008
B0841025211433N00509041EA-007300000000004
B0841065211433N00509041EA-007400000000008
B0841105211433N00509041EA-007400000000004
B0841145211433N00509041EA-007400000000004
B0841185211433N00509045EA-007400000000004
B0841225211433N00509045EA-007400000000004
B0841265211433N00509045EA-007400000000004
B0841305211433N00509045EA-007400000000004
B0841345211433N00509045EA-007400000000004
B0841385211433N00509045EA-007400000000004
B0841425211433N00509041EA-007400000000004
B0841465211433N00509041EA-007400000000004
B0841505211433N00509041EA-007400000000004
B0841545211433N00509045EA-007400000000004
B0841585211433N00509045EA-007400000000004
B0842025211433N00509045EA-007400000000004
B0842065211433N00509045EA-007400000000028
B0842105211433N00509045EA-007400000000016
B0842145211433N00509045EA-007400000000000
B0842185211433N00509045EA-007400000000016
B0842225211433N00509045EA-007400008000028
B0842265211433N00509045EA-007400000000016
B0842305211433N00509045EA-007400000000004
B0842345211433N00509045EA-007400000000016
B0842385211429N00509045EA-007400000000012
B0842425211429N00509045EA-007400000000008
B0842465211433N00509045EA-007400000000012
B0842505211433N00509045EA-007400000000012
B0842545211433N00509045EA-007400000000012
B0842585211433N00509045EA-007400000000012
B0843025211433N00509045EA-007400000000008
B0843065211429N00509045EA-007400000000008
B0843105211429N00509045EA-007400000000004
B0843145211433N00509044EA-007400000000008
B0843185211433N00509045EA-007400000000004
B0843225211433N00509045EA-007400000000004
B0843265211433N00509045EA-007400000000004
B0843305211433N00509045EA-007400000000004
B0843345211433N00509045EA-007400000000004
B0843385211433N00509045EA-007400000000004
B0843425211433N00509045EA-007400000000004
B0843465211433N00509045EA-007400000000004
B0843505211433N00509045EA-007400000000004
B0843545211433N00509045EA-007400000000004
B0843585211433N00509045EA-007400000000004
B0844025211433N00509041EA-007400000000004
B0844065211433N00509045EA-007400008000028
B0844105211433N00509045EA-007400000000016
B0844145211433N00509045EA-007400000000016
B0844185211433N00509045EA-007400000000024
B0844225211433N00509045EA-007400000000000
B0844265211433N00509045EA-007400000000008
B0844305211429N00509045EA-007400008000008
B0844345211429N00509045EA-007400008000004
B0844385211429N00509045EA-007400008000008
B0844425211429N00509045EA-007400000000008
B0844465211429N00509045EA-007400000000028
B0844505211429N00509045EA-007400000000016
B0844545211429N00509045EA-007400000000036
B0844585211429N00509045EA-007400000000032
B0845025211429N00509045EA-007400008000048
B0845065211429N00509045EA-007400008000040
B0845105211429N00509045EA-007400008000060
B0845145211429N00509045EA-007400008000056
B0845185211429N00509045EA-007400008000028
B0845225211429N00509045EA-007400008000044
B0845265211429N00509045EA-007400008000008
B0845305211429N00509045EA-007400008000016
B0845345211429N00509045EA-007400008000012
B0845385211429N00509045EA-007400008000008
B0845425211429N00509045EA-007400008000004
B0845465211429N00509045EA-007400008000008
B0845505211429N00509045EA-007400008000000
B0845545211429N00509045EA-007400008000000
B0845585211429N00509045EA-007400008000000
B0846025211429N00509045EA-007400000000000
B0846065211429N00509045EA-007400000000028
LZAN 084608 PowerOff
LZAN 084640 PowerOn
B0846425211429N00509045EV-007400000000000
B0846465211429N00509045EV-007400000000032
B0846505211429N00509045EV-007400000000016
B0846545211429N00509045EV-007400000000144
B0846585211429N00509045EV-007400000000196
B0847025211425N00509045EA-007400008000208
B0847065211425N00509045EA-007400016000192
B0847105211425N00509045EA-007400008000172
B0847145211429N00509045EA-007400008000152
B0847185211429N00509045EA-007400008000136
B0847225211429N00509045EA-007400008000152
B0847265211429N00509045EA-007400008000176
B0847305211429N00509045EA-007400008000196
B0847345211429N00509045EA-007400008000208
B0847385211429N00509045EA-007400008000196
B0847425211429N00509045EA-007400008000132
B0847465211429N00509045EA-007400008000132
B0847505211429N00509045EA-007400008000076
B0847545211429N00509045EA-007400008000104
B0847585211429N00509045EA-007400008000052
B0848025211429N00509045EA-007400000000064
B0848065211429N00509045EA-007400000000084
B0848105211429N00509045EA-007400000000068
B0848145211429N00509045EA-007400000000100
B0848185211429N00509045EA-007400000000092
B0848225211433N00509045EA-007400000000124
B0848265211429N00509045EA-007400000000136
B0848305211429N00509041EA-007400000000144
B0848345211429N00509041EA-0074-0008000144
B0848385211429N00509041EA-007400000000124
B0848425211433N00509041EA-007400000000136
B0848465211433N00509041EA-007400000000048
B0848505211433N00509041EA-007400000000088
B0848545211433N00509041EA-007400000000076
B0848585211433N00509041EA-007400000000064
B0849025211433N00509041EA-007400000000068
B0849065211433N00509041EA-007400000000072
B0849105211433N00509045EA-007400000000084
B0849145211433N00509041EA-007400008000076
B0849185211433N00509041EA-007400008000064
B0849225211433N00509041EA-007400008000072
B0849265211433N00509041EA-007400008000064
B0849305211429N00509041EA-007400008000064
B0849345211429N00509041EA-007400008000064
B0849385211429N00509045EA-007400008000064
B0849425211429N00509045EA-007400008000064
B0849465211429N00509045EA-007400008000064
B0849505211429N00509041EA-007400008000048
B0849545211429N00509041EA-007400008000056
B0849585211433N00509041EA-007400008000076
B0850025211433N00509041EA-007400016000064
B0850065211433N00509041EA-007400016000048
B0850105211433N00509041EA-007400016000064
B0850145211429N00509041EA-007400016000076
B0850185211429N00509041EA-007400008000064
B0850225211429N00509041EA-007400008000048
B0850265211429N00509041EA-007400008000064
B0850305211433N00509041EA-007400008000060
B0850345211433N00509041EA-007400008000056
B0850385211433N00509041EA-007400008000076
B0850425211433N00509041EA-007400016000068
B0850465211433N00509041EA-007400016000048
B0850505211433N00509041EA-007400016000064
B0850545211433N00509041EA-007400008000076
B0850585211433N00509041EA-007400008000064
B0851025211433N00509041EA-007400008000100
B0851065211433N00509041EA-007400008000088
B0851105211433N00509041EA-007400000000076
B0851145211433N00509041EA-007400008000088
B0851185211433N00509041EA-007400008000076
B0851225211433N00509041EA-007400008000076
B0851265211433N00509041EA-007400008000072
B0851305211433N00509041EA-007400008000072
B0851345211433N00509045EA-007400008000072
B0851385211433N00509045EA-007400008000072
B0851425211433N00509045EA-007400000000072
B0851465211433N00509045EA-007400000000072
B0851505211429N00509045EA-007400000000076
B0851545211433N00509045EA-007400000000072
B0851585211433N00509045EA-007400000000072
B0852025211433N00509045EA-007400008000072
B0852065211433N00509045EA-007400008000072
B0852105211433N00509045EA-007400008000072
B0852145211433N00509045EA-007400008000072
B0852185211433N00509045EA-007400008000072
B0852225211433N00509045EA-007400008000072
B0852265211433N00509045EA-007300008000072
B0852305211433N00509045EA-007300008000076
B0852345211433N00509045EA-007300008000072
B0852385211433N00509045EA-007300008000076
B0852425211433N00509045EA-007300008000076
B0852465211433N00509045EA-007300008000072
B0852505211433N00509045EA-007300008000072
B0852545211433N00509041EA-007300008000076
B0852585211433N00509041EA-007300008000072
B0853025211433N00509041EA-007300008000076
B0853065211433N00509041EA-007300000000076
B0853105211433N00509041EA-007300000000076
B0853145211433N00509041EA-007300000000076
B0853185211433N00509041EA-007300000000092
B0853225211433N00509041EA-007300000000084
B0853265211433N00509041EA-007300000000096
B0853305211433N00509041EA-007300000000096
B0853345211433N00509041EA-007300000000068
B0853385211433N00509041EA-007300000000080
B0853425211433N00509041EA-007300000000064
B0853465211433N00509041EA-007300000000064
B0853505211433N00509041EA-007300000000044
B0853545211429N00509041EA-007300000000056
B0853585211429N00509045EA-007300000000060
B0854025211429N00509045EA-007300000000052
B0854065211429N00509045EA-007300000000032
B0854105211429N00509045EA-007300000000048
B0854145211429N00509045EA-007300008000044
B0854185211429N00509045EA-007300008000040
B0854225211429N00509045EA-007300008000040
B0854265211429N00509045EA-007300008000040
B0854305211429N00509045EA-007300008000016
B0854345211429N00509045EA-007300000000028
B0854385211429N00509045EA-007300000000040
B0854425211429N00509045EA-007300000000028
B0854465211429N00509045EA-007300000000036
B0854505211429N00509045EA-007300000000040
B0854545211429N00509045EA-007300008000020
B0854585211429N00509045EA-007300008000028
B0855025211429N00509045EA-007300008000012
B0855065211429N00509045EA-007300008000016
B0855075211429N00509045EA-007300008000012
B0855085211429N00509045EA-007300008000012
B0855095211429N00509045EA-007300008000012
B0855105211429N00509045EA-007300008000012
B0855115211429N00509045EA-007300008000028
B0855125211429N00509045EA-007300008000020
B0855135211429N00509045EA-007300008000016
B0855145211429N00509045EA-007300008000024
B0855155211429N00509045EA-007300008000016
B0855165211429N00509045EA-007300008000016
B0855175211429N00509045EA-007300008000032
B0855185211429N00509045EA-007300008000024
B0855225211429N00509045EA-007300000000108
B0855265211429N00509045EA-007300000000072
B0855305211433N00509045EA-007300000000056
B0855345211433N00509045EA-007300000000080
B0855385211433N00509045EA-007300000000032
B0855425211433N00509045EA-007300000000044
B0855465211433N00509045EA-007400008000112
B0855475211433N00509045EA-007400008000072
B0855485211433N00509041EA-007400008000116
B0855495211433N00509041EA-007400008000112
B0855505211433N00509041EA-007400008000124
B0855515211433N00509041EA-007400008000120
B0855525211433N00509041EA-007400008000124
B0855535211433N00509041EA-007400008000124
B0855545211433N00509041EA-007400008000124
B0855555211433N00509041EA-007400008000124
B0855565211433N00509041EA-007400008000124
B0855575211433N00509041EA-007400008000124
B0855585211433N00509045EA-007400008000124
B0856025211433N00509045EA-007400000000124
B0856065211433N00509045EA-007400000000124
B0856105211433N00509045EA-007400000000124
B0856145211433N00509045EA-007400000000132
B0856185211433N00509045EA-007400000000136
B0856225211433N00509045EA-007400000000116
B0856265211433N00509045EA-007400000000128
B0856305211433N00509041EA-007400000000124
B0856345211433N00509041EA-007400008000120
B0856385211433N00509041EA-007400008000060
B0856425211433N00509041EA-007400008000092
B0856465211433N00509045EA-007400008000020
B0856505211433N00509045EA-007400000000040
B0856545211429N00509045EA-007400000000020
B0856585211429N00509045EA-007400000000020
B0857025211429N00509045EA-007400000000024
B0857065211429N00509045EA-007400000000024
B0857105211429N00509045EA-007400000000044
B0857145211429N00509045EA-007400000000032
B0857185211433N00509045EA-007400000000016
B0857225211433N00509045EA-007400000000032
B0857265211433N00509045EA-007400000000028
B0857305211433N00509045EA-007400000000024
B0857345211433N00509045EA-007300000000028
B0857385211433N00509045EA-007300000000028
B0857425211433N00509045EA-007300000000028
B0857465211433N00509045EA-007300000000028
C020714085748020714000104
C5211516N00508816E HILVERSUM   
C5211516N00508816E HILVERSUM   
C5147116N00552833E MALDEN GLD  
C5121833N00612900E VENLO GLD   
C5024333N00631733E DAHLEMER BIN
C5147116N00552833E MALDEN GLD  
C5211516N00508816E HILVERSUM   
C5211516N00508816E HILVERSUM   
B0857505211429N00509045EA-007300000000028
B0857545211429N00509045EA-007300000000028
B0857585211429N00509045EA-007300000000024
B0858025211429N00509045EA-007300000000024
B0858065211429N00509045EA-007300000000024
B0858105211429N00509041EA-007300000000024
B0858145211433N00509041EA-007300008000000
B0858185211433N00509041EA-007300008000012
B0858225211433N00509041EA-007300008000004
B0858265211433N00509041EA-007300008000000
B0858305211433N00509041EA-007300008000008
B0858345211433N00509041EA-007300008000008
B0858385211433N00509041EA-007300000000008
B0858425211433N00509041EA-007300000000008
B0858465211433N00509041EA-007300000000004
B0858505211433N00509041EA-007300000000008
B0858545211433N00509041EA-007300000000004
B0858585211433N00509041EA-007300000000004
B0859025211433N00509041EA-007300008000004
B0859065211433N00509041EA-007300008000004
B0859105211433N00509041EA-007300008000004
B0859145211433N00509041EA-007300016000004
B0859185211433N00509041EA-007300008000004
B0859225211433N00509041EA-007300008000004
B0859265211433N00509041EA-007300008000004
B0859305211433N00509041EA-007300008000004
B0859345211433N00509041EA-007300000000000
B0859385211433N00509041EA-007300000000000
B0859425211433N00509041EA-007300000000000
B0859465211433N00509041EA-007300000000000
B0859505211433N00509041EA-007300008000012
B0859545211433N00509041EA-007300008000008
B0859585211433N00509041EA-007300008000016
B0900025211433N00509041EA-007300000000016
B0900065211429N00509041EA-007300000000000
B0900105211429N00509041EA-007300000000008
B0900145211429N00509041EA-007300008000008
B0900185211433N00509041EA-007300008000004
B0900225211433N00509041EA-007300008000024
B0900265211433N00509041EA-007300008000016
B0900305211433N00509041EA-007300008000020
B0900345211433N00509041EA-007300008000024
B0900385211433N00509041EA-007300008000016
B0900425211433N00509041EA-007300008000016
B0900465211433N00509041EA-007300008000016
B0900505211433N00509041EA-007300008000016
B0900545211433N00509041EA-007300008000016
B0900585211433N00509041EA-007300008000016
B0901025211433N00509041EA-007300008000024
B0901065211433N00509041EA-007300008000020
B0901105211433N00509041EA-007300008000020
B0901145211433N00509041EA-007300008000024
B0901185211433N00509041EA-007300008000016
B0901225211433N00509041EA-007300008000016
B0901265211433N00509041EA-007300008000036
B0901305211433N00509037EA-007300008000024
B0901345211433N00509033EA-007300008000084
B0901385211429N00509029EA-007300008000060
B0901425211429N00509025EA-007300008000112
B0901465211425N00509020EA-007300008000140
B0901505211425N00509020EA-007300008000164
B0901545211420N00509016EA-007300008000224
B0901585211416N00509012EA-007300008000284
B0902025211416N00509008EA-007300008000244
B0902065211412N00509004EA-007300008000172
B0902105211408N00509004EA-007300008000160
B0902145211404N00509000EA-007300008000180
B0902185211404N00508995EA-007300008000168
B0902225211400N00508995EA-007300008000164
B0902265211395N00508991EA-007300008000164
B0902305211391N00508991EA-007300008000140
B0902345211387N00508987EA-007300008000152
B0902385211387N00508987EA-007300008000180
B0902425211383N00508983EA-007300008000172
B0902465211379N00508983EA-007300008000168
B0902505211375N00508979EA-007300008000184
B0902545211370N00508979EA-007300008000196
B0902585211366N00508975EA-007300008000204
B0903025211362N00508975EA-007300008000268
B0903065211358N00508970EA-007300008000292
B0903105211354N00508970EA-007300008000268
B0903145211350N00508970EA-007300008000240
B0903185211345N00508966EA-007300008000200
B0903225211341N00508966EA-007300008000184
B0903265211337N00508966EA-007300008000172
B0903305211333N00508962EA-007300008000172
B0903345211329N00508962EA-007300008000176
B0903385211325N00508958EA-007300008000168
B0903425211320N00508958EA-007300008000152
B0903465211320N00508958EA-007300008000144
B0903505211316N00508954EA-007300008000168
B0903545211312N00508954EA-007300008000176
B0903585211308N00508950EA-007300008000144
B0904025211308N00508950EA-007300008000144
B0904065211304N00508945EA-007300008000176
B0904105211300N00508945EA-007300008000192
B0904145211295N00508941EA-007300008000228
B0904185211291N00508933EA-007300008000244
B0904225211287N00508929EA-007300008000212
B0904265211283N00508925EA-007300000000184
B0904305211283N00508920EA-007300000000168
B0904345211279N00508916EA-007300000000180
B0904385211275N00508912EA-007300000000272
B0904425211270N00508904EA-007300000000296
B0904465211270N00508900EA-007300000000192
B0904505211270N00508895EA-007300000000192
B0904545211266N00508895EA-007300000000080
B0904585211266N00508895EA-007300000000136
B0905025211266N00508895EA-007300008000036
B0905065211266N00508895EA-007300008000056
B0905105211266N00508895EA-007300008000036
B0905145211266N00508895EA-007300008000036
B0905185211266N00508895EA-007300008000020
B0905225211266N00508895EA-007300008000028
B0905265211266N00508895EA-007300008000020
B0905305211266N00508891EA-007300008000020
B0905345211266N00508891EA-007300008000024
B0905385211266N00508891EA-007300008000024
B0905425211266N00508891EA-007300008000000
B0905465211266N00508891EA-007300008000012
B0905505211266N00508891EA-007300008000004
B0905545211266N00508891EA-007300008000000
B0905585211266N00508891EA-007300008000028
B0906025211266N00508891EA-007300008000016
B0906065211270N00508891EA-007300008000236
B0906105211270N00508891EA-007300008000176
B0906145211270N00508891EA-007300008000016
B0906185211270N00508891EA-007300008000096
B0906225211270N00508891EA-007300008000004
B0906265211270N00508891EA-007300008000008
B0906305211270N00508891EA-007300008000000
B0906345211270N00508891EA-007300008000000
B0906385211270N00508891EA-007300008000000
B0906425211270N00508891EA-007300008000000
B0906465211270N00508891EA-007300008000000
B0906505211270N00508891EA-007300008000000
B0906545211270N00508891EA-007300008000000
B0906585211270N00508891EA-007300008000000
B0907025211270N00508891EA-007300008000000
B0907065211270N00508891EA-007300008000000
B0907105211270N00508891EA-007300008000000
B0907145211270N00508891EA-007300008000000
B0907185211270N00508891EA-007300008000000
B0907225211270N00508891EA-007300008000000
B0907265211270N00508891EA-007300008000000
B0907305211270N00508891EA-007300008000000
B0907345211270N00508891EA-007300008000000
B0907385211270N00508891EA-007300008000000
B0907425211270N00508891EA-007300008000000
B0907465211270N00508891EA-007300008000000
B0907505211270N00508891EA-007300008000008
B0907545211270N00508891EA-007300008000004
B0907585211270N00508891EA-007300008000000
B0908025211270N00508891EA-007300008000004
B0908065211270N00508891EA-007300008000000
B0908105211270N00508891EA-007300008000000
B0908145211270N00508891EA-007300008000004
B0908185211270N00508891EA-007300008000000
B0908225211270N00508891EA-007300008000000
B0908265211270N00508891EA-007300008000000
B0908305211270N00508891EA-007300008000000
B0908345211270N00508891EA-007300008000000
B0908385211270N00508891EA-007300008000000
B0908425211270N00508891EA-007300008000000
B0908465211270N00508891EA-007300008000000
B0908505211270N00508891EA-007300008000000
B0908545211270N00508891EA-007300008000000
B0908585211270N00508891EA-007300008000000
B0909025211270N00508891EA-007300008000004
B0909065211270N00508891EA-007300008000000
B0909105211270N00508891EA-007300008000000
B0909145211270N00508891EA-007300008000000
B0909185211270N00508891EA-007300008000004
B0909225211270N00508891EA-007300008000000
B0909265211266N00508891EA-007300008000000
B0909305211266N00508891EA-007300008000000
B0909345211266N00508891EA-007300008000000
B0909385211266N00508891EA-007300008000000
B0909425211266N00508891EA-007300008000004
B0909465211266N00508891EA-007300008000000
B0909505211270N00508891EA-007300008000004
B0909545211270N00508891EA-007300008000004
B0909585211270N00508891EA-007300008000004
B0910025211270N00508891EA-007300008000004
B0910065211266N00508891EA-007300008000000
B0910105211266N00508891EA-007300008000000
B0910145211266N00508891EA-007300008000000
B0910185211266N00508891EA-007300008000000
B0910225211266N00508891EA-007300008000000
B0910265211266N00508891EA-007300008000000
B0910305211266N00508891EA-007300008000000
B0910345211266N00508891EA-007300008000000
B0910385211266N00508891EA-007300008000004
B0910425211266N00508891EA-007300008000000
B0910465211266N00508891EA-007300008000004
B0910505211266N00508891EA-007300008000004
B0910545211266N00508891EA-007300008000004
B0910585211266N00508891EA-007300008000004
B0911025211266N00508891EA-007300008000004
B0911065211266N00508891EA-007300008000004
B0911105211266N00508891EA-007300008000008
B0911145211266N00508891EA-007300008000008
B0911185211266N00508891EA-007300008000008
B0911225211266N00508891EA-007300008000008
B0911265211266N00508891EA-007300008000008
B0911305211266N00508891EA-007300008000008
B0911345211266N00508891EA-007300008000028
B0911385211266N00508891EA-007300008000016
B0911425211266N00508891EA-007300008000016
B0911465211266N00508891EA-007300008000024
B0911505211266N00508891EA-007300008000016
B0911545211266N00508891EA-007300008000016
B0911585211266N00508891EA-007300008000012
B0912025211266N00508891EA-007300008000016
B0912065211266N00508891EA-007300008000008
B0912105211266N00508891EA-007300008000008
B0912145211266N00508891EA-007300008000000
B0912185211266N00508891EA-007300008000004
B0912225211266N00508891EA-007300008000000
B0912265211270N00508891EA-007300008000000
B0912305211270N00508891EA-007300008000000
B0912345211270N00508891EA-007300008000000
B0912385211270N00508891EA-007300008000000
B0912425211270N00508891EA-007300008000000
B0912465211270N00508891EA-007300008000000
B0912505211266N00508891EA-007300008000000
B0912545211266N00508891EA-007300008000000
B0912585211266N00508891EA-007300008000000
B0913025211266N00508891EA-007300008000000
B0913065211266N00508891EA-007300008000000
B0913105211266N00508891EA-007300008000000
B0913145211266N00508891EA-007300008000000
B0913185211266N00508891EA-007300008000000
B0913225211266N00508891EA-007300008000000
B0913265211266N00508891EA-007300008000004
B0913305211266N00508891EA-007300008000000
B0913345211266N00508891EA-007300008000000
B0913385211266N00508891EA-007300008000000
B0913425211266N00508891EA-007300008000000
B0913465211266N00508891EA-007300008000000
B0913505211266N00508891EA-007300008000000
B0913545211266N00508891EA-007300008000000
B0913585211266N00508891EA-007300008000000
B0914025211266N00508891EA-007300008000000
B0914065211266N00508891EA-007300008000000
B0914105211266N00508891EA-007300008000000
B0914145211266N00508891EA-007300008000000
B0914185211266N00508891EA-007300008000000
B0914225211266N00508891EA-007300008000004
B0914265211266N00508891EA-007300008000000
B0914305211266N00508891EA-007300008000004
B0914345211266N00508891EA-007300008000004
B0914385211266N00508891EA-007300008000004
B0914425211266N00508891EA-007300008000004
B0914465211266N00508891EA-007300008000004
B0914505211266N00508891EA-007300008000004
B0914545211266N00508891EA-007300008000004
B0914585211266N00508891EA-007300008000004
B0915025211266N00508891EA-007300008000004
B0915065211266N00508891EA-007300008000004
B0915105211266N00508891EA-007300008000024
B0915145211266N00508891EA-007300008000016
B0915185211266N00508891EA-007300008000004
B0915225211266N00508891EA-007300008000016
B0915265211266N00508891EA-007300008000012
B0915305211266N00508891EA-007300008000008
B0915345211266N00508891EA-007300008000008
B0915385211266N00508891EA-007300008000008
B0915425211266N00508891EA-007300008000008
B0915465211266N00508891EA-007300008000008
B0915505211266N00508891EA-007300008000004
B0915545211266N00508891EA-007300008000008
B0915585211266N00508891EA-007300008000004
B0916025211266N00508891EA-007300008000004
B0916065211266N00508891EA-007300008000024
B0916105211266N00508891EA-007300008000016
B0916145211266N00508891EA-007300008000000
B0916185211266N00508891EA-007300008000012
B0916225211266N00508891EA-007300008000004
B0916265211266N00508891EA-007300008000000
B0916305211266N00508891EA-007300008000004
B0916345211266N00508891EA-007300008000004
B0916385211266N00508891EA-007300008000008
B0916425211266N00508891EA-007300008000008
B0916465211266N00508891EA-007300008000004
B0916505211266N00508891EA-007300008000008
B0916545211266N00508891EA-007300008000008
B0916585211266N00508891EA-007300008000008
B0917025211266N00508891EA-007300008000008
B0917065211266N00508891EA-007300008000008
B0917105211266N00508891EA-007300008000004
B0917145211266N00508891EA-007300008000008
B0917185211266N00508891EA-007300008000012
B0917225211266N00508891EA-007300008000008
B0917265211266N00508891EA-007300008000012
B0917305211266N00508891EA-007300008000012
B0917345211266N00508891EA-007300008000008
B0917385211266N00508891EA-007300008000008
B0917425211266N00508891EA-007300008000012
B0917465211266N00508891EA-007300008000008
B0917505211266N00508891EA-007300008000012
B0917545211266N00508891EA-007300008000012
B0917585211266N00508891EA-007300008000044
B0918025211266N00508891EA-007300008000452
B0918065211266N00508891EA-007300008000576
B0918105211266N00508891EA-007300008000180
B0918145211266N00508891EA-007300008000044
B0918185211266N00508891EA-007300008000112
B0918225211266N00508891EA-007300008000020
B0918265211266N00508891EA-007300008000032
B0918305211266N00508891EA-007200008000000
B0918345211266N00508891EA-007200008000008
B0918385211266N00508891EA-007200008000012
B0918425211266N00508891EA-007200008000008
B0918465211266N00508891EA-007200008000024
B0918505211266N00508891EA-007200008000016
B0918545211266N00508891EA-007200008000048
B0918585211266N00508891EA-007200008000036
B0919025211266N00508891EA-007200008000020
B0919065211266N00508891EA-007200008000032
B0919105211266N00508891EA-007200008000004
B0919145211266N00508891EA-007200008000012
B0919185211266N00508891EA-007200008000008
B0919225211266N00508891EA-007200008000008
B0919265211266N00508891EA-007200008000012
B0919305211266N00508891EA-007200008000008
B0919345211266N00508891EA-007200008000008
B0919385211266N00508891EA-007200008000008
B0919425211266N00508891EA-007300008000008
B0919465211266N00508891EA-007300008000008
B0919505211266N00508891EA-007300008000004
B0919545211270N00508891EA-007300008000008
B0919585211270N00508887EA-007300008009024
B0920025211283N00508858EA-007300008049464
B0920065211300N00508816EA-007300008061828
B0920105211325N00508754EA-007300008090948
B0920145211358N00508675EA-007300008104752
B0920185211395N00508583EA-006800008121548
B0920225211437N00508483EA-006000016129552
K092022000011
B0920265211475N00508379EA-004800032126512
B0920305211516N00508279EA-003200040127580
B0920345211558N00508179EA-001900056126584
B0920385211595N00508075EA-001400064127516
B0920425211620N00507958EA-000200072124376
K092042000005
B0920465211620N00507833EA0001400088131452
B0920505211595N00507712EA0002600104131484
B0920545211550N00507600EA0003900120127472
B0920585211491N00507508EA0005500128126448
K092058000005
B0921025211420N00507441EA0007100144128468
B0921065211350N00507379EA0008200160128632
B0921105211275N00507329EA0009800176129620
B0921145211195N00507304EA0011500192128556
B0921185211116N00507295EA0012900200129592
K092118000005
B0921225211037N00507304EA0013600208130604
B0921265210958N00507329EA0014500224128572
B0921305210875N00507354EA0015600232125672
B0921345210795N00507383EA0016600248128708
B0921385210720N00507416EA0017800256127680
B0921425210637N00507458EA0019000264131660
K092142180005
B0921465210562N00507500EA0021600288127692
B0921505210487N00507541EA0023000304127704
B0921545210412N00507579EA0024000312128752
B0921585210337N00507620EA0025300328128760
B0922025210262N00507666EA0026200336131632
K092202180002
B0922065210191N00507729EA0027300352129544
B0922105210133N00507812EA0028800368125452
B0922145210087N00507912EA0030200376124440
B0922185210058N00508020EA0031900392121464
K092218180002
B0922225210041N00508141EA0032300400124436
B0922265210029N00508266EA0033100400123376
B0922305210041N00508387EA0033500408123348
B0922345210062N00508508EA0034400416125424
B0922385210091N00508625EA0035200424129416
K092238180002
B0922425210133N00508741EA0035600432136376
B0922465210179N00508854EA0036900440134476
B0922505210229N00508970EA0037700448136516
B0922545210279N00509087EA0039700464134632
B0922585210325N00509195EA0042200496135620
B0923025210370N00509295EA0044300512129540
K092302180000
B0923065210412N00509395EA0045800536124452
B0923105210458N00509491EA0046200536127472
B0923145210508N00509591EA0046400536130620
B0923185210558N00509691EA0046700544131584
K092318000004
B0923225210608N00509787EA0048000552125488
B0923265210658N00509875EA0049600568123376
B0923305210704N00509966EA0050500584109204
B0923345210720N00510066EA0051300592103056
B0923385210704N00510166EA0050900584111128
K092338000010
B0923425210654N00510254EA0050800584111036
B0923465210583N00510283EA0051000000105048
B0923505210525N00510179EA0050100576109044
B0923545210512N00510075EA0049500576114040
B0923585210541N00509979EA0049500576109056
B0924025210587N00509916EA0049700576106048
K092402000010
B0924065210637N00509858EA0049900584101032
B0924105210687N00509795EA0050000576108044
B0924145210737N00509737EA0049700576104044
B0924185210795N00509712EA0048800568108040
K092418000008
B0924225210858N00509745EA0048200560108060
B0924265210908N00509820EA0048300560107052
B0924305210937N00509925EA0048300560109032
B0924345210950N00510033EA0048900568111048
B0924385210904N00510120EA0049600576112060
K092438000008
B0924425210833N00510100EA0050100576112048
B0924465210812N00510004EA0050400584113052
B0924505210845N00509925EA0051000592104056
B0924545210904N00509916EA0050800584109048
B0924585210962N00509975EA0051300592108048
K092458286007
B0925025210979N00510079EA0052200600103048
B0925065210945N00510179EA0052600608108048
B0925105210879N00510220EA0053700616105032
B0925145210820N00510175EA0054500624104040
B0925185210800N00510079EA0055300632106044
K092518304009
B0925225210829N00510000EA0056100640104040
B0925265210883N00509970EA0056000640107044
B0925305210945N00510012EA0055700632115044
B0925345210983N00510108EA0057800656102060
B0925385210987N00510220EA0057900656103052
K092538296010
B0925425210945N00510320EA0057700648117032
B0925465210883N00510354EA0058500664105048
B0925505210829N00510295EA0058600664098060
B0925545210820N00510195EA0058600664097048
B0925585210850N00510108EA0058900664101144
K092558322005
B0926025210908N00510062EA0058900664095344
B0926065210975N00510075EA0060200672083544
B0926105211025N00510150EA0061100688073752
B0926145211041N00510254EA0061400688078952
B0926185211029N00510362EA0061300688082999
K092618230016
B0926225210983N00510437EA0060600680090999
B0926265210925N00510462EA0060400680084999
B0926305210870N00510433EA0060000672086999
B0926345210825N00510362EA0059100672094999
B0926385210804N00510266EA0058900664089999
B0926425210808N00510170EA0060200680091999
K092642248013
B0926465210841N00510095EA0061600688094999
B0926505210895N00510058EA0062800704101999
B0926545210958N00510095EA0064200720106999
B0926585210987N00510195EA0065900728102999
B0927025210975N00510304EA0067100752084936
K092702318011
B0927065210925N00510370EA0067900760076680
B0927105210862N00510379EA0068500760078412
B0927145210804N00510337EA0068100760086248
B0927185210775N00510250EA0068500760095156
K092718320016
B0927225210783N00510158EA0068600768101156
B0927265210837N00510104EA0068800768114068
B0927305210900N00510129EA0070200784103112
B0927345210941N00510220EA0071200792104040
B0927385210933N00510337EA0071800800107056
K092738324018
B0927425210883N00510420EA0072700800108044
B0927465210816N00510425EA0074000816104040
B0927505210770N00510362EA0074400824103044
B0927545210762N00510266EA0074300816109044
B0927585210800N00510179EA0074600824114060
K092758286010
B0928025210862N00510150EA0075700832111052
B0928065210920N00510195EA0077100848100048
B0928105210950N00510287EA0078000856098056
B0928145210929N00510395EA0078000856110036
B0928185210862N00510450EA0078300856116040
B0928225210795N00510416EA0079800872105060
K092822280008
B0928265210766N00510325EA0079800872104048
B0928305210783N00510225EA0080100880113052
B0928345210833N00510162EA0081000888108056
B0928385210900N00510175EA0081400888111048
K092838000008
B0928425210950N00510258EA0082100896109048
B0928465210954N00510379EA0082400904115052
B0928505210908N00510475EA0083300912112048
B0928545210837N00510495EA0084100912113048
B0928585210779N00510437EA0084600928108048
K092858300007
B0929025210754N00510341EA0085200928104048
B0929065210770N00510241EA0085500928107048
B0929105210812N00510162EA0086000936110048
B0929145210879N00510141EA0086600944114048
B0929185210933N00510216EA0087800952111052
K092918308007
B0929225210929N00510333EA0088000952106048
B0929265210879N00510412EA0088200960108048
B0929305210812N00510408EA0089200968104048
B0929345210770N00510329EA0089900976104032
B0929385210779N00510229EA0089900976113040
K092938294007
B0929425210833N00510150EA0089900976122060
B0929465210900N00510087EA0089800976128048
B0929505210966N00510033EA0092401000120052
B0929545211025N00509983EA0093601016111056
B0929585211091N00509929EA0092401000129056
B0930025211166N00509862EA0090900984144056
K093002000008
B0930065211237N00509758EA0089700968155068
B0930105211295N00509637EA0089400968154064
B0930145211337N00509516EA0089500968145072
B0930185211379N00509400EA0089500968139072
K093018000008
B0930225211412N00509279EA0088700960136072
B0930265211450N00509158EA0088200952131072
B0930305211483N00509029EA0087600944134064
B0930345211508N00508904EA0088400952129068
B0930385211529N00508791EA0089700976114052
K093038180000
B0930425211541N00508675EA0089700968115056
B0930465211495N00508579EA0090200976122072
B0930505211420N00508570EA0091300992113064
B0930545211358N00508645EA0091300984118048
B0930585211308N00508745EA0090600976132060
K093058180000
B0931025211262N00508850EA0092001000117052
B0931065211220N00508937EA0093101008107048
B0931105211179N00509020EA0092801000108060
B0931145211137N00509120EA0091000984124056
B0931185211091N00509241EA0089500968139052
K093118000003
B0931225211041N00509366EA0089000960142056
B0931265210991N00509483EA0090900984134076
B0931305210954N00509583EA0093701016105064
B0931345210912N00509675EA0092401000122056
B0931385210870N00509791EA0092200992135064
K093138000004
B0931425210820N00509908EA0091900992141072
B0931465210770N00510033EA0092201000142064
B0931505210720N00510154EA0093201008142064
B0931545210670N00510279EA0093801016147068
B0931585210616N00510404EA0093501008144064
K093158000001
B0932025210570N00510537EA0092200992151064
B0932065210516N00510675EA0091700992147068
B0932105210466N00510812EA0090900984151064
B0932145210412N00510954EA0089200968158072
B0932185210362N00511100EA0088500960160072
K093218180004
B0932225210308N00511245EA0088200952157076
B0932265210258N00511383EA0088100952153072
B0932305210208N00511520EA0088700968139076
B0932345210162N00511641EA0090500984125076
B0932385210125N00511754EA0091100992116056
K093238180010
B0932425210087N00511870EA0090600984127064
B0932465210050N00511991EA0090000976129056
B0932505210008N00512108EA0089000960129056
B0932545209970N00512233EA0086800944142072
B0932585209929N00512375EA0084600920151064
K093258180000
B0933025209891N00512520EA0083500912153072
B0933065209854N00512670EA0083200904152072
B0933105209820N00512820EA0083700912146072
B0933145209787N00512958EA0084500920140072
B0933185209758N00513091EA0085400936129056
K093318180007
B0933225209729N00513225EA0085300928133064
B0933265209700N00513358EA0085200928134060
B0933305209675N00513495EA0085500936129056
B0933345209650N00513620EA0086800944123056
B0933385209629N00513733EA0088300960107056
K093338180008
B0933425209612N00513841EA0088300960103060
B0933465209595N00513954EA0087400952112056
B0933505209570N00514070EA0086400944123052
B0933545209533N00514191EA0085300928128056
B0933585209479N00514300EA0084500920130056
K093358180004
B0934025209420N00514400EA0084200920129056
B0934065209354N00514500EA0083400912132056
B0934105209291N00514600EA0082900904135056
B0934145209225N00514704EA0082000896135056
B0934185209162N00514808EA0081300888137056
K093418180007
B0934225209100N00514916EA0080400880138056
B0934265209041N00515025EA0079800872138056
B0934305208979N00515133EA0079800872134056
B0934345208925N00515245EA0079200872131056
B0934385208866N00515354EA0078300864132060
K093438180008
B0934425208812N00515466EA0077700856134056
B0934465208762N00515583EA0077300848130056
B0934505208716N00515700EA0077000848129056
B0934545208679N00515825EA0077000848128060
B0934585208650N00515945EA0077100848124056
K093458180008
B0935025208620N00516070EA0078000856122056
B0935065208604N00516187EA0078900872111056
B0935105208591N00516295EA0079500872110060
B0935145208579N00516412EA0079700872112056
B0935185208579N00516537EA0079800872119056
K093518180004
B0935225208616N00516645EA0080500880117056
B0935265208679N00516679EA0082400896116056
B0935305208720N00516604EA0083100904116056
B0935345208695N00516500EA0084700920119060
B0935385208625N00516508EA0086000928118056
K093538180004
B0935425208591N00516616EA0086800936114060
B0935465208620N00516720EA0088100952108060
B0935505208679N00516725EA0088300960117056
B0935545208695N00516616EA0088800960126056
B0935585208629N00516570EA0090900984123056
K093558296013
B0936025208591N00516670EA0092000992119056
B0936065208633N00516762EA0093201008115060
B0936105208691N00516716EA0093901008118056
B0936145208675N00516608EA0096101024118060
B0936185208608N00516604EA0098601056104060
K093618324007
B0936225208575N00516700EA0098601056112060
B0936265208616N00516795EA0099501064108060
B0936305208675N00516770EA0100201072112048
B0936345208679N00516662EA0102001088115056
B0936385208620N00516612EA0104301112105052
K093638316007
B0936425208562N00516666EA0104901120105048
B0936465208516N00516762EA0105201128112040
B0936505208470N00516866EA0106401136112048
B0936545208425N00516966EA0106401136120060
B0936585208375N00517079EA0104301120140048
K093658180004
B0937025208320N00517208EA0102801104144064
B0937065208266N00517345EA0101801088148064
B0937105208212N00517475EA0101601088147064
B0937145208158N00517604EA0101601088146064
B0937185208108N00517729EA0101601088142064
K093718180005
B0937225208058N00517858EA0101601088142064
B0937265208008N00517979EA0102401096134068
B0937305207966N00518091EA0102901104123064
B0937345207929N00518212EA0100501088136052
B0937385207895N00518354EA0098701064147060
K093738180002
B0937425207862N00518504EA0098601056148076
B0937465207829N00518641EA0098701064140064
B0937505207795N00518775EA0099201064132068
B0937545207762N00518900EA0098701064134072
B0937585207725N00519029EA0098301056133048
K093758180005
B0938025207687N00519158EA0097401048132056
B0938065207650N00519291EA0096801040137060
B0938105207620N00519433EA0095501032141056
B0938145207591N00519579EA0095201024142076
B0938185207570N00519725EA0094601024140068
K093818180007
B0938225207545N00519870EA0094401016138064
B0938265207520N00520016EA0094101016139072
B0938305207495N00520150EA0094801024127064
B0938345207462N00520279EA0095601032125064
B0938385207420N00520387EA0096801048114048
K093838180010
B0938425207375N00520479EA0095901032113056
B0938465207312N00520575EA0093301008134056
B0938505207237N00520670EA0091800992147052
B0938545207162N00520762EA0091100984150076
B0938585207083N00520854EA0090600984141064
K093858180005
B0939025207012N00520945EA0090100976144068
B0939065206941N00521045EA0090500976140072
B0939105206875N00521133EA0092300992121064
B0939145206820N00521212EA0092501000115064
B0939185206762N00521300EA0090600984122048
K093918180005
B0939225206695N00521400EA0088100952138056
B0939265206629N00521512EA0086900944149068
B0939305206566N00521625EA0086900944144056
B0939345206504N00521729EA0087700952133068
B0939385206445N00521825EA0088300960125068
K093938180007
B0939425206391N00521920EA0088300960126052
B0939465206333N00522016EA0088200952127060
B0939505206275N00522108EA0087900952128056
B0939545206216N00522200EA0087500952125056
B0939585206162N00522291EA0089200960115060
K093958180007
B0940025206108N00522362EA0090100976098056
B0940065206054N00522433EA0088600968108060
B0940105205995N00522516EA0088200960119060
B0940145205937N00522600EA0088400960116052
B0940185205887N00522675EA0089200968103056
K094018180007
B0940225205837N00522754EA0087000952112060
B0940265205783N00522862EA0085100920137056
B0940305205737N00522991EA0084200912144072
B0940345205691N00523125EA0084200920140064
B0940385205654N00523254EA0084700920131068
K094038180007
B0940425205620N00523379EA0084300920134072
B0940465205583N00523504EA0084300920127048
B0940505205550N00523625EA0084300920124056
B0940545205520N00523741EA0083300912125060
B0940585205487N00523866EA0081800896130056
K094058180002
B0941025205454N00523995EA0079600872139088
B0941065205416N00524129EA0078700864144072
B0941105205375N00524266EA0078100856143064
B0941145205341N00524400EA0077700848141076
B0941185205304N00524537EA0077300848139068
K094118180004
B0941225205270N00524670EA0076800840137064
B0941265205233N00524800EA0076600840136064
B0941305205200N00524929EA0077400848124064
B0941345205170N00525054EA0077900848130048
B0941385205145N00525170EA0080700880101056
K094138180012
B0941425205129N00525258EA0081400896089056
B0941465205112N00525362EA0079600872110052
B0941505205091N00525475EA0078300856119052
B0941545205070N00525600EA0077100848123056
B0941585205045N00525729EA0076000840130076
K094158180002
B0942025205016N00525858EA0075500832129064
B0942065204987N00525987EA0075200824132052
B0942105204962N00526104EA0077000840110064
B0942145204941N00526212EA0077900856104060
B0942185204925N00526316EA0077800856107056
K094218180005
B0942225204950N00526420EA0078300856104056
B0942265205004N00526454EA0078800864108056
B0942305205062N00526404EA0079200872105060
B0942345205070N00526308EA0080100880106056
B0942385205025N00526241EA0080200880110056
K094238180005
B0942425204962N00526266EA0080100872111056
B0942465204925N00526362EA0080500880101056
B0942505204925N00526466EA0081000888103056
B0942545204979N00526520EA0080900880114060
B0942585205037N00526470EA0081800896105056
K094258298005
B0943025205041N00526370EA0082400896104060
B0943065205000N00526283EA0082400896110060
B0943105204937N00526241EA0083300904104056
B0943145204875N00526270EA0083300912103056
B0943185204837N00526354EA0083100904102056
K094318342005
B0943225204833N00526462EA0082800904103056
B0943265204866N00526558EA0082500896112052
B0943305204925N00526591EA0083300904109056
B0943345204983N00526554EA0084200920102056
B0943385205012N00526470EA0084300920102056
K094338318005
B0943425205000N00526370EA0084300920106060
B0943465204945N00526316EA0085000928103056
B0943505204887N00526350EA0085400928102052
B0943545204858N00526450EA0085100928104056
B0943585204879N00526554EA0085200928107056
K094358306003
B0944025204937N00526600EA0085200928106056
B0944065204991N00526554EA0085900928107056
B0944105204995N00526454EA0085900936105056
B0944145204950N00526375EA0085900928112056
B0944185204895N00526325EA0086800944100056
K094418292004
B0944225204829N00526329EA0086500936106056
B0944265204791N00526416EA0086100936107056
B0944305204795N00526525EA0086000936106056
B0944345204825N00526629EA0085600928114056
B0944385204862N00526729EA0086100936113056
K094438298005
B0944425204895N00526820EA0086100936111056
B0944465204933N00526912EA0086100936109056
B0944505204966N00527012EA0085600936113056
B0944545205000N00527116EA0084500920119052
B0944585205033N00527233EA0083200912129056
K094458000004
B0945025205062N00527354EA0082800904127060
B0945065205091N00527475EA0081800896127056
B0945105205120N00527600EA0080600880129076
B0945145205154N00527720EA0079600872132068
B0945185205191N00527841EA0079000864131072
K094518180000
B0945225205225N00527962EA0079000864125072
B0945265205258N00528075EA0078300864122072
B0945305205287N00528195EA0077900856125072
B0945345205308N00528316EA0077900848126064
B0945385205329N00528433EA0077900856121068
K094538180000
B0945425205350N00528554EA0077400848124048
B0945465205370N00528666EA0078300856119056
B0945505205395N00528775EA0081000888112060
B0945545205387N00528883EA0082800904106056
B0945585205333N00528950EA0083900912107052
K094558180000
B0946025205262N00528937EA0084200920107056
B0946065205220N00528850EA0085400928104052
B0946105205229N00528754EA0086000936101052
B0946145205279N00528695EA0087100944109056
B0946185205333N00528720EA0088600960104056
K094618180000
B0946225205362N00528816EA0090500976108048
B0946265205337N00528920EA0092100992109052
B0946305205270N00528958EA0093201008104060
B0946345205208N00528904EA0093201008105056
B0946385205191N00528795EA0093701008111052
K094638354009
B0946425205233N00528720EA0095401024109056
B0946465205287N00528720EA0096501040093052
B0946505205333N00528783EA0097401048098052
B0946545205350N00528887EA0098301056108048
B0946585205312N00528987EA0099701072112048
K094658350006
B0947025205245N00529008EA0101001088112060
B0947065205195N00528925EA0102001096111056
B0947105205216N00528829EA0102101096115056
B0947145205283N00528816EA0102001088133056
B0947185205354N00528887EA0102001088136072
K094718334014
B0947225205395N00529016EA0102101088144064
B0947265205433N00529158EA0102801104147068
B0947305205466N00529300EA0104001112142072
B0947345205495N00529433EA0105201120126072
B0947385205516N00529545EA0106501144111072
K094738180000
B0947425205537N00529662EA0106201144116048
B0947465205558N00529783EA0105001120124060
B0947505205575N00529920EA0103601112133052
B0947545205587N00530062EA0103301104137048
B0947585205595N00530204EA0103201104131056
K094758180003
B0948025205600N00530345EA0102401096134056
B0948065205600N00530487EA0101301088137060
B0948105205600N00530637EA0101101088136056
B0948145205595N00530787EA0100001080137060
B0948185205587N00530937EA0099301072141060
K094818180007
B0948225205587N00531091EA0099301064140076
B0948265205583N00531241EA0099301072133068
B0948305205579N00531387EA0099101064135052
B0948345205575N00531541EA0098701064140064
B0948385205575N00531695EA0099201072133076
K094838180011
B0948425205579N00531837EA0100101080125064
B0948465205579N00531975EA0099901072127052
B0948505205579N00532116EA0099901072127064
B0948545205583N00532250EA0099901072123060
B0948585205583N00532387EA0099001064126056
K094858180008
B0949025205587N00532529EA0097801056133060
B0949065205591N00532675EA0097401048135060
B0949105205591N00532820EA0096801040137072
B0949145205591N00532970EA0096101040137064
B0949185205591N00533116EA0095801032137064
K094918180007
B0949225205587N00533262EA0095201024139068
B0949265205587N00533412EA0094701024139064
B0949305205587N00533558EA0094201016139064
B0949345205591N00533704EA0094101016139064
B0949385205595N00533850EA0094501016134064
K094938180007
B0949425205595N00533987EA0095201024126068
B0949465205595N00534125EA0094901024127064
B0949505205595N00534262EA0094101016130052
B0949545205600N00534404EA0092901000135060
B0949585205600N00534550EA0092201000139060
K094958180005
B0950025205600N00534700EA0091500992139056
B0950065205600N00534850EA0091000984138076
B0950105205595N00534995EA0090600976136068
B0950145205595N00535141EA0090200976136064
B0950185205595N00535283EA0089700976134072
K095018180007
B0950225205595N00535425EA0088800968133048
B0950265205595N00535570EA0088100960136056
B0950305205595N00535716EA0087400952140060
B0950345205595N00535866EA0086500944142056
B0950385205591N00536016EA0086300936144076
K095038180006
B0950425205587N00536166EA0086000936140068
B0950465205579N00536316EA0085400928139064
B0950505205575N00536466EA0084700920141072
B0950545205566N00536620EA0084500920147064
B0950585205558N00536770EA0084300920143064
K095058180006
B0951025205550N00536912EA0084200920138068
B0951065205545N00537054EA0083700912138064
B0951105205541N00537195EA0083700912135068
B0951145205541N00537337EA0083700912132068
B0951185205537N00537479EA0083200912136048
K095118180005
B0951225205533N00537625EA0082200904138056
B0951265205529N00537770EA0082000896136060
B0951305205525N00537916EA0081800896134056
B0951345205525N00538054EA0081500888132060
B0951385205525N00538195EA0081100888132060
K095138180006
B0951425205520N00538337EA0080700880133060
B0951465205516N00538479EA0080500880134060
B0951505205512N00538620EA0080100880134072
B0951545205512N00538758EA0080100880130064
B0951585205516N00538891EA0079900880127064
K095158180006
B0952025205520N00539025EA0079600872130068
B0952065205525N00539158EA0079200872130048
B0952105205529N00539291EA0079000864129056
B0952145205537N00539425EA0078300864129060
B0952185205545N00539558EA0078100856132056
K095218180002
B0952225205558N00539691EA0077500856130076
B0952265205570N00539825EA0077400848127068
B0952305205587N00539954EA0077600856123048
B0952345205600N00540079EA0079500864117064
B0952385205616N00540191EA0080500888101060
K095238180008
B0952425205620N00540304EA0080000880110056
B0952465205620N00540420EA0079800872111060
B0952505205604N00540541EA0078800864114060
B0952545205587N00540666EA0077500856120076
B0952585205566N00540795EA0076800848120068
K095258180008
B0953025205545N00540925EA0076200840126068
B0953065205529N00541054EA0079400864118072
B0953105205508N00541150EA0080700888096052
B0953145205450N00541204EA0080400880114060
B0953185205383N00541162EA0082500904113060
K095318180009
B0953225205366N00541066EA0084100920104056
B0953265205412N00541004EA0084800920104056
B0953305205466N00541037EA0084900928106056
B0953345205495N00541129EA0086400936100052
B0953385205479N00541229EA0087500952095056
K095338320007
B0953425205429N00541291EA0087800952104036
B0953465205362N00541266EA0089800968105044
B0953505205345N00541170EA0091300984108060
B0953545205395N00541116EA0092301000103048
B0953585205445N00541162EA0093001008098056
K095358306007
B0954025205462N00541262EA0094201016100056
B0954065205429N00541354EA0094301016108048
B0954105205358N00541366EA0095601024110052
B0954145205308N00541295EA0097501048111048
B0954185205308N00541200EA0098801064106048
K095418308005
B0954225205366N00541154EA0100101080106060
B0954265205408N00541216EA0101501088099056
B0954305205395N00541325EA0101501088109052
B0954345205354N00541433EA0101901096118056
B0954385205320N00541554EA0102301104129052
K095438180009
B0954425205283N00541679EA0102501096131052
B0954465205245N00541800EA0102801104127076
B0954505205212N00541920EA0102501104130064
B0954545205179N00542045EA0102001096128048
B0954585205145N00542179EA0101501088132064
K095458180004
B0955025205112N00542308EA0101101088133076
B0955065205079N00542445EA0101001080133064
B0955105205037N00542570EA0100701080133064
B0955145204995N00542695EA0100701080133072
B0955185204945N00542820EA0100601080132064
K095518180007
B0955225204900N00542937EA0100401080132064
B0955265204850N00543058EA0100101072134064
B0955305204804N00543175EA0100001080127064
B0955345204754N00543291EA0099601072128048
B0955385204708N00543412EA0099301064132056
K095538180007
B0955425204658N00543529EA0099001064130060
B0955465204608N00543641EA0099001064128056
B0955505204562N00543758EA0098601064127060
B0955545204516N00543875EA0098401056129060
B0955585204466N00543995EA0098201056129060
K095558180008
B0956025204416N00544108EA0098101056129060
B0956065204370N00544220EA0097901056127060
B0956105204320N00544329EA0097401048126060
B0956145204270N00544441EA0096501040130060
B0956185204225N00544562EA0096101032132060
K095618180006
B0956225204175N00544679EA0095201024134056
B0956265204125N00544800EA0094901024134056
B0956305204075N00544920EA0094401016133076
B0956345204025N00545041EA0094001016132064
B0956385203979N00545158EA0094001016129048
K095638180008
B0956425203929N00545275EA0093301008130064
B0956465203879N00545395EA0092201000136060
B0956505203829N00545520EA0091300992139056
B0956545203783N00545654EA0090400976140076
B0956585203733N00545787EA0089600968139068
K095658180010
B0957025203683N00545916EA0089200960139068
B0957065203633N00546045EA0088700960138072
B0957105203579N00546170EA0088500960137064
B0957145203525N00546291EA0088200952137064
B0957185203470N00546412EA0087700952138064
K095718180011
B0957225203416N00546533EA0087200944138064
B0957265203358N00546654EA0086500936138064
B0957305203300N00546770EA0085900928139064
B0957345203241N00546891EA0085100920142064
B0957385203179N00547012EA0084600912142064
K095738180011
B0957425203116N00547125EA0084600920136064
B0957465203058N00547241EA0084600920133064
B0957505203000N00547354EA0083800912136052
B0957545202941N00547466EA0083200904138056
B0957585202879N00547579EA0082800896140076
K095758180010
B0958025202820N00547695EA0082300896138064
B0958065202762N00547808EA0082300896135064
B0958105202708N00547925EA0081800888134072
B0958145202650N00548041EA0081300888133052
B0958185202595N00548154EA0080900880137056
K095818180009
B0958225202541N00548270EA0080200872135060
B0958265202487N00548383EA0079800872133056
B0958305202433N00548495EA0078900864135060
B0958345202379N00548612EA0078000848142060
B0958385202325N00548733EA0077400848140076
K095838180006
B0958425202275N00548854EA0077300848135068
B0958465202225N00548975EA0076900840136052
B0958505202179N00549095EA0076400840136064
B0958545202129N00549220EA0076000832136060
B0958585202079N00549337EA0075500824135056
K095858180008
B0959025202025N00549454EA0075000824135076
B0959065201970N00549566EA0074800816133068
B0959105201920N00549683EA0074700816131064
B0959145201870N00549795EA0075500832124072
B0959185201825N00549908EA0076400840116064
K095918180012
B0959225201783N00550012EA0076100840116064
B0959265201737N00550125EA0074800824128064
B0959305201691N00550245EA0074700824125064
B0959345201650N00550358EA0074700824123048
B0959385201608N00550470EA0074800824119056
K095938180010
B0959425201562N00550579EA0073800816122060
B0959465201508N00550687EA0072900800134056
B0959505201454N00550804EA0072000792134056
B0959545201400N00550920EA0071500792135056
B0959585201345N00551033EA0070800784136076
K095958180009
B1000025201287N00551145EA0070600776139064
B1000065201233N00551250EA0070600776130064
B1000105201179N00551358EA0069900768133072
B1000145201129N00551466EA0068900768133064
B1000185201079N00551579EA0068800760133064
K100018180004
B1000225201029N00551687EA0068800760128068
B1000265200979N00551791EA0068400760124064
B1000305200929N00551904EA0067500744131052
B1000345200879N00552020EA0066800736135060
B1000385200829N00552141EA0066900744136076
K100038180007
B1000425200783N00552250EA0068900752123064
B1000465200745N00552345EA0070900784097048
B1000505200716N00552437EA0071000784101064
B1000545200683N00552541EA0069800776113060
B1000585200645N00552654EA0069700768117056
K100058180007
B1001025200612N00552762EA0069200768113072
B1001065200575N00552870EA0068100752117064
B1001105200525N00552966EA0067600752118048
B1001145200454N00553025EA0066600744123060
B1001185200375N00553041EA0065700728126076
K100118180007
B1001225200295N00553041EA0065300728125064
B1001265200216N00553050EA0065000720125064
B1001305200141N00553062EA0065000720124072
B1001345200062N00553079EA0065300728125072
B1001385159991N00553100EA0066400736115068
K100138180003
B1001425159920N00553116EA0067200744113052
B1001465159854N00553104EA0068200760112064
B1001505159808N00553033EA0069500768102060
B1001545159800N00552929EA0069700768113056
B1001585159845N00552854EA0069900776109052
K100158180000
B1002025159912N00552866EA0070000776103056
B1002065159962N00552945EA0069900776105056
B1002105159975N00553054EA0069900776104056
B1002145159954N00553162EA0070400776106056
B1002185159912N00553245EA0071200792107056
K100218180000
B1002225159850N00553283EA0072600800104056
B1002265159791N00553279EA0073300808108056
B1002305159758N00553195EA0073400808110056
B1002345159787N00553104EA0074600816107056
B1002385159850N00553091EA0075100832107052
K100238252008
B1002425159900N00553166EA0076200832107056
B1002465159895N00553275EA0076900848109048
B1002505159837N00553329EA0077400848115048
B1002545159787N00553262EA0078300856115076
B1002585159795N00553158EA0079800872109064
K100258222006
B1003025159858N00553120EA0080000872111088
B1003065159916N00553183EA0080700880109080
B1003105159920N00553295EA0082400904105072
B1003145159870N00553362EA0082900904107080
B1003185159812N00553333EA0083900920106052
K100318242006
B1003225159804N00553233EA0084700920109064
B1003265159845N00553162EA0085700936103060
B1003305159908N00553166EA0086800944100056
B1003345159950N00553250EA0087400952103052
B1003385159962N00553358EA0088400960100056
K100338226007
B1003425159929N00553450EA0089100968099032
B1003465159870N00553475EA0089300968105040
B1003505159820N00553420EA0090200976106044
B1003545159812N00553320EA0091100984108040
B1003585159862N00553258EA0091800992107060
K100358252007
B1004025159920N00553283EA0092701000101052
B1004065159954N00553375EA0093401008101052
B1004105159941N00553475EA0094201016098056
B1004145159887N00553520EA0094201016101048
B1004185159825N00553487EA0095101024104048
K100418244007
B1004225159795N00553408EA0096101032105048
B1004265159837N00553329EA0096401040104048
B1004305159895N00553337EA0097501056100052
B1004345159933N00553425EA0097801056101048
B1004385159920N00553533EA0098801064096052
K100438248007
B1004425159870N00553595EA0098901064103052
B1004465159808N00553587EA0099201072098052
B1004505159770N00553508EA0100101072106052
B1004545159787N00553416EA0101101088104048
B1004585159845N00553379EA0101401088106048
K100458280008
B1005025159904N00553433EA0102801104101036
B1005065159920N00553533EA0103301112097040
B1005105159883N00553616EA0103301112106044
B1005145159816N00553629EA0104301120099040
B1005185159758N00553608EA0104901128098060
K100518274006
B1005225159695N00553587EA0106201136095052
B1005265159637N00553566EA0107501152094032
B1005305159583N00553545EA0108501160094048
B1005345159520N00553529EA0107501152106040
B1005385159454N00553512EA0106701144116036
K100538180000
B1005425159375N00553495EA0105601136123060
B1005465159295N00553479EA0105001128125048
B1005505159216N00553454EA0104701120129060
B1005545159137N00553429EA0104501120124060
B1005585159062N00553400EA0103801120123076
K100558000001
B1006025158987N00553375EA0103501112124068
B1006065158908N00553345EA0101801104125064
B1006105158825N00553312EA0099301064143072
B1006145158733N00553279EA0097701048156080
B1006185158637N00553245EA0097301048152072
K100618000002
B1006225158545N00553216EA0097301048147064
B1006265158458N00553191EA0097801048138072
B1006305158379N00553170EA0098201056127076
B1006345158300N00553145EA0096801040137072
B1006385158216N00553116EA0095801032139068
K100638000004
B1006425158129N00553091EA0094601024144072
B1006465158045N00553066EA0095401032139084
B1006505157970N00553050EA0096101040125076
B1006545157887N00553029EA0094601024140064
B1006585157804N00553008EA0094101016139072
K100658000005
B1007025157720N00552975EA0093801016137068
B1007065157637N00552937EA0093801016133064
B1007105157558N00552920EA0094001016124068
B1007145157479N00552912EA0094301016121068
B1007185157408N00552916EA0094601024116052
K100718180002
B1007225157329N00552920EA0093201008128060
B1007265157241N00552920EA0090900984140120
B1007305157150N00552900EA0089400968148128
B1007345157054N00552879EA0088500960150072
B1007385156958N00552850EA0088700960147100
K100738180003
B1007425156870N00552825EA0089500968135076
B1007465156783N00552800EA0089400968134072
B1007505156695N00552770EA0089100968135072
B1007545156612N00552741EA0089000968134072
B1007585156525N00552712EA0088800960134068
K100758180005
B1008025156445N00552670EA0088800968130072
B1008065156366N00552637EA0088200960132068
B1008105156283N00552608EA0087400952135068
B1008145156204N00552583EA0086900944135064
B1008185156120N00552562EA0086400936136064
K100818180000
B1008225156037N00552545EA0086800944129068
B1008265155962N00552529EA0087500952123064
B1008305155887N00552520EA0087700952117056
B1008345155812N00552508EA0086500944123064
B1008385155733N00552500EA0085900936130076
K100838000002
B1008425155650N00552495EA0086000936130064
B1008465155575N00552491EA0087800952117068
B1008505155512N00552487EA0088700968102072
B1008545155445N00552483EA0087400952107052
B1008585155375N00552475EA0086000936123060
K100858000004
B1009025155300N00552458EA0085300928125076
B1009065155225N00552445EA0084700928121064
B1009105155150N00552425EA0084200920124064
B1009145155075N00552400EA0084200920120072
B1009185155004N00552379EA0084200920118068
K100918000003
B1009225154933N00552358EA0084200920117064
B1009265154858N00552337EA0084200912121072
B1009305154783N00552320EA0083700912121072
B1009345154704N00552312EA0083700912118052
B1009385154633N00552300EA0083700912115064
K100938180002
B1009425154558N00552283EA0083500912116060
B1009465154479N00552258EA0083600912121056
B1009505154404N00552233EA0085500928111056
B1009545154337N00552216EA0087800960097056
B1009585154283N00552195EA0088900968091040
K100958180005
B1010025154225N00552179EA0089300968092048
B1010065154166N00552166EA0089300968096060
B1010105154104N00552150EA0089200968102048
B1010145154041N00552133EA0089500976098048
B1010185153979N00552108EA0090600976105056
K101018180000
B1010225153925N00552087EA0091800992093052
B1010265153866N00552062EA0091800992094048
B1010305153804N00552041EA0091801000106048
B1010345153745N00552020EA0092101000103048
B1010385153679N00552000EA0091900992110048
K101038000004
B1010425153604N00551987EA0090800984121048
B1010465153525N00551979EA0089900976130052
B1010505153445N00551979EA0088800968132048
B1010545153358N00551979EA0087200952137076
B1010585153270N00551983EA0085600928144064
K101058000002
B1011025153179N00551987EA0085000920145068
B1011065153087N00551991EA0084600920143072
B1011105152995N00551995EA0084500920141068
B1011145152912N00552000EA0084500920135068
B1011185152829N00552004EA0084800928130072
K101118180001
B1011225152750N00552008EA0085400928125072
B1011265152675N00552008EA0085400936116052
B1011305152600N00552008EA0084900920122064
B1011345152520N00552004EA0084300920125060
B1011385152441N00552004EA0084500920123056
K101138180002
B1011425152362N00552004EA0087000936114076
B1011465152304N00552004EA0088900968086068
B1011505152245N00552008EA0089100968094048
B1011545152175N00552016EA0088400960102064
B1011585152104N00552020EA0088200960107048
K101158180005
B1012025152029N00552029EA0087500952114048
B1012065151954N00552033EA0086700944118072
B1012105151879N00552033EA0087800952118060
B1012145151816N00552041EA0089000968106064
B1012185151754N00552058EA0089600976098068
K101218180001
B1012225151691N00552091EA0089500968107048
B1012265151625N00552129EA0090200976109056
B1012305151562N00552162EA0090900984103060
B1012345151500N00552195EA0091500992105056
B1012385151437N00552229EA0093301008097048
K101238180003
B1012425151379N00552262EA0095101024092056
B1012465151325N00552295EA0095201032094036
B1012505151262N00552333EA0095201032103040
B1012545151195N00552375EA0095601032104056
B1012585151133N00552420EA0094701024110048
K101258180003
B1013025151062N00552475EA0092601000125072
B1013065150987N00552533EA0091100984135064
B1013105150908N00552595EA0090300976137068
B1013145150829N00552658EA0089900968139072
B1013185150750N00552716EA0089600968137072
K101318180001
B1013225150670N00552775EA0089400968135072
B1013265150591N00552829EA0089100960135064
B1013305150516N00552887EA0089100960136068
B1013345150441N00552945EA0089300968126072
B1013385150375N00553004EA0089400968121068
K101338180002
B1013425150304N00553058EA0087900952123068
B1013465150229N00553116EA0086900944128072
B1013505150158N00553179EA0086300936131064
B1013545150083N00553245EA0086100936131064
B1013585150008N00553308EA0085800928130048
K101358180003
B1014025149937N00553375EA0085300928132056
B1014065149866N00553445EA0084600920129076
B1014105149791N00553516EA0083800912132064
B1014145149720N00553591EA0083800912130064
B1014185149650N00553670EA0084700920122072
K101418180008
B1014225149587N00553745EA0085400928117052
B1014265149525N00553825EA0086600944115056
B1014305149470N00553904EA0089000960103056
B1014345149408N00553933EA0089100968105056
B1014385149350N00553875EA0089100968108056
K101438180010
B1014425149329N00553770EA0089100968109056
B1014465149345N00553679EA0089500968096052
B1014505149395N00553625EA0087700960105056
B1014545149462N00553625EA0087200944112056
B1014585149520N00553679EA0087800960112056
K101458180010
B1015025149575N00553741EA0089300968105056
B1015065149616N00553812EA0090000976100056
B1015105149633N00553920EA0089600968114052
B1015145149595N00554016EA0091800992106056
B1015185149533N00554016EA0092200992113056
K101518318002
B1015225149512N00553916EA0093001000114056
B1015265149554N00553845EA0095101032104056
B1015305149612N00553875EA0095401032106056
B1015345149629N00553975EA0096901048097048
B1015385149604N00554070EA0098301056097052
K101538270007
B1015425149545N00554104EA0098501064104052
B1015465149495N00554045EA0099701072104048
B1015505149508N00553954EA0100601080104048
B1015545149566N00553920EA0101601096108048
B1015585149608N00553995EA0102901104102052
K101558280008
B1016025149595N00554100EA0104301120102048
B1016065149541N00554154EA0105201128102052
B1016105149483N00554116EA0105201128108052
B1016145149475N00554016EA0106201136110048
B1016185149529N00553954EA0107101144119048
K101618274008
B1016225149587N00554004EA0109201168105052
B1016265149595N00554112EA0109801176108048
B1016305149545N00554195EA0110701184107052
B1016345149487N00554262EA0110501184116052
B1016385149420N00554320EA0110101176123048
K101638270008
B1016425149354N00554387EA0109601168123048
B1016465149279N00554445EA0110301176124056
B1016505149208N00554491EA0110901184119052
B1016545149137N00554525EA0111601192115060
B1016585149062N00554550EA0111901192120056
K101658180010
B1017025148987N00554570EA0113501208114060
B1017065148916N00554587EA0114101216111060
B1017105148841N00554604EA0113901216114060
B1017145148762N00554625EA0113501208124060
B1017185148683N00554645EA0113401208122056
K101718180003
B1017225148600N00554662EA0112601200126056
B1017265148520N00554683EA0111601192130060
B1017305148433N00554700EA0110701184130056
B1017345148350N00554720EA0110401184130056
B1017385148266N00554737EA0110301176128056
K101738180004
B1017425148179N00554758EA0110101176129060
B1017465148095N00554775EA0110101176126056
B1017505148016N00554795EA0110101176126056
B1017545147933N00554804EA0109601168130056
B1017585147845N00554816EA0109501168127056
K101758180003
B1018025147762N00554829EA0109501168126056
B1018065147679N00554850EA0108901168127056
B1018105147600N00554879EA0108701160126056
B1018145147516N00554920EA0108401160125060
B1018185147445N00554966EA0110001176109056
K101818180009
B1018225147375N00555016EA0110301184110060
B1018265147304N00555070EA0110301176118060
B1018305147241N00555137EA0110401184112052
B1018345147175N00555204EA0108901176120056
B1018385147100N00555283EA0106601144139056
K101838180003
B1018425147020N00555370EA0105301128147056
B1018465146941N00555458EA0105201128143076
B1018505146862N00555545EA0104301120144064
B1018545146779N00555629EA0103701112146068
B1018585146695N00555708EA0103201104149072
K101858180006
B1019025146612N00555791EA0103201104145068
B1019065146537N00555866EA0103501112135068
B1019105146462N00555937EA0103501112132072
B1019145146391N00556016EA0103201104130072
B1019185146320N00556087EA0102401096130064
K101918180005
B1019225146245N00556158EA0102001096131068
B1019265146175N00556233EA0101601088128048
B1019305146104N00556308EA0101301088130056
B1019345146033N00556379EA0100601080131060
B1019385145962N00556454EA0099801072131056
K101938180003
B1019425145887N00556525EA0098701056143076
B1019465145808N00556600EA0098601056138068
B1019505145737N00556666EA0099801072124072
B1019545145666N00556737EA0099601072126072
B1019585145600N00556812EA0098901064131072
K101958180002
B1020025145529N00556895EA0098201056134072
B1020065145458N00556983EA0097001048135064
B1020105145387N00557083EA0096501040142068
B1020145145320N00557179EA0097001040134068
B1020185145258N00557275EA0097301048131064
K102018180005
B1020225145195N00557362EA0097301048128072
B1020265145133N00557450EA0097801056126072
B1020305145070N00557537EA0098601064124064
B1020345145008N00557616EA0099101072118068
B1020385144937N00557675EA0099001064119048
K102038180007
B1020425144858N00557716EA0099701072123056
B1020465144779N00557750EA0100701088118056
B1020505144700N00557783EA0100501080118052
B1020545144620N00557812EA0098701064130060
B1020585144533N00557837EA0097701048136056
K102058180006
B1021025144441N00557854EA0097001040139072
B1021065144354N00557875EA0096901040137064
B1021105144266N00557900EA0096501040137068
B1021145144183N00557929EA0096501040133072
B1021185144095N00557954EA0095801032134048
K102118180003
B1021225144008N00557979EA0095101024136056
B1021265143920N00558004EA0094601024137076
B1021305143837N00558025EA0093801016135064
B1021345143750N00558050EA0093101008135048
B1021385143662N00558070EA0092501000137064
K102138180004
B1021425143570N00558095EA0092000992138076
B1021465143483N00558120EA0091800992137064
B1021505143400N00558145EA0091500992131068
B1021545143316N00558166EA0091300984132072
B1021585143229N00558179EA0090600984132064
K102158180005
B1022025143145N00558187EA0090100976131064
B1022065143058N00558187EA0089900976130048
B1022105142975N00558179EA0089100968131056
B1022145142887N00558166EA0088600960134060
B1022185142804N00558150EA0088500960133056
K102218180005
B1022225142720N00558137EA0088500960130076
B1022265142637N00558120EA0087800952133068
B1022305142550N00558095EA0086900944133064
B1022345142466N00558062EA0086500936135072
B1022385142383N00558029EA0085900936134064
K102238180003
B1022425142300N00558000EA0085200928134064
B1022465142212N00557970EA0084600920133064
B1022505142125N00557950EA0084100912133064
B1022545142037N00557920EA0083300912135064
B1022585141950N00557891EA0082800904137064
K102258180006
B1023025141866N00557862EA0082900904135068
B1023065141783N00557837EA0083300912126064
B1023105141704N00557816EA0083300912122076
B1023145141620N00557791EA0082800904126072
B1023185141537N00557762EA0082900904126072
K102318180008
B1023225141458N00557741EA0083800912118072
B1023265141387N00557725EA0084700928110072
B1023305141312N00557712EA0084700928109072
B1023345141237N00557708EA0084700928115048
B1023385141158N00557716EA0085200936115060
K102338180008
B1023425141087N00557733EA0085900936112060
B1023465141016N00557720EA0086500944113056
B1023505140958N00557650EA0087300952110060
B1023545140945N00557545EA0088100960103060
B1023585140983N00557466EA0088200960103056
K102358180006
B1024025141045N00557450EA0087600952108056
B1024065141104N00557500EA0087500952111056
B1024105141150N00557570EA0088100960108056
B1024145141175N00557650EA0088400960102060
B1024185141162N00557750EA0088400960103056
K102418180006
B1024225141112N00557812EA0089200968103056
B1024265141045N00557812EA0089200968108056
B1024305140979N00557770EA0089000968112056
B1024345140912N00557733EA0089000968107056
B1024385140845N00557691EA0088800968112056
K102438180006
B1024425140779N00557654EA0089500976107056
B1024465140712N00557612EA0090200984110056
B1024505140645N00557579EA0091300992103056
B1024545140579N00557554EA0091600992100056
B1024585140512N00557529EA0091801000102056
K102458180006
B1025025140445N00557504EA0092401008097052
B1025065140383N00557483EA0093301008102056
B1025105140320N00557437EA0094201016104052
B1025145140308N00557341EA0094501024104052
B1025185140341N00557262EA0095601032105048
K102518180006
B1025225140395N00557250EA0096401040094048
B1025265140437N00557320EA0095501024112052
B1025305140429N00557433EA0096901040111048
B1025345140370N00557475EA0097901056106056
B1025385140308N00557420EA0098601064106056
K102538002006
B1025425140300N00557320EA0099601072108060
B1025465140337N00557245EA0100201080106056
B1025505140395N00557250EA0100001080099052
B1025545140441N00557325EA0099801072115056
B1025585140441N00557433EA0101901096107052
K102558334006
B1026025140416N00557529EA0102501104100052
B1026065140354N00557570EA0102901112107060
B1026105140291N00557529EA0103801120104056
B1026145140270N00557425EA0103801112107048
B1026185140312N00557341EA0104901128106056
K102618006007
B1026225140375N00557345EA0105601128114056
B1026265140404N00557437EA0107901152103052
B1026305140375N00557520EA0108601168099056
B1026345140316N00557579EA0108901168105056
B1026385140254N00557633EA0109501176109056
K102638014007
B1026425140191N00557687EA0109501176109056
B1026465140129N00557741EA0108501160112056
B1026505140062N00557795EA0107001152124056
B1026545139983N00557854EA0106501136126072
B1026585139904N00557912EA0106301136131064
K102658180006
B1027025139833N00557970EA0109901176113068
B1027065139779N00558020EA0111501192097072
B1027105139716N00558070EA0109701184111052
B1027145139641N00558129EA0107301144137060
B1027185139558N00558191EA0105601136144068
K102718000001
B1027225139470N00558266EA0105301128147060
B1027265139387N00558337EA0105501136140072
B1027305139308N00558400EA0106301144129072
B1027345139237N00558462EA0107201152121056
B1027385139166N00558520EA0107401152117064
K102738180008
B1027425139095N00558579EA0106901144121060
B1027465139020N00558645EA0105701136132056
B1027505138941N00558716EA0105201128134076
B1027545138858N00558783EA0104401120138068
B1027585138775N00558854EA0104101112140064
K102758180007
B1028025138691N00558920EA0103301104141072
B1028065138604N00558987EA0102801104141068
B1028105138512N00559045EA0102001096148064
B1028145138420N00559108EA0101601088148068
B1028185138329N00559166EA0101401088147068
K102818180008
B1028225138245N00559229EA0101501096141072
B1028265138158N00559287EA0101901096135072
B1028305138075N00559341EA0101901096131072
B1028345137991N00559391EA0101301088134072
B1028385137908N00559441EA0101101088136048
K102838180009
B1028425137820N00559491EA0101101088136060
B1028465137737N00559537EA0101001088132076
B1028505137654N00559579EA0100601080133064
B1028545137575N00559629EA0100001072135064
B1028585137495N00559700EA0099201072133072
K102858180008
B1029025137416N00559770EA0098301056139064
B1029065137333N00559841EA0097701048141064
B1029105137258N00559929EA0097201040143064
B1029145137191N00600037EA0096801040144064
B1029185137133N00600154EA0096501040142064
K102918180007
B1029225137075N00600270EA0096401040141064
B1029265137020N00600387EA0096501040136068
B1029305136966N00600491EA0097301048127064
B1029345136916N00600595EA0096801040124068
B1029385136866N00600708EA0094901024134068
K102938180005
B1029425136816N00600833EA0094601016143080
B1029465136770N00600950EA0097001040124072
B1029505136725N00601058EA0097701056112064
B1029545136683N00601166EA0096401040122072
B1029585136637N00601287EA0094701024137052
K102958180006
B1030025136591N00601412EA0094201016137056
B1030065136541N00601533EA0094201016134076
B1030105136491N00601650EA0094101016132064
B1030145136441N00601766EA0094001016131068
B1030185136395N00601879EA0093401008131072
K103018180007
B1030225136354N00602000EA0093101008132068
B1030265136312N00602116EA0092801000130068
B1030305136270N00602233EA0091900992135064
B1030345136229N00602345EA0092401000125064
B1030385136191N00602458EA0092401000120052
K103038180005
B1030425136150N00602566EA0091900992125056
B1030465136112N00602683EA0091500992130060
B1030505136070N00602795EA0092301000129056
B1030545136033N00602895EA0092701008115072
B1030585135995N00603000EA0091701000121064
K103058180000
B1031025135954N00603112EA0090600984132064
B1031065135908N00603233EA0090600976131068
B1031105135870N00603350EA0089900976132064
B1031145135829N00603470EA0089600968129064
B1031185135791N00603595EA0088700968132052
K103118180003
B1031225135758N00603720EA0088100960135056
B1031265135725N00603845EA0087800952133076
B1031305135700N00603975EA0087400952132064
B1031345135675N00604100EA0087200944131068
B1031385135654N00604229EA0087200952127072
K103138180002
B1031425135633N00604350EA0087200952119048
B1031465135612N00604470EA0086000944125056
B1031505135591N00604600EA0085100928132076
B1031545135570N00604733EA0084900928133064
B1031585135554N00604866EA0085400928131072
K103158180002
B1032025135537N00604983EA0086800944111072
B1032065135529N00605091EA0087300952103072
B1032105135520N00605200EA0087400952110072
B1032145135508N00605312EA0087800960111048
B1032185135525N00605425EA0088000960114060
K103218180003
B1032225135570N00605512EA0087800960110072
B1032265135595N00605612EA0088100960104060
B1032305135575N00605720EA0086800944117064
B1032345135512N00605808EA0086300944123068
B1032385135445N00605879EA0086300944124064
K103238180003
B1032425135375N00605945EA0085900936122064
B1032465135308N00606012EA0085400936124064
B1032505135241N00606079EA0085100928121064
B1032545135175N00606145EA0084500920119076
B1032585135112N00606216EA0083200912124072
K103258180002
B1033025135045N00606295EA0083000904132084
B1033065134991N00606379EA0085600928108080
B1033105134954N00606450EA0087000952095048
B1033145134920N00606533EA0086000944102064
B1033185134883N00606625EA0085200928107060
K103318180000
B1033225134841N00606720EA0084700928121056
B1033265134808N00606825EA0086000936113072
B1033305134833N00606920EA0086100944112064
B1033345134895N00606950EA0086400944111068
B1033385134950N00606891EA0086000936118072
K103338180001
B1033425134945N00606783EA0085000928122072
B1033465134891N00606716EA0084600928115072
B1033505134816N00606733EA0084100920112068
B1033545134754N00606795EA0084500920111072
B1033585134720N00606891EA0085500936109064
K103358326007
B1034025134729N00606995EA0086000936109064
B1034065134775N00607070EA0085900936107064
B1034105134837N00607066EA0085800936111064
B1034145134870N00606987EA0086300944102068
B1034185134858N00606895EA0086100936104064
K103418330006
B1034225134795N00606845EA0085000928114064
B1034265134720N00606866EA0085000928113064
B1034305134662N00606929EA0085200928117068
B1034345134620N00607025EA0085500936114064
B1034385134583N00607120EA0085500936113064
K103438322005
B1034425134541N00607220EA0084500920116064
B1034465134495N00607325EA0083400912123064
B1034505134450N00607429EA0082800904124064
B1034545134404N00607533EA0082800904120068
B1034585134358N00607637EA0082800904118064
K103458180006
B1035025134312N00607737EA0082400904119056
B1035065134266N00607845EA0081400896128064
B1035105134216N00607958EA0080900888132056
B1035145134166N00608070EA0080400880131056
B1035185134120N00608187EA0079300880136060
K103518180003
B1035225134079N00608312EA0078800864139056
B1035265134041N00608441EA0078300864141076
B1035305134000N00608575EA0077300848150068
B1035345133958N00608708EA0077900864142088
B1035385133916N00608829EA0078900872134080
K103538180004
B1035425133875N00608945EA0079200872129064
B1035465133829N00609058EA0079300880127076
B1035505133791N00609166EA0079300880125068
B1035545133745N00609270EA0079000872127064
B1035585133704N00609383EA0078700864130048
K103558180000
B1036025133666N00609491EA0078100864128056
B1036065133629N00609608EA0077300856136072
B1036105133587N00609725EA0076500848137060
B1036145133550N00609841EA0076700848132104
B1036185133516N00609950EA0077300856125088
K103618000001
B1036225133483N00610062EA0077000856121072
B1036265133454N00610179EA0075900840128088
B1036305133425N00610304EA0075300832131064
B1036345133395N00610425EA0075300840124068
B1036385133366N00610541EA0075300840118076
K103638180004
B1036425133345N00610658EA0075100832116072
B1036465133333N00610779EA0074800824119064
B1036505133320N00610908EA0074400824118072
B1036545133308N00611029EA0074800832112052
B1036585133295N00611141EA0074600832107056
K103658180009
B1037025133250N00611233EA0072900816119056
B1037065133183N00611304EA0071000792125056
B1037105133108N00611358EA0069900776133076
B1037145133033N00611404EA0069500776127064
B1037185132958N00611445EA0068900776126072
K103718180009
B1037225132883N00611487EA0068500768127072
B1037265132808N00611533EA0068400768127076
B1037305132741N00611575EA0070000784108072
B1037345132683N00611616EA0070400792097072
B1037385132629N00611654EA0070400792099072
K103738180002
B1037425132566N00611700EA0070400792102056
B1037465132508N00611745EA0071500800100064
B1037505132454N00611804EA0072200808098052
B1037545132433N00611904EA0072300808108056
B1037585132479N00611979EA0073100808110052
K103758180005
B1038025132541N00611958EA0074000824103052
B1038065132562N00611862EA0074400824102060
B1038105132529N00611770EA0074400824107056
B1038145132462N00611754EA0075600840102052
B1038185132420N00611841EA0075800840111056
K103818038003
B1038225132441N00611945EA0076500848106056
B1038265132500N00611970EA0077900864102056
B1038305132537N00611887EA0077900856114056
B1038345132500N00611795EA0077800856111056
B1038385132429N00611808EA0079200872101076
K103838338006
B1038425132404N00611904EA0079800880107064
B1038465132454N00611975EA0080200880109048
B1038505132516N00611945EA0081100896105064
B1038545132554N00611862EA0082100904101052
B1038585132537N00611754EA0081500896113048
K103858020005
B1039025132470N00611733EA0082500904106072
B1039065132420N00611804EA0083400920100064
B1039105132433N00611904EA0083800920107048
B1039145132491N00611937EA0084700928107060
B1039185132525N00611845EA0084900928107056
K103918002007
B1039225132491N00611758EA0085200936103052
B1039265132425N00611745EA0085400936103056
B1039305132366N00611800EA0086100944097056
B1039345132345N00611900EA0086100944105060
B1039385132387N00611979EA0086500944112056
K103938354009
B1039425132441N00611929EA0087700952107056
B1039465132416N00611837EA0089100968103056
B1039505132350N00611845EA0089800976103056
B1039545132329N00611945EA0090900992100056
B1039585132370N00612012EA0090900992103056
K103958320006
B1040025132429N00611979EA0091500992108056
B1040065132433N00611883EA0093201016095052
B1040105132387N00611820EA0093801016096056
B1040145132320N00611845EA0093801016100056
B1040185132295N00611941EA0093801016105056
K104018006007
B1040225132337N00612020EA0094701024102052
B1040265132395N00612004EA0095101032099056
B1040305132420N00611916EA0095601040103056
B1040345132391N00611829EA0096401048101056
B1040385132325N00611820EA0096801048101052
K104038342006
B1040425132254N00611858EA0096501048109056
B1040465132183N00611895EA0097001056110056
B1040505132116N00611937EA0097001056110056
B1040545132045N00611979EA0095801048117056
B1040585131975N00612045EA0093801024129056
K104058180005
B1041025131904N00612129EA0093701016132076
B1041065131841N00612220EA0093701016127064
B1041105131783N00612308EA0093501016127060
B1041145131720N00612395EA0093501016124068
B1041185131654N00612475EA0092701008126060
K104118180004
B1041225131583N00612550EA0092001000129060
B1041265131512N00612629EA0091700992130076
B1041305131441N00612704EA0091300992129068
B1041345131366N00612779EA0091000992130072
B1041385131295N00612854EA0090900984129072
K104138180007
B1041425131225N00612920EA0091801000120064
B1041465131158N00612970EA0091801000111068
B1041505131087N00613016EA0090000984124064
B1041545131004N00613045EA0088600968135064
B1041585130912N00613066EA0088200960139068
K104158180003
B1042025130825N00613091EA0088800960132064
B1042065130741N00613112EA0089200976120072
B1042105130662N00613125EA0088500960124072
B1042145130579N00613133EA0087600952129064
B1042185130495N00613133EA0086900952132068
K104218180002
B1042225130412N00613125EA0087000952124064
B1042265130333N00613112EA0086500944128064
B1042305130250N00613091EA0085800936128072
B1042345130170N00613070EA0085800936125068
B1042385130091N00613045EA0086300944120064
K104238180005
B1042425130016N00613020EA0086300944125068
B1042465129941N00612987EA0087200952115052
B1042505129875N00612954EA0087200952114056
B1042545129804N00612925EA0086000936120060
B1042585129729N00612895EA0085600936122056
K104258180000
B1043025129650N00612866EA0085000928123076
B1043065129575N00612837EA0084100920129068
B1043105129495N00612808EA0083500912129068
B1043145129416N00612779EA0083100912129072
B1043185129341N00612741EA0082800904126064
K104318180000
B1043225129266N00612700EA0082800904120064
B1043265129187N00612670EA0082300904125064
B1043305129108N00612662EA0082000904123064
B1043345129025N00612658EA0082000904124056
B1043385128945N00612654EA0082700904127060
K104338180005
B1043425128875N00612662EA0085000928105076
B1043465128812N00612675EA0085400936096064
B1043505128745N00612687EA0085000928107048
B1043545128675N00612695EA0084600928112064
B1043585128604N00612700EA0084500928111068
K104358180002
B1044025128533N00612712EA0083500920114056
B1044065128454N00612720EA0081800904124064
B1044105128366N00612729EA0081400888137064
B1044145128283N00612737EA0084500928110068
B1044185128220N00612737EA0085200936097064
K104418180007
B1044225128154N00612741EA0084600928103052
B1044265128083N00612745EA0083700912116060
B1044305128004N00612745EA0082800904121072
B1044345127925N00612754EA0082200896124064
B1044385127841N00612750EA0081900896124068
K104438180004
B1044425127766N00612741EA0081900896117072
B1044465127687N00612729EA0080900888124064
B1044505127600N00612720EA0081000888132064
B1044545127525N00612720EA0083400912111068
B1044585127462N00612729EA0085000936093064
K104458180008
B1045025127400N00612745EA0085500936094052
B1045065127337N00612758EA0085700936098060
B1045105127279N00612716EA0086100944101048
B1045145127258N00612620EA0086000944101048
B1045185127287N00612537EA0086100944102052
K104518180004
B1045225127345N00612516EA0087200952103048
B1045265127395N00612575EA0088300960100052
B1045305127408N00612670EA0089100968095052
B1045345127375N00612754EA0089100968104048
B1045385127308N00612779EA0089000968102048
K104538332004
B1045425127250N00612729EA0089500976105048
B1045465127233N00612629EA0089500976105048
B1045505127258N00612545EA0090000984104048
B1045545127316N00612516EA0091300992101048
B1045585127366N00612570EA0091801000100056
K104558338004
B1046025127375N00612670EA0091800992106052
B1046065127333N00612754EA0092401008101048
B1046105127275N00612770EA0093001016097052
B1046145127220N00612716EA0092201008109052
B1046185127212N00612612EA0092701008106048
K104618332004
B1046225127241N00612533EA0094201024098052
B1046265127287N00612483EA0094301024103052
B1046305127345N00612500EA0094301024109056
B1046345127383N00612583EA0094801032106056
B1046385127370N00612687EA0095201032104052
K104638336006
B1046425127325N00612762EA0096001040100056
B1046465127262N00612783EA0096101040102060
B1046505127195N00612775EA0096101048101056
B1046545127129N00612754EA0096101040102048
B1046585127066N00612729EA0095601040108056
K104658340007
B1047025127000N00612695EA0095601040114056
B1047065126937N00612654EA0096101040103052
B1047105126870N00612620EA0095601040112052
B1047145126795N00612579EA0094601024118056
B1047185126720N00612545EA0093601016125076
K104718180000
B1047225126645N00612500EA0092801008127064
B1047265126562N00612454EA0092201000132064
B1047305126483N00612412EA0092301008127072
B1047345126408N00612370EA0092201000127068
B1047385126329N00612320EA0091000992136064
K104738180001
B1047425126245N00612270EA0090000984140064
B1047465126166N00612220EA0089900976136064
B1047505126087N00612170EA0089900976131064
B1047545126008N00612120EA0089500976130064
B1047585125929N00612075EA0088600968132048
K104758180001
B1048025125850N00612033EA0088400960134056
B1048065125770N00611987EA0088400960131076
B1048105125695N00611950EA0088400968127064
B1048145125616N00611916EA0087800960126048
B1048185125541N00611875EA0087000952128064
K104818180000
B1048225125462N00611833EA0086300944130076
B1048265125387N00611787EA0085800936130064
B1048305125308N00611745EA0085200928128064
B1048345125229N00611695EA0084600920136072
B1048385125154N00611645EA0086400936122064
K104838180005
B1048425125095N00611612EA0088800968092064
B1048465125037N00611575EA0087800960105060
B1048505124966N00611537EA0087000952115064
B1048545124895N00611504EA0086900952112068
B1048585124825N00611483EA0086100944115064
K104858180002
B1049025124745N00611470EA0085300936124064
B1049065124666N00611495EA0084900928132064
B1049105124595N00611554EA0086100944123072
B1049145124533N00611612EA0087400952108068
B1049185124475N00611670EA0087500952106052
K104918180001
B1049225124408N00611725EA0087200952113064
B1049265124341N00611791EA0088000960109056
B1049305124283N00611854EA0088400968106056
B1049345124225N00611920EA0089300976108060
B1049385124170N00611991EA0090200984103056
K104938180008
B1049425124145N00612091EA0090800984103056
B1049465124162N00612191EA0091100992098056
B1049505124216N00612229EA0090600984100056
B1049545124270N00612179EA0089700976107056
B1049585124270N00612083EA0089400968109056
K104958180008
B1050025124229N00612000EA0089000968113056
B1050065124170N00611941EA0090200984105060
B1050105124116N00611883EA0090700992101056
B1050145124050N00611862EA0091300992104056
B1050185124000N00611937EA0092001000105056
K105018312010
B1050225123970N00612045EA0091300992108056
B1050265123929N00612145EA0090600992110056
B1050305123875N00612229EA0089900976113076
B1050345123812N00612308EA0088100960119064
B1050385123750N00612383EA0088600968119064
K105038180008
B1050425123695N00612458EA0089600976104072
B1050465123645N00612529EA0089900984098056
B1050505123595N00612600EA0089900976104060
B1050545123545N00612675EA0089400976106060
B1050585123495N00612745EA0089100968102056
K105058180005
B1051025123441N00612816EA0088500968105056
B1051065123391N00612891EA0088600968109056
B1051105123345N00612962EA0088900968099060
B1051145123295N00613041EA0088600968102056
B1051185123245N00613112EA0088200960107060
K105118180005
B1051225123183N00613170EA0087700960105060
B1051265123108N00613216EA0086000944115060
B1051305123029N00613245EA0084700928126060
B1051345122941N00613258EA0083700920132076
B1051385122854N00613270EA0083300912133068
K105138180007
B1051425122766N00613275EA0082800912132076
B1051465122679N00613275EA0082300904134076
B1051505122587N00613270EA0081800896133068
B1051545122495N00613266EA0080900888137072
B1051585122404N00613262EA0080000880135068
K105158180009
B1052025122316N00613258EA0079600880135068
B1052065122225N00613254EA0078900872137068
B1052105122133N00613245EA0078600864136068
B1052145122045N00613237EA0078000864135072
B1052185121958N00613233EA0077100856137072
K105218180007
B1052225121870N00613229EA0076500848136072
B1052265121779N00613225EA0075700840136072
B1052305121691N00613225EA0075500832137064
B1052345121604N00613225EA0075500832133068
B1052385121520N00613229EA0075100832132072
K105238180007
B1052425121433N00613233EA0074700824130068
B1052465121350N00613229EA0074400824127068
B1052505121270N00613225EA0073300816132072
B1052545121187N00613225EA0074400824124064
B1052585121112N00613225EA0075700840103064
K105258180009
B1053025121041N00613225EA0075300832113048
B1053065120962N00613225EA0074400824122056
B1053105120879N00613212EA0074100824123060
B1053145120795N00613200EA0073500816124056
B1053185120712N00613187EA0073200816124072
K105318180008
B1053225120637N00613170EA0073500816117064
B1053265120558N00613154EA0073000816115064
B1053305120479N00613133EA0071500800123068
B1053345120395N00613112EA0070400784130064
B1053385120316N00613083EA0070400784125064
K105338180007
B1053425120237N00613058EA0070400784124076
B1053465120154N00613033EA0069900776123072
B1053505120075N00613004EA0069800776123048
B1053545119995N00612979EA0069500776121064
B1053585119920N00612954EA0069200776121076
K105358180007
B1054025119841N00612925EA0068800768122064
B1054065119762N00612904EA0069000768120064
B1054105119683N00612895EA0069400776120072
B1054145119608N00612904EA0070700784115064
B1054185119541N00612920EA0072400800096064
K105418180010
B1054225119483N00612945EA0072800816092048
B1054265119420N00612975EA0072600808106056
B1054305119358N00612958EA0074300816106052
B1054345119325N00612875EA0075500840100048
B1054385119345N00612783EA0075600840103052
K105438180005
B1054425119404N00612745EA0076000840097052
B1054465119462N00612762EA0075500840103056
B1054505119508N00612845EA0075200832108056
B1054545119516N00612945EA0076100848092052
B1054585119491N00613041EA0075700840104056
K105458180005
B1055025119429N00613091EA0076700848104056
B1055065119370N00613066EA0077900864096056
B1055105119337N00612983EA0078400864103040
B1055145119358N00612887EA0080200880108048
B1055185119420N00612879EA0080500888102060
K105518296006
B1055225119466N00612958EA0080700888103048
B1055265119454N00613058EA0082400904098052
B1055305119400N00613104EA0083000912093056
B1055345119337N00613079EA0083800920100036
B1055385119312N00612995EA0085000936096044
K105538290005
B1055425119337N00612904EA0085200936109060
B1055465119400N00612883EA0086100944102048
B1055505119450N00612941EA0086100944098052
B1055545119458N00613050EA0086400944106056
B1055585119420N00613137EA0087800960101060
K105558294006
B1056025119354N00613158EA0088200960102056
B1056065119295N00613104EA0089600976106056
B1056105119300N00613008EA0090600984110056
B1056145119354N00612958EA0091300992102052
B1056185119416N00613004EA0092201000107056
K105618300007
B1056225119450N00613095EA0093801016102052
B1056265119437N00613200EA0093801024101052
B1056305119383N00613270EA0093901024104052
B1056345119316N00613270EA0095201032105052
B1056385119270N00613195EA0095601040100048
K105638294006
B1056425119270N00613095EA0096401040107048
B1056465119320N00613037EA0097901056102052
B1056505119383N00613054EA0098301064101048
B1056545119425N00613133EA0099401072103052
B1056585119420N00613241EA0099701080098052
K105658306005
B1057025119379N00613325EA0099701080103056
B1057065119312N00613362EA0100401088104056
B1057105119245N00613333EA0100901096101056
